S31508000000C00900202D4A00080145000805450008DA
S31508000010094500080D4500081145000800000000C4
S315080000200000000000000000000000001545000860
S3150800003019450008000000001D4500082145000874
S31508000040474A0008474A0008474A0008474A00083E
S31508000050474A0008474A0008474A0008474A00082E
S31508000060474A0008474A0008474A0008474A00081E
S31508000070474A0008474A0008474A0008474A00080E
S31508000080474A0008474A0008474A00082945000821
S31508000090474A00080000000000000000474A000820
S315080000A0474A0008474A0008474A0008474A0008DE
S315080000B0474A0008474A0008474A0008474A0008CE
S315080000C0474A0008474A0008474A0008474A0008BE
S315080000D0474A0008474A0008474A0008474A0008AE
S315080000E0474A0008474A000800000000474A000837
S315080000F0474A0008474A0008474A0008474A00088E
S31508000100474A0008474A0008474A0008474A00087D
S31508000110474A0008474A0008474A0008474A00086D
S31508000120474A0008474A0008474A0008474A00085D
S3150800013000F002F800F062F814A696E8000CB24443
S31508000140B344DA4501D100F059F8BAE80F000FA612
S3150800015096E83000A5EB040504EB0607AAEB0704AE
S31508000160A7F101074FEA15154FEA3414A4F1010463
S31508000170AC4201D300F042F813F0010F18BFFB1A86
S3150800018043F0010300F001F8DBE71847A04C000034
S31508000190C04C00000A4410F8014B14F00F0508BFC4
S315080001A010F8015B240908BF10F8014B6D1E05D035
S315080001B010F8013B6D1E01F8013BF9D1641E03D00E
S315080001C0641E01F8015BFBD19142E4D3704700003D
S315080001D0704700000023002400250026103A28BF97
S315080001E078C1FBD8520728BF30C148BF0B6070479B
S315080001F01FB504F016FD1FBD10B510BD04F0D7FCE1
S315080002001146FFF7F5FF04F0C3F804F0F5FC03B454
S31508000210FFF7F2FF03BC04F0F9FC000080B50420E8
S3150800022000F06EFA072000F005F804F047F9002000
S3150800023080BD00BF80B582B0009040F20000C2F2D7
S315080002400000006840F20C01C2F200010A684FF48F
S315080002507A71B1FBF2F1B0FBF1F000F041FB18B195
S31508000260FFE70120019016E0009807280DD8FFE760
S3150800027000994FF0FF30002200F068FA009840F22B
S315080002801001C2F20001086002E00120019002E0BC
S3150800029000200190FFE7019802B080BD704700BFBB
S315080002A080B582B041F21001C4F202014FF0FF326C
S315080002B00A6000200190086041F20C01C4F20201B4
S315080002C00A60086041F23001C4F202010A6008605F
S315080002D041F22C01C4F202010A60086000F004F839
S315080002E0019802B080BD00BF704700BF40F20C0005
S315080002F0C2F20000026840F2B831C2F20001086892
S3150800030010440860704700BF40F2B830C2F20000DF
S315080003100068704740F21000C2F20000006870479B
S3150800032080B582B001900020009040F20C00C2F225
S31508000330000000680199884213D0FFE740F21000D8
S31508000340C2F200000068FFF775FF0090009838B900
S31508000350FFE7019840F20C01C2F200010860FFE7CE
S31508000360FFE7009802B080BD40F20C00C2F2000020
S315080003700068704780B584B00390FFF7C5FF029008
S31508000380039801900198013048B1FFE740F20C004C
S31508000390C2F200000168019808440190FFE7FFE7F0
S315080003A0FFF7B2FF0299401A0199884201D2FFE786
S315080003B0F6E704B080BD00BF4EF21001CEF2000190
S315080003C0086820F002000860704700BF4EF210016E
S315080003D0CEF20001086840F002000860704700BFCE
S315080003E04FF48070704700BF42F20000CEF204005E
S315080003F00068704742F20000CEF2040000686FF30E
S315080004001F30704745F60000C1F6FF700068704758
S3150800041045F60400C1F6FF700068704745F6080007
S31508000420C1F6FF700068704742F20401CEF204017B
S31508000430086840F001000860704700BF42F20401F6
S31508000440CEF20401086820F001000860704700BF7A
S3150800045042F20401CEF20401086840F00200086086
S31508000460704700BF42F20401CEF20401086820F08A
S3150800047002000860704700BF42F20401CEF2040190
S31508000480086840F004000860704700BF42F20401A3
S31508000490CEF20401086820F004000860704700BF27
S315080004A081B0009042F20401CEF20401086820F0FF
S315080004B0E000009A1043086001B0704742F2040059
S315080004C0CEF20400006800F0E000704781B00090AA
S315080004D00021C4F20101086820F00300009A1043C5
S315080004E0086001B0704700BF0020C4F20100006830
S315080004F000F00300704700BF81B00090009A3821D1
S31508000500C4F2010108681043086001B0704700BFD3
S3150800051081B00090009A3821C4F20101086890431E
S31508000520086001B0704700BF81B00090009A0021B2
S31508000530C4F2010108681043086001B0704700BFA3
S3150800054081B00090009A0021C4F201010868904326
S31508000550086001B0704700BF82B00190ADF8021084
S315080005600198B0F1904F09D1FFE7BDF80220242188
S31508000570C4F2010108681043086048E0019840F297
S315080005800041C4F60001884209D1FFE7BDF8022000
S315080005902821C4F2010108681043086036E0019872
S315080005A040F60001C4F60001884209D1FFE7BDF80C
S315080005B002202C21C4F2010108681043086024E0D7
S315080005C0019840F60041C4F60001884209D1FFE7C8
S315080005D0BDF802203021C4F2010108681043086002
S315080005E012E0019841F20001C4F60001884209D1DF
S315080005F0FFE7BDF802203421C4F201010868104360
S31508000600086000E0FFE7FFE7FFE7FFE7FFE702B064
S31508000610704700BF82B00190ADF802100198B0F1A2
S31508000620904F09D1FFE7BDF802202421C4F2010149
S3150800063008689043086048E0019840F20041C4F613
S315080006400001884209D1FFE7BDF802202821C4F23B
S31508000650010108689043086036E0019840F60001F9
S31508000660C4F60001884209D1FFE7BDF802202C2113
S31508000670C4F2010108689043086024E0019840F636
S315080006800041C4F60001884209D1FFE7BDF80220FF
S315080006903021C4F2010108689043086012E001980D
S315080006A041F20001C4F60001884209D1FFE7BDF80E
S315080006B002203421C4F2010108689043086000E072
S315080006C0FFE7FFE7FFE7FFE7FFE702B0704700BF76
S315080006D081B00090009A40F27C11C4F201010868CA
S315080006E09043086001B0704781B00090009A40F2CC
S315080006F07C11C4F2010108681043086001B0704714
S3150800070080B582B00190019800F002F802B080BD71
S3150800071083B00290029800F0070000904EF60C5144
S31508000720CEF200010868019001984FF6FF021040CA
S3150800073001900198009A40EA02200022C0F2FA527B
S31508000740104301900198086003B0704780B586B0E1
S315080007500590049103920020029000F00FF8029091
S315080007600598019002980499039A00F02DF801461D
S31508000770019800F00BF806B080BD00BF4EF60C508D
S31508000780CEF200000068C0F30220704782B00190E4
S3150800079000910198002809D4FFE7009840010199C3
S315080007A04EF20042CEF2000288540AE00098400158
S315080007B0019901F00F014EF61452CEF20002885448
S315080007C0FFE702B0704700BF88B007900691059210
S315080007D0079800F0070004900498C0F10700042861
S315080007E003D3FFE70320019004E00498C0F1070053
S315080007F00190FFE70198039004980330062803D870
S31508000800FFE70020009003E0049804380090FFE713
S315080008100098029006980399012202FA01F101391B
S315080008200840029B984005999A40013A11400843AE
S3150800083008B0704780B582B00190019800F002F8C0
S3150800084002B080BD81B00090009800280DD4FFE763
S31508000850009901F01F02012090404A094EF200114A
S31508000860CEF2000141F82200FFE701B0704700BF51
S3150800087080B582B00190019800F002F802B080BD00
S3150800088081B000900098002811D4FFE7009901F084
S315080008901F02012090404A094EF28011CEF2000153
S315080008A041F82200BFF34F8FBFF36F8FFFE701B008
S315080008B0704700BF00F000F8BFF34F8F4EF60C519B
S315080008C0CEF20001086800F4E0600422C0F2FA5291
S315080008D010430860BFF34F8FFFE700BFFDE700BF77
S315080008E080B582B00190019800F002F802B080BD90
S315080008F080B584B0029002980138B0F1807F03D3A6
S31508000900FFE7012003901AE0029801384EF214011D
S31508000910CEF2000108604FF0FF3007210191FFF782
S3150800092035FF01994EF21802CEF20002002010603F
S315080009304EF21002CEF2000211600390FFE7039810
S3150800094004B080BD80B5FFF719FF80BD80B584B0BF
S315080009500390029101920093039800F043F80299DC
S31508000960019A009B00F002F804B080BD89B0089097
S31508000970079106920593079800F0070004900498DB
S31508000980C0F10700042803D3FFE70320019004E021
S315080009900498C0F107000190FFE7019803900498B6
S315080009A00330062803D8FFE70020009003E00498E8
S315080009B004380090FFE70098029008980299C8400A
S315080009C0039A012101FA02F2013A1040069A1060D0
S315080009D00898029A9140013908400599086009B0BB
S315080009E0704700BF82B000900098002809D4FFE73E
S315080009F000984EF20041CEF20001405C4009019099
S31508000A000AE0009800F00F004EF61451CEF20001ED
S31508000A10405C40090190FFE7019802B0704700BFAB
S31508000A2080B582B00190019800F002F802B080BD4E
S31508000A3081B00090009800280DD4FFE7009901F0D6
S31508000A401F02012090404A094EF20021CEF2000111
S31508000A5041F82200FFE701B0704700BF80B582B0B9
S31508000A600190019800F002F802B080BD82B00090B3
S31508000A700098002810D4FFE7009841094EF200209C
S31508000A80CEF2000050F82100009901F01F01C8407D
S31508000A9000F00100019002E000200190FFE70198B4
S31508000AA002B0704780B582B00190019800F002F854
S31508000AB002B080BD81B00090009800280DD4FFE7F1
S31508000AC0009901F01F02012090404A094EF2802148
S31508000AD0CEF2000141F82200FFE701B0704700BFDF
S31508000AE080B582B00190019800F002F802B080BD8E
S31508000AF082B000900098002810D4FFE700984109BA
S31508000B004EF20030CEF2000050F82100009901F0B4
S31508000B101F01C84000F00100019002E0002001908A
S31508000B20FFE7019802B0704781B00090009804284A
S31508000B3009D1FFE74EF21001CEF20001086840F035
S31508000B400400086008E04EF21001CEF200010868C1
S31508000B5020F004000860FFE701B0704780B500F098
S31508000B6001F880BD704700008AB0099008910020FE
S31508000B700790FFE7089800680799C840002800F022
S31508000B809881FFE708980068079A01219140084074
S31508000B9006900698002800F08881FFE708984068C4
S31508000BA0022805D0FFE708984068122826D1FFE7F3
S31508000BB0099807996FF0030202EA51010844006A8E
S31508000BC00590079800F0070081000F2000FA01F150
S31508000BD005988843059008980069079901F0070168
S31508000BE0890000FA01F105980843059005980999C6
S31508000BF0079B02EA530211440862FFE70998006856
S31508000C00059007984100032000FA01F105988843EA
S31508000C1005900898406800F003000799490000FA13
S31508000C2001F1059808430590059809990860089800
S31508000C30406801280FD0FFE70898406802280AD0C4
S31508000C40FFE708984068112805D0FFE7089840682C
S31508000C5012282FD1FFE70998806805900798410068
S31508000C60032000FA01F10598884305900898C068A2
S31508000C700799490000FA01F1059808430590059877
S31508000C80099988600998406805900799012000FA33
S31508000C9001F105988843059008984068C0F300104C
S31508000CA0079900FA01F105980843059005980999EE
S31508000CB04860FFE70998C068059007984100032037
S31508000CC000FA01F105988843059008988068079905
S31508000CD0490000FA01F10598084305900598099915
S31508000CE0C8600898C079C006002840F1DD80FFE793
S31508000CF0FFE741F21800C4F20200016841F0010161
S31508000D000160006800F0010004900498FFE7079866
S31508000D1020F003001421C4F20101405805900798F9
S31508000D2000F0030081000F2000FA01F105988843BE
S31508000D3005900998B0F1904F03D1FFE70020039082
S31508000D4034E0099840F20041C4F60001884203D114
S31508000D50FFE70120029026E0099840F60001C4F654
S31508000D600001884203D1FFE70220019018E00998A4
S31508000D7040F60041C4F60001884203D1FFE703208C
S31508000D8000900AE0099941F20002C4F60002072021
S31508000D90914208BF04200090FFE700980190FFE702
S31508000DA001980290FFE702980390FFE703980799D6
S31508000DB001F00301890000FA01F10598084305903E
S31508000DC00598079921F003011422C4F201028850FC
S31508000DD040F20040C4F201000068059006990598A3
S31508000DE08843059008988079C00728B1FFE70699D7
S31508000DF0059808430590FFE7059840F20041C4F2BC
S31508000E000101086040F20440C4F201000068059040
S31508000E1006990598884305900898807980070028E0
S31508000E2005D5FFE70699059808430590FFE7059855
S31508000E3040F20441C4F20101086040F20840C4F2DD
S31508000E40010000680590069905988843059008985A
S31508000E508079C006002805D5FFE706990598084356
S31508000E600590FFE7059840F20841C4F201010860C1
S31508000E7040F20C40C4F201000068059006990598F6
S31508000E8088430590089880798006002805D5FFE7ED
S31508000E900699059808430590FFE7059840F20C4126
S31508000EA0C4F201010860FFE7FFE7079801300790E1
S31508000EB060E60AB0704700BF8AB009900891002022
S31508000EC00790FFE708980799C840002800F0D080E7
S31508000ED0FFE70898079A012191400840069006986E
S31508000EE0002800F0C180FFE7079820F003001421CE
S31508000EF0C4F2010140580590079800F003008100EC
S31508000F000F2000FA01F1059808400590059804900D
S31508000F100998B0F1904F03D1FFE70020039034E021
S31508000F20099840F20041C4F60001884203D1FFE760
S31508000F300120029026E0099840F60001C4F6000157
S31508000F40884203D1FFE70220019018E0099840F68D
S31508000F500041C4F60001884203D1FFE70320009050
S31508000F600AE0099941F20002C4F6000207209142FC
S31508000F7008BF04200090FFE700980190FFE701985A
S31508000F800290FFE702980390FFE704980399079AEF
S31508000F9002F0030292009140884232D1FFE7069A96
S31508000FA040F20041C4F20101086890430860069ABD
S31508000FB040F20441C4F20101086890430860069AA9
S31508000FC040F20841C4F20101086890430860069A95
S31508000FD040F20C41C4F20101086890430860079882
S31508000FE000F0030081000F2088400590059B0798B4
S31508000FF020F003011422C4F201028858984388504D
S31508001000FFE707984100032000FA01F3099A1168DF
S3150800101019431160DDF81CC00CF007018A000F2186
S3150800102001FA02F309996FF0030202EA5C020A4424
S31508001030116A994311620799490000FA01F3099A5E
S31508001040916899439160079A012101FA02F3099A76
S315080010505168994351600799490000FA01F20999C4
S31508001060C8689043C860FFE707980130079029E7EA
S315080010700AB0704783B00290ADF80610029800696E
S31508001080BDF80610084203D0FFE70120009002E0F1
S3150800109000200090FFE7009803B0704783B00290E5
S315080010A0ADF806100092009828B1FFE7BDF80600D3
S315080010B00299886104E0BDF8060002998862FFE794
S315080010C003B0704782B00190ADF8021001984069EC
S315080010D0BDF80210084205D0FFE7BDF802000199E5
S315080010E0886204E0BDF8020001998861FFE702B052
S315080010F0704700BF84B00290ADF806104FF48030F8
S315080011000090BDF8061000980843009000980299D0
S31508001110C861BDF806000299C86100980299C861BD
S315080011200298C06900900298C069C003002803D5D8
S31508001130FFE70020039002E001200390FFE70398F1
S3150800114004B0704781B0ADF8020001B0704700BF27
S3150800115080B582B0ADF8060040F21440C4F2010032
S315080011600068BDF8061008420CD0FFE7BDF8060077
S3150800117040F21441C4F201010860BDF80600FFF709
S31508001180E1FFFFE702B080BD81B0ADF8020001B013
S31508001190704700BF81B0ADF8020001B0704700008B
S315080011A080B582B0FFF7B0F8009041F20001C4F2B2
S315080011B00201086840F001000860FFE741F20000FC
S315080011C0C4F202000068800700280BD4FFE7FFF787
S315080011D09BF80099401A032803D3FFE703200190E0
S315080011E098E0EBE7FFF790F8009041F20401C4F2AB
S315080011F0020100200860FFE741F20400C4F2020081
S31508001200006810F00C0F0DD0FFE7FFF77DF8009986
S31508001210401A41F28931884203D3FFE7032001903F
S3150800122078E0E9E740F20001C2F2000141F200204D
S31508001230C0F27A00086040F21000C2F200000068AE
S31508001240FEF7F8FF18B1FFE70120019062E0FFF70B
S315080012505BF8009041F20001C4F20201086820F030
S3150800126080700860FFE741F20000C4F202000068DF
S31508001270800100280BD5FFE7FFF746F80099401ACA
S31508001280032803D3FFE70320019043E0EBE741F28D
S315080012900401C4F2020100200860FFF735F8009047
S315080012A041F20001C4F20201086820F41020086027
S315080012B0FFE741F20000C4F202000068800300283C
S315080012C00BD5FFE7FFF720F80099401A652803D3E6
S315080012D0FFE7032001901DE0EBE741F20001C4F2AD
S315080012E00201086820F48020086041F23801C4F23F
S315080012F002010020086041F22402C4F202021168C9
S3150800130041F08071116041F20801C4F202010860DF
S315080013100190FFE7019802B080BD00BF80B586B096
S315080013200490049820B9FFE70120059000F013BC4B
S3150800133004980078C007002800F0FC80FFE741F217
S315080013400400C4F20200006800F00C00042820D053
S31508001350FFE741F20400C4F20200006800F00C0046
S3150800136008282AD1FFE741F20400C4F20200006807
S3150800137000F48030B0F5803F0BD0FFE741F204005F
S31508001380C4F20200006800F48030B0F5403F14D182
S31508001390FFE741F20000C4F20200006800F40031E1
S315080013A00020B0EB514F07D0FFE70498406818B902
S315080013B0FFE701200590CEE3BBE004984068B0F54E
S315080013C0803F35D1FFE7FFE741F20001C4F2020191
S315080013D0086820F480300860086820F480200860D7
S315080013E0FFE7FEF791FF0390FFE741F20000C4F222
S315080013F00200006800F400310120B0EB514F0BD118
S31508001400FFE7FEF781FF0399401A652803D3FFE734
S31508001410032005909FE3E8E741F23801C4F2020190
S31508001420086820F44070049A926810430860FFE741
S31508001430FFE704984068B0F5803F09D1FFE741F21D
S315080014400001C4F20201086840F48030086032E006
S315080014500498406868B9FFE741F20001C4F2020146
S31508001460086820F480300860086820F48020086046
S3150800147020E004984068B0F5A02F0DD1FFE741F2AF
S315080014800001C4F20201086840F480200860086878
S3150800149040F4803008600CE041F20001C4F2020119
S315080014A0086820F480300860086820F48020086006
S315080014B0FFE7FFE7FFE7FFE704984068E0B1FFE7CB
S315080014C0FEF722FF0390FFE741F20000C4F2020094
S315080014D0006800F400310020B0EB514F0BD1FFE754
S315080014E0FEF712FF0399401A652803D3FFE7032086
S315080014F0059030E3E8E71BE0FEF706FF0390FFE7F9
S3150800150041F20000C4F20200006800F40031002035
S31508001510B0EB514F0BD0FFE7FEF7F6FE0399401AE2
S31508001520652803D3FFE70320059014E3E8E7FFE700
S31508001530FFE7FFE7049800788007002840F18D80D0
S31508001540FFE741F20400C4F20200006810F00C0F35
S3150800155020D0FFE741F20400C4F20200006800F060
S315080015600C0008282BD1FFE741F20400C4F2020060
S31508001570006800F48030B0F5803F20D0FFE741F2E4
S315080015800400C4F20200006800F48030B0F5403F61
S3150800159015D0FFE741F20000C4F20200006800F02F
S315080015A002010020B0EB510F08D0FFE7049840690C
S315080015B0012803D0FFE701200590CCE24CE004980F
S315080015C0406920B3FFE741F20001C4F2020108684E
S315080015D040F001000860FEF797FE0390FFE741F22E
S315080015E00000C4F20200006800F002010020B0EB1F
S315080015F0510F0BD1FFE7FEF787FE0399401A032820
S3150800160003D3FFE703200590A5E2E8E723E041F2CC
S315080016100001C4F20201086820F001000860FEF724
S3150800162073FE0390FFE741F20000C4F2020000686F
S3150800163000F002010020B0EB510F0BD0FFE7FEF7D8
S3150800164063FE0399401A032803D3FFE70320059096
S3150800165081E2E8E7FFE7FFE7FFE704980078C006BE
S3150800166000284DD5FFE70498806920B3FFE741F2CB
S315080016702801C4F20201086840F010000860FEF76D
S3150800168043FE0390FFE741F22800C4F20200006817
S3150800169000F020010020B0EB511F0BD1FFE7FEF749
S315080016A033FE0399401A032803D3FFE70320059066
S315080016B051E2E8E723E041F22801C4F20201086892
S315080016C020F010000860FEF71FFE0390FFE741F2C6
S315080016D02800C4F20200006800F020010020B0EBE8
S315080016E0511F0BD0FFE7FEF70FFE0399401A032898
S315080016F003D3FFE7032005902DE2E8E7FFE7FFE7BE
S31508001700049800780007002850D5FFE70498C069B8
S3150800171038B3FFE741F22401C4F20201086840F039
S3150800172001000860FEF7F0FD0390FFE741F2240090
S31508001730C4F20200006800F002010020B0EB510F6D
S315080017400BD1FFE7FEF7E0FD0399401A032803D300
S31508001750FFE703200590FEE1E8E7012000F0FEF927
S3150800176023E041F22401C4F20201086820F00100D6
S315080017700860FEF7C9FD0390FFE741F22400C4F2B2
S315080017800200006800F002010020B0EB510F0BD0F8
S31508001790FFE7FEF7B9FD0399401A032803D3FFE7CD
S315080017A003200590D7E1E8E7FFE7FFE7049800780C
S315080017B04007002840F11481FFE70020019041F21C
S315080017C01C00C4F202000068C000002812D4FFE71B
S315080017D0FFE741F21C00C4F20200016841F08051A3
S315080017E00160006800F0805000900098FFE7012033
S315080017F00190FFE747F20000C4F200000068C00548
S31508001800002821D4FFE747F20001C4F20001086866
S3150800181040F480700860FEF777FD0390FFE747F213
S315080018200000C4F200000068C00500280BD4FFE7DA
S31508001830FEF76AFD0399401A652803D3FFE70320DC
S31508001840059088E1EBE7FFE70498C068012837D1DF
S31508001850FFE7FFE741F22001C4F20201086820F021
S3150800186001000860086820F004000860FFE7FEF73A
S315080018704BFD0390FFE741F22000C4F20200006826
S3150800188000F002010120B0EB510F0DD1FFE7FEF782
S315080018903BFD0399401A41F28931884203D3FFE799
S315080018A00320059057E1E6E741F22001C4F2020160
S315080018B0086820F01800049A126910430860FFE7C8
S315080018C0FFE70498C068012809D1FFE741F2200123
S315080018D0C4F20201086840F00100086031E004988B
S315080018E0C06868B9FFE741F22001C4F2020108683E
S315080018F020F001000860086820F0040008601FE076
S315080019000498C06805280DD1FFE741F22001C4F20A
S315080019100201086840F004000860086840F0010009
S3150800192008600CE041F22001C4F20201086820F0C8
S3150800193001000860086820F004000860FFE7FFE778
S31508001940FFE7FFE70498C068F0B1FFE7FEF7DCFCA5
S315080019500390FFE741F22000C4F20200006800F09D
S3150800196002010020B0EB510F0DD1FFE7FEF7CCFCCA
S315080019700399401A41F28931884203D3FFE70320CD
S315080019800590E8E0E6E71DE0FEF7BEFC0390FFE7FA
S3150800199041F22000C4F20200006800F002010020B3
S315080019A0B0EB510F0DD0FFE7FEF7AEFC0399401AD6
S315080019B041F28931884203D3FFE703200590CAE044
S315080019C0E6E7FFE70198012809D1FFE741F21C0184
S315080019D0C4F20201086820F080500860FFE7FFE7BC
S315080019E00498006A002800F0B380FFE741F204007B
S315080019F0C4F20200006800F00C00082800F082809B
S31508001A00FFE70498006A022857D1FFE741F2000170
S31508001A10C4F20201086820F080700860FEF774FCC2
S31508001A200390FFE741F20000C4F20200006800F0EC
S31508001A3000710020B0EB516F0BD0FFE7FEF764FC96
S31508001A400399401A032803D3FFE70320059082E091
S31508001A50E8E741F20401C4F2020108684FF6FF7292
S31508001A60C9F6C0721040049B5A6A9B6A1A4310430F
S31508001A70086041F20001C4F20201086840F0807073
S31508001A800860FEF741FC0390FFE741F20000C4F24C
S31508001A900200006800F000710020B0EB516F0BD116
S31508001AA0FFE7FEF731FC0399401A032803D3FFE743
S31508001AB0032005904FE0E8E723E041F20001C4F275
S31508001AC00201086820F080700860FEF71DFC03908C
S31508001AD0FFE741F20000C4F20200006800F000715E
S31508001AE00020B0EB516F0BD0FFE7FEF70DFC039912
S31508001AF0401A032803D3FFE7032005902BE0E8E705
S31508001B00FFE724E00498006A012803D1FFE70120D3
S31508001B10059020E041F20400C4F202000068029039
S31508001B20029800F480300499496A88420AD1FFE78E
S31508001B3002980021C6F23C0108400499896A884245
S31508001B4003D0FFE70120059005E0FFE7FFE7FFE781
S31508001B5000200590FFE7059806B080BD82B0019089
S31508001B60019840F20001C2F200010968C90844F66A
S31508001B70D352C1F26202A1FB0221890948430090AF
S31508001B80FFE700BFFFE70098411E00910028F8D143
S31508001B90FFE702B0704700BF80B584B0029001919C
S31508001BA0029818B9FFE7012003901AE1019842F25A
S31508001BB00001C4F20201096801F00F01884215D933
S31508001BC0FFE742F20000C4F20200016821F00F01AB
S31508001BD0019A11430160006800F00F0001998842DC
S31508001BE003D0FFE701200390FBE0FFE702980078A7
S31508001BF0800700282AD5FFE70298007840070028C2
S31508001C0009D5FFE741F20401C4F20201086840F46D
S31508001C10E0600860FFE7029800780007002809D509
S31508001C20FFE741F20401C4F20201086840F460507B
S31508001C300860FFE741F20401C4F20201086820F0D7
S31508001C40F000029A926810430860FFE7029800784D
S31508001C50C007002862D0FFE702984068012810D123
S31508001C60FFE741F20000C4F20200006800F4003108
S31508001C700020B0EB514F03D1FFE701200390B0E0FD
S31508001C8022E00298406802280DD1FFE741F20000E1
S31508001C90C4F202000068C001002803D4FFE701204F
S31508001CA003909EE00FE041F20000C4F202000068D3
S31508001CB000F002010020B0EB510F03D1FFE701202D
S31508001CC003908EE0FFE7FFE741F20401C4F2020148
S31508001CD0086820F00300029A526810430860FEF76D
S31508001CE013FB0090FFE741F20400C4F2020000680B
S31508001CF000F00C0002994968B0EB810F0DD0FFE7A0
S31508001D00FEF702FB0099401A41F28931884203D353
S31508001D10FFE70320039064E0E5E7FFE7019842F256
S31508001D200001C4F20201096801F00F01884215D2C8
S31508001D30FFE742F20000C4F20200016821F00F0139
S31508001D40019A11430160006800F00F00019988426A
S31508001D5003D0FFE70120039043E0FFE702980078ED
S31508001D60400700280CD5FFE741F20401C4F202013E
S31508001D70086820F4E060029AD26810430860FFE71A
S31508001D8002980078000700280DD5FFE741F2040104
S31508001D90C4F20201086820F46050029A126940EA07
S31508001DA0C2000860FFE700F01FF841F20401C4F220
S31508001DB002010968C9B20A0944F65451C0F600017D
S31508001DC0895CC84040F20001C2F20001086040F296
S31508001DD01000C2F200000068FEF72CFA00200390FB
S31508001DE0FFE7039804B080BD80B598B044F6D441A7
S31508001DF0C0F6000108A8402202F038FE40F2012091
S31508001E00ADF81E00002006900590049003900290FD
S31508001E1041F20400C4F2020000680690069800F039
S31508001E200C000146019100284AD0FFE701980428D2
S31508001E3004D0FFE70198082806D042E043F2006084
S31508001E40C0F26E10029042E0069901F0C04001F41B
S31508001E507011400E40EA914108A8405C039006982C
S31508001E6000F44030B0F5803F07D0FFE7069800F44D
S31508001E704030B0F5403F18D1FFE741F20400C4F204
S31508001E800200006800F400310DF11E0040EA5140DE
S31508001E9000780590039843F20061C0F26E1148433A
S31508001EA00599B0FBF1F0049007E0039841F2002190
S31508001EB0C0F27A0148430490FFE70498029006E0CE
S31508001EC0FFE741F20020C0F27A000290FFE702988D
S31508001ED018B080BD80B58AB0099008910792002095
S31508001EE006900590049003900290022103910591B3
S31508001EF004904FF480700290FFE741F23400C4F278
S31508001F000200016841F004010160006800F0040065
S31508001F1001900198FFE74FF0904002A9FEF724FED2
S31508001F20FFE741F20401C4F20201086820F0E0600C
S31508001F30089A1043086041F22801C4F202010868B1
S31508001F4020F00700079A10430860FFE70AB080BD33
S31508001F5041F20001C4F20201086840F4002008605A
S31508001F60704700BF41F20001C4F20201086820F47C
S31508001F7000200860704700BF40F20000C2F200006F
S31508001F800068704780B5FFF7F7FF41F20401C4F215
S31508001F9002010968C1F3022244F66451C0F6000141
S31508001FA0895CC84080BD00BF80B5FFF7E5FF41F2F8
S31508001FB00401C4F202010968C1F3C22244F664515D
S31508001FC0C0F60001895CC84080BD00BF81B00090A2
S31508001FD000991F20086041F20000C4F20200006860
S31508001FE04003002805D5FFE700994FF4A020486074
S31508001FF012E041F20000C4F202000068C0030028A3
S3150800200005D5FFE700994FF48030486003E0009952
S3150800201000204860FFE7FFE741F23800C4F20200FB
S31508002020006800F440700099886041F20000C4F22C
S3150800203002000068C00720B1FFE700990120486147
S3150800204003E0009900204861FFE741F22800C4F246
S3150800205002000068C006002804D5FFE70099102092
S31508002060886103E0009900208861FFE741F22000BB
S31508002070C4F2020000684007002804D5FFE700996B
S315080020800520C86010E041F22000C4F20200006892
S31508002090C00720B1FFE700990120C86003E0009956
S315080020A00020C860FFE7FFE741F22000C4F2020003
S315080020B0006800F018000099086141F22400C4F293
S315080020C002000068C00720B1FFE700990120C86137
S315080020D003E000990020C861FFE741F20000C4F25E
S315080020E002000068C001002804D5FFE70099022015
S315080020F0086203E0009901200862FFE741F2040044
S31508002100C4F20200016801F44031009A5162006885
S315080021100021C6F23C0108400099886201B0704768
S3150800212082B00190009101990F20086041F20400E5
S31508002130C4F20200016801F00301019A51600168C6
S3150800214001F0F001019A9160016801F4E061019AD9
S31508002150D160006800F46050C0080199086142F235
S315080021600000C4F20200006800F00F000099086041
S3150800217002B0704780B541F20800C4F20200006858
S315080021800006002809D5FFE700F008F841F20A0121
S31508002190C4F2020180200870FFE780BD7047000086
S315080021A084B00390029101920093039942F2DD10E4
S315080021B0C0F6000048600399002088600399C8604B
S315080021C003990861029803994861019803998861FF
S315080021D000980399C861039804B0704780B588B021
S315080021E0069005910492069880888DF80F00069847
S315080021F040780138014602910A2851D80299DFE849
S3150800220001F00615224F4F4F4F4F2D3F48009DF8BE
S315080022100F0006994A88D1B2120A00F04BF80599C0
S31508002220096808700499012008603DE09DF80F00D0
S315080022300699897802F0EEFB0599096808700499F1
S315080022400120086030E09DF80F0000F045F8059978
S315080022500968087004990120086025E09DF80F00B8
S3150800226006994A88D1B2120A059B1B68DDF810C088
S315080022709CF800C0EE46CEF800C000F033F813E034
S315080022809DF80F0006994A88D1B2120A02F0B2FBED
S315080022900AE09DF80F000699897800F03DF803E0FA
S315080022A04FF0FF30079002E000200790FFE70798FD
S315080022B008B080BD81B08DF803008DF802108DF846
S315080022C00120002001B0704781B08DF803008DF819
S315080022D00210002001B0704781B08DF8030000207D
S315080022E001B0704780B583B0844605988DF80BC059
S315080022F08DF80A108DF8092001938DF8030003B0B4
S3150800230080BD00BF81B08DF803008DF802108DF8EE
S31508002310012001B0704700BF81B08DF803008DF829
S31508002320021001B07047000080B50320002100F0BC
S3150800233001F880BD80B584B08DF80F00029140F297
S31508002340B430C2F2000000680190FFE7019890B12E
S31508002350FFE7019800900098006938B1FFE70098F8
S3150800236002699DF80F0002999047FFE7FFE7019879
S3150800237000680190EAE704B080BD00BF80B504207C
S315080023800021FFF7D7FF80BD80B506200021FFF7A3
S31508002390D1FF80BD80B505200021FFF7CBFF80BDAA
S315080023A080B584B00020029000F0CAFF029840F27F
S315080023B01401C2F2000181F85C0181F85D01402137
S315080023C0ADF80E108DF80D0080208DF80C0003A8CE
S315080023D0019000F0CDFF029901988DF80C1000F0DD
S315080023E0C7FF02990120FFF7A5FF04B080BD00BF13
S315080023F080B586B0059040F21400C2F20000049041
S315080024000499059A106852684A6008600498C0885A
S31508002410B0F5807F0DDDFFE70498007800060028F8
S3150800242006D4FFE7FFE7FFE7802001F039F993E0DC
S31508002430FFE740F21401C2F2000101F11C008860B6
S315080024400498C088C8600498C08808610020087588
S315080024500498C08888B1FFE7049800780006002829
S315080024600BD4FFE740F21400C2F20000816804981A
S31508002470C288002001F09CFB6EE0049840F214022A
S31508002480C2F2000202F10801103200F067F820B922
S31508002490FFE7802001F004F95EE040F21400C2F282
S315080024A0000000690499C988884207D2FFE740F20C
S315080024B01400C2F200000069039003E00498C08883
S315080024C00390FFE7039940F21400C2F20000C160CE
S315080024D0007A8007D8B1FFE740F21400C2F2000084
S315080024E0C068B0F5807F03D9FFE7FFE7FFE733E071
S315080024F040F21400C2F2000001908168C2681C30E4
S31508002500029002F0B3FA019902988860FFE70498EE
S31508002510C08840F21401C2F200010969884211D943
S31508002520FFE740F21400C2F20000007C800648B9BA
S31508002530FFE740F21401C2F200010120087500F01D
S31508002540BBFEFFE740F21400C2F200008168C268D1
S31508002550802001F09BF9FFE706B080BD80B586B004
S315080025600490039102920498007800F060000146F6
S31508002570019140B1FFE70198202817D0FFE701989D
S31508002580402826D038E004980399029A00F0C0F94A
S31508002590B0F1FF3F09DCFFE7FFE7FFE7049800F02B
S315080025A0F9F900208DF817002EE029E00498039920
S315080025B0029A00F0F3F9B0F1FF3F09DCFFE7FFE705
S315080025C0FFE7049800F0E6F900208DF817001BE0F5
S315080025D016E004980399029A00F048FAB0F1FF3F12
S315080025E009DCFFE7FFE7FFE7049800F0D3F90020CE
S315080025F08DF8170008E003E000208DF8170003E0C7
S3150800260001208DF81700FFE79DF8170006B080BD7A
S3150800261080B584B08DF80F0002919DF80F008028D0
S3150800262040D1FFE740F21400C2F200000190029A7E
S31508002630816811448160029AC168891AC160C068BC
S3150800264050B1FFE740F21400C2F200008168C26888
S31508002650802001F01BF924E040F21400C2F20000C9
S31508002660007DC00758B1FFE740F21400C2F200002F
S31508002670002202758020114601F008F910E0019841
S31508002680C08860B1FFE7019800780006002806D5E3
S31508002690FFE700221046114601F08AFAFFE7FFE736
S315080026A0FFE71DE09DF80F0000F07F0140F21400DF
S315080026B0C2F2000000EB8100D0F81C0178B1FFE7F8
S315080026C09DF80F0000F07F0240F21401C2F20001EB
S315080026D001EB8201D1F81C2102999047FFE7FFE739
S315080026E004B080BD80B584B08DF80F0002919DF8C6
S315080026F00F00E8BBFFE740F21400C2F200000190A9
S31508002700029898B3FFE7029A40F21400C2F200005A
S31508002710816811448160029AC168891AC160C068DB
S31508002720C8B9FFE740F21401C2F2000101F11C002A
S3150800273041F8080F019801F10802FFF70FFF20B9C9
S31508002740FFE7802000F0ACFF30E080200022114631
S3150800275001F09CF809E040F21400C2F2000081681A
S31508002760C268002001F024FAFFE700E0FFE71DE059
S315080027709DF80F0000F07F0140F21400C2F200003D
S3150800278000EB8100D0F83C0178B1FFE79DF80F0017
S3150800279000F07F0240F21401C2F2000101EB82014F
S315080027A0D1F83C2102999047FFE7FFE704B080BDC6
S315080027B081B00090009840F21401C2F200018861CD
S315080027C0002081F85E0101B0704700BF81B000901B
S315080027D0009840F2A831C2F20001086001B07047C3
S315080027E081B00090009840F2AC31C2F20001086056
S315080027F001B0704781B00090009840F2E011C2F233
S315080028000001086001B0704780B582B0019040F2BF
S315080028101400C2F20000009090F85E01019981F858
S315080028202000019940F2B430C2F2000000F008F826
S31508002830009991F85E01013081F85E0102B080BD11
S3150800284083B00290019102980090FFE70098006813
S3150800285020B1FFE7009800680090F7E70198009913
S31508002860086001990020086003B0704781B00090A5
S3150800287000980078000600280ED5FFE700994868FA
S31508002880097801F07F0240F21401C2F2000101EB5F
S315080028908201C1F81C010DE000994868097801F029
S315080028A07F0240F21401C2F2000101EB8201C1F875
S315080028B03C01FFE701B0704740F21400C2F2000085
S315080028C090F85C0100F00100704700BF80B500F089
S315080028D007FD80BD80B582B040F21401C2F2000146
S315080028E00020019081F85E0140F2B430C2F2000087
S315080028F000F006F800F022FD019802B080BD00BF86
S3150800290081B0009000990020086001B0704700BFB0
S3150800291080B586B005900491039200200290059830
S31508002920007800F003000146019140B1FFE70198E5
S31508002930012810D0FFE70198022818D023E005984F
S315080029400499039A00F02EF920B9FFE74FF0FF30FB
S315080029500290FFE71BE005980499039A00F0B6F980
S3150800296020B9FFE74FF0FF300290FFE70FE0059828
S315080029700499039A00F05CFA20B9FFE74FF0FF309C
S315080029800290FFE703E04FF0FF300290FFE702985E
S3150800299006B080BD81B0009001B0704780B588B0A0
S315080029A00690059104920698007800F00300012825
S315080029B026D1FFE740F2B430C2F200000068039067
S315080029C0FFE70398D8B1FFE703980290029840689A
S315080029D080B1FFE7029890F82000069909798842A5
S315080029E008D1FFE70298436806980599049A98471C
S315080029F0079037E0FFE7039800680390E1E72DE0CA
S31508002A000698007800F00300022826D1FFE740F276
S31508002A10B430C2F2000000680390FFE70398D8B10B
S31508002A20FFE7039801900198806880B1FFE7019855
S31508002A3090F8200006994979884208D1FFE701985D
S31508002A40836806980599049A984707900AE0FFE76D
S31508002A50039800680390E1E7FFE7FFE74FF0FF30D0
S31508002A600790FFE7079808B080BD00BF80B588B01B
S31508002A7006900591049240F2A830C2F20000006860
S31508002A80D8B3FFE70698407840F2A831C2F20001B1
S31508002A900968497988422FD1FFE706988088014658
S31508002AA00191042804D0FFE7019805280FD01DE0FE
S31508002AB040F2A830C2F2000001688968059A1160E0
S31508002AC000688089049908600020079067E040F252
S31508002AD0A830C2F2000001680969059A1160006809
S31508002AE0808A049908600020079058E0FFE7FFE70E
S31508002AF04FF0FF30079052E02DE040F2AC30C2F2C2
S31508002B000000006830B3FFE70698407840F2AC3121
S31508002B10C2F200010968897988421AD1FFE7069846
S31508002B20808807280FD1FFE740F2AC30C2F20000D8
S31508002B3001680968059A1160006880880499086028
S31508002B40002007902BE0FFE7FFE74FF0FF300790E4
S31508002B5025E0FFE7FFE740F2B430C2F20000006864
S31508002B600390FFE70398B0B1FFE703980290029835
S31508002B70C06858B1FFE70298C36806980599049A91
S31508002B80984718B9FFE70020079008E0FFE7039881
S31508002B9000680390E6E74FF0FF300790FFE70798D5
S31508002BA008B080BD80B586B005900491039205985B
S31508002BB04088ADF80A0001208DF80900059840788C
S31508002BC0014601910B2800F277800199DFE801F0B0
S31508002BD00611741174222A333743707004980168F9
S31508002BE00020087004990968487003990220086053
S31508002BF066E0BDF80A00012801D1FFE706E0BDF846
S31508002C000A00022801D1FFE7FFE7FFE70399002042
S31508002C10086055E09DF80A0000F092FB0399002031
S31508002C2008604DE0BDF80A000499039A00F070F9AF
S31508002C308DF8090044E000208DF8090040E0049969
S31508002C4040F21400C2F2000000F25D100860039919
S31508002C500120086034E09DF80A00ADF80A009DF8E6
S31508002C600A00002100F016FA60B9FFE79DF80A008D
S31508002C7040F21401C2F2000181F85D01002081F8DA
S31508002C805C0111E09DF80A0040F21401C2F200014D
S31508002C9081F85D01012081F85C0107200021FFF71A
S31508002CA049FB01F051FEFFE703990020086007E0A1
S31508002CB000208DF8090003E000208DF80900FFE7E1
S31508002CC09DF8090000F0010006B080BD80B58AB005
S31508002CD00890079106920898C0788DF8170008980A
S31508002CE080888DF8160001208DF8150000F06CFA22
S31508002CF020B9FFE700208DF8270094E0089840786F
S31508002D00014600910B2800F283800099DFE801F064
S31508002D10066B806B8080118080806F7707980168CA
S31508002D20002008700799096848700699022008600B
S31508002D3072E09DF81700212825D1FFE740F2B4304C
S31508002D40C2F2000000680490FFE70498D0B1FFE7DC
S31508002D5004980390039890F820009DF8161088426E
S31508002D600BD1FFE70398406907990860069909207F
S31508002D70086001208DF8270055E0FFE704980068F1
S31508002D800490E2E72BE09DF81700222826D1FFE7FA
S31508002D9040F2B430C2F2000000680290FFE70298E1
S31508002DA0D8B1FFE702980190019890F820009DF8A5
S31508002DB0161088420CD1FFE70198806907990860C8
S31508002DC00198C0690699086001208DF827002AE055
S31508002DD0FFE7029800680290E1E7FFE7FFE70020B7
S31508002DE08DF8150018E000208DF8150014E00798F6
S31508002DF00168002008700699012008600CE0089810
S31508002E008178007900F0EAF906990020086003E065
S31508002E1000208DF81500FFE79DF8150000F0010069
S31508002E208DF82700FFE79DF827000AB080BD00BF90
S31508002E3080B586B0049003910292049800798DF8C3
S31508002E40070001208DF8050000F0BEF920B9FFE75C
S31508002E5000208DF8170057E0049840780146009145
S31508002E600C2846D80099DFE801F0071A442D444497
S31508002E7044444444444440009DF807000DF10601CB
S31508002E8000F0BEFC9DF806000399096808700398CF
S31508002E900168002048700299022008602DE0049815
S31508002EA0408838B9FFE7FFE7FFE79DF8070000F01D
S31508002EB051FC22E000208DF80500FFE7029900206A
S31508002EC008601AE00498408838B9FFE7FFE7FFE78B
S31508002ED09DF8070000F0E4FB03E000208DF80500EC
S31508002EE0FFE702990020086007E000208DF805003A
S31508002EF003E000208DF80500FFE79DF8050000F0C7
S31508002F0001008DF81700FFE79DF8170006B080BD91
S31508002F1087B0ADF818000591049200208DF80F00CF
S31508002F208DF80E00029001908DF803009DF81900A7
S31508002F308DF80F00BDF818008DF80E009DF80F00EB
S31508002F40032820D1FFE79DF80E00EE281BD1FFE7E6
S31508002F5040F2A830C2F20000006820B9FFE700205E
S31508002F608DF81B0092E040F2A830C2F2000001681A
S31508002F700968059A116000680079049908600120BB
S31508002F808DF81B0082E09DF80F000F281BD1FFE784
S31508002F9040F2E010C2F20000006820B9FFE7002006
S31508002FA08DF81B0072E040F2E010C2F200000168E2
S31508002FB00968059A1160006840680499086001204C
S31508002FC08DF81B0062E09DF80F0004280AD0FFE781
S31508002FD09DF80F00052805D0FFE79DF80F00062885
S31508002FE004D3FFE700208DF81B004FE0FFE7FFE75B
S31508002FF040F21400C2F2000080690290002001909D
S31508003000FFE702980078D0B1FFE7029840789DF86C
S315080030100F1088420ED1FFE701989DF80E108842DE
S3150800302004D1FFE701208DF8030008E0019801307C
S315080030300190FFE70298017808440290E1E79DF8BD
S315080030400300C007C0B1FFE70298059908609DF81C
S315080030500F00022805D0FFE79DF80F00072805D1C5
S31508003060FFE7029840880499086004E0029800780F
S3150800307004990860FFE702E0FFE7FFE7FFE79DF82E
S31508003080030000F001008DF81B00FFE79DF81B0008
S3150800309007B0704780B584B08DF80F008DF80E1014
S315080030A040F21400C2F2000080690290FF208DF8F9
S315080030B007008DF8060000208DF80500FFE7029846
S315080030C00078002842D0FFE7029840780146009130
S315080030D0022808D0FFE70098042814D0FFE70098D4
S315080030E0052815D02CE0029840798DF806009DF841
S315080030F006009DF80F10884204D1FFE701208DF8DD
S315080031000500FFE71DE00298C0788DF8070018E073
S315080031109DF806009DF80F10884207D1FFE79DF835
S3150800312007009DF80E10884204D0FFE7029800F0C9
S3150800313013F806E0029800F02BF88DF8050000E079
S31508003140FFE70298017808440290B8E79DF8050061
S3150800315000F0010004B080BD80B582B001900198EE
S3150800316080788DF80000019880886FF3DF20ADF82D
S3150800317002000198C07800F003008DF801009DF860
S31508003180000000F087FAB0FA80F0400902B080BD6E
S3150800319080B582B00190019880788DF8000001987A
S315080031A080886FF3DF20ADF802000198C07800F040
S315080031B003008DF80100684600F0DAF8B0FA80F0EE
S315080031C0400902B080BD00BF40F21400C2F2000000
S315080031D090F85D01002818BF0120704780B586B0B9
S315080031E08DF817008DF8161040F21400C2F2000090
S315080031F08069049000200390FF218DF807108DF850
S3150800320006108DF80500FFE704980078002849D0D5
S31508003210FFE70498407801460091042804D0FFE7A8
S31508003220009805281AD037E00498C0788DF807006A
S31508003230049880788DF806009DF806009DF817100A
S3150800324088420AD1FFE79DF807009DF816108842C4
S3150800325003D1FFE704980390FFE71EE09DF80600F8
S315080032609DF81710884216D1FFE7049802909DF83A
S3150800327007009DF81610884206D0FFE70298FFF768
S315080032806BFF8DF8050005E00298FFF781FF8DF8C2
S315080032900500FFE7FFE700E0FFE704980178084428
S315080032A00490B1E703990820FFF744F89DF8050054
S315080032B000F0010006B080BD40F2BC31C2F2000148
S315080032C001200870704700BF40F2BC31C2F200010D
S315080032D000200870704700BF704700BF704700BFE6
S315080032E080B582B0FFF7F8FF0020019000F01AF8C9
S315080032F0019845F60041C4F20001087045F60842F7
S31508003300C4F200020721117045F60A42C4F200020F
S315080033100121117045F60941C4F20001087002B096
S3150800332080BD00BF81B08DF803009DF8030045F607
S315080033300E41C4F20001087001B0704700207047C2
S3150800334081B08DF803009DF8030038B9FFE745F60C
S315080033500041C4F2000100200870FFE79DF8030051
S3150800336040F20021C2F200010870002001B0704747
S3150800337080B586B004900020ADF80E00ADF80C00BC
S315080033800499097801F07F018DF80B100190ADF8CA
S3150800339002009DF80B00A0B9FFE740F20022C2F236
S315080033A000024023A2F8C830002082F8CA00012192
S315080033B082F8CC10138582F82A0082F82C10059022
S315080033C030E19DF80B00082806DBFFE7FFE7FFE77B
S315080033D04FF0FF30059025E100F028F98DF80A0036
S315080033E09DF80B00FFF79EFF04980078000600285A
S315080033F000F18680FFE7049841889DF80B0000EBF2
S31508003400800240F20020C2F20000C83020F82210E4
S31508003410049949789DF80B2002EB820200EB8202A0
S3150800342091709DF80B1001EB810100EB81010120E1
S3150800343008719DF804008007002804D5FFE780205E
S31508003440ADF80200FFE79DF804000007002807D53D
S31508003450FFE7BDF8020040F03000ADF802000DE0CD
S315080034609DF804004007002807D5FFE7BDF80200CD
S3150800347040F02000ADF80200FFE7FFE70498407827
S31508003480012807D1FFE7BDF8020040F04000ADF87B
S315080034900200FFE79DF8020045F61841C4F2000154
S315080034A0087045F61940C4F200000078C00738B124
S315080034B0FFE745F61941C4F200019020087006E0BE
S315080034C045F61941C4F2000180200870FFE7049808
S315080034D040880DF10E0100F0AFF8ADF80C009DF82C
S315080034E00C0045F61A41C4F200010870BDF80E201A
S315080034F040F20021C2F200014868104448608AE0A0
S31508003500049841889DF80B0000EB800240F20020E9
S31508003510C2F20000283020F82210049949789DF854
S315080035200B2002EB820200EB820291709DF80B10D1
S3150800353001EB810100EB8101012008719DF80B1058
S3150800354000FA01F245F60A41C4F200010878104370
S3150800355008709DF80400C00738B1FFE7BDF80200FF
S3150800356040F08000ADF80200FFE79DF8040010F077
S315080035700C0F07D0FFE7BDF8020040F01000ADF8C9
S315080035800200FFE704984078012807D1FFE7BDF855
S31508003590020040F04000ADF80200FFE7BDF8020067
S315080035A040F02000ADF802009DF8020045F61441EF
S315080035B0C4F20001087045F61540C4F20000007810
S315080035C08007002807D5FFE745F61541C4F2000134
S315080035D04820087006E045F61541C4F2000140206F
S315080035E00870FFE7049840880DF10E0100F024F8F2
S315080035F0ADF80C009DF80C0045F61641C4F2000122
S315080036000870BDF80E2040F20021C2F20001486899
S3150800361010444860FFE79DF80A00FFF783FE002084
S315080036200590FFE7059806B080BD00BF45F60E4039
S31508003630C4F200000078704785B0ADF80E0002911C
S3150800364001208DF80300FFE79DF80300082818DC21
S31508003650FFE79DF80300C0000190BDF80E00019930
S31508003660884207D8FFE70198029908809DF8030069
S3150800367004900CE0FFE79DF8030001308DF8030085
S31508003680E2E702990020088001200490FFE70498E9
S3150800369005B0704781B08DF80300002001B070476F
S315080036A080B582B08DF807009DF8070000F07F000E
S315080036B08DF80600FFF7BAFF8DF805009DF806009D
S315080036C0FFF730FE9DF80700000600281DD4FFE727
S315080036D09DF8060078B9FFE740F2B031C2F2000162
S315080036E00720087045F61041C4F20001087840F03A
S315080036F06000087008E045F61941C4F20001087830
S3150800370040F020000870FFE71CE09DF8060078B935
S31508003710FFE740F2B031C2F200010720087045F613
S315080037201041C4F20001087840F06000087008E013
S3150800373045F61541C4F20001087840F010000870FB
S31508003740FFE7FFE79DF80500FFF7ECFD002002B054
S3150800375080BD00BF80B582B08DF807009DF80700D0
S3150800376000F07F008DF80600FFF760FF8DF8050072
S315080037709DF80600FFF7D6FD9DF80700000600280D
S315080037801BD4FFE79DF8060048B9FFE745F6104148
S31508003790C4F20001087800F0FB0008700CE045F65A
S315080037A01941C4F20001087800F09F0008700878F3
S315080037B040F080000870FFE71AE09DF8060048B957
S315080037C0FFE745F61041C4F20001087800F0FB0057
S315080037D008700CE045F61541C4F20001087800F0BF
S315080037E0CF000870087840F040000870FFE7FFE750
S315080037F09DF80500FFF796FD002002B080BD00BFCA
S3150800380080B584B08DF80F0002919DF80F0000F086
S315080038107F008DF80700FFF709FF8DF806009DF871
S315080038200700FFF77FFD9DF80F000006002813D458
S31508003830FFE79DF8070020B9FFE702990020087006
S3150800384009E045F61940C4F200000078C0F34010BC
S3150800385002990870FFE712E09DF8070020B9FFE714
S3150800386002990020087009E045F61540C4F20000E8
S315080038700078C0F3001002990870FFE7FFE79DF88B
S315080038800600FFF74FFD002004B080BD80B586B066
S315080038908DF81300039102929DF8130000F07F0043
S315080038A08DF80700039838B9FFE7029820B1FFE7BB
S315080038B04FF0FF3005904AE19DF8070000EB8001C4
S315080038C040F20020C2F2000000EB810090F82C00C4
S315080038D020B9FFE76FF00100059038E1FFF7A6FE73
S315080038E08DF806009DF80700FFF71CFD45F6154004
S315080038F0C4F200000078C00740B1FFE79DF8060053
S31508003900FFF710FD6FF00200059020E103999DF87E
S31508003910070000EB800240F20020C2F200002830C7
S3150800392000EB8202916002999DF8072002EB820261
S3150800393000EB8202D1609DF8071001EB810100EBD4
S315080039408101002008619DF80700002840F0C78023
S31508003950FFE740F2B030C2F200000078014600915D
S3150800396048B1FFE7009801285DD0FFE700980328D3
S3150800397000F0A780B2E0029868B9FFE745F6104163
S31508003980C4F200014820087040F2B031C2F20001CA
S315080039900420087046E045F61041C4F200014020B4
S315080039A0087002989DF8071001EB810240F2002189
S315080039B0C2F2000101EB8201098D884216D8FFE7A1
S315080039C040F2BC30C2F200000078C00770B9FFE7C9
S315080039D09DF807000399BDF8082000F0BBF845F6E6
S315080039E01041C4F200010A20087014E09DF807008F
S315080039F0039900EB800340F20022C2F2000202EBB8
S31508003A008302128D00F0A6F845F61041C4F20001B3
S31508003A1002200870FFE740F2B031C2F2000101202F
S31508003A200870FFE75AE0029878B9FFE7FFF74CFC01
S31508003A3045F61041C4F200010A20087040F2B03180
S31508003A40C2F20001062008703AE002989DF80710B5
S31508003A5001EB810240F20021C2F2000101EB820172
S31508003A60098D884216D8FFE740F2BC30C2F2000042
S31508003A700078C00770B9FFE79DF807000399BDF8FD
S31508003A80082000F067F845F61041C4F200010A2044
S31508003A90087014E09DF80700039900EB800340F2D4
S31508003AA00022C2F2000202EB8302128D00F052F8E5
S31508003AB045F61041C4F2000102200870FFE7FFE74F
S31508003AC00CE045F61041C4F200014820087040F2A7
S31508003AD0B031C2F2000104200870FFE730E0029816
S31508003AE038B3FFE702989DF8071001EB810240F210
S31508003AF00021C2F2000101EB8201098D88420FD92B
S31508003B00FFE79DF80700039900EB800340F20022C7
S31508003B10C2F2000202EB8302128D00F01BF807E0E6
S31508003B209DF807000399BDF8082000F013F8FFE791
S31508003B30FFE745F61541C4F2000101200870FFE7CA
S31508003B409DF80600FFF7EEFB00200590FFE70598B5
S31508003B5006B080BD86B08DF817000491ADF80E202A
S31508003B6004980190BDF80E00ADF802009DF81710F4
S31508003B7045F62040C4F2000000EB81000290BDF833
S31508003B80020090B1FFE7FFE7BDF8020060B1FFE76A
S31508003B900198411C0191007802990870BDF802004D
S31508003BA00138ADF80200EFE7FFE706B0704700BF3F
S31508003BB080B586B08DF81300039102929DF8130024
S31508003BC000F07F008DF80700039838B9FFE70298E0
S31508003BD020B1FFE74FF0FF3005907EE09DF8070023
S31508003BE000EB800140F20020C2F2000000EB8100E9
S31508003BF090F8CC0020B9FFE76FF0010005906CE063
S31508003C00FFF714FD8DF806009DF80700FFF78AFBFD
S31508003C1003999DF8072040F20020C2F20000C83040
S31508003C2002EB820200EB8202916002999DF807205E
S31508003C3002EB820200EB8202D1609DF8071001EBCD
S31508003C40810100EB8101002008619DF8070040BB57
S31508003C50FFE740F2B030C2F200000078014600915A
S31508003C6040B1FFE70098012813D0FFE7009806281F
S31508003C700FD015E045F61041C4F20001087840F06F
S31508003C804000087040F2B031C2F20001032008700B
S31508003C9006E040F2B031C2F2000105200870FFE7E5
S31508003CA014E09DF80710012000FA01F245F60941D3
S31508003CB0C4F2000108781043087045F61941C4F2A9
S31508003CC00001087800F0FE000870FFE79DF806007E
S31508003CD0FFF728FB00200590FFE7059806B080BD92
S31508003CE080B588B045F60440C4F200000078079015
S31508003CF045F60640C4F200000078069045F60540F1
S31508003D00C4F2000000780590FFF790FC8DF81300C8
S31508003D109DF81C004007002828D5FFE740F2002040
S31508003D20C2F2000002904FF4C07100F016FF02992B
S31508003D3040204860FEF734FB45F60141C4F2000115
S31508003D40087840F00100087045F60A41C4F20001FF
S31508003D500120087045F60941C4F2000100200870E8
S31508003D6040F2B031C2F200010870FFE79DF81C006E
S31508003D700007002801D5FFE7FFE79DF81C0080072C
S31508003D80002803D5FFE7FEF7FFFAFFE79DF81C00BA
S31508003D90C00718B1FFE7FEF7FDFAFFE745F60A4048
S31508003DA0C4F2000001780698084006909DF81800AD
S31508003DB0C00750B1FFE70020FFF7B4FA00F0A8F9F2
S31508003DC0069820F001000690FFE701208DF8120002
S31508003DD0FFE70698002800F0E680FFE706989DF8BA
S31508003DE01210C840C007002800F0D780FFE79DF8EA
S31508003DF01200FFF797FA45F61540C4F2000000785E
S31508003E004007002809D5FFE745F61541C4F2000129
S31508003E10087800F0FB000870FFE79DF8120000EB39
S31508003E20800140F20020C2F2000000EB8101486BDD
S31508003E30098D884227D9FFE79DF8120000EB80011B
S31508003E4040F20020C2F20000283000EB810230F870
S31508003E5021309168194491609DF8121001EB810197
S31508003E6000EB810230F821301169194411619DF87F
S31508003E70121001EB810200EB820130F82220C8689B
S31508003E80801AC86021E09DF8120000EB800140F21C
S31508003E900020C2F20000283000EB81029168D36846
S31508003EA0194491609DF8121001EB810100EB810223
S31508003EB0D3681169194411619DF8121001EB81014B
S31508003EC000EB81010020C860FFE79DF8120000EBB7
S31508003ED0800140F20020C2F2000000EB8100406B36
S31508003EE080B9FFE79DF8121041F0800001EB8102CE
S31508003EF040F20021C2F2000101EB8201896BFEF754
S31508003F0087FB41E09DF8120000EB800140F200209B
S31508003F10C2F2000000EB8101486B098D88420DD280
S31508003F20FFE79DF8120000EB800140F20020C2F284
S31508003F30000000EB8100406B01900CE09DF8120038
S31508003F4000EB800140F20020C2F2000000EB810085
S31508003F50008D0190FFE70198ADF810009DF812005A
S31508003F6000EB800240F20021C2F2000101EB82015F
S31508003F70096BBDF81020FFF7EDFD45F61541C4F2B3
S31508003F80000101200870FFE79DF81210012000FAD1
S31508003F9001F1069888430690FFE79DF81200013064
S31508003FA08DF8120015E745F60940C4F200000178BD
S31508003FB005980840059001208DF81200FFE705983E
S31508003FC0002800F09E80FFE705989DF81210C8406B
S31508003FD0C007002800F08F80FFE79DF81200FFF762
S31508003FE0A1F945F61940C4F200000078C007002878
S31508003FF078D0FFE745F61C40C4F200000088ADF80B
S315080040000E009DF8120040F20021C2F20001C831EC
S31508004010009100EB800201EB82018968BDF80E2051
S3150800402000F074F90099BDF80E309DF8120000EB07
S31508004030800001EB8002906818449060BDF80E304D
S315080040409DF8120000EB800001EB8002106918440D
S315080040501061BDF80E309DF8120000EB800001EBF0
S315080040608002D068C01AD060BDF80E009DF81220F4
S3150800407002EB820231F8221088420EDBFFE79DF838
S31508004080120000EB800140F20020C2F2000000EBB3
S315080040908100D0F8D400D8B9FFE79DF812100120A6
S315080040A000FA01F245F60941C4F200010878904386
S315080040B008709DF8120000EB800240F20021C2F25F
S315080040C0000101EB8201D1F8D810FEF70BFB08E0DE
S315080040D045F61941C4F20001087800F0FE000870A0
S315080040E0FFE7FFE79DF81210012000FA01F1059895
S315080040F088430590FFE79DF8120001308DF81200FD
S315080041005DE79DF81300FFF70DF908B080BD00BF05
S3150800411080B584B045F61040C4F2000000788DF8EA
S315080041200F009DF80F00400700280FD5FFE745F65A
S315080041301041C4F20001087800F0FB00087040F254
S31508004140B031C2F2000100200870DDE09DF80F00D2
S31508004150C00600280DD5FFE745F61041C4F2000158
S315080041608020087040F2B031C2F2000100200870C9
S31508004170FFE740F20020C2F20000007801280DDBBC
S31508004180FFE740F20021C2F20001087845F6004236
S31508004190C4F20002107000200870FFE740F2B03049
S315080041A0C2F20000007801460291062800F2AC80AF
S315080041B00299DFE801F00426A950A2A29D009DF805
S315080041C00F00C007E0B1FFE745F61140C4F2000052
S315080041D00078ADF80C00BDF80C00082801D0FFE700
S315080041E092E040F20020C2F2000000F120010191A5
S315080041F00020082200F08AF80198FEF7F9F8FFE790
S3150800420082E040F20021C2F20001486B098D884223
S315080042100DD9FFE740F20021C2F200010A8D886B32
S31508004220104488630A8D486B801A48630AE040F296
S315080042300021C2F200014A6B886B10448863002093
S315080042404863FFE740F20020C2F20000816B80203D
S31508004250FEF7DEF958E09DF80F00C007002846D0A3
S31508004260FFE745F61140C4F200000078ADF80C00EF
S3150800427040F20020C2F200000090D0F8D010BDF83D
S315080042800C20002000F042F80099BDF80C20D1F867
S31508004290D0001044C1F8D000BDF80C20D1F8D800E1
S315080042A01044C1F8D800BDF80C00B1F8C81088420F
S315080042B00BDBFFE740F20020C2F20000D0F8D41072
S315080042C0D0F8D80088420AD1FFE740F20020C2F2AF
S315080042D00000D0F8D8100020FEF704FA06E045F6EC
S315080042E01041C4F2000140200870FFE7FFE70BE029
S315080042F080200021FEF78CF906E040F2B031C2F2C8
S31508004300000100200870FFE704B080BD86B08DF874
S3150800431017000491ADF80E2004980290BDF80E001F
S31508004320ADF802009DF8171045F62040C4F20000CB
S3150800433000EB81000190BDF8020090B1FFE7FFE7AE
S31508004340BDF8020060B1FFE70198007802994A1C9F
S3150800435002920870BDF802000138ADF80200EFE7D6
S31508004360FFE706B0704700BF45F60141C4F20001F9
S31508004370087840F004000870704700BF45F6014110
S31508004380C4F20001087800F0FB00087070470000CE
S3150800439080B582B000200190FBF740FF00F006F8D8
S315080043A000F044F8FFE700F0FFFAFCE780B592B0AA
S315080043B007A801902C2100F0D0FB01980022069254
S315080043C005920492039202921F2107914FF48031BD
S315080043D008914FF44073099310230D934FF0010C85
S315080043E0CDF830C00A920B930E9202220F921091CA
S315080043F04FF440211191FCF791FF18B1FFE700F047
S3150800440045F8FFE70F200290022003900020049051
S315080044100590069002A80421FDF7BEFB18B1FFE738
S3150800442000F034F8FFE712B080BD00BF80B582B057
S31508004430FFE741F21800C4F20200016841F00101E9
S315080044400160006800F0010001900198FFE741F261
S315080044502801C4F20201086840F000400860FFE73E
S3150800446041F21C00C4F20200016841F40001016037
S31508004470006800F4000000900098FFE700F072FA68
S31508004480132000F005F802B080BD00BFFFE7FEE785
S3150800449081B00090009800280DD4FFE7009901F03C
S315080044A01F02012090404A094EF20011CEF2000187
S315080044B041F82200FFE701B07047000082B0FFE72D
S315080044C041F21800C4F20200016841F001010160DE
S315080044D0006800F0010001900198FFE7FFE741F24C
S315080044E01C00C4F20200016841F0805101600068B6
S315080044F000F0805000900098FFE702B07047000077
S31508004500704700BFFFE7FEE7FFE7FEE7FFE7FEE7C6
S31508004510FFE7FEE7704700BF704700BF704700BF60
S3150800452080B5FBF7E3FE80BD80B5FFF7D9FB80BDFC
S3150800453080B5FCF7BFF980BD10B5C8B044F63C415C
S31508004540C0F6000136A84822009200F0D4FA009975
S3150800455024A800F002FB44F68443C0F60003019346
S31508004560186859689A68D3F80CC0D3F810E05C69E3
S315080045701F94CDF878E0CDF874C01C921B911A9060
S315080045809869D9691A6A5B6A2393229221912090C5
S3150800459044F6AC43C0F600030293186859689A6853
S315080045A0D3F80CC0D3F810E05C691594CDF850E048
S315080045B0CDF84CC01292119110909869D9691A6A6F
S315080045C05B6A199318921791169006A8282100F08D
S315080045D0C4FA002005900490039042F20802C4F23F
S315080045E0020240F22311C4F26751116048F6AB117A
S315080045F0CCF6EF51116042F20C02C4F2020242F606
S315080046003B21C0F61901116046F67F61C4F65D418B
S31508004610116042F28C22C4F2020244F25101C5F63C
S315080046207F51116042F26371C4F2CE611160059048
S31508004630FFE70598112828D8FFE703200490FFE72D
S31508004640059936A850F82100006803900399C843D5
S3150800465080B2B0EB114F06D1FFE70398059A24A95B
S3150800466041F8220006E0FFE7049801380490002884
S31508004670E6D1FFE7049818B9FFE7FFF759FFFFE708
S31508004680FFE7059801300590D3E7249825996FF33D
S315080046901F306FF31F3140EA014006909DF89800DD
S315080046A007902798289900F00F0001F01F0140EAAB
S315080046B00140089029982A996FF3DF206FF35F313C
S315080046C040EA014009902B982C996FF3DF206FF38D
S315080046D0DF2140EA01400A902D982E9900F03F000C
S315080046E001F03F0140EA01400B902F9800F03F008F
S315080046F00C90BDF8C000319940EA01400D90BDF814
S31508004700C800339940EA01400E90349835996FF302
S315080047101F306FF31F3140EA01400F9000200590CB
S31508004720FFE70598092829D8FFE705991AA850F838
S31508004730210000680390059B06A850F823000399FA
S3150800474010AA52F823201140884212D0FFE7059894
S315080047501AA951F820000068059A10AB53F82230C0
S31508004760984306AB53F82230184351F822100860D4
S31508004770FFE7FFE7059801300590D2E742F20021EE
S31508004780C4F20201086840F00100086000BF00BFDB
S3150800479000BF00BF00BF00BF00BF00BF00BF00BF13
S315080047A0086820F00100086000200590FFE70598DA
S315080047B009281AD8FFE705991AA850F821000068B1
S315080047C00390059B06A850F82300039910AA52F8EF
S315080047D023201140884203D0FFE7FFF7A9FEFFE731
S315080047E0FFE7059801300590E1E742F21401C4F2AB
S315080047F00201086840F080400860086840F0004000
S31508004800086048B010BD00BF80B5FFF795FE4EF6AC
S315080048108851CEF20001086840F4700008604EF630
S315080048200851CEF200014FF00060086080BD00BF5D
S3150800483080B598B044F61451C0F6000108A8402285
S3150800484000F014F940F20120ADF81E000020069091
S31508004850059004900390029041F20400C4F202000D
S3150800486000680690069800F00C000146019140B1D8
S31508004870FFE7019804280ED0FFE70198082814D00E
S315080048804AE040F20001C2F2000141F20020C0F203
S315080048907A00086041E040F20001C2F2000143F2EA
S315080048A00060C0F26E10086037E0069901F0C0405B
S315080048B001F47011400E40EA914108A8405C03904B
S315080048C09DF81A00C007C0B1FFE741F20400C4F220
S315080048D00200006800F400310DF11E0040EA514064
S315080048E000780590039843F20061C0F26E114843C0
S315080048F00599B0FBF1F0049007E0039841F2002116
S31508004900C0F27A0148430490FFE7049840F2000198
S31508004910C2F20001086000E0FFE741F20400C4F2B9
S3150800492002000068C0B2010944F65450C0F60000FF
S31508004930405C0290029A40F20001C2F20001086847
S31508004940D040086018B080BD704700BF82B08DF8AF
S315080049500700009140F28031C2F200010020087081
S3150800496002B0704780B544F66C50C0F60000FDF7FB
S315080049701FFF40F28430C2F2000044F62161C0F6FF
S31508004980000144F6E152C0F600024023FDF708FC98
S31508004990FDF73AFF40F20400C2F20000FDF766FF99
S315080049A0FDF794FF80BD00BF80B584B0002003905A
S315080049B04FF480200290812002A90822FEF766FFA4
S315080049C001900198B0F1FF3F01DCFFE70FE040F2EC
S315080049D08031C2F2000101200870FFE740F2803002
S315080049E0C2F200000078012801D1FFE7F6E704B01B
S315080049F080BD00BF81B08DF803008DF802108DF8D8
S31508004A0001209DF8010040F28131C2F200010870D0
S31508004A1001B0704781B08DF803008DF8021040F29E
S31508004A208130C2F20000007801B07047094880471B
S31508004A3009480047FEE7FEE7FEE7FEE7FEE7FEE772
S31508004A40FEE7FEE7FEE7FEE704480549054A064B8A
S31508004A50704700000948000831010008C00300201B
S31508004A60C0090020C0050020C0050020032A40F226
S31508004A70308010F0030C00F0158011F8013BBCF1F2
S31508004A80020F624498BF11F801CB00F8013B38BF0A
S31508004A9011F8013BA2F1040298BF00F801CB38BF18
S31508004AA000F8013B11F0030300F02580083AC0F036
S31508004AB0088051F8043B083A51F804CBA0E80810DE
S31508004AC0F5E7121D5CBF51F8043B40F8043BAFF311
S31508004AD00080D20724BF11F8013B11F801CB48BF6B
S31508004AE011F8012B24BF00F8013B00F801CB48BFA1
S31508004AF000F8012B704710B5203AC0F00B80B1E8DA
S31508004B001850A0E81850B1E81850A0E81850203AF4
S31508004B10BFF4F5AF5FEA027C24BFB1E81850A0E8FD
S31508004B20185044BF18C918C0BDE810405FEA827C17
S31508004B3024BF51F8043B40F8043B08BF7047D2072E
S31508004B4028BF31F8023B48BF11F8012B28BF20F8CF
S31508004B50023B48BF00F8012B70474FF0000200B532
S31508004B60134694469646203922BFA0E80C50A0E882
S31508004B700C50B1F12001BFF4F7AF090728BFA0E830
S31508004B800C5048BF0CC05DF804EB890028BF40F8FC
S31508004B90042B08BF704748BF20F8022B11F0804F3E
S31508004BA018BF00F8012B7047704770477047754665
S31508004BB000F032F8AE4605006946534620F0070075
S31508004BC0854618B020B5FFF73FFFBDE820404FF0F7
S31508004BD000064FF000074FF000084FF0000BAC46F8
S31508004BE0ACE8C009ACE8C009ACE8C009ACE8C00943
S31508004BF021F007018D46704710B50446AFF30080D3
S31508004C002046BDE81040FBF702BB0000014918200A
S31508004C10ABBEFEE726000200004870478001002070
S31508004C207047F1EE100A4FF6FF71C0F2C03120EA64
S31508004C30010040F04070E1EE100A70471051FF1F66
S31508004C401451FF1F1851FF1F4851FF1F4C51FF1FDA
S31508004C500056FF1F0456FF1F0052FF1F0452FF1F76
S31508004C604051FF1F4451FF1F0852FF1F2051FF1FCD
S31508004C702451FF1F2851FF1F2C51FF1F3051FF1FC2
S31508004C803451FF1F082202400C2202402022024013
S31508004C9028220240242202401C2202402C220240E2
S31508004CA0102202401422024018220240FF0FFF0F72
S31508004CB0FF0000000F001F00FF07FF1FFF07FF0789
S31508004CC03F003F003F000000FFFFFFFFFFFFFFFF21
S31508004CD0FF0FFF0F02030405060708090A0B0C0D50
S31508004CE00E0F101112131415161718191A1B1C1D5E
S31508004CF01E1F202122232425262728292A2B2C2D4E
S31508004D002E2F303132333435363738393A3B3C3D3D
S31508004D103E3F3F3F02030405060708090A0B0C0D30
S31508004D200E0F101112131415161718191A1B1C1D1D
S31508004D301E1F202122232425262728292A2B2C2D0D
S31508004D402E2F303132333435363738393A3B3C3DFD
S31508004D503E3F3F3F00000000000000000102030440
S31508004D6006070809000000000102030412010002F8
S31508004D7000000040B736FFFF0200010203010902E6
S31508004D80220001010080320904000001030001002D
S31508004D900921110100012240000705810308000AC4
S31508004DA0040309040A0350005500590041001C0376
S31508004DB050005500590041002000480049004400B1
S31508004DC02000440045004D004F0016033200300015
S31508004DD0320032003100320033003400350036002C
S31508004DE00005010906A101050719E029E7150025AF
S31508004DF00175019508810295017508810305081951
S31508004E00012905950575019102950175039103958B
S31508004E10067508150026FF00050719002964810094
S31508004E20C00921110100012240000000604E00085F
S31508004E30000000208001000094010008804E000850
S31508004E408001002040080000D4010008000000008E
S31508004E500000000000000000000000000000000044
S31508004E604600127A0081464D4900080102FF0801F2
S31508004E7072000000000000000000000000000000B2
S70508000131C0
