:020000040800F2
:100000009804002045010008331D00082B1D00083E
:100010002F1D00087108000849200008000000009A
:10002000000000000000000000000000192000088F
:100030007508000800000000351D00081B2000089E
:100040005F0100085F0100085F0100085F01000810
:100050005F0100085F0100085F0100085F01000800
:100060005F0100085F0100085F0100085F010008F0
:100070005F0100085F0100085F0100085F010008E0
:100080005F0100085F0100085F0100085F010008D0
:100090005F01000800000000000000005F01000890
:1000A0005F0100085F0100085F0100085F010008B0
:1000B0005F0100085F0100085F0100085F010008A0
:1000C0005F0100085F0100085F0100085F01000890
:1000D0005F0100085F0100085F0100085F01000880
:1000E0005F0100085F010008000000005F010008D8
:1000F0005F0100085F0100085F0100085F01000860
:100100005F0100085F0100085F0100085F0100084F
:100110005F0100085F0100085F0100085F0100083F
:100120005F0100085F0100085F0100085F0100082F
:10013000DFF80CD000F03CF800480047A52000088C
:10014000980400200648804706480047FEE7FEE77F
:10015000FEE7FEE7FEE7FEE7FEE7FEE7FEE7FEE777
:10016000252000083101000840EA01039B0703D065
:1001700009E008C9121F08C0042AFAD203E011F8E6
:10018000013B00F8013B521EF9D27047D2B201E0A8
:1001900000F8012B491EFBD270470022F6E710B58C
:1001A00013460A4604461946FFF7F0FF204610BDE5
:1001B000064C074D06E0E06840F0010394E80700B4
:1001C00098471034AC42F6D3FFF7B6FFF821000889
:1001D0001822000810B5034607E018780C78A042F2
:1001E00001D0012010BD5B1C491C101EA2F10104AE
:1001F000E2B2F2D100BFF5E700BFFEE710B500F0B4
:100200009DFD10BD70B504460D46164600224FF404
:1002100000414FF0904000F0C2FC062036490870C3
:1002200041F288330122354801F077FB08B1FFF72E
:10023000E3FF0122D1034FF0904000F0B0FC002218
:100240004FF400414FF0904000F0A9FC02202A49F1
:10025000087041F288330122284801F05EFB08B1A2
:10026000FFF7CAFF200C24490870200A48708C70E0
:1002700041F288330322214801F04FFB08B1FFF718
:10028000BBFF41F28833324629461C4801F045FB4A
:1002900008B1FFF7B1FF0122D1034FF0904000F009
:1002A0007EFC00224FF400414FF0904000F077FCBC
:1002B00005201149087041F2883301220F4801F0EE
:1002C0002CFB08B1FFF798FF00BF41F288330122F1
:1002D0000B490A4801F056FA08B1FFF78DFF0848AC
:1002E000007800F001000028EFD10122D1034FF087
:1002F000904000F054FC70BD130000202C00002042
:100300001600002070B504460E46154600224FF434
:1003100000414FF0904000F042FC03201549087066
:1003200041F288330122144801F0F7FA08B1FFF7CF
:1003300063FF200C0F490870200A48708C7041F24E
:10034000883303220C4801F0E8FA08B1FFF754FFA4
:10035000AAB241F288333146074801F013FA08B1D6
:10036000FFF74AFF0122D1034FF0904000F017FC45
:1003700070BD0000130000202C00002010B50446C2
:1003800000224FF400414FF0904000F008FC06209E
:100390003149087041F288330122304801F0BDFA3A
:1003A00008B1FFF729FF0122D1034FF0904000F080
:1003B000F6FB00224FF400414FF0904000F0EFFBBD
:1003C00020202549087041F288330122234801F09A
:1003D000A4FA08B1FFF710FF200C1F490870200A8B
:1003E00048708C7041F2883303221C4801F095FA62
:1003F00008B1FFF701FF0122D1034FF0904000F058
:10040000CEFB00224FF400414FF0904000F0C7FBBC
:1004100005201149087041F2883301220F4801F08C
:100420007CFA08B1FFF7E8FE00BF41F288330122F1
:100430000B490A4801F0A6F908B1FFF7DDFE0848AC
:10044000007800F001000028EFD10122D1034FF025
:10045000904000F0A4FB10BD130000202C000020F1
:100460001600002006E0002000F092F94FF4FA7028
:1004700000F002FAF7E7000070B5C2B048227349F5
:1004800030A8FFF771FE48211EA8FFF786FE28223C
:100490006E49483114A8FFF767FE28226B49703176
:1004A0000AA8FFF761FE28216846FFF776FE0024C0
:1004B0000026002566486749886067488860674865
:1004C000C8606748C860674867490860674861490D
:1004D000C1F88C0200BF16E0032600BF30A850F818
:1004E00024000568E84380B2B0EB154F03D11EA885
:1004F00040F8245002E0701E061EEFD100BF0EB976
:10050000FFF77CFE641C122CE6D31E98C0F30B0090
:100510001F99C1F30B0140EA014000902098C0B23E
:100520000190219800F00F00229901F01F0140EA8C
:10053000014002902398C0F30A002499C1F30C01F2
:1005400040EA014003902598C0F30A002699C1F3C0
:100550000A0140EA01400490279800F03F002899E2
:1005600001F03F0140EA01400590299800F03F006A
:100570000690DDE92A0161F31F400790DDE92C01B7
:1005800061F31F4008902E98C0F30B002F99C1F320
:100590000B0140EA0140099000241BE014A850F828
:1005A000240005685DF824100AA850F824002840AB
:1005B00081420ED014A850F8240000680AA951F80E
:1005C000241088435DF82410084314A951F824101E
:1005D0000860641C0A2CE1D323488C38006840F082
:1005E00001001C49C1F8000200BF00BF00BF00BFEE
:1005F00000BF00BF00BF00BF00BF00BF1548D0F85C
:10060000000220F001001349C1F8000200240EE0AE
:1006100014A850F8240005685DF824100AA850F8C2
:1006200024002840814201D0FFF7E8FD641C0A2C19
:10063000EED30848406940F08040064948610846CA
:10064000406940F00040486142B070BD5821000848
:100650002301674500200240AB89EFCD3B2A1908F2
:100660007F6E5D4C51407F5D8C2202406327CE46F9
:1006700000B591B02C2106A8FFF78FFD142101A829
:10068000FFF78BFD1F200690002007900C900120A3
:100690000B90002009900D9001200E9006A800F00C
:1006A0009BFC08B1FFF7A8FD0F20019000200290ED
:1006B000039004904FF480600590002101A800F0A1
:1006C00053FB08B1FFF798FD11B000BD10B500BF96
:1006D000084890F855000128FAD10F22064907482A
:1006E000FFF778FD08B1FFF7BDFE002000F040F8ED
:1006F00010BD00002C000020880000200400002015
:1007000010B586B00446142101A8FFF746FD00BFCE
:1007100000BF1448406B40F004001249486308468B
:10072000406B00F00400009000BF00BF00BF0E4807
:1007300030F8140001900120029000200390022064
:1007400004900A4951F8240001A900F035F9064A3D
:1007500032F81410054A52F82400012200F01FFA62
:1007600006B010BD00100240F02100081800002063
:1007700010B50446044A32F81410044A52F8240012
:10078000002200F00CFA10BDF02100081800002033
:1007900010B50446044A32F81410044A52F82400F2
:1007A00000F0F6F910BD0000F0210008180000204C
:1007B00010B50446064A32F81410064A52F82400CE
:1007C00000F0DEF908B9012010BD0020FCE70000B0
:1007D000F22100081C00002030B587B004460D4609
:1007E000142102A8FFF7D9FC00BF6CB900BF1B4859
:1007F000406B40F00400194948630846406B00F024
:100800000400019000BF00BF00BF154830F814007D
:10081000029000200490012005903DB90020039033
:10082000104951F8240002A900F0C6F8012D13D197
:100830000D4803900B4951F8240002A900F0BCF8C0
:100840000A49095D48B200220F2100F025FA074944
:10085000095D48B200F00CFA07B030BD001002404C
:10086000F22100081C00002000002110F4210008E3
:1008700000BFFEE77047000070B5044600F094F931
:1008800006462546681C10B104480078054400BFA0
:1008900000F08AF9801BA842FAD370BD280000201E
:1008A000F0B50B46002176E001258D4005EA0302F4
:1008B000002A6FD03A4D8E0855F826408D072E0F2E
:1008C0000F25B5402C40B0F1904F01D1002514E028
:1008D000344DA84201D101250FE0334DA84201D18A
:1008E00002250AE0314DA84201D1032505E0304D33
:1008F000A84201D1042500E007258E07360FB54038
:10090000A54221D12B4D2D6895432A4E3560351DCA
:100910002D689543361D3560351D2D689543361D70
:100920003560351D2D689543361D35608D072E0FBA
:100930000F2505FA06F41A4D8E0855F82650A543E2
:10094000174E8F0846F8275005684F000326BE4013
:1009500035430560CE0800F1200555F826504E07B6
:10096000F70E0F26BE40B543CF0800F1200646F82B
:10097000275085684F000326BE40B5438560466812
:1009800001258D40AE434660C5684F000326BE403A
:10099000B543C560491C23FA01F5002D84D1F0BD93
:1009A000140001400004004800080048000C004802
:1009B000001000480004014078B503460022CAE058
:1009C000012696400D6805EA0604002C71D04D689A
:1009D000022D02D04D68122D13D1D60803F1200547
:1009E00055F826005507EE0E0F25B540A8435607CB
:1009F000F60E0D69B5402843D60803F1200545F8E9
:100A00002600186856000325B540A8430D7905F067
:100A100003055600B540284318604D68012D08D0E5
:100A20004D68022D05D04D68112D02D04D68122D54
:100A300013D1986856000325B540A8435600CD68E9
:100A4000B54028439860586801259540A8430D7922
:100A5000C5F30015954028435860D8685600032513
:100A6000B540A84356008D68B5402843D8604D680E
:100A700005F08055B5F1805F6CD100BF394DAD698F
:100A800045F00105374EB5613546AD6905F0010504
:100A9000009500BF00BF344D960855F82600950715
:100AA0002E0F0F25B540A843B3F1904F02D100257A
:100AB00015E04FE02D4DAB4201D101250FE02C4D4B
:100AC000AB4201D102250AE02A4DAB4201D10325F8
:100AD00005E0294DAB4201D1042500E0072596072A
:100AE000360FB5402843204D960845F82600234D83
:100AF0002868A0434D6805F48035B5F5803F00D1E6
:100B000020431E4D28602D1D2868A0434D6805F424
:100B10000035B5F5003F00D12043184D2D1D28604C
:100B20002D1D2868A0434D6805F48015B5F5801F7C
:100B300000D12043114D083528602D1D2868A043A1
:100B40004D6805F40015B5F5001F00D120430B4D8D
:100B50000C352860521C0D68D540002D7FF430AF55
:100B600078BD00000010024014000140000400485D
:100B700000080048000C0048001000480004014034
:100B8000024613690B400BB1012000E000207047C2
:100B900042690A400AB1816200E0816170470AB18E
:100BA000816100E081627047014800687047000081
:100BB00020000020034800680349097808440149DF
:100BC00008607047200000202800002010B5042095
:100BD00000F0A0F8072000F005F800F029F8002048
:100BE00010BD000070B504460E4800784FF47A71CD
:100BF000B1FBF0F00C490968B1FBF0F5284601F0B3
:100C00007AF808B1012070BD082C07D200222146D5
:100C1000501E00F041F80548046001E00120F2E7B1
:100C20000020F0E728000020000000202400002021
:100C300008B500BF0D48806940F001000B4988618C
:100C40000846806900F00100009000BF00BF00BFAF
:100C50000846C06940F08050C8610846C06900F08D
:100C60008050009000BF00BF08BD0000001002408F
:100C70000146084600280DDB00BF00BF00F01F033F
:100C800001229A4043099B0003F1E023C3F80021AD
:100C900000BF00BF00BF70472DE9F05F80460D46E2
:100CA0001646002701F0D2F9074639462A46334650
:100CB00001F00700C0F1070ABAF1030F02D94FF0A3
:100CC000030A01E0C0F1070AD14600F1030ABAF1B4
:100CD000070F02D24FF0000A01E0A0F1040AD44647
:100CE0004FF0010A0AFA09FAAAF1010A0AEA020A0D
:100CF0000AFA0CFA4FF0010B0BFA0CFBABF1010BEB
:100D00000BEA030B4AEA0B042146404601F0A6F920
:100D1000BDE8F09F00BF00F00702064B19684FF6D0
:100D2000FF031940044B0B4343EA0221014B1960B6
:100D300000BF70470CED00E00000FA0500BFBFF3F4
:100D40004F8F0748006800F4E06006490843001D23
:100D500003490860BFF34F8F00BF00BF00BFFDE72E
:100D60000CED00E00000FA0570B504460D460CB924
:100D7000012070BD5A48006800F00F00A8420ED252
:100D80005748006820F00F0028435549086008467E
:100D9000006800F00F00A84201D00120E9E72078A8
:100DA00000F0020002281DD1207800F00400042881
:100DB00005D14C48406840F4E0604A4948602078DA
:100DC00000F00800082805D14648406840F460500B
:100DD000444948604348406820F0F000A168084357
:100DE00040494860207800F0010078B3606801282D
:100DF00006D13C480068C0F3404090B90120B8E7F4
:100E00006068022806D13748006800F0807040B959
:100E10000120AEE733480068C0F3400008B9012064
:100E2000A7E73048406820F00300616808432D4977
:100E30004860FFF7B9FE064609E0FFF7B5FE801BE4
:100E400041F28831884202D9032092E707E0254821
:100E5000406800F00C006168B0EB810FEDD12048D4
:100E6000006800F00F00A8420ED91D48006820F06D
:100E70000F0028431A4908600846006800F00F0078
:100E8000A84201D0012074E7207800F00400042873
:100E900007D11448406820F4E060E1680843114934
:100EA0004860207800F00800082808D10D48406804
:100EB00020F46050216940EAC1000A49486000F00E
:100EC00019F808494968C1F30311074A515CC84041
:100ED0000649086006480068FFF784FE002048E7DE
:100EE00000200240001002404021000800000020C5
:100EF000240000202DE9F04192B0402222A102A856
:100F0000FFF732F930A00068019000240025002688
:100F10000027A0462D48446804F00C0060B3042864
:100F200002D0082827D102E0DFF8A48027E004F4EB
:100F3000701004F0C04140EAD11002A901EB9040CA
:100F4000077804F44030B0F5803F04D004F440301A
:100F5000B0F5403F0AD11D484068C0F3404001A9A8
:100F60000D5C1B487843B0FBF5F602E0194807FB1F
:100F700000F6B04603E000BFDFF8588000BF00BFB6
:100F8000404612B0BDE8F0810203040506070809D7
:100F90000A0B0C0D0E0F1011121314151617181939
:100FA0001A1B1C1D1E1F2021222324252627282929
:100FB0002A2B2C2D2E2F3031323334353637383919
:100FC0003A3B3C3D3E3F3F3F0102000000100240E3
:100FD00000366E0100127A00F8B504460CB9012003
:100FE000F8BD207800F00100002878D0F64840686D
:100FF00000F00C00042813D0F348406800F00C0007
:10100000082818D1F048406800F48030B0F5803FDF
:1010100006D0ED48406800F48030B0F5403F0AD17A
:10102000E9480068C0F340400028DED0606800282E
:1010300055D10120D4E76068B0F5803F25D100BFCD
:10104000E148006820F48030DF4908600846006805
:1010500020F48020086000BFFFF7A6FD054606E0EB
:10106000FFF7A2FD401B642801D90320B8E7D6484A
:101070000068C0F340400028F2D1D348806B20F4D0
:101080004070A1680843D049886300BF6068B0F52C
:10109000803F06D1CC48006840F48030CA490860DF
:1010A00029E0606858B9C848006820F48030C64913
:1010B00008600846006820F4802008601BE0606833
:1010C000B0F5A02F0CD1C048006840F48020BE4984
:1010D00008600846006840F4803008600BE030E0AB
:1010E000B948006820F48030B749086008460068B5
:1010F00020F48020086000BF606888B1FFF754FDCD
:10110000054606E0FFF750FD401B642801D9032087
:1011100066E7AD480068C0F340400028F2D010E018
:10112000FFF742FD054606E0FFF73EFD401B642841
:1011300001D9032054E7A4480068C0F340400028C8
:10114000F2D1207800F00200022854D19E48406875
:1011500000F00C0098B19C48406800F00C00082892
:1011600017D19948406800F48030B0F5803F10D026
:101170009548406800F48030B0F5403F09D092486F
:101180000068C0F3400078B36069012833D00120C3
:1011900026E76069B8B18C48006840F001008A49D0
:1011A0000860FFF701FD054606E0FFF7FDFC401B68
:1011B000022801D9032013E783480068C0F34000E8
:1011C0000028F2D017E08048006820F001007E4936
:1011D0000860FFF7E9FC054607E0FFF7E5FC401B68
:1011E000022802D90320FBE605E077480068C0F337
:1011F00040000028F1D1207800F01000102830D1F4
:10120000A069B8B17048806A40F010006E498862E9
:10121000FFF7CAFC054606E0FFF7C6FC401B0228A4
:1012200001D90320DCE66848806AC0F3401000283A
:10123000F2D016E06448806A20F0100062498862AB
:10124000FFF7B2FC054606E0FFF7AEFC401B0228A4
:1012500001D90320C4E65C48806AC0F3401000282E
:10126000F2D1207800F00800082833D1E069D0B12D
:101270005548406A40F0010053494862FFF794FC2A
:10128000054606E0FFF790FC401B022801D9032029
:10129000A6E64D48406AC0F340000028F2D0012085
:1012A00000F04AFD16E04848406A20F00100464937
:1012B0004862FFF779FC054606E0FFF775FC401B26
:1012C000022801D903208BE63F48406AC0F3400062
:1012D0000028F2D1207800F00400042878D10027FB
:1012E0003948C06900F0805070B900BF3648C06905
:1012F00040F080503449C8610846C06900F0805011
:10130000009000BF00BF01273048006800F48070E3
:10131000B0B92E48006840F480702C490860FFF78F
:1013200043FC054606E0FFF73FFC401B642801D95B
:10133000032055E62548006800F480700028F2D0AC
:10134000E068012827D100BF1F48006A20F0010093
:101350001D4908620846006A20F00400086200BFC8
:10136000FFF722FC054608E0FFF71EFC401B41F298
:101370008831884201D9032032E61348006AC0F35D
:1013800040000028F0D11048006A20F018002169C0
:1013900008430D49086200BFE068012806D10A48E9
:1013A000006A40F00100084908622CE0E06880B95A
:1013B0000548006A20F00100034908620846006AF7
:1013C00020F0040008621EE000100240007000409F
:1013D0004CE0E06805280BD15C48006A40F004004E
:1013E0005A4908620846006A40F0010008620AE0B3
:1013F0005648006A20F00100544908620846006A15
:1014000020F00400086200BFE06898B1FFF7CCFB51
:10141000054608E0FFF7C8FB401B41F288318842CF
:1014200001D90320DCE54948006AC0F340000028E8
:10143000F0D012E0FFF7B8FB054608E0FFF7B4FB79
:10144000401B41F28831884201D90320C8E53F485A
:10145000006AC0F340000028F0D1012F05D13B48BD
:10146000C06920F080503949C86100BF206A90B33C
:101470003648406800F00C00082853D0206A022843
:1014800038D13248006820F0807030490860FFF79A
:101490008BFB054606E0FFF787FB401B022801D9BE
:1014A00003209DE529480068C0F340600028F2D180
:1014B000D4E90901084325494968254A11400843F0
:1014C000224948600846006840F080700860FFF7D5
:1014D0006BFB054607E037E0FFF766FB401B022881
:1014E00001D903207CE519480068C0F3406000285A
:1014F000F2D029E01548006820F080701349086098
:10150000FFF752FB054606E0FFF74EFB401B0228A3
:1015100001D9032064E50D480068C0F3406000284D
:10152000F2D111E0206A012800D159E50748466848
:1015300006F48031606A814204D106483040A16AD5
:10154000884201D001204BE5002049E5001002400F
:10155000FFFFC09F00003C6010B504460CB901209D
:1015600010BD022084F855002068006820F040007B
:1015700021680860204600F07DF80020A06584F80E
:10158000550000BF84F8540000BF00BFE8E770B505
:1015900004460CB9012070BD6068B0F5827F00D1AF
:1015A00001E00021E1610021A16294F8550028B911
:1015B000002084F85400204600F07EF8022084F8D1
:1015C00055002068006820F0400021680860E0684D
:1015D000B0F5E06F01D9002501E04FF48055E068D7
:1015E000B0F5706F05D0E068B0F5E06F01D0002174
:1015F000A162A08800F48270218901F404410843AB
:10160000217C01F002010843217D01F00101084322
:10161000218B01F400710843217F01F03801084358
:10162000A18901F4006108432021095D01F08001D6
:101630000843218D01F4005108432168086004210A
:10164000A06901EA1040A18C01F40041084305F4AF
:1016500080510843216848602068C06920F4006018
:101660002168C8610020A065012084F85500002091
:1016700091E7000010B504460C492068884214D157
:101680000B48C06840F480500949C8600846C068EB
:1016900020F48050C86038210648FFF701F94FF464
:1016A00000414FF09040FFF7FBF810BD00300140C3
:1016B000001002400004004810B586B00446142112
:1016C00001A8FEF76AFD2C492068884252D100BF6C
:1016D0002A48406B40F00800284948630846406BA0
:1016E00000F00800009000BF00BF00BF0846406B3C
:1016F00040F0040048630846406B00F0040000908E
:1017000000BF00BF00BF0846806940F48050886178
:101710000846806900F48050009000BF00BF082098
:101720000190206910B90220039001E0012003908C
:101730000220029004900320059001A91048FFF7B1
:101740003BF94FF4004001900120029003900320E8
:101750000490059001A94FF09040FFF72DF930203B
:1017600001900220029004900320059001A90448F2
:10177000FFF722F906B010BD003001400010024012
:10178000000400482DE9F8430446884616461D46E5
:101790004FF000096068B0F5827F0DD1A06858B99C
:1017A000042084F8550033464246414620460095C1
:1017B00000F08AF9BDE8F88300BF94F854000128CE
:1017C00001D10220F6E7012084F8540000BFFFF7A2
:1017D000EBF9074694F85500012802D04FF00209B2
:1017E00091E0B8F1000F00D016B94FF001098AE07E
:1017F000042084F855000020A065C4F83880A6872E
:10180000E6872063A086E0866064A064E068B0F5A7
:10181000E06F06D92068406820F480502168486055
:1018200005E02068406840F4805021684860A06866
:10183000B0F5004F0BD12068006820F0400021680F
:1018400008602068006820F48040216808602068F3
:10185000006800F04000402805D02068006840F093
:10186000400021680860E068B0F5E06F1FD81AE01A
:101870002068806800F0010050B12068007BA16BF7
:101880000870A06B401CA063E08F401EE0870AE058
:10189000FFF78AF9C01BA84201D3681C00B915B92B
:1018A0004FF003092FE0E08F0028E1D11EE01AE09D
:1018B0002068806800F0010050B12068C068A16B0A
:1018C0000880A06B801CA063E08F401EE0870AE0C8
:1018D000FFF76AF9C01BA84201D3681C00B915B90B
:1018E0004FF003090FE0E08F0028E1D13A46294686
:1018F000204600F035FA08B12020A065A06D08B19F
:101900004FF0010900BF012084F8550000BF0020FE
:1019100084F8540000BF48464CE72DE9F84F0446D0
:10192000884616461D464FF0000A00BF94F8540042
:10193000012802D10220BDE8F88F012084F854006C
:1019400000BFFFF731F90746B14694F8550001286A
:1019500002D04FF0020AADE0B8F1000F00D016B986
:101960004FF0010AA6E0032084F855000020A0658E
:10197000C4F83080A686E686A063A087E087A064CE
:101980006064A068B0F5004F0BD12068006820F0BB
:101990004000216808602068006840F480402168A9
:1019A00008602068006800F04000402805D02068EA
:1019B000006840F0400021680860E068B0F5E06F22
:1019C0002FD9606810B1B9F1010F09D1206B0088DF
:1019D0002168C860206B801C2063E08E401EE0867A
:1019E0001BE02068806800F0020002280AD1206B0A
:1019F00000882168C860206B801C2063E08E401E38
:101A0000E0860AE0FFF7D0F8C01BA84201D3681CAB
:101A100000B915B94FF0030A4CE0E08E0028E0D180
:101A20002EE0606810B1B9F1010F09D1206B007888
:101A300021680873206B401C2063E08E401EE08606
:101A40001BE02068806800F0020002280AD1206BA9
:101A5000007821680873206B401C2063E08E401ED4
:101A6000E0860AE0FFF7A0F8C01BA84201D3681C7B
:101A700000B915B94FF0030A1CE0E08E0028E0D150
:101A80003A462946204600F0ACF908B12020A0656E
:101A9000A06850B900BF002000902068C068009086
:101AA00020688068009000BF00BFA06D08B14FF0B3
:101AB000010A00BF012084F8550000BF002084F80F
:101AC000540000BF504636E72DE9FE4F04468846D5
:101AD00091461D460C9E012001900020009000BF01
:101AE00094F85400012802D10220BDE8FE8F0120A5
:101AF00084F8540000BFFFF757F8074694F855B034
:101B000060680290AA46BBF1010F0BD00298B0F5B5
:101B1000827F04D1A06810B9BBF1040F02D002206B
:101B20000090DEE0B8F1000F03D0B9F1000F00D053
:101B300015B901200090D4E094F85500042802D093
:101B4000052084F855000020A065C4F83890E5878A
:101B5000A587C4F83080E586A5866064A064E06847
:101B6000B0F5E06F06D92068406820F48050216805
:101B7000486005E02068406840F480502168486073
:101B80002068006800F04000402805D02068006808
:101B900040F0400021680860E068B0F5E06F4AD985
:101BA000606810B1BAF1010F09D1206B008821687B
:101BB000C860206B801C2063E08E401EE08633E00E
:101BC0002068806800F00200022810D1E08E70B119
:101BD000019801280BD1206B00882168C860206B18
:101BE000801C2063E08E401EE0860020019020686B
:101BF000806800F0010068B1E08F58B12068C068CB
:101C0000A16B0880A06B801CA063E08F401EE08762
:101C100001200190FEF7C8FFC01BB04204D3701C26
:101C200010B1032000905CE0E08E0028C8D1E08F66
:101C30000028C5D14AE0606810B1BAF1010F09D19E
:101C4000206B007821680873206B401C2063E08EB5
:101C5000401EE08634E02068806800F00200022820
:101C600010D1E08E70B1019801280BD1206B007863
:101C700021680873206B401C2063E08E401EE086C4
:101C8000002001902068806800F0010068B1E08FBA
:101C900058B12068007BA16B0870A06B401CA0634A
:101CA000E08F401EE08701200190FEF77DFFC01B02
:101CB000B04201D3701C00B916B90320009010E0A7
:101CC000E08E0028C7D1E08F0028C4D13A463146C3
:101CD000204600F086F818B1012000902020A06571
:101CE00000BF012084F8550000BF002084F8540094
:101CF00000BF0098F9E670B504462546681EB0F1AD
:101D0000807F01D301200FE0681E4FF0E021486181
:101D100007214FF0FF3000F0A1F900204FF0E02143
:101D2000886107200861002070BD00BFFEE700BF8A
:101D3000FEE770477047000008B508490968C90800
:101D40004FF47A72B1FBF2F14143009100BF00BF42
:101D500000994A1E00920029F9D108BD0000002018
:101D6000F8B504460E4615466068B0F5827F0DD181
:101D7000A068B0F5004F03D0A068B0F5806F05D122
:101D80002068006820F04000216808603346002287
:101D900080212046009500F0D3F828B1A06D40F0D6
:101DA0002000A0650320F8BD6068B0F5827F16D1E1
:101DB000A068B0F5004F03D0A068B0F5806F0ED1D9
:101DC000334600224FF4C0612046009500F03CF8F5
:101DD00028B1A06D40F02000A0650320E3E70020BB
:101DE000E1E7F8B504460E461546334600224FF4A7
:101DF000C0512046009500F027F828B1A06D40F0B2
:101E00002000A0650320F8BD334600228021204633
:101E1000009500F095F828B1A06D40F02000A06575
:101E20000320F0E7334600224FF4C06120460095BE
:101E300000F00AF828B1A06D40F02000A065032052
:101E4000E1E70020DFE700002DE9FC5F04460D46D6
:101E500016461F46DDF8309000200090FEF7A4FEE5
:101E6000A0EB0900A7EB0008FEF79EFE8246206863
:101E700000F10C0B31480068C0EBC00000EB8000A3
:101E8000000D00FB08F0019050E0B5F5C06F05D1E2
:101E900026B99BF8000000909DF80000781C0028EF
:101EA00044D0FEF781FEA0EB0A00404502D2B8F113
:101EB000000F34D12068406820F0E00021684860BD
:101EC0006068B0F5827F0DD1A068B0F5004F03D0F7
:101ED000A068B0F5806F05D12068006820F0400050
:101EE00021680860A06AB0F5005F0DD100BF2068CE
:101EF000006820F40050216808602068006840F401
:101F000000502168086000BF012084F8550000BF20
:101F1000002084F8540000BF0320BDE8FC9F019816
:101F200008B94FF000080198401E019020688068B1
:101F30002840B042A9D10020EFE7000000000020B7
:101F40002DE9F84F04460D4690461E46DDF82890D0
:101F5000FEF72AFEA0EB0900371AFEF725FE82469F
:101F60002C480068C0F3CB307843009045E0701CEB
:101F7000002842D0FEF718FEA0EB0A00B84200D2BB
:101F8000A7BB2068406820F0E000216848606068D6
:101F9000B0F5827F0DD1A068B0F5004F03D0A068E6
:101FA000B0F5806F05D12068006820F040002168FE
:101FB0000860A06AB0F5005F0DD100BF206800681E
:101FC00020F40050216808602068006840F4005048
:101FD0002168086000BF012084F8550000BF002080
:101FE00084F8540000BF0320BDE8F88FFFE7009895
:101FF00000B900270098401E0090206880682840A3
:10200000A84201D1012000E000204045AFD10020CE
:10201000EAE7000000000020704710B5FEF7CAFD97
:1020200010BD000010B5FEF727FA0648006840F41E
:102030007000044908604FF0006002498039086070
:1020400010BD000088ED00E000BFFEE70248006818
:10205000C0F30220704700000CED00E010B500282E
:1020600004DB4A07130E054A135406E04A07140E10
:10207000034A00F00F031B1FD45410BD00E400E01E
:1020800018ED00E002E008C8121F08C1002AFAD1CA
:1020900070477047002001E001C1121F002AFBD1E8
:1020A00070470000FEF792FDFEF7E2FA0020FEF70F
:1020B00027FB1F481F49086038211E48C1610021C5
:1020C0008160016141614FF4E061C1600021016202
:1020D0004FF4007181614FF482701649486000210D
:1020E00014488162FFF738FA08B1FEF785F8114805
:1020F000FFF74DFA08B1FEF77FF800210846FEF71A
:102100006BFB00BF0020FEF753FB0128FAD0002034
:10211000FEF734F90F2208490020FEF773F80F226A
:1021200006490020FEF7EEF8FEF7D0FA00BFFEE702
:10213000003001402C000020040000208800002016
:102140000000000000000000010203040607080967
:1021500000000000010203041051FF1F1451FF1F73
:102160001851FF1F4851FF1F4C51FF1F0056FF1F02
:102170000456FF1F0052FF1F0452FF1F4051FF1F54
:102180004451FF1F0852FF1F2051FF1F2451FF1F02
:102190002851FF1F2C51FF1F3051FF1F3451FF1FCB
:1021A000082202400C220240202202402822024043
:1021B000242202401C2202402C2202401022024013
:1021C0001422024018220240FF0FFF0FFF00000000
:1021D0000F001F00FF07FF1FFF07FF073F003F0023
:1021E0003F000000FFFFFFFFFFFFFFFFFF0FFF0F9C
:1021F0000200010006000000182200080000002074
:102200002C00000084200008442200082C0000203C
:102210006C0400009420000800127A0001020304FC
:1022200005060708090A0B0C0D0E0F000000000040
:102230000000004800000048000000000800000006
:042240000100000099
:0400000508000131BD
:00000001FF
