:020000040800F2
:10000000181D002045010008C1320008B93200085F
:10001000BD32000849110008493E000800000000F8
:10002000000000000000000000000000E5380008AB
:100030008912000800000000C3320008E7380008F9
:100040005F0100085F0100085F0100085F01000810
:100050005F0100085F0100085F0100085F01000800
:100060005F0100085F0100085F0100084D110008F2
:100070004D1200085F0100085F0100085F010008E1
:100080005F0100085F0100085F010008413E0008B1
:100090005F01000800000000000000005F01000890
:1000A0005F0100085F0100085F0100085F010008B0
:1000B0005F0100085F0100085F0100085F010008A0
:1000C0005F0100085F0100085F0100085F01000890
:1000D0005F0100085F0100085F0100085F01000880
:1000E0005F0100085F010008000000005F010008D8
:1000F0005F0100085F0100085F0100085F01000860
:100100005F0100085F0100085F0100085F0100084F
:100110005F0100085F010008153900085F01000851
:100120005F0100085F0100085F0100085F0100082F
:10013000DFF80CD000F04AF800480047855000086E
:10014000181D00200648804706480047FEE7FEE7E6
:10015000FEE7FEE7FEE7FEE7FEE7FEE7FEE7FEE777
:10016000F13800083101000840EA01039B0703D081
:1001700009E008C9121F08C0042AFAD203E011F8E6
:10018000013B00F8013B521EF9D27047D2B201E0A8
:1001900000F8012B491EFBD270470022F6E710B58C
:1001A00013460A4604461946FFF7F0FF204610BDE5
:1001B00030B504460020034600E05B1C934203D2A6
:1001C000E05CCD5C401BF8D030BD0000064C074D14
:1001D00006E0E06840F0010394E807009847103417
:1001E000AC42F6D3FFF7A8FF346600085466000857
:1001F00070B58C1810F8015B15F0070301D110F8E9
:10020000013B2A1106D110F8012B03E010F8016B15
:1002100001F8016B5B1EF9D12B0705D40023521E98
:100220000DD401F8013BFAE710F8013BCB1A921C00
:1002300003E013F8015B01F8015B521EF9D5A142FE
:10024000D8D3002070BD70B50446002520688068B2
:1002500000F00100F0B12068806820F00100216802
:10026000886001F02FFE05460EE001F02BFE401BDA
:10027000022809D9E06A40F01000E062206B40F0EB
:1002800001002063012070BD2068806800F001003B
:100290000028EAD10020F6E700BFFEE710B501F024
:1002A000DBFE10BD70B5C2B04822734930A8FFF71D
:1002B0005BFF48211EA8FFF770FF28226E494831D6
:1002C00014A8FFF751FF28226B4970310AA8FFF7E5
:1002D0004BFF28216846FFF760FF00240026002519
:1002E000664867498860674888606748C8606748AB
:1002F000C86067486749086067486149C1F88C026F
:1003000000BF16E0032600BF30A850F8240005689F
:10031000E84380B2B0EB154F03D11EA840F824503B
:1003200002E0701E061EEFD100BF0EB9FFF7B6FF48
:10033000641C122CE6D31E98C0F30B001F99C1F366
:100340000B0140EA014000902098C0B20190219832
:1003500000F00F00229901F01F0140EA01400290D5
:100360002398C0F30A002499C1F30C0140EA01402C
:1003700003902598C0F30A002699C1F30A0140EAC8
:1003800001400490279800F03F00289901F03F01B8
:1003900040EA01400590299800F03F000690DDE911
:1003A0002A0161F31F400790DDE92C0161F31F4032
:1003B00008902E98C0F30B002F99C1F30B0140EA6F
:1003C0000140099000241BE014A850F8240005689F
:1003D0005DF824100AA850F82400284081420ED06D
:1003E00014A850F8240000680AA951F82410884382
:1003F0005DF82410084314A951F824100860641C07
:100400000A2CE1D323488C38006840F001001C49D5
:10041000C1F8000200BF00BF00BF00BF00BF00BFA7
:1004200000BF00BF00BF00BF1548D0F8000220F099
:1004300001001349C1F8000200240EE014A850F88E
:10044000240005685DF824100AA850F8240028400C
:10045000814201D0FFF722FF641C0A2CEED308482A
:10046000406940F08040064948610846406940F0D4
:100470000040486142B070BD086300082301674531
:1004800000200240AB89EFCD3B2A19087F6E5D4CFE
:1004900051407F5D8C2202406327CE4600B591B06B
:1004A0002C2106A8FFF779FE142101A8FFF775FE9D
:1004B0001F2006904FF480300790C0110890102044
:1004C0000C9001200B900020099010200A90002031
:1004D0000D9002200E90C1030F910107109106A804
:1004E00002F056F908B1FFF7D7FE0F200190022065
:1004F00002900020039004900590062101A801F0CD
:10050000FBFF08B1FFF7C8FE11B000BD08B500BF82
:100510001948806940F001001749886108468069E0
:1005200000F00100009000BF00BF0846806A40F064
:100530000040886200BF0846C06940F40000C861FE
:100540000846C06900F40000009000BF00BF04F03E
:1005500049F9132000280DDB00BF00BF00F01F0287
:10056000012191404209920002F1E022C2F80011FB
:1005700000BF00BF00BF08BD0010024010B504F06E
:10058000E1FA002038E0002132E0C0EBC0021C4B51
:1005900003EB4202525C02B928E0C0EBC00202EB5E
:1005A0008202184B03EBC20201EB810302EB8302D0
:1005B000927CC0EBC003144C04EB43035B5C9A4297
:1005C00013D0C0EBC00202EB82020E4B03EBC2025F
:1005D00001EB810302EB8302927CC0EBC00304EBCE
:1005E00043035A540122094B1A7000BF4A1CD1B26E
:1005F0000E29CADB411CC8B20528C4DB10BD0000AF
:100600007865000880060020980200200500002080
:1006100070B5DDE90445094E36780670084E367827
:100620000E70084E36781670074E36781E70074EDC
:1006300036782670064E36782E7070BD0900002080
:1006400010000020110000201200002013000020E4
:100650001400002010B50446F12C15D1154800787F
:10066000401C0A2190FBF1F201FB120011490870B5
:1006700000201149086000221146104604F09FFC3A
:1006800001200E49087013E0F52C04D1012104204B
:1006900000F026FC0CE0F62C04D10221042000F02E
:1006A0001FFC05E0F72C03D10321042000F018FC07
:1006B00010BD0000090000200C00002008000020F0
:1006C00010B500200849087001200849087046212B
:1006D0000748FFF762FD46210648FFF75EFD002050
:1006E0000549087010BD000005000020080000202A
:1006F00098020020DE020020090000202DE9F04FC2
:100700008DB0FE480678012E00DA0126052E00DDA8
:100710000526701EFA4931F81000FA4909680844A4
:10072000F8490860084600680A21B0FBF1F0F64974
:100730000860F6480078F649097810FB01F064215A
:1007400090FBF1F0C7B2F3480078F149097810FB4B
:1007500001F0642190FBF1F0C0B20C90EE480078FB
:10076000EB49097810FB01F0642190FBF1F0C0B275
:100770000B90EA4800780A2876D2DFE800F0750589
:1007800011261D5D6976FDFCDF490968491CDE4ABA
:100790000846116004F058FA0120E1490870CFE2E0
:1007A000D9490968491CD84A0846116004F0E4FB9D
:1007B0000120DB490870C3E23846DDE90B2104F073
:1007C000FEFB0120D6490870BAE200242EE0002585
:1007D00028E0C4EBC400D34901EB4000405D00B900
:1007E0001EE0C4EBC40000EB8000CF4901EBC00069
:1007F00005EB850100EB8100807C40B10B980090F7
:100800003A46294620460C9B04F0ECFB07E000200A
:100810000346024629460090204604F0E3FB00BF51
:10082000681CC5B20E2DD4DB601CC4B2052CCEDB17
:100830000120BB49087083E2B3490968491CB24AE8
:100840000846116004F054FA0120B549087077E2B7
:10085000AD490968491CAC4A0846116004F0F6FA33
:100860000120AF4908706BE269E2A7480068401CAC
:10087000A5490860002048E0002142E0C0EBC0022A
:10088000A84B03EB4202525C02B938E0C0EBC00255
:1008900002EB8202A44B03EBC20201EB810302EBE9
:1008A0008302927C52B34FF0FF3425E04FF0FF35C6
:1008B0001FE002194B19002A1ADB052A18DA002B4F
:1008C00016DB0E2B14DAC2EBC20CDFF8588208EBF1
:1008D0004C0C1CF803C0BCF1000F09D04FF0FF0C0A
:1008E000C2EBC208DFF8449209EB480808F803C0DD
:1008F0006D1C012DDDDD641C012CD7DD00BF4A1C01
:10090000D1B20E29BADB411CC8B20528B4DB0024E1
:100910009DE0002596E0C4EBC400824901EB400055
:10092000405D00B98CE0C4EBC400804901EB40009D
:10093000405D00287BDD04EB8400400005EB850171
:1009400000EB41017048007801EB800000F0FF09E6
:1009500008AB09AA0AA9484603F07AFF9DF82800C7
:100960006B49097810FB01F0642190FBF1F0C4EBB6
:10097000C4016E4A01E027E170E002EB4101495DEC
:100980004843FF2190FBF1F000F0FF0A9DF824009E
:100990005F49097810FB01F0642190FBF1F0C4EB92
:1009A000C40102EB4101495D4843FF2190FBF1F096
:1009B00000F0FF0B9DF820005549097810FB01F06D
:1009C000642190FBF1F0C4EBC40102EB4101495DED
:1009D0004843FF2190FBF1F0C0B2079007985B46B7
:1009E000524629460090204604F0FCFA4FF00F08CA
:1009F000C4EBC4004D4901EB4000405D40450EDDB5
:100A0000C4EBC40001EB4000405DA0EB0800C4EB68
:100A1000C401464A02EB4101485507E007E00020C7
:100A2000C4EBC401414A02EB4101485507E00020F4
:100A30000346024629460090204604F0D3FA00BF40
:100A4000681CC5B20E2DFFF666AF601CC4B2052C43
:100A5000FFF65FAF01203249087071E12A48006853
:100A6000401C294908600846006840081A21B0FB6C
:100A7000F1F201FB120ABAF10E0F03DAD0464FF081
:100A8000010B03E0CAF11A084FF0000B4FF0000908
:100A900092E0002489E0C9EBC900224901EB400043
:100AA000005D00B97FE0BBF1000F02D0A8EB0405A8
:100AB00001E0A4EB0805002D6CDB052D6ADCC4EB1E
:100AC00004111148007801EB4000C0B20A9007AB56
:100AD00008AA09A90A9803F0BBFE05EBC50000EBC4
:100AE0000510FF21A1EB4000C0B206909DF8240044
:100AF0000749097810FB01F0642119E01400002077
:100B00002C640008180000200C00002010000020B9
:100B10001300002011000020120000200900002016
:100B2000080000207865000880060020640300208B
:100B300090FBF1F006994843FF2190FBF1F0C0B221
:100B400005909DF820008049097810FB01F0642190
:100B500090FBF1F006994843FF2190FBF1F0C0B201
:100B600004909DF81C007849097810FB01F064217D
:100B700090FBF1F006994843FF2190FBF1F0C0B2E1
:100B800003900398009021464846DDE9043204F0C2
:100B900029FA07E000200346024621460090484615
:100BA00004F020FA00BF601CC4B20E2CFFF673AF35
:100BB00009F1010000F0FF09B9F1050FFFF669AF77
:100BC000012062490870BBE061480068401C604930
:100BD000086046200A9010200990084600684008E6
:100BE0004621B0FBF1F201FB12000890002416E050
:100BF000002510E0C4EBC400564901EB4000405D05
:100C000038B100200346024629460090204604F0F1
:100C1000E9F9681CC5B20E2DECDB601CC4B2052CD2
:100C2000E6DB002484E00E2094FBF0F0C5B22846F9
:100C300005EBD0714910A5EB410139B90E2094FBA9
:100C4000F0F100FB114000F0FF0808E00E2194FBDA
:100C5000F1F001FB1040C0F10D0000F0FF08C5EB02
:100C6000C5003C4901EB400010F8080000B95DE008
:100C70000898001B4630462290FBF2F102FB110956
:100C8000B9F1100F51DA32480078800004EB4401CA
:100C900000EB810000F0FF0B05AB06AA07A9584640
:100CA00003F0D6FDC9EB0920C11700EB1171091142
:100CB000C1F1FF0101F0FF0A9DF81C0022490978EB
:100CC00010FB01F1642091FBF0F000FB0AF0FF2122
:100CD00090FBF1F0C0B204909DF818001A49097811
:100CE00010FB01F0642190FBF1F000FB0AF0FF2102
:100CF00090FBF1F0C0B203909DF8140012490978FE
:100D000010FB01F1642091FBF0F000FB0AF0FF21E1
:100D100090FBF1F0C0B20290029800904146284644
:100D2000DDE9033204F05EF900BF00BF601CC4B20D
:100D3000462CFFF678AF01200449087000E000BFA0
:100D400000BF0DB0BDE8F08F1300002008000020A8
:100D50000C0000207865000810B50548007828B11F
:100D600004F086F910B900200149087010BD000098
:100D70000800002070B504460D462078052801D1F2
:100D8000402D00D070BD204600F016F894F83F10BA
:100D9000884200D0F6E70648007838B9402221465C
:100DA0000448FFF7E1F901200149087000BFE9E7B5
:100DB000040000201802002002460020002104E068
:100DC000535C0344D8B24B1CD9B23F29F8DBC1B203
:100DD000C1F1FF00704700002DE9FC413848007860
:100DE00000286AD00127402236493748FFF7BCF96E
:100DF00000203349087033484678857806F07F0034
:100E000020284EDB06F07F002F284ADC202E04D05D
:100E1000222E42D0A02E42D12DE065B92A4CE41DED
:100E2000A0796179CDE900102379E278A178207862
:100E300000F07CF81EE0022D02D12348C01D19E00D
:100E4000012D17D11F488079012813DB1D48C47973
:100E50000A2C0EDA1D4800781D490978CDE90010EA
:100E60001C4803781C4802781C480178204600F092
:100E70005DF800BF14E07DB9134CE41DA01D611D99
:100E8000231DE21CCDE90010A11C2046FFF7C0FB8A
:100E90000720E11F887100BF02E0002700E000BFCB
:100EA00000BF4FB10848FFF787FF074981F83F00AF
:100EB0004022822004F0AEFC00BFBDE8FC810000AF
:100EC0000400002018020020580200201400002016
:100ED000130000201200002011000020100000204C
:100EE00070B504460D4640210F48FFF756F905201E
:100EF0000D490870FE204870084684700020C870B4
:100F0000012008714871022088710846C5710021CE
:100F10000172FFF751FF044981F83F00402282200F
:100F200004F078FC70BD000024030020F0B5DDE97A
:100F300005450A2801DA0C4E30700C4E31700C4E0B
:100F400032700C4E3370642C01DD642600E02646BE
:100F5000094F3E70094E35700026094F3E6001264C
:100F6000084F3E70F0BD0000090000201000002076
:100F700011000020120000201300002014000020A7
:100F80000C000020080000202DE9FC415D4800789D
:100F900008B9BDE8FC810020009001900027804640
:100FA00000BF20E0002119E0C0EBC00202EB82028A
:100FB000554B03EBC20201EB810302EB8302927CEF
:100FC00052B1C0EBC002514B03EB4202525CF02A1B
:100FD00002D14FF0010803E04A1CD1B20E29E3DB35
:100FE00000BF411CC8B20528DCDB00246BE00025F3
:100FF00065E0C4EBC400464901EB4000405D60B1D0
:10100000C4EBC40000EB80003F4901EBC00005EBDE
:10101000850100EB8100807C38B90020C4EBC4015D
:101020003C4A02EB4101485547E0B8F1000F06D0B9
:10103000C4EBC400384901EB4000405D05E0C4EB5F
:10104000C400324901EB4000405D06462EB9C4EBB6
:10105000C4002E4901EB4000465D0EB1F02E00D1D8
:101060002BE0F02E11DBC4EBC4002A4901EB400059
:10107000405D48B93046FFF7EDFA0120C4EBC401EA
:10108000244A02EB4101485517E0E02E0CDBE72E25
:101090000ADC9DF80000A6F1E00101228A4010431D
:1010A000C0B28DF8000007E0062F05DA3846791C3B
:1010B000CFB2801C0DF8006000BF681CC5B20E2DB9
:1010C00097DB601CC4B2052C91DB082213496846EB
:1010D000FFF76EF888B108226946812004F09AFB78
:1010E00070B901200E4908700C48009901600199FF
:1010F000416000200349087002E0002001490870A7
:1011000000BF46E70500002080060020A06300081D
:1011100078650008DE020020E66300081C0000205D
:101120002400002008B50AE00F21009100E000BF74
:101130009DF800104A1ED2B200920029F7D1011E7C
:10114000A0F10100F0D108BD00BFFEE710B54FF4DB
:1011500000704FF0904188613648006800F00A0046
:10116000002860D00F20334948600846806820F08E
:10117000010088600846006800F0080098B100206F
:101180002D4908702D4908702D49087004F030F879
:101190002320FFF7C7FF03F0D3F84FF400704FF0A0
:1011A0009041886210BD002010E0254A1278C2EB01
:1011B000C202244B03EB820202EB40010A88224B5D
:1011C00033F810301A440A80411CC8B20E28ECDBF8
:1011D0001B480078401C1A4908700846007805280A
:1011E00009DA0846007804F003F82320FFF79AFF95
:1011F00003F0A6F817E00020114908700F480078A6
:10120000401C0E49087008460078032808DA0020C0
:1012100003F0EEFF2320FFF785FF03F091F802E0D3
:101220000120054908704FF400704FF0904188622A
:1012300000BFB7E700000240900000208F000020B0
:101240008E000020F4050020AC04002010B50248F8
:1012500000F0EEFA10BD00002405002030B590F833
:1012600040500124AC40C56B6C6004686360446806
:10127000102C04D10468A2600468E16003E00468F3
:10128000A1600468E26030BD70470000F8B5044614
:1012900000260020009000BF94F82800012801D10A
:1012A0000220F8BD012084F8280000BF2046FEF788
:1012B000CAFF0646002E71D1E06A20F4885040F043
:1012C0000200E062022000F0DDFE38490968B1FB4F
:1012D000F0F04000009002E00098401E009000985E
:1012E0000028F9D12068806800F0010060B1E06A50
:1012F00020F0020040F01000E06200BF002084F8FF
:10130000280000BF0120CCE72068806840F008007A
:101310002168886000F0D6FD054611E000F0D2FD9E
:10132000401B0A280CD9E06A20F0020040F01000AF
:10133000E06200BF002084F8280000BF0120B0E771
:101340002068806800F008000028E7D120688068E5
:1013500040F004002168886000F0B4FD054611E00B
:1013600000F0B0FD401B0A280CD9E06A20F0020012
:1013700040F01000E06200BF002084F8280000BFA9
:1013800001208EE72068806800F004000028E7D183
:10139000E06A20F0020040F00100E06200BF00209F
:1013A00084F8280000BF30467BE7000000000020E2
:1013B00038B5024600230020009000BF92F82800B4
:1013C000012801D1022038BD012082F8280000BF89
:1013D0004868072812D21068406B0C79641E04EB31
:1013E00084051F24AC40A0430D796D1E05EB8505D7
:1013F0000C68AC4020431468606327E048680D28FF
:1014000012D21068006B0C79E41F04EB84051F24D2
:10141000AC40A0430D79ED1F05EB85050C68AC4091
:1014200020431468206311E01068C06A0C790D3CF9
:1014300004EB84051F24AC40A0430D790D3D05EB62
:1014400085050C68AC4020431468E06208680A28EF
:1014500012D31068C0680C780A3C04EB44050724DA
:10146000AC40A0430D780A3D05EB45058C68AC40C7
:1014700020431468E0600FE0106800690C7804EB0A
:1014800044050724AC40A0430D7805EB45058C6866
:10149000AC402043146820610868102802D0086816
:1014A000112827D1174C1068A0421ED110688068FF
:1014B00000F40000F0B91068806840F4000014687F
:1014C000A0600868102815D10F4800680F4CB0FBC9
:1014D000F4F000EB80004000009002E00098401E15
:1014E000009000980028F9D104E0D06A40F0200074
:1014F000D062012300BF002082F8280000BF1846F8
:1015000061E70000002401400000002040420F007D
:101510002DE9F0410446002700250026A84614B90D
:101520000120BDE8F081E06808B9207E00B100BF6D
:10153000207E00B100BFE06A30B90020206384F84B
:101540002800204600F09EF82046FEF77CFE074665
:10155000E06A00F01000002878D1002FFCD1E06A8A
:1015600020F4885040F00200E062424AA1682068FE
:10157000904208D1206AB0F5002F02D14FF400202C
:1015800002E0206A00E0206A0143207C41EA40003A
:101590000643E068B0F5807F02D0E068012802D100
:1015A0004FF4807000E00020616808430543207E0E
:1015B000012811D1207C38B9E069401E4FF4006148
:1015C00041EA4030054307E0E06A40F02000E06275
:1015D000206B40F0010020632068406826490840E5
:1015E00028432168486020688068244908403043C7
:1015F00021688860E068B0F5807F02D0E06801284B
:1016000002D14FF4807000E00020B0F5807F02D05E
:10161000207E012803D1A08A401E4FEA005820688E
:10162000C06A20F4700040EA08002168C86220689F
:10163000806813490840B04209D100202063E06A65
:1016400020F0020040F00100E06211E00BE0E06AEF
:1016500020F0020040F01000E062206B40F001003A
:101660002063012704E0E06A40F01000E0620127F7
:10167000384656E7003C0140FF16FFFCFDF7E1FF4E
:10168000FEFE3FFF38B5044600BF2248406940F0E7
:101690000100204948610846406900F001000090BF
:1016A00000BF00BF00BF0846806940F001008861AC
:1016B0000846806900F00100009000BF00BF164896
:1016C000164908600020486000211448816080218C
:1016D000C1604900016189004161002181614FF4CD
:1016E0004051C16100F05EF80C4800F06DFA002135
:1016F0000A4800F015F800BF08486062446200BF65
:10170000002201210B2000F055FC0B2000F03EFCD4
:1017100038BD0000001002400800024068040020AC
:1017200038B502461B4C1368A34206D21A4C136804
:101730001B1B1424B3FBF4F006E0164C13681B1BB0
:101740001424B3FBF4F3D81D00BF144B9B6943F082
:101750000103124CA36123469B6903F0010300932C
:1017600000BF00BF022303EB90030D4C54F823305D
:101770008407E50E7F24AC40A3438407E40E01FAFE
:1017800004F42343022404EB9004054D45F824306F
:1017900038BD00000804024008000240001002406A
:1017A00000000140014609B901207047086800683F
:1017B00020F001000A68106000200A6810600A68C2
:1017C00050600A6890600A68D060174A08689042C2
:1017D0000BD2164A0868801A1422B0FBF2F080007F
:1017E000086412480838C8630AE00F4A0868801A7B
:1017F0001422B0FBF2F0800008640B480838C8637C
:1018000091F8402001209040CA6B5060002088620F
:10181000C86208634863886381F8210000BF81F8CB
:10182000200000BF00BFC0E70804024008000240DB
:1018300070B50446E06B05682068066894F84010AF
:10184000042088402840002875D006F004000028B5
:10185000FAD02068006800F0200028B920680068ED
:1018600020F0040021680860D5492068884254D9D6
:10187000D34978392068884201D1042049E0D04911
:1018800064392068884201D1402042E0CC49503977
:101890002068884201D100153BE0C9493C392068E5
:1018A000884202D14FF4804033E0C549283920688E
:1018B000884202D14FF480202BE0C14914392068BE
:1018C000884202D14FF4800023E0BD49206888425D
:1018D00001D1C0041DE0BB492068884201D1042029
:1018E00017E0B84914312068884201D1402010E047
:1018F000B44928312068884201D1001509E0B14976
:101900003C312068884202D14FF4804001E04FF41E
:101910008020AC49091F086054E0A9497839206843
:10192000884201D104204AE0A549643920688842F0
:1019300002D1402043E04CE0A14950392068884260
:1019400001D100153BE09E493C392068884202D114
:101950004FF4804033E09A4928392068884202D108
:101960004FF480202BE0964914392068884202D138
:101970004FF4800023E092492068884201D1C004DE
:101980001DE090492068884201D1042017E08D496C
:1019900014312068884201D1402010E08949283163
:1019A0002068884201D1001509E086493C31206851
:1019B000884202D14FF4804001E04FF480208049FA
:1019C00080394860E06A002802D02046E16A8847F2
:1019D000F4E094F84010022088402840002871D09C
:1019E00006F002000028FAD02068006800F020000D
:1019F00040B92068006820F00A00216808600120D2
:101A000084F821006E492068884254D96C4978399D
:101A10002068884201D1022049E069496439206880
:101A2000884201D1202042E065495039206888422F
:101A300001D140153BE062493C392068884202D11F
:101A40004FF4005033E05E4928392068884202D1C3
:101A50004FF400302BE05A4914392068884202D1F3
:101A60004FF4001023E056492068884201D18004D9
:101A70001DE054492068884201D1022017E05149F5
:101A800014312068884201D1202010E04D492831CE
:101A90002068884201D1401509E04A493C3120685C
:101AA000884202D14FF4005001E04FF40030454924
:101AB000091F086054E0424978392068884202D101
:101AC00002204AE057E03E4964392068884201D14B
:101AD000202042E03A4950392068884201D140151F
:101AE0003BE037493C392068884202D14FF400502E
:101AF00033E0334928392068884202D14FF400305E
:101B00002BE02F4914392068884202D14FF400108D
:101B100023E02B492068884201D180041DE0294937
:101B20002068884201D1022017E02649143120683C
:101B3000884201D1202010E02249283120688842C3
:101B400001D1401509E01F493C312068884202D18B
:101B50004FF4005001E04FF40030194980394860DB
:101B600000BF002084F8200000BFA06A30B32046E8
:101B7000A16A884722E094F8401008208840284055
:101B8000E0B106F00800C8B12068006820F00E003F
:101B90002168086094F8401001208840E16B48609B
:101BA0000120A06384F8210000BF002084F82000F9
:101BB00000BF206B10B12046216B884770BD00002C
:101BC00080000240080402400146002209B90120B9
:101BD00070471E4B086898420BD21D4B0868C01A0C
:101BE0001423B0FBF3F08000086419480838C86378
:101BF0000AE0164B0868C01A1423B0FBF3F080000B
:101C0000086412480838C863022081F82100086877
:101C1000026843F6F0708243D1E901031843CB68B0
:101C200018430B6918434B6918438B691843CB69F8
:101C3000184302430868026000208863012081F88D
:101C40002100002081F8200000BFC1E70804024005
:101C5000080002402DE9F04104460D4616461F4695
:101C60004FF0000800BF94F82000012802D10220A4
:101C7000BDE8F081012084F8200000BF94F8210025
:101C800001282CD1022084F821000020A0632068C4
:101C9000006820F00100216808603B463246294672
:101CA0002046FFF7DBFAE06A30B12068006840F0B8
:101CB0000E00216808600BE02068006820F0040036
:101CC000216808602068006840F00A002168086008
:101CD0002068006840F001002168086006E000BF4D
:101CE000002084F8200000BF4FF002084046BFE704
:101CF00078B503460022CAE0012696400D6805EA41
:101D00000604002C71D04D68022D02D04D68122DB2
:101D100013D1D60803F1200555F826005507EE0E1D
:101D20000F25B540A8435607F60E0D69B540284368
:101D3000D60803F1200545F826001868560003254B
:101D4000B540A8430D7905F003055600B54028437A
:101D500018604D68012D08D04D68022D05D04D68E2
:101D6000112D02D04D68122D13D19868560003250D
:101D7000B540A8435600CD68B540284398605868E0
:101D800001259540A8430D79C5F3001595402843DA
:101D90005860D86856000325B540A84356008D68A2
:101DA000B5402843D8604D6805F08055B5F1805F97
:101DB0006CD100BF394DAD6945F00105374EB561B5
:101DC0003546AD6905F00105009500BF00BF344DF3
:101DD000960855F8260095072E0F0F25B540A84305
:101DE000B3F1904F02D1002515E04FE02D4DAB42ED
:101DF00001D101250FE02C4DAB4201D102250AE0B3
:101E00002A4DAB4201D1032505E0294DAB4201D15A
:101E1000042500E007259607360FB5402843204DDE
:101E2000960845F82600234D2868A0434D6805F420
:101E30008035B5F5803F00D120431E4D28602D1D13
:101E40002868A0434D6805F40035B5F5003F00D182
:101E50002043184D2D1D28602D1D2868A0434D6876
:101E600005F48015B5F5801F00D12043114D0835CC
:101E700028602D1D2868A0434D6805F40015B5F5B0
:101E8000001F00D120430B4D0C352860521C0D68FB
:101E9000D540002D7FF430AF78BD00000010024027
:101EA000140001400004004800080048000C0048ED
:101EB00000100048000401400AB1816100E0816225
:101EC000704700000148006870470000A80000202B
:101ED00003480068034909780844014908607047CD
:101EE000A8000020B000002010B5042000F0A0F8E9
:101EF000072000F005F800F029F8002010BD0000D0
:101F000070B504460E4800784FF47A71B1FBF0F0DA
:101F10000C490968B1FBF0F5284601F033F808B127
:101F2000012070BD082C07D200222146501E00F06F
:101F300041F80548046001E00120F2E70020F0E7E5
:101F4000B000002000000020AC00002008B500BF59
:101F50000D48806940F001000B498861084680699E
:101F600000F00100009000BF00BF00BF0846C0693C
:101F700040F08050C8610846C06900F08050009071
:101F800000BF00BF08BD0000001002400146084627
:101F900000280DDB00BF00BF00F01F0301229A40A4
:101FA00043099B0003F1E023C3F8002100BF00BFF9
:101FB00000BF70472DE9F05F80460D4616460027AA
:101FC00002F002F9074639462A46334601F0070077
:101FD000C0F1070ABAF1030F02D94FF0030A01E07A
:101FE000C0F1070AD14600F1030ABAF1070F02D285
:101FF0004FF0000A01E0A0F1040AD4464FF0010AB4
:102000000AFA09FAAAF1010A0AEA020A0AFA0CFA19
:102010004FF0010B0BFA0CFBABF1010B0BEA030BBE
:102020004AEA0B042146404602F0D6F8BDE8F09F8C
:1020300000BF00F00702064B19684FF6FF03194076
:10204000044B0B4343EA0221014B196000BF704768
:102050000CED00E00000FA0500BFBFF34F8F07480A
:10206000006800F4E06006490843001D0349086069
:10207000BFF34F8F00BF00BF00BFFDE70CED00E0D6
:102080000000FA052DE9F04F91B081464022A3A14E
:1020900001A8FEF769F8B1A00068009000260027AB
:1020A0000024A046A2460025A346B9F1010F09D09D
:1020B000B9F1020F2DD0B9F1100F64D0B9F1200F92
:1020C00070D1DCE0A648056A05F44070B0F5807F69
:1020D00005D105F0020010B14FF4004B18E005F4F3
:1020E0004070B0F5007F07D19D48406A00F00200C3
:1020F00010B149F6404B0BE005F44070B0F5407F5D
:1021000006D19748006800F4003008B14FF2244B24
:10211000FFE09348406893490840B0F5404F1FD016
:1021200007DC68B1B0F5804F0FD0B0F5004F27D174
:1021300010E08D490844C0B1B0F5004F20D11AE03D
:1021400000F0A6FA4FEA500B1BE000F0A1FA4FEAAC
:10215000900B16E000F09CFA0621B0FBF1FB10E0BA
:1021600000F096FA4FEAD00B0BE000F091FA0C2148
:10217000B0FBF1FB05E000F08BFA4FEA101B00E02A
:1021800000BF00BFC5E07648856A05F00040B0F1A9
:10219000004F08D17248806A00F0200018B1DFF8C3
:1021A000CCB16BE0B4E005F00040B0F1004F65D079
:1021B0006B48006800F0807000285FD0684846686F
:1021C00006F4701006F0C04140EAD11001A901EBFD
:1021D000904090F8008006F44030B0F5803F04D085
:1021E00006F44030B0F5403F0BD15D484068C0F385
:1021F00040401DF800705E4808FB00F0B0FBF7F4AB
:1022000002E05B4808FB00F455484068594900EA81
:10221000010ABAF1000F16D009DCBAF1004F1FD045
:102220005548504400B3B0F5800F25D121E0BAF5F0
:10223000800F06D0BAF5000F0DD0BAF5400F1BD1B4
:1022400006E0A34619E060000321B0FBF1FB14E0B7
:102250004FEA540B11E060000521B0FBF1FB0CE0EC
:102260000320B4FBF0FB08E060000721B0FBF1FBAA
:1022700003E04FEA940B00E000BF00BF49E038489C
:10228000856B05F00F00082803D005F0080008282A
:102290003DD005F00F00082807D13148006800F450
:1022A000003010B1DFF8C8B031E02D48006800F010
:1022B000807060B32A48466806F4701006F0C0418A
:1022C00040EAD11001A901EB904090F8008006F49B
:1022D0004030B0F5803F04D006F44030B0F5403FC8
:1022E0000BD11F484068C0F340401DF800702048E3
:1022F00008FB00F0B0FBF7F402E01D4808FB00F417
:102300001748806B00F00F00401CB4FBF0FB00E0AE
:1023100000BF00BF584611B0BDE8F08F02030405AE
:10232000060708090A0B0C0D0E0F101112131415D5
:10233000161718191A1B1C1D1E1F202122232425C5
:10234000262728292A2B2C2D2E2F303132333435B5
:10235000363738393A3B3C3D3E3F3F3F01020000B3
:102360000010024000C0001000C0FFEF006CDC0253
:1023700000127A000000C0800000C07FF8B504465B
:1023800000260025207800F00100002871D00027E9
:102390005548C06900F0805070B900BF5248C0690C
:1023A00040F080505049C8610846C06900F0805034
:1023B000009000BF00BF01274C48006800F4807007
:1023C000B0B94A48006840F4807048490860FFF797
:1023D00079FD064606E0FFF775FD801B642801D9EC
:1023E0000320F8BD4148006800F480700028F2D056
:1023F0003D48006A00F440755DB3A08800F4407069
:10240000A84226D03848006A20F440753648006A51
:1024100040F48030344908620846006A20F4803075
:1024200008620846056205F0010090B1FFF74AFD19
:10243000064608E0FFF746FD801B41F288318842DE
:1024400001D90320CDE72848006AC0F340000028E6
:10245000F0D02548006A20F44070616808432249A2
:102460000862012F04D10846C06920F08050C8617D
:1024700000BF207800F00200022807D11A48406807
:102480001B490840A168084317494860207800F0BC
:102490001000102818D1E068B0F1004F0ED012489B
:1024A000806A20F00040104988620846406811495F
:1024B0000840E16808430C49486005E00A48806A22
:1024C00040F0004008498862207800F02000202871
:1024D00007D10548806B20F00F00216908430249AD
:1024E000886300207DE7000000100240007000407B
:1024F000FF3FFFEFFFFF3F7F70B504460D460CB96D
:10250000012070BD5A48006800F00F00A8420ED2AA
:102510005748006820F00F002843554908600846D6
:10252000006800F00F00A84201D00120E9E7207800
:1025300000F0020002281DD1207800F004000428D9
:1025400005D14C48406840F4E0604A494860207832
:1025500000F00800082805D14648406840F4605063
:10256000444948604348406820F0F000A1680843AF
:1025700040494860207800F0010078B36068012885
:1025800006D13C480068C0F3404090B90120B8E74C
:102590006068022806D13748006800F0807040B9B2
:1025A0000120AEE733480068C0F3400008B90120BD
:1025B000A7E73048406820F00300616808432D49D0
:1025C0004860FFF77FFC064609E0FFF77BFC801BB5
:1025D00041F28831884202D9032092E707E025487A
:1025E000406800F00C006168B0EB810FEDD120482D
:1025F000006800F00F00A8420ED91D48006820F0C6
:102600000F0028431A4908600846006800F00F00D0
:10261000A84201D0012074E7207800F004000428CB
:1026200007D11448406820F4E060E168084311498C
:102630004860207800F00800082808D10D4840685C
:1026400020F46050216940EAC1000A49486000F066
:102650002FF808494968C1F30311074A515CC84083
:102660000649086006480068FFF74AFC002048E772
:102670000020024000100240F0620008000000202C
:10268000AC000020014800687047000000000020F6
:1026900000B5FFF7F7FF04494968C1F3C221034AB7
:1026A000515CC84000BD00000010024000630008FB
:1026B0002DE9F04192B0402222A102A8FDF754FD7D
:1026C00030A0006801900024002500260027A046C5
:1026D0002D48446804F00C0060B3042802D0082898
:1026E00027D102E0DFF8A48027E004F4701004F0A2
:1026F000C04140EAD11002A901EB9040077804F4F0
:102700004030B0F5803F04D004F44030B0F5403F95
:102710000AD11D484068C0F3404001A90D5C1B4828
:102720007843B0FBF5F602E0184807FB00F6B04628
:1027300003E000BFDFF8548000BF00BF404612B086
:10274000BDE8F08102030405060708090A0B0C0D19
:102750000E0F101112131415161718191A1B1C1D21
:102760001E1F202122232425262728292A2B2C2D11
:102770002E2F303132333435363738393A3B3C3D01
:102780003E3F3F3F010200000010024000127A006D
:10279000F8B504460CB90120F8BD207800F001001E
:1027A000002878D0F648406800F00C00042813D0C8
:1027B000F348406800F00C00082818D1F048406841
:1027C00000F48030B0F5803F06D0ED48406800F45A
:1027D0008030B0F5403F0AD1E9480068C0F340407E
:1027E0000028DED06068002855D10120D4E7606859
:1027F000B0F5803F25D100BFE148006820F480306B
:10280000DF4908600846006820F48020086000BFA7
:10281000FFF758FB054606E0FFF754FB401B642812
:1028200001D90320B8E7D6480068C0F3404000282B
:10283000F2D1D348806B20F44070A1680843D0499E
:10284000886300BF6068B0F5803F06D1CC4800685F
:1028500040F48030CA49086029E0606858B9C84827
:10286000006820F48030C64908600846006820F4FB
:10287000802008601BE06068B0F5A02F0CD1C04834
:10288000006840F48020BE4908600846006840F4B3
:10289000803008600BE030E0B948006820F48030F8
:1028A000B74908600846006820F48020086000BF2F
:1028B000606888B1FFF706FB054606E0FFF702FBFC
:1028C000401B642801D9032066E7AD480068C0F3C7
:1028D00040400028F2D010E0FFF7F4FA054606E089
:1028E000FFF7F0FA401B642801D9032054E7A448FD
:1028F0000068C0F340400028F2D1207800F00200C8
:10290000022854D19E48406800F00C0098B19C48C1
:10291000406800F00C00082817D19948406800F47E
:102920008030B0F5803F10D09548406800F480308A
:10293000B0F5403F09D092480068C0F3400078B33A
:102940006069012833D0012026E76069B8B18C485E
:10295000006840F001008A490860FFF7B3FA0546B5
:1029600006E0FFF7AFFA401B022801D9032013E766
:1029700083480068C0F340000028F2D017E0804888
:10298000006820F001007E490860FFF79BFA0546C9
:1029900007E0FFF797FA401B022802D90320FBE665
:1029A00005E077480068C0F340000028F1D12078A6
:1029B00000F01000102830D1A069B8B17048806ACA
:1029C00040F010006E498862FFF77CFA054606E089
:1029D000FFF778FA401B022801D90320DCE668489B
:1029E000806AC0F340100028F2D016E06448806A84
:1029F00020F0100062498862FFF764FA054606E09D
:102A0000FFF760FA401B022801D90320C4E65C48A6
:102A1000806AC0F340100028F2D1207800F008004E
:102A2000082833D1E069D0B15548406A40F0010030
:102A300053494862FFF746FA054606E0FFF742FAB7
:102A4000401B022801D90320A6E64D48406AC0F386
:102A500040000028F2D0012000F034FC16E0484885
:102A6000406A20F0010046494862FFF72BFA05460C
:102A700006E0FFF727FA401B022801D903208BE666
:102A80003F48406AC0F340000028F2D1207800F0AF
:102A90000400042878D100273948C06900F080502C
:102AA00070B900BF3648C06940F080503449C861F1
:102AB0000846C06900F08050009000BF00BF0127A9
:102AC0003048006800F48070B0B92E48006840F4C7
:102AD00080702C490860FFF7F5F9054606E0FFF71E
:102AE000F1F9401B642801D9032055E62548006808
:102AF00000F480700028F2D0E068012827D100BFE0
:102B00001F48006A20F001001D4908620846006A5B
:102B100020F00400086200BFFFF7D4F9054608E082
:102B2000FFF7D0F9401B41F28831884201D90320D8
:102B300032E61348006AC0F340000028F0D1104884
:102B4000006A20F01800216908430D49086200BF9F
:102B5000E068012806D10A48006A40F001000849EF
:102B600008622CE0E06880B90548006A20F00100A6
:102B7000034908620846006A20F0040008621EE06B
:102B800000100240007000404CE0E06805280BD1C6
:102B90005C48006A40F004005A4908620846006A2E
:102BA00040F0010008620AE05648006A20F0010087
:102BB000544908620846006A20F00400086200BF19
:102BC000E06898B1FFF77EF9054608E0FFF77AF96B
:102BD000401B41F28831884201D90320DCE5494895
:102BE000006AC0F340000028F0D012E0FFF76AF955
:102BF000054608E0FFF766F9401B41F2883188423C
:102C000001D90320C8E53F48006AC0F3400000280E
:102C1000F0D1012F05D13B48C06920F080503949DF
:102C2000C86100BF206A90B33648406800F00C00CD
:102C3000082853D0206A022838D13248006820F092
:102C4000807030490860FFF73DF9054606E0FFF760
:102C500039F9401B022801D903209DE52948006865
:102C6000C0F340600028F2D1D4E9090108432549A6
:102C70004968254A114008432249486008460068CF
:102C800040F080700860FFF71DF9054607E037E067
:102C9000FFF718F9401B022801D903207CE51948E9
:102CA0000068C0F340600028F2D029E015480068B1
:102CB00020F0807013490860FFF704F9054606E02C
:102CC000FFF700F9401B022801D9032064E50D48F5
:102CD0000068C0F340600028F2D111E0206A0128AA
:102CE00000D159E50748466806F48031606A8142A0
:102CF00004D106483040A16A884201D001204BE54A
:102D0000002049E500100240FFFFC09F00003C602A
:102D1000704770B504460CB9012070BD6068B0F50D
:102D2000827F00D101E00021E161A06AB0F5005F7F
:102D300000D100BF94F8550028B9002084F8540051
:102D4000204600F063F8022084F8550020680068EF
:102D500020F0400021680860E068B0F5E06F01D91C
:102D6000002501E04FF48055E068B0F5706F05D0A4
:102D7000E068B0F5E06F01D00021A162A08800F406
:102D80008270218901F404410843217C01F0020191
:102D90000843217D01F001010843218B01F40071FA
:102DA0000843217F01F038010843A18901F4006143
:102DB00008432021095D01F080010843218D01F4C1
:102DC00000510843216808600421A06901EA10400D
:102DD000A18C01F40041084305F4805108432168A7
:102DE0004860A06AB0F5005F03D1A08D80B2216871
:102DF00008612068C06920F400602168C861002073
:102E0000A065012084F85500002086E77047000087
:102E10002DE9F04104460E461546002700BF94F800
:102E20005400012802D10220BDE8F081012084F87D
:102E3000540000BF94F85500012801D0022792E009
:102E400006B10DB901278EE0032084F8550000205B
:102E5000A0652663A586E586A063A0646064A0875C
:102E6000E087A068B0F5004F0BD12068006820F023
:102E70004000216808602068006840F480402168B4
:102E80000860A06AB0F5005F0DD100BF206800683F
:102E900020F40050216808602068006840F4005069
:102EA0002168086000BF3348E16CC8623248E16CB9
:102EB00088623248E16C08630020E16C4863206856
:102EC000406820F4804021684860E068B0F5E06F19
:102ED0001DD8E06C4069B0F5806F18D1E08E00F02D
:102EE000010048B92068406820F4804021684860AB
:102EF000E08E4010E0860AE02068406840F48040A0
:102F000021684860E08E012101EB6000E086E38EDD
:102F1000D4F800C00CF10C02216BE06CFEF79AFEB5
:102F200040B1A06D40F01000A0650127012084F899
:102F3000550018E02068006800F04000402805D0E7
:102F40002068006840F04000216808602068406800
:102F500040F02000216848602068406840F002008E
:102F60002168486000BF00BF002084F8540000BF03
:102F7000384659E72536000833360008FD35000885
:102F80007047704770B504462546681EB0F1807FD3
:102F900001D301200FE0681E4FF0E02148610721B6
:102FA0004FF0FF3001F018F900204FF0E021886168
:102FB00007200861002070BD7047704710B50446B7
:102FC0000CB9012010BD94F83D0028B9002084F808
:102FD0003C00204600F00CF8022084F83D00211D42
:102FE000206800F09FFC012084F83D000020E9E704
:102FF000704701460868C06840F001000B68D8605F
:103000000868806800F00702062A05D00868006892
:1030100040F001000B68186000207047704710B541
:10302000044620680069C0F34000D8B12068C06839
:10303000C0F34000B0B16FF00200216808610120C8
:1030400020772068806900F0030018B12046FFF760
:10305000E5FF05E0204600F0ADF8204600F0ABF8B3
:103060000020207720680069C0F38000D8B1206874
:10307000C068C0F38000B0B16FF00400216808613F
:10308000022020772068806900F4407018B1204643
:10309000FFF7C4FF05E0204600F08CF8204600F062
:1030A0008AF80020207720680069C0F3C000D8B1FA
:1030B0002068C068C0F3C000B0B16FF0080021689C
:1030C0000861042020772068C06900F0030018B16F
:1030D0002046FFF7A3FF05E0204600F06BF82046EE
:1030E00000F069F80020207720680069C0F3001024
:1030F000D8B12068C068C0F30010B0B16FF0100004
:1031000021680861082020772068C06900F44070B9
:1031100018B12046FFF782FF05E0204600F04AF88C
:10312000204600F048F8002020772068006900F071
:10313000010058B12068C06800F0010030B16FF0A4
:10314000010021680861204600F036F82068006917
:10315000C0F3C01058B12068C068C0F3C01030B1CF
:103160006FF08000216808612046FFF725FF206886
:103170000069C0F3801058B12068C068C0F38010A7
:1031800030B16FF0400021680861204600F020F85F
:1031900020680069C0F3401058B12068C068C0F3CF
:1031A000401030B16FF02000216808612046FFF721
:1031B00004FF10BD7047704710B5044603492068EE
:1031C000884201D100F046FC10BD00000010004014
:1031D00070472DE9F84F04460D46174699464FF0C3
:1031E000000A94F84500202864D105B117B90120E0
:1031F000BDE8F88FA068B0F5805F06D1206920B9DE
:1032000005F0010008B10120F2E700BF94F8440086
:10321000012801D10220EBE7012084F8440000BF1F
:103220000020A064212084F84500FEF74BFE824672
:1032300027866786A068B0F5805F04D1206910B941
:103240000026A84602E02E464FF000081BE0534639
:10325000002280212046CDF8009000F003FC08B148
:103260000320C5E746B9B8F80000C0F3080021689C
:10327000486008F1020803E0307821684860761C55
:10328000608E401E6086608E0028E0D1534600228A
:1032900040212046CDF8009000F0E4FB08B1032067
:1032A000A6E7202084F8450000BF002084F84400F1
:1032B00000BF9DE702209BE700BFFEE700BFFEE7DF
:1032C0007047704708B508490968C9084FF47A7211
:1032D000B1FBF2F14143009100BF00BF00994A1ECB
:1032E00000920029F9D108BD000000204FF4807041
:1032F0004FF0904188614FF4707001490860704749
:10330000180800482DE9F04104460D4616460E4FB8
:1033100000BF387808B900F099FD00BFEFF31180C5
:103320000746202080F3118800BF00BF324629469F
:10333000204600F00BF88046F8B280F3118800BFF9
:1033400000BF4046BDE8F081601400202DE9F04741
:10335000074688461646C24607EB47011B4800EB66
:10336000C109D9F8140020B1012811D0022826D1B2
:103370001EE0484600F09CFD0546B54201D20024FF
:1033800005E0344632465146484600F0E8FE18E073
:10339000484600F08DFD0546B54201D2284600E0C2
:1033A0003046044622465146484600F0D8FE08E022
:1033B00032465146484600F097FE044601E000249C
:1033C00000BF00BF2046BDE8F08700007814002051
:1033D0000FB438B5044606A800906A462046059901
:1033E00000F007F8054600200090284638BC5DF83C
:1033F00014FB2DE9F04F99B082460D46144603A800
:1034000014904020159000201690CDF860A01790E1
:1034100000BF2E786D1C06B9DDE0252E79D100277E
:103420004FF0010900BF2E78232E12D02B2E0CD086
:103430002D2E02D0302E10D103E047F001076D1C75
:103440000EE047F002076D1C0AE047F004076D1C10
:1034500006E047F008076D1C02E04FF0000900BFCE
:1034600000BFB9F1000FDED14FF0000800BF2E7889
:10347000302E01DB392E00DD07E06D1CA6F1300097
:1034800008EB880100EB4108F1E700BF0020139032
:103490002E782E2E12D16D1C00BF2E78302E01DB1F
:1034A000392E00DD09E06D1CA6F13000139901EB07
:1034B000810100EB41001390EFE700BF2E7800BFC1
:1034C0006C2E01D0682E02D16D1C2E7800E000E039
:1034D000F6E700BF702E5DD008DC252E6AD0582E8E
:1034E00035D0632E09D0642E69D113E0732E3CD001
:1034F000752E1DD0782E62D128E02168081D20602D
:10350000D1F8009009F0FF0B594614A800F0CAFD4D
:1035100056E058E02168081D2060D1F80090CDE900
:1035200000870A22494614A8139B00F0CFFC47E00D
:103530002168081D2060D1F80090CDE900870A229B
:10354000494614A8139B00F037FD39E000BF2168FD
:10355000081D2060D1F80090CDE90087102249466F
:1035600014A8139B00F028FD2AE02168081D2060A4
:10357000D1F800B000BF9BF800600BF1010B06B959
:1035800006E0314614A800F08DFD17980028F2DA05
:1035900000BF15E02168081D2060D1F800900020D0
:1035A00008210B461022CDE90010494614A800F06E
:1035B00003FD05E0252114A800F074FD00E000BF24
:1035C00000BF6D1C03E0314614A800F06BFD179896
:1035D0000028BFF61EAF00BF179800280ADD169816
:1035E00020B103A95046169AFFF78CFEDDE91610AC
:1035F00008441790179819B0BDE8F08F70B50546CC
:103600006C6A2068406820F0030021684860A06D63
:1036100040F01000A065012084F855002046FFF717
:1036200077FB70BD70B50446656A2846FFF7A9FCB4
:1036300070BDF8B505466C6AFEF744FC064628687E
:10364000006800F0200020282DD02068406820F07D
:103650002000216848602068406820F0020021684E
:10366000486032466421204600F022F818B1A06D6F
:1036700040F02000A065A06850B900BF0020009075
:103680002068C068009020688068009000BF00BF7C
:103690000020E086012084F85500A06D18B1204676
:1036A000FFF736FBF8BD2046FFF76AFC00BFF9E7DD
:1036B000F8B504460E461546334600224FF4C05175
:1036C0002046009500F026F828B1A06D40F02000BB
:1036D000A0650320F8BD33460022802120460095D6
:1036E00000F094F828B1A06D40F02000A065032000
:1036F000F0E7334600224FF4C0612046009500F009
:1037000009F828B1A06D40F02000A0650320E1E792
:103710000020DFE72DE9FC5F04460D4616461F46F4
:10372000DDF8309000200090FEF7CCFBA0EB090004
:10373000A7EB0008FEF7C6FB8246206800F10C0BE1
:1037400031480068C0EBC00000EB8000000D00FBBA
:1037500008F0019050E0B5F5C06F05D126B99BF88F
:10376000000000909DF80000781C002844D0FEF76F
:10377000A9FBA0EB0A00404502D2B8F1000F34D1FA
:103780002068406820F0E000216848606068B0F57B
:10379000827F0DD1A068B0F5004F03D0A068B0F5CE
:1037A000806F05D12068006820F040002168086023
:1037B000A06AB0F5005F0DD100BF2068006820F45A
:1037C0000050216808602068006840F400502168BB
:1037D000086000BF012084F8550000BF002084F875
:1037E000540000BF0320BDE8FC9F019808B94FF0CA
:1037F00000080198401E0190206880682840B0426F
:10380000A9D10020EFE70000000000202DE9F84FCB
:1038100004460D4690461E46DDF82890FEF752FB02
:10382000A0EB0900371AFEF74DFB82462C480068D2
:10383000C0F3CB307843009045E0701C002842D0A4
:10384000FEF740FBA0EB0A00B84200D2A7BB2068FD
:10385000406820F0E000216848606068B0F5827F31
:103860000DD1A068B0F5004F03D0A068B0F5806F0F
:1038700005D12068006820F0400021680860A06A37
:10388000B0F5005F0DD100BF2068006820F4005043
:10389000216808602068006840F4005021680860D2
:1038A00000BF012084F8550000BF002084F85400B8
:1038B00000BF0320BDE8F88FFFE7009800B900279C
:1038C0000098401E0090206880682840A84201D1DE
:1038D000012000E000204045AFD10020EAE70000D1
:1038E00000000020704710B5FEF7F2FA10BD00008E
:1038F00010B5FCF7D7FC0648006840F47000044996
:1039000008604FF0006002498039086010BD000077
:1039100088ED00E010B50248FFF781FB10BD000004
:103920006805002010B50268294B98420ED0B0F10E
:10393000804F0BD0274B984208D0274B984205D098
:10394000264B984202D0264B984203D122F07002B7
:103950004B681A431E4B984220D0B0F1804F1DD0C7
:103960001C4B98421AD01C4B984217D01B4B9842C4
:1039700014D01B4B984211D01A4B98420ED01A4BC0
:1039800098420BD0194B984208D0194B984205D059
:10399000184B984202D0184B984203D122F440723F
:1039A000CB681A4322F080034C6943EA04020260A8
:1039B0008B68C3620B688362054B984202D0084B48
:1039C000984201D10B6903630123436110BD0000DC
:1039D000002C01400004004000080040000C0040A2
:1039E00000340140004C01400050014000540140AF
:1039F00000180040001C00400020004010B50024CA
:103A00001DE004EB4400104951F820000F490968FB
:103A1000081A04EB44010C4A02EB81014968884210
:103A20000BD30A48006804EB440142F8210004EB80
:103A3000440102EB810188688047601C84B204481D
:103A400000888442DDDB10BD500000204C000020C7
:103A50008C00002002480068401C01490860704743
:103A60004C0000202DE9F04104460D4617469846CB
:103A7000069E21E0701CF8B12EB1FEF723FAA0EBF0
:103A80000800B04218D92068C06820F4D0702168BE
:103A9000C8602068406920F001002168486120204A
:103AA00084F8450084F8460000BF002084F84400F4
:103AB00000BF0320BDE8F081206800682840A842CC
:103AC00001D1012000E00020B842D3D00020F1E76E
:103AD0002DE9F047D74890F80080801C0578401EFB
:103AE000077801F03FFB824608F00400D0B14FF4A4
:103AF000C071D148FCF751FB4020CF49486002F02B
:103B00005BF8CC48C01E007840F00100C949C91ECE
:103B100008700120C749891D08700020491E0870DF
:103B2000C649087008F0020008B102F069F808F010
:103B3000010008B102F06AF8BE48801D0078054017
:103B400005F0010030B1002001F038FB00F05AFD13
:103B500025F001050124E1E00120A04028400028D3
:103B60007ED0204601F02AFBB2481130007800F0E8
:103B7000040038B1AF481130007820F00400AD499E
:103B80001131087004EB8401AB48283000EB810050
:103B900004EB8402C168A848283030F82200814232
:103BA0003FD904EB8401A448283000EB810004EBEA
:103BB00084028168A048283030F82200014404EBD8
:103BC00084029D48283000EB8200816004EB840170
:103BD0009948283000EB810004EB84020169964883
:103BE000283030F82200014404EB84029248283047
:103BF00000EB8200016104EB84018F48283000EB68
:103C0000810004EB8402C1688B48283030F8220020
:103C1000091A04EB84028848283000EB8200C16056
:103C200035E004EB84018448283000EB810004EB8C
:103C3000840281688048283000EB8200C06801441B
:103C400004EB84027C48283000EB8200816004EBA6
:103C500084017948283000EB810004EB840200E005
:103C60005AE001697448283000EB8200C0680144C2
:103C700004EB84027048283000EB820001610021CF
:103C800004EB84026C48283000EB8200C16004EB36
:103C900084016948283000EB8100C06858B904EB02
:103CA0008403654A283202EB830244F080001169E4
:103CB00001F0FAFE2DE004EB84015F48283000EBB0
:103CC000810004EB8402C1685B48283030F8220090
:103CD000814207D204EB84015748283000EB810071
:103CE000C06805E004EB84015348283030F8210017
:103CF0001FFA80F904EB84024F48283000EB820061
:103D00004A468168204601F05FFA01204949113195
:103D100008700120A0408543601CC4B2002D7FF4D0
:103D20001BAF4448401D0078074001247AE0012081
:103D3000A0403840002873D0204601F03FFA3D48AB
:103D40001530007800F00100002866D0394818309E
:103D5000068804EB84023848C83000EB8200324603
:103D60008168204601F016FA04EB84013248C8301D
:103D700000EB81008068811904EB84022E48C83072
:103D800000EB8200816004EB84012B48C83000EB1B
:103D900081000069811904EB84022748C83000EBD8
:103DA0008200016104EB84012348C83000EB8100EC
:103DB000C068811B04EB84021F48C83000EB8200FE
:103DC000C16004EB84011C48C83030F82100B042C7
:103DD00007DC04EB84011848C83000EB8100C068A0
:103DE00098B91448401D00780121A1408843114929
:103DF000491D087004EB84020F48C83000EB8200B4
:103E00000169204601F096FE07E00A481530007867
:103E100020F001000749153108700120A0408743B8
:103E2000601CC4B2002F82D1504601F0C7F9BDE832
:103E3000F0870000045C0040E0120020A400002095
:103E400010B5FFF745FE10BD00BFFEE71148032285
:103E50000261426110A28261124BC3614FF4806320
:103E60000362002383624362C3620BA202660E4BAD
:103E700043661023836600230367C36643670021FC
:103E800005E0C1F10F02094B9A5C4254491C10290C
:103E9000F7D37047601400205465726D696E616CD1
:103EA0000000000008150020081900201366000813
:103EB00010B501460A69CB689A4204D88C68641E22
:103EC000E41AA01801E0D41A601E10BD2DE9FC5FB1
:103ED00006460F4692469846DDE90C45002F01DA6A
:103EE000784200E0384683464FF0010903E09BFB2F
:103EF000FAFB09F10109D345F9DAC84500D9C146F1
:103F000034B1002F03DB05F00400042800D1641E47
:103F100005F0020010B1B8F1000F11D005F001005A
:103F200070B96CB108E0641E2021304600F0BAF888
:103F3000F068002800DA02E00CB1A145F3D300BF1D
:103F4000F068002836DB002F05DA7F422D2130464D
:103F500000F0A8F807E005F00400042803D12B21A5
:103F6000304600F09FF8F068002823DB05F00200DF
:103F7000022814D105F0010088B9B8F1000F0ED164
:103F80006CB108E0641E3021304600F08BF8F06818
:103F9000002800DA02E00CB1A145F3D300BFF068BD
:103FA000002807DB4346524639463046CDE90045F6
:103FB00000F002F8BDE8FC9F2DE9FC5F80468946D1
:103FC00015461E460C9CCDF804900127BB4605E023
:103FD0000198B0FBF5F001900BF1010B0198A8429C
:103FE000F6D25E4500D9B3460D9800F00100D0B975
:103FF000CCB10D9800F00200022803D116B9302090
:10400000009001E02020009009E0641E40460099E5
:1040100000F048F8D8F80C00002800DA02E00CB1F3
:10402000A345F2D300BFD8F80C00002835DB09E027
:10403000012E01D9761E04E0B9FBF7FAAA4500D299
:1040400001E06F43F4E700BF00BFB9FBF7FA0AFBDA
:104050001799134810F80A10404600F023F8D8F8D2
:104060000C00002800DA03E0B7FBF5F7002FECD1D5
:1040700000BF0D9800F0010078B174B109E0641E32
:104080002021404600F00EF8D8F80C00002800DA95
:1040900002E00CB1A345F2D300BFBDE8FC9F0000D5
:1040A0002466000870B504460E46A568681C616861
:1040B000814206D320684655681CA060E068401C19
:1040C000E060D4E9011088420DD1A268216820691E
:1040D000FFF718F9A168884203D04FF0FF30E06085
:1040E00001E00020A06070BD2DE9F05F0446894624
:1040F00017464FF0000AE56800BFD4F81080A845C5
:1041000003D9A8EB0500461E04E0A5EB0800401CFF
:10411000A1680E1AA068401BB04201D9304601E0E8
:10412000A068401B0646BE4201D2304600E0384639
:104130000646606800EB050B324649465846FCF7D8
:1041400013F8B244B144BF1B3544A068A84200D163
:104150000025E560002FD0D15046BDE8F09F2DE945
:10416000F047044689461546E668A068871BAF42BB
:104170000AD9606800EB060A2A4649465046FBF712
:10418000F3FF7019E06014E0B846606800EB060ABF
:10419000424649465046FBF7E7FFA5EB0708D4F82F
:1041A00004A009EB070142465046FBF7DDFFC4F8C7
:1041B0000C80BDE8F0870000014A024900F02FB8EA
:1041C000E9450008B400002002480068C0F302205E
:1041D000704700000CED00E010B5002804DB4A0732
:1041E000130E054A135406E04A07140E034A00F062
:1041F0000F031B1FD45410BD00E400E018ED00E0D5
:1042000002E008C8121F08C1002AFAD1704770479F
:10421000002001E001C1121F002AFBD170472DE9E7
:10422000F04116460F460446002503E03946B047E4
:10423000641C6D1C20780028F8D12846BDE8F08168
:1042400010B598B0002015901690179000BF344814
:10425000806940F40070324988610846806900F442
:104260000070019000BF00BF142110A8FBF795FF5C
:10427000022010902B48129010A8FEF77FF82A48D1
:104280002A490860002048600021284881604FF4D6
:104290008071C160002101740E2141610904016235
:1042A000FDF736F93822224902A8FBF75DFF01200D
:1042B000179000240BE002A850F824001590601C11
:1042C000169015A91948FDF773F8601CC4B20E2C9E
:1042D000F1DB1648FCF7DAFF13480830006840F0BD
:1042E0000100114908310860084600681149084377
:1042F0000D49083108601048806820F001000E491F
:10430000886009484C3008610C4848610E20C8603C
:104310004FF4565088600F20486018B010BD000060
:10432000001002400040001000240140340400202E
:10433000406500080001100000000240AC040020AD
:104340000F48806820F001000D4988600D484861E1
:104350000E20C8600F2048606FF012000A49086004
:104360000748806840F00300054988600648083027
:10437000006840F48000044908310860704700007C
:1043800000000240AC0400200024014000B587B0CA
:10439000142102A8FBF701FF00BF0F48406B40F05B
:1043A00008000D4948630846406B00F00800019082
:1043B00000BF00BF4FF48040029001200390002016
:1043C00004900320059002A90448FDF791FC002009
:1043D00000F006F807B000BD0010024000040048DD
:1043E00010B5044622464FF480410248FDF764FDB3
:1043F00010BD00000004004800B587B0142102A8D9
:10440000FBF7CBFE00BF3B48406B40F0080039494A
:1044100048630846406B00F00800019000BF00BFF1
:1044200000BF0846C06940F48040C8610846C069C2
:1044300000F48040019000BF00BF00BF0846406903
:1044400040F0010048610846406900F00100019019
:1044500000BF00BFFFF79AFF4FF400400290022018
:10446000039003200690059002A92348FDF740FC25
:1044700022482349086010204860002120488160BC
:104480008021C16000210161416181614FF40051CF
:10449000C161FDF799FB00BF19481A49C864084675
:1044A0001749486200BF1848164908604FF48270E7
:1044B00048600021134881604FF4E061C160002131
:1044C000016141614FF40071816100210162182195
:1044D000C161FEF71EFC08210948FDF721F9002201
:1044E00002210C20FDF766FD0C20FDF74FFD07B003
:1044F00000BD000000100240000400481C00024003
:1045000024050020C80400200038004070B504468F
:104510000D46064890F85500012801D0022070BDD4
:104520002A4621460148FEF773FCF8E7C80400203C
:1045300008B500BF1648C06940F010001449C861B2
:104540000846C06900F01000009000BF00BF11488D
:1045500011490860114800681149B0FBF1F0401E94
:104560000D49C86040F2E730486000210A48816088
:1045700041618161FEF722FD002203213620FDF713
:1045800019FD3620FDF702FD0348FEF732FD08BD98
:1045900000100240001000406805002000000020CC
:1045A00040420F0000B587B000BF0E48406B40F09E
:1045B00004000C4948630846406B00F00400019079
:1045C00000BF00BF0120039000200490032005904D
:1045D0004002029002A94FF09040FDF789FB07B01E
:1045E00000BD00000010024013B50C464FF47A7372
:1045F000012269460248FEF7ECFD00981CBD000050
:10460000A805002070B55048057805F0040048B1B1
:104610004D48007820F004004B49087000204B49B9
:10462000087070BD05F0100028B180204649087060
:1046300000204649087046480078002807DD4448B5
:1046400000784149103908700020414908703F48FE
:104650000078072875D2DFE800F00418743A6F700C
:104660006A0005F0010078B13748401C0478082C36
:1046700000D0D6E7082236492031002000F08AFD1C
:104680003348203001F09CF95BE03148406B304901
:10469000098D88420DD92E48806B2D49098D014422
:1046A0002B488163406B2A49098D411A2848416390
:1046B00007E02748816B406B014425488163002156
:1046C00041632348816B802001F0EEF939E005F069
:1046D000010038B31C48401C04781D482246D0F81D
:1046E000D010002000F056FD1948D0F8D000011974
:1046F0001748C0F8D010D0F8D80001191448C0F8F5
:10470000D810B0F8C800A04206DC1148D0F8D81084
:10471000D0F8D400814206D10D48D0F8D81000203E
:1047200001F008FA02E040200749087009E0002182
:10473000802001F0B9F904E000BF002003490870AF
:1047400000BF00BF00BF6CE7105C0040A400002069
:10475000E0120020F8B504460D4616462779607829
:104760000C2839D2DFE800F03806111A383838380A
:1047700038222C336088020AA178384601F077FD90
:10478000296808700120306029E0A178384601F0DE
:1047900065FD296808700120306020E0384601F08E
:1047A00063FD296808700120306018E030780090BF
:1047B0006088020AA17838462B6801F062FD0EE09D
:1047C0006088020AA178384601F054FD07E0A1781C
:1047D000384601F055FD02E04FF0FF30F8BD00BF54
:1047E0000020FBE710B5104800F012FE40230F4AEE
:1047F0000F49104801F076FA044600F077FD0E48A4
:1048000000F05CFD24230D4A0D490E4801F06AFAC0
:10481000044600F06BFD0C4800F050FD0B4800F022
:104820004DFD01F07DFA10BD36640008C964000832
:104830002D650008EC030020300000200965000809
:1048400036650008100400203800002040000020D9
:10485000F0B504462B2694FBF6F6F5B22B2694FB16
:10486000F6F706FB174000EB40067606300E052DE6
:1048700026D2DFE805F0030911171F00FF260E708E
:10488000107000261E7023E0C0F1FF060E70FF2698
:10489000167000261E701BE000260E70FF26167094
:1048A000187015E000260E70C0F1FF061670FF2686
:1048B0001E700DE0087000261670FF261E7007E0BF
:1048C000FF260E7000261670C0F1FF061E7000BF96
:1048D00000BFF0BD034890F85D0108B101207047AA
:1048E0000020FCE7B800002010B555A0FFF764FCDD
:1048F00000205949087059490870594908708C219D
:104900005848FBF74AFC002000F072FC6420FCF7DA
:1049100009FCFFF715FD00BF4F4800780028FBD0C9
:1049200000207FE0002179E0C0EBC0024D4B03EB9B
:10493000820232F81120032392FBF3F2C0EBC00392
:1049400003EB8303484C04EBC30301EB810423F81E
:1049500024200022C0EBC003424C04EB830323F865
:104960001120C0EBC00303EB83033F4C04EBC303F4
:1049700001EB810403EB84035A804FF4AF72C0EB68
:10498000C00303EB8303384C04EBC30301EB810446
:1049900003EB84039A805022C0EBC00303EB830334
:1049A000314C04EBC30301EB810403EB84035A8114
:1049B00040F21A42C0EBC00303EB83032A4C04EB22
:1049C000C30301EB810403EB84039A813222C0EB21
:1049D000C00303EB8303244C04EBC30301EB81040A
:1049E00003EB8403DA80C0EBC00303EB83031E4CAC
:1049F00004EBC30301EB810403EB84031A8100225F
:104A0000C0EBC00303EB8303174C04EBC30301EBC0
:104A1000810403EB84039A744A1CD1B20E2983DB10
:104A2000411CC8B20528FFF67DAF00200A49087076
:104A30000A4908700A4908700CA0FFF7BDFB10BDB9
:104A400043616C6962726174696F6E205374617244
:104A5000742E2E2E0D0A0000900000208F000020E2
:104A60008E000020F40500208006002043616C6960
:104A700062726174696F6E204F4B210D0A00000055
:104A800000B587B000BF2C48406B40F004002A49B5
:104A900048630846406B00F00400019000BF00BF6F
:104AA00000BF0846406B40F0080048630846406B72
:104AB00000F00800019000BF00BF00BF0846406B37
:104AC00040F0100048630846406B00F01000019071
:104AD00000BF00BF142102A8FBF75FFB4FF470700A
:104AE000029001200390002004900320059002A969
:104AF0001248FDF7FDF84FF48070029002A94FF0C4
:104B00009040FDF7F5F8FF2002900320039002A9E2
:104B10004FF09040FDF7ECF80320029002A90848FE
:104B2000FDF7E6F80F20029002A90448FDF7E0F82F
:104B3000FFF786FB07B000BD0010024000080048E8
:104B4000000400482DE9F04138480078012853D18D
:104B500000243EE0002538E0C4EBC400344901EBFA
:104B60004000405D40B90020C4EBC401314A02EB73
:104B7000810121F8150026E0C4EBC4002D4901EBAA
:104B8000800030F81500032190FBF1F086B2002080
:104B9000C4EBC401274A02EB810121F81500C4EBE4
:104BA000C40000EB8000244901EBC00005EB850147
:104BB00000EB81073146384600F042FB314638466B
:104BC00000F092FA00BF681CC5B20E2DC4DB601C59
:104BD000C4B2052CBEDB00201849088013490870B8
:104BE000174908701749087000F002FB2320FCF7F2
:104BF00099FAFFF7A5FB16E010480088401C80B228
:104C00000E49088014280EDD00200880074908702E
:104C10000B4908700B49087000F0EAFA2320FCF7F2
:104C200081FAFFF78DFBBDE8F081000090000020C5
:104C300078650008F405002080060020920000201E
:104C40008F0000208E0000202DE9FF5F82464FF488
:104C50007A7B0520BBFBF0F4BAFBFBF00BFB10A04A
:104C600003900398B0FBF4F0C6B20398B0FBF4F1E4
:104C700004FB11074FEA54094F4504D2C7EB072044
:104C8000B0FBF9F804E0E01BC0EB0020B0FBF9F842
:104C900008FB08F0C0F3072506EB46001349085C43
:104CA00010FB05F0FF2190FBF1F0C0B2029006EB83
:104CB00046000E490844407810FB05F0FF2190FBA8
:104CC000F1F0C0B2019006EB460008490844807834
:104CD00010FB05F0FF2190FBF1F0C0B20090DDE980
:104CE0000021029800F06BF9BDE8FF9F0466000800
:104CF0002DE9FE4F82465020BAFBF0F100FB11A4D3
:104D000000221146104600F05AF9022002900620B7
:104D10000190002592E000268BE0C5EBC5004A49D2
:104D200001EB4000805DFF2800D180E00027B846FD
:104D3000B946142C35D2AA1923469A4212DCA3F1A3
:104D4000030C94450EDAA3EB020C0CF1010C4FF0AE
:104D5000FF0B9BFBFCFC0CF0FF09CC4609EBDC7B5A
:104D60004FEA6B08C5F1040CC6F10D0B0CEB0B0000
:104D70002146884214DCA1F1030C844510DAA1EB32
:104D8000000C0CF1010C4FF0FF0B9BFBFCFC0CF03A
:104D9000FF07BC464FEAE77B07EB9B7B4FEAAB087C
:104DA00034E0142C32D33C2C30D2A4F11400A5F101
:104DB000020CBCF1000F01DBE34601E0CCF1000B7B
:104DC000B31F002B01DB9E4601E0C3F1000E0BEB8D
:104DD0000E01034600EBD37C4FEA6C02914208D1EE
:104DE0004FF0FF0CACEB800C0CF0FF03984699469B
:104DF0000BE0531E8B4208D14FF0780CACEB400C0B
:104E00000CF0FF039846994600BF00BF002F05DC59
:104E1000B8F1000F02DCB9F1000F07DD43463A4656
:104E200031462846CDF8009000F0DCF800BF701C39
:104E3000C6B20E2EFFF671AF681CC5B2052DFFF687
:104E40006AAFBDE8FE8F0000BE6500082DE9F04F97
:104E500087B0804646200690102005904620B8FB7B
:104E6000F0F100FB118900221146104600F0A7F86E
:104E700000255BE0002655E0C5EBC5002E4901EB9F
:104E80004000805DFF2800D14AE0C5EBC50006EB7D
:104E90004007B94503DBA9EB070004B203E009F1C1
:104EA0004600C01B04B2102C39DA4FEA880000EB30
:104EB000C40000F0FF0B02AB03AA04A95846FFF799
:104EC000C7FCC4F11001C1EB0120C11700EB117147
:104ED000C1F3071A9DF8100010FB0AF0FF2190FBA8
:104EE000F1F0C0B204909DF80C0010FB0AF090FBAA
:104EF000F1F0C0B203909DF8080010FB0AF090FB9F
:104F0000F1F0C0B202909DF8080000909DF80C30BE
:104F10009DF810203146284600F064F800BF00BF1D
:104F2000701CC6B20E2EA7DB681CC5B2052DA1DB16
:104F300007B0BDE8F08F0000BE65000810B5FFF7B0
:104F40005BFA4FF4C6610A48FBF727F9B721094815
:104F5000FBF723F9002404E0204601F0A5F9601CCA
:104F600084B23D2CF8D30120FFF73AFA10BD0000BF
:104F7000F80B002028120020FEB505466806060E34
:104F8000002419E006EB8400C11700EB116109123F
:104F9000A0EB01218FB26B4601AA02A93846FFF7A8
:104FA00057FC9DF800309DF804209DF8081020461D
:104FB00000F040F8601C84B23D2CE3D3FEBD2DE927
:104FC000F04105460E461746002407E03B463246B0
:104FD0002946204600F02EF8601C84B23D2CF5D303
:104FE000BDE8F0812DE9F04104460D4616461F4606
:104FF000DDF81880052C01DA0E2D02DB0020BDE85B
:10500000F081C4EBC4000A4901EB4000405DFF2879
:1050100001D10020F3E7C4EBC401054A02EB4101D2
:10502000485D43463A46314600F004F8E7E70000A1
:10503000BE6500082DE9F04104460F4615461E46A0
:105040003D2C02D30020BDE8F08104EB4400074969
:105050000F5404EB44000844457004EB440008443A
:105060008670204601F020F90120ECE7281200208C
:1050700010B54FF4C6610248FFF748FA10BD0000B2
:10508000F80B0020FCF730FFFBF708FAFFF750FAA7
:10509000FFF788FAFFF7B0F9FFF750FFFFF7F0FCD2
:1050A000FFF722FCFBF70CFBFBF730FA0020084966
:1050B000087000F09DF82320FCF734F8FFF740F962
:1050C00004A10020FEF784F901E0FEF797FCFCE75D
:1050D000900000207375636365737320696E697453
:1050E000206F6B0D0A00000070B502460B46108859
:1050F000C41A002C01DD20B200E0002001465089D6
:10510000884205DD00209074D074D081108270BD7B
:105110009089884201DA908901B2907C90B9158A11
:105120008D4200DD1182D57C1DB1158AD6883544AB
:1051300000E09588A8B2814203DB01259574D574FF
:10514000D1810DE0D5898D4200DAD181D5891689CA
:10515000AD1BA8B2814202DC00259574118200BF0C
:10516000907CD4E701480078704700000E5C004056
:1051700010B50346012006E0C200934201D80A8020
:1051800010BD441CE0B20828F6DD00200880012094
:10519000F6E7000070B503460C461046064E06EBD7
:1051A000830538B104E02E7804F8016B461EB0B2D6
:1051B0000028F8D170BD0000205C00400149087053
:1051C000704700000E5C004070B503460C46104668
:1051D000064E06EB830538B104E014F8016B2E701F
:1051E000461EB0B20028F8D170BD0000205C00401F
:1051F00000B50246FEF77AF8052A1CD2DFE802F075
:1052000003090E1317004FF480704FF0904188622D
:1052100011E04FF40070094908600CE04FF4807011
:105220000649086007E080200449086003E0402048
:105230000249086000BF00BF00BD00002808004808
:105240000A46837C13B10023438070470388991A70
:105250001E2917DA11F11E0F14DD43885B1C4380F1
:105260004388B3F57A7F0FDD002903DD03885B1ED9
:10527000038004E0002902DA03885B1C038000231A
:10528000438001E00023438000BFDEE710B500F05B
:1052900013F80020FFF792FF00200649087007204E
:1052A0000449083108700120891C08700020491E3B
:1052B000087010BD005C004070470000017801F0EC
:1052C000800139B1017801F07F030749426841F854
:1052D000232007E0017801F07F0303492031426871
:1052E00041F8232070470000D401002010B50C497C
:1052F00091F85E1180F820100A4B01461A4600E032
:1053000012681468002CFBD111600C6000BF0449C6
:1053100091F85E11491C024A82F85E1110BD00002E
:10532000B8000020940000202DE9F04106460F4609
:105330000748046807E02546286918B13946304611
:105340002A6990472468002CF5D1BDE8F08100005F
:10535000940000202DE9F04105460F46904628783C
:1053600000F00300012815D1194804680FE0264613
:10537000706858B196F820002979884206D14246D3
:105380003946284673689847BDE8F0812468002CA8
:10539000EDD119E0287800F00300022814D10C4860
:1053A00004680FE02646B06858B196F82000A98836
:1053B000B0EB112F05D1424639462846B3689847CD
:1053C000E2E72468002CEDD14FF0FF30DCE700006D
:1053D0009400002010B540220249022000F0B4F9E8
:1053E00010BD0000AC03002070B504460D46022C31
:1053F00000D070BD29460548FBF7BCFC402203499C
:10540000022000F0A1F900BFF3E70000AC03002088
:10541000034988610021024A82F85E11704700004A
:10542000B80000200020014908707047A500002046
:105430000120014908707047A500002070B504469E
:1054400024F08005FFF78EFE06462846FFF7B6FEDD
:1054500004F08000A8B935B91748007820F004009E
:105460001549087022E014480930007820F06000E7
:105470001149093108700846007840F08000087032
:1054800014E035B90C48007820F004000A4908708F
:105490000CE00948401D007820F030000649491D05
:1054A00008700846007840F0400008703046FFF76A
:1054B00085FE002070BD0000105C00400146002009
:1054C000704700002DE9F04105460C4625F08006A6
:1054D000FFF748FE07463046FFF770FE05F08000F4
:1054E00048B916B9002020700FE00B480078C0F3CF
:1054F0004010207009E016B90020207005E0064831
:10550000001F0078C0F3001020703846FFF756FEE9
:105510000020BDE8F0810000195C00402DE9F8434F
:105520000446002000908046207820F08005002767
:105530000026BDB940206349A1F8C8000021614898
:1055400080F8CA10012180F8CC1040205D49088500
:1055500000215C4880F82A10012180F82C100020DE
:10556000BDE8F883072D04DD00BF00BF4FF0FF301A
:10557000F6E7FFF7F7FD81462846FFF71FFE207884
:1055800000F08000002849D1618805EB85024D4874
:10559000C83020F82210617805EB850200EB82000C
:1055A0008170012105EB85024648C83000EB82007E
:1055B000017107F0020000B1802607F0080010B169
:1055C00046F0300604E007F0040008B146F020067B
:1055D0006078012801D146F040063B490E70481C16
:1055E000007800F0010018B19020491C087003E019
:1055F00080203549491C087060886946FFF7B8FD6E
:105600001FFA80F83049891C81F800802D484068D5
:10561000BDF8001008442B4948604EE0618805EB56
:1056200085022848283020F82210617805EB850291
:1056300000EB82008170012105EB850221482830B2
:1056400000EB8200017120480E380078A940084321
:105650001D490E39087007F0010008B146F08006B8
:1056600007F00C0008B146F010066078012801D15F
:1056700046F0400646F020061349091F0E70481CEC
:10568000007800F0020018B14820491C087003E0BF
:1056900040200D49C91E087060886946FFF768FD03
:1056A0001FFA80F80849891E81F800800548406883
:1056B000BDF800100844034948604846FFF77EFDE6
:1056C00000204DE7E0120020185C004070B5044651
:1056D00024F08005FFF746FD06462846FFF76EFDDD
:1056E00004F0800098B94DB9072015490870154895
:1056F000007840F06000134908701BE01148093041
:10570000007840F020000F490931087012E04DB9CF
:1057100007200B4908700B48007840F060000949E9
:10572000087007E00748401D007840F01000054968
:10573000491D08703046FFF741FD002070BD000094
:10574000A4000020105C00402DE9F04107460D4602
:10575000164627F0800425B91EB14FF0FF30BDE892
:10576000F08104EB8401284800EB8100007910B936
:105770006FF00100F3E7FFF7F5FC80462046FFF7E6
:105780001DFD04EB8401204800EB8100856004EBE3
:1057900084011D4800EB8100C660002104EB8402F7
:1057A000194800EB82000161BCB91848007820B1AB
:1057B00001280CD006280FD10AE01548007840F0E7
:1057C00040001349087003201049087004E000BF2E
:1057D00005200E49087000BF10E00D48C01F00787A
:1057E0000121A14008430A49C91F0870084809302F
:1057F000007820F001000649093108704046FFF7A3
:10580000DDFC0020ABE70000A8130020A40000206E
:10581000105C00402DE9F04107460E46144627F083
:10582000800526B91CB14FF0FF30BDE8F08105EBD3
:1058300085015F4800EB8100007910B96FF001002D
:10584000F3E7FFF78FFC80462846FFF7B7FC59487F
:10585000007800F0010028B14046FFF7AFFC6FF080
:105860000200E2E705EB8501514800EB810086600C
:1058700005EB85014E4800EB8100C460002105EB7B
:1058800085024B4800EB82000161002D70D14A482F
:10589000007820B1012834D0032867D15EE03CB9FC
:1058A00048204449491F087004204349087027E0F4
:1058B00040204049491F087005EB85013C4830F8FD
:1058C0002100A0420CD33D48007848B9A2B231462D
:1058D0002846FFF779FC0A203649491F08700CE07A
:1058E00005EB8501324830F8212031462846FFF784
:1058F0006BFC02202F49491F087001202E490870B7
:1059000034E04CB9FFF78EFD0A202A49491F087080
:1059100006202949087020E005EB8501244830F86D
:105920002100A0420CD32548007848B9A2B23146E4
:105930002846FFF749FC0A201E49491F08700CE061
:1059400005EB85011A4830F8212031462846FFF73B
:105950003BFC02201749491F087007E04820154901
:10596000491F087004201449087000BF1AE0FFE7BF
:10597000ACB105EB85010E4830F82100A04209D2F8
:1059800005EB85010A4830F8212031462846FFF70B
:105990001BFC04E0A2B231462846FFF715FC0120AB
:1059A000044908704046FFF709FC00203DE700006D
:1059B00008130020155C0040A4000020A500002072
:1059C00070B50546374C2868206068686060E088DC
:1059D000B0F5807F09DD207800F0800028B900BF95
:1059E00000BF8020FFF772FE70BD2E481C302D498D
:1059F0008860E088C860E088086100200875E08859
:105A000050B1207800F0800030B9E2880846816803
:105A10000020FFF799FEE7E7224A1032A2F10801C1
:105A2000204600F035FA18B98020FFF74FFEDBE77B
:105A30001C480069E188884202D21A48006900E0E7
:105A4000E0881849C8600846007A00F0030088B171
:105A50000846C068B0F5807F02D900BF00BFC3E729
:105A60001048C26881681C30FAF77EFB0D481C3074
:105A70000C498860E0880B490969884209D90948BE
:105A8000007C00F03F0020B9012006490875FFF7AF
:105A9000CFFC0448C26881688020FFF7BBFE00BFCE
:105AA000A2E70000B800002070B504460D46802C27
:105AB0002DD11E4E30468068284431468860084605
:105AC000C068401BC8600846C06830B10846C2685C
:105AD00081688020FFF79EFE18E01448007D0128B1
