:020000040800F2
:10000000D81B0020450100084F1B0008471B0008B3
:100010004B1B0008F10800085925000800000000EB
:100020000000000000000000000000009121000816
:10003000FD09000800000000511B00089321000882
:100040005F0100085F0100085F0100085F01000810
:100050005F0100085F0100085F0100085F01000800
:100060005F0100085F0100085F010008F508000853
:10007000C10900085F0100085F0100085F01000876
:100080005F0100085F0100085F01000851250008BA
:100090005F01000800000000000000005F01000890
:1000A0005F0100085F0100085F0100085F010008B0
:1000B0005F0100085F0100085F0100085F010008A0
:1000C0005F0100085F0100085F0100085F01000890
:1000D0005F0100085F0100085F0100085F01000880
:1000E0005F0100085F010008000000005F010008D8
:1000F0005F0100085F0100085F0100085F01000860
:100100005F0100085F0100085F0100085F0100084F
:100110005F0100085F010008C12100085F010008BD
:100120005F0100085F0100085F0100085F0100082F
:10013000DFF80CD000F050F80048004749300008C4
:10014000D81B00200648804706480047FEE7FEE728
:10015000FEE7FEE7FEE7FEE7FEE7FEE7FEE7FEE777
:100160009D2100083101000840EA01039B0703D0EC
:1001700009E008C9121F08C0042AFAD203E011F8E6
:10018000013B00F8013B521EF9D27047D2B201E0A8
:1001900000F8012B491EFBD270470022F6E710B58C
:1001A00013460A4604461946FFF7F0FF204610BDE5
:1001B000421C10F8011B0029FBD1801A704730B592
:1001C00004460020034600E05B1C934203D2E05C3F
:1001D000CD5C401BF8D030BD064C074D06E0E06812
:1001E00040F0010394E8070098471034AC42F6D37E
:1001F000FFF7A2FF004400082044000870B58C18E7
:1002000010F8015B15F0070301D110F8013B2A112A
:1002100006D110F8012B03E010F8016B01F8016B17
:100220005B1EF9D12B0705D40023521E0DD401F813
:10023000013BFAE710F8013BCB1A921C03E013F8DC
:10024000015B01F8015B521EF9D5A142D8D3002011
:1002500070BD00BFFEE710B500F0B6FE10BD000097
:1002600070B5C2B04822734930A8FFF77DFF48211E
:100270001EA8FFF792FF28226E49483114A8FFF705
:1002800073FF28226B4970310AA8FFF76DFF282100
:100290006846FFF782FF002400260025664867496C
:1002A0008860674888606748C8606748C860674872
:1002B0006749086067486149C1F88C0200BF16E0D1
:1002C000032600BF30A850F824000568E84380B238
:1002D000B0EB154F03D11EA840F8245002E0701E69
:1002E000061EEFD100BF0EB9FFF7B5FF641C122C3C
:1002F000E6D31E98C0F30B001F99C1F30B0140EA2F
:10030000014000902098C0B20190219800F00F00A9
:10031000229901F01F0140EA014002902398C0F3A6
:100320000A002499C1F30C0140EA0140039025988A
:10033000C0F30A002699C1F30A0140EA0140049083
:10034000279800F03F00289901F03F0140EA014062
:100350000590299800F03F000690DDE92A0161F33D
:100360001F400790DDE92C0161F31F4008902E9893
:10037000C0F30B002F99C1F30B0140EA0140099033
:1003800000241BE014A850F8240005685DF8241030
:100390000AA850F82400284081420ED014A850F832
:1003A000240000680AA951F8241088435DF824103D
:1003B000084314A951F824100860641C0A2CE1D3E6
:1003C00023488C38006840F001001C49C1F8000245
:1003D00000BF00BF00BF00BF00BF00BF00BF00BF25
:1003E00000BF00BF1548D0F8000220F001001349FB
:1003F000C1F8000200240EE014A850F8240005689B
:100400005DF824100AA850F824002840814201D049
:10041000FFF721FF641C0A2CEED30848406940F026
:100420008040064948610846406940F00040486104
:1004300042B070BD20420008230167450020024001
:10044000AB89EFCD3B2A19087F6E5D4C51407F5D33
:100450008C2202406327CE4600B591B02C2106A81D
:10046000FFF79BFE142101A8FFF797FE1F200690BF
:100470004FF480300790C011089010200C9001209C
:100480000B900020099010200A9000200D9002206F
:100490000E90C1030F910107109106A800F0E0FE35
:1004A00008B1FFF7D6FE0F20019002200290002035
:1004B000039004900590062101A800F09BFD08B16F
:1004C000FFF7C7FE11B000BD10B52E480068401CF4
:1004D0002C49086002F050FB00204FE0002149E069
:1004E000C0EBC002284B03EB4202525C02B93FE072
:1004F000C0EBC00202EB8202244B03EBC20201EB11
:10050000810302EB8302927CC0EBC003204C04EB1E
:1005100043035B5C9A422AD0C0EBC00202EB82022A
:100520001A4B03EBC20201EB810302EB8302927CC4
:10053000C0EBC00304EB43035A54164A1268521C22
:10054000144B1A60144A1070144A1170C0EBC002A8
:1005500002EB82020D4B03EBC20201EB810302EBC3
:100560008302927C0E4B1A7001220E4B1A7000BF50
:100570004A1CD1B20E29B3DB411CC8B20528ADDB41
:1005800010BD00000C00002044430008240500209A
:100590001002002010000020140000201500002090
:1005A000160000200400002010B50446F12C14D1E0
:1005B0000A480078401C072190FBF1F201FB120071
:1005C00006490870002006490860002211461046BE
:1005D00002F0D7FC01200349087010BD060000207E
:1005E000080000200500002038B53F4800780728A3
:1005F00076D2DFE800F0750410251C5C68003B49EA
:100600000968491C394A0846116002F01BFB0120A9
:100610003749087065E035490968491C334A08467E
:10062000116002F08BFC01203149087059E0FF2273
:10063000B4211E2002F0A5FC01202D49087050E0D5
:1006400000242EE0002528E0C4EBC400294901EB7A
:100650004000405D00B91EE0C4EBC40000EB800028
:10066000254901EBC00005EB850100EB8100807C92
:1006700040B1FF200346002229460090204602F0A8
:1006800093FC07E0002003460246294600902046DE
:1006900002F08AFC00BF681CC5B20E2DD4DB601CC2
:1006A000C4B2052CCEDB01201149087019E00F49B6
:1006B0000968491C0D4A0846116002F017FB012029
:1006C0000B4908700DE009490968491C074A0846AA
:1006D000116002F0BBFB01200549087001E0FFE753
:1006E00000BF00BF38BD0000060000200800002049
:1006F00005000020444300082405002010B50548EB
:10070000007828B102F096FC10B900200149087069
:1007100010BD00000500002010B50548007830B17C
:1007200003480078FFF740FF00200149087010BD22
:10073000070000202DE9FC415B48007808B9BDE8BE
:10074000FC810020009001900024002500BF1FE0E4
:10075000002118E0C0EBC00202EB8202534B03EB16
:10076000C20201EB810302EB8302927C4AB1C0EB2F
:10077000C0024F4B03EB4202525CF02A01D101252B
:1007800003E04A1CD1B20E29E4DB00BF411CC8B211
:100790000528DDDB002068E0002162E0C0EBC0033B
:1007A000444E06EB43035B5C63B1C0EBC00303EB59
:1007B00083033E4E06EBC30301EB810603EB860386
:1007C0009B7C3BB90023C0EBC0063B4F07EB4606C2
:1007D000735444E035B1C0EBC003384E06EB43031D
:1007E0005B5C05E0C0EBC003314E06EB43035B5C92
:1007F0001A462AB9C0EBC0032D4E06EB43035A5CE0
:100800000AB1F02A00D12AE0F02A10DBC0EBC003C5
:10081000294E06EB43035B5C43B9294B1A70012355
:10082000C0EBC006244F07EB4606735417E0E02ADE
:100830000CDBE72A0ADC9DF80030A2F1E006012774
:10084000B7403B43DBB28DF8003007E0062C05DAF9
:100850002346661CF4B29B1C0DF8032000BF4A1C03
:10086000D1B20E299ADB411CC8B2052894DB0822BC
:1008700014496846FFF7A3FC88B108226946812025
:1008800002F07CFF70B901200F4908700D480099F3
:1008900001600199416000200349087002E00020D6
:1008A0000149087000BF4AE7040000202405002029
:1008B000B84200084443000856020020FE420008E7
:1008C00007000020170000202000002008B50AE0E3
:1008D0000F21009100E000BF9DF800104A1ED2B227
:1008E00000920029F7D1011EA0F10100F0D108BD4E
:1008F00000BFFEE710B54FF400704FF090418861E3
:100900002948006800F00200002847D00F2026493F
:1009100048600846806820F001008860002010E0F0
:10092000224A1278C2EBC202214B03EB820202EB95
:1009300040010A881F4B33F810301A440A80411CCA
:10094000C8B20E28ECDB19480078401C1749087023
:1009500008460078052809DA0846007802F058FCB5
:100960002320FFF7B3FF01F0DBFF17E000200F4962
:10097000087011480078401C0F490870084600783C
:10098000032808DA002002F043FC2320FFF79EFF33
:1009900001F0C6FF02E00120084908704FF4007022
:1009A0004FF09041886210BD000002408A00002094
:1009B000980400209C0300208B0000208C00002065
:1009C00010B5024800F01CF810BD0000140400200F
:1009D00030B590F840500124AC40C56B6C600468A1
:1009E00063604468102C04D10468A2600468E1606C
:1009F00003E00468A1600468E26030BD7047000055
:100A000070B50446E06B05682068066894F84010ED
:100A1000042088402840002875D006F004000028F3
:100A2000FAD02068006800F0200028B9206800682B
:100A300020F0040021680860D5492068884254D914
:100A4000D34978392068884201D1042049E0D0494F
:100A500064392068884201D1402042E0CC495039B5
:100A60002068884201D100153BE0C9493C39206823
:100A7000884202D14FF4804033E0C54928392068CC
:100A8000884202D14FF480202BE0C14914392068FC
:100A9000884202D14FF4800023E0BD49206888429B
:100AA00001D1C0041DE0BB492068884201D1042067
:100AB00017E0B84914312068884201D1402010E085
:100AC000B44928312068884201D1001509E0B149B4
:100AD0003C312068884202D14FF4804001E04FF45D
:100AE0008020AC49091F086054E0A9497839206882
:100AF000884201D104204AE0A5496439206888422F
:100B000002D1402043E04CE0A1495039206888429E
:100B100001D100153BE09E493C392068884202D152
:100B20004FF4804033E09A4928392068884202D146
:100B30004FF480202BE0964914392068884202D176
:100B40004FF4800023E092492068884201D1C0041C
:100B50001DE090492068884201D1042017E08D49AA
:100B600014312068884201D1402010E089492831A1
:100B70002068884201D1001509E086493C3120688F
:100B8000884202D14FF4804001E04FF48020804938
:100B900080394860E06A002802D02046E16A884730
:100BA000F4E094F84010022088402840002871D0DA
:100BB00006F002000028FAD02068006800F020004B
:100BC00040B92068006820F00A0021680860012010
:100BD00084F821006E492068884254D96C497839DC
:100BE0002068884201D1022049E0694964392068BF
:100BF000884201D1202042E065495039206888426E
:100C000001D140153BE062493C392068884202D15D
:100C10004FF4005033E05E4928392068884202D101
:100C20004FF400302BE05A4914392068884202D131
:100C30004FF4001023E056492068884201D1800417
:100C40001DE054492068884201D1022017E0514933
:100C500014312068884201D1202010E04D4928310C
:100C60002068884201D1401509E04A493C3120689A
:100C7000884202D14FF4005001E04FF40030454962
:100C8000091F086054E0424978392068884202D13F
:100C900002204AE057E03E4964392068884201D189
:100CA000202042E03A4950392068884201D140155D
:100CB0003BE037493C392068884202D14FF400506C
:100CC00033E0334928392068884202D14FF400309C
:100CD0002BE02F4914392068884202D14FF40010CC
:100CE00023E02B492068884201D180041DE0294976
:100CF0002068884201D1022017E02649143120687B
:100D0000884201D1202010E0224928312068884201
:100D100001D1401509E01F493C312068884202D1C9
:100D20004FF4005001E04FF4003019498039486019
:100D300000BF002084F8200000BFA06A30B3204626
:100D4000A16A884722E094F8401008208840284093
:100D5000E0B106F00800C8B12068006820F00E007D
:100D60002168086094F8401001208840E16B4860D9
:100D70000120A06384F8210000BF002084F8200037
:100D800000BF206B10B12046216B884770BD00006A
:100D900080000240080402402DE9F04104460D465F
:100DA00016461F464FF0000800BF94F820000128A7
:100DB00002D10220BDE8F081012084F8200000BFAC
:100DC00094F8210001282CD1022084F82100002071
:100DD000A0632068006820F00100216808603B469D
:100DE000324629462046FFF7F3FDE06A30B120681D
:100DF000006840F00E00216808600BE02068006881
:100E000020F00400216808602068006840F00A00B3
:100E1000216808602068006840F0010021680860CF
:100E200006E000BF002084F8200000BF4FF0020859
:100E30004046BFE770B5044600F010F80646254668
:100E4000681C10B104480078054400BF00F006F8A3
:100E5000801BA842FAD370BDAC0000200148006896
:100E600070470000A4000020034800680349097887
:100E70000844014908607047A4000020AC0000202D
:100E800010B5042000F08CF8072000F005F800F001
:100E900029F8002010BD000070B504460E48007807
:100EA0004FF47A71B1FBF0F00C490968B1FBF0F531
:100EB000284600F051FD08B1012070BD082C07D272
:100EC00000222146501E00F02DF80548046001E084
:100ED0000120F2E70020F0E7AC0000200000002035
:100EE000A800002008B500BF0D48806940F001004F
:100EF0000B4988610846806900F00100009000BF3E
:100F000000BF00BF0846C06940F08050C861084675
:100F1000C06900F08050009000BF00BF08BD000015
:100F2000001002402DE9F05F80460D46164600276E
:100F300001F0CAFC074639462A46334601F007004D
:100F4000C0F1070ABAF1030F02D94FF0030A01E01A
:100F5000C0F1070AD14600F1030ABAF1070F02D225
:100F60004FF0000A01E0A0F1040AD4464FF0010A54
:100F70000AFA09FAAAF1010A0AEA020A0AFA0CFABA
:100F80004FF0010B0BFA0CFBABF1010B0BEA030B5F
:100F90004AEA0B042146404601F09EFCBDE8F09F62
:100FA00000BF00F00702064B19684FF6FF03194017
:100FB000044B0B4343EA0221014B196000BF704709
:100FC0000CED00E00000FA0500BFBFF34F8F0748AB
:100FD000006800F4E06006490843001D034908600A
:100FE000BFF34F8F00BF00BF00BFFDE70CED00E077
:100FF0000000FA0570B504460D460CB9012070BD1D
:101000005A48006800F00F00A8420ED25748006806
:1010100020F00F002843554908600846006800F09A
:101020000F00A84201D00120E9E7207800F002007B
:1010300002281DD1207800F00400042805D14C4876
:10104000406840F4E0604A494860207800F00800B9
:10105000082805D14648406840F46050444948603B
:101060004348406820F0F000A168084340494860C8
:10107000207800F0010078B36068012806D13C4870
:101080000068C0F3404090B90120B8E760680228CA
:1010900006D13748006800F0807040B90120AEE703
:1010A00033480068C0F3400008B90120A7E7304882
:1010B000406820F00300616808432D494860FFF74D
:1010C000CDFE064609E0FFF7C9FE801B41F28831DC
:1010D000884202D9032092E707E02548406800F0E3
:1010E0000C006168B0EB810FEDD12048006800F082
:1010F0000F00A8420ED91D48006820F00F002843B9
:101100001A4908600846006800F00F00A84201D0A4
:10111000012074E7207800F00400042807D1144867
:10112000406820F4E060E168084311494860207895
:1011300000F00800082808D10D48406820F46050ED
:10114000216940EAC1000A49486000F019F80849DD
:101150004968C1F30311074A515CC8400649086059
:1011600006480068FFF798FE002048E7002002408C
:10117000001002400842000800000020A8000020E3
:101180002DE9F04192B0402222A102A8FEF7ECFF27
:1011900030A0006801900024002500260027A0460A
:1011A0002D48446804F00C0060B3042802D00828DD
:1011B00027D102E0DFF8A48027E004F4701004F0E7
:1011C000C04140EAD11002A901EB9040077804F435
:1011D0004030B0F5803F04D004F44030B0F5403FDB
:1011E0000AD11D484068C0F3404001A90D5C1B486E
:1011F0007843B0FBF5F602E0184807FB00F6B0466E
:1012000003E000BFDFF8548000BF00BF404612B0CB
:10121000BDE8F08102030405060708090A0B0C0D5E
:101220000E0F101112131415161718191A1B1C1D66
:101230001E1F202122232425262728292A2B2C2D56
:101240002E2F303132333435363738393A3B3C3D46
:101250003E3F3F3F010200000010024000127A00B2
:10126000F8B504460CB90120F8BD207800F0010063
:10127000002878D0F648406800F00C00042813D00D
:10128000F348406800F00C00082818D1F048406886
:1012900000F48030B0F5803F06D0ED48406800F49F
:1012A0008030B0F5403F0AD1E9480068C0F34040C3
:1012B0000028DED06068002855D10120D4E760689E
:1012C000B0F5803F25D100BFE148006820F48030B0
:1012D000DF4908600846006820F48020086000BFED
:1012E000FFF7BCFD054606E0FFF7B8FD401B64288C
:1012F00001D90320B8E7D6480068C0F34040002871
:10130000F2D1D348806B20F44070A1680843D049E3
:10131000886300BF6068B0F5803F06D1CC480068A4
:1013200040F48030CA49086029E0606858B9C8486C
:10133000006820F48030C64908600846006820F440
:10134000802008601BE06068B0F5A02F0CD1C04879
:10135000006840F48020BE4908600846006840F4F8
:10136000803008600BE030E0B948006820F480303D
:10137000B74908600846006820F48020086000BF74
:10138000606888B1FFF76AFD054606E0FFF766FD75
:10139000401B642801D9032066E7AD480068C0F30C
:1013A00040400028F2D010E0FFF758FD054606E067
:1013B000FFF754FD401B642801D9032054E7A448DB
:1013C0000068C0F340400028F2D1207800F002000D
:1013D000022854D19E48406800F00C0098B19C4807
:1013E000406800F00C00082817D19948406800F4C4
:1013F0008030B0F5803F10D09548406800F48030D0
:10140000B0F5403F09D092480068C0F3400078B37F
:101410006069012833D0012026E76069B8B18C48A3
:10142000006840F001008A490860FFF717FD054693
:1014300006E0FFF713FD401B022801D9032013E744
:1014400083480068C0F340000028F2D017E08048CD
:10145000006820F001007E490860FFF7FFFC0546A8
:1014600007E0FFF7FBFC401B022802D90320FBE644
:1014700005E077480068C0F340000028F1D12078EB
:1014800000F01000102830D1A069B8B17048806A0F
:1014900040F010006E498862FFF7E0FC054606E068
:1014A000FFF7DCFC401B022801D90320DCE668487A
:1014B000806AC0F340100028F2D016E06448806AC9
:1014C00020F0100062498862FFF7C8FC054606E07C
:1014D000FFF7C4FC401B022801D90320C4E65C4886
:1014E000806AC0F340100028F2D1207800F0080094
:1014F000082833D1E069D0B15548406A40F0010076
:1015000053494862FFF7AAFC054606E0FFF7A6FC30
:10151000401B022801D90320A6E64D48406AC0F3CB
:1015200040000028F2D0012000F014FB16E04848EB
:10153000406A20F0010046494862FFF78FFC0546EB
:1015400006E0FFF78BFC401B022801D903208BE645
:101550003F48406AC0F340000028F2D1207800F0F4
:101560000400042878D100273948C06900F0805071
:1015700070B900BF3648C06940F080503449C86136
:101580000846C06900F08050009000BF00BF0127EE
:101590003048006800F48070B0B92E48006840F40C
:1015A00080702C490860FFF759FC054606E0FFF7FC
:1015B00055FC401B642801D9032055E625480068E6
:1015C00000F480700028F2D0E068012827D100BF25
:1015D0001F48006A20F001001D4908620846006AA1
:1015E00020F00400086200BFFFF738FC054608E061
:1015F000FFF734FC401B41F28831884201D90320B7
:1016000032E61348006AC0F340000028F0D11048C9
:10161000006A20F01800216908430D49086200BFE4
:10162000E068012806D10A48006A40F00100084934
:1016300008622CE0E06880B90548006A20F00100EB
:10164000034908620846006A20F0040008621EE0B0
:1016500000100240007000404CE0E06805280BD10B
:101660005C48006A40F004005A4908620846006A73
:1016700040F0010008620AE05648006A20F00100CC
:10168000544908620846006A20F00400086200BF5E
:10169000E06898B1FFF7E2FB054608E0FFF7DEFBE4
:1016A000401B41F28831884201D90320DCE54948DA
:1016B000006AC0F340000028F0D012E0FFF7CEFB34
:1016C000054608E0FFF7CAFB401B41F2883188421B
:1016D00001D90320C8E53F48006AC0F34000002854
:1016E000F0D1012F05D13B48C06920F08050394925
:1016F000C86100BF206A90B33648406800F00C0013
:10170000082853D0206A022838D13248006820F0D7
:10171000807030490860FFF7A1FB054606E0FFF73F
:101720009DFB401B022801D903209DE52948006844
:10173000C0F340600028F2D1D4E9090108432549EB
:101740004968254A11400843224948600846006814
:1017500040F080700860FFF781FB054607E037E046
:10176000FFF77CFB401B022801D903207CE51948C8
:101770000068C0F340600028F2D029E015480068F6
:1017800020F0807013490860FFF768FB054606E00B
:10179000FFF764FB401B022801D9032064E50D48D4
:1017A0000068C0F340600028F2D111E0206A0128EF
:1017B00000D159E50748466806F48031606A8142E5
:1017C00004D106483040A16A884201D001204BE58F
:1017D000002049E500100240FFFFC09F00003C6070
:1017E000704700002DE9F04104460E4615460027DB
:1017F00000BF94F85400012802D10220BDE8F08116
:10180000012084F8540000BF94F85500012801D04D
:10181000022792E006B10DB901278EE0032084F87B
:1018200055000020A0652663A586E586A063A06418
:101830006064A087E087A068B0F5004F0BD12068F6
:10184000006820F04000216808602068006840F4CB
:10185000804021680860A06AB0F5005F0DD100BF2C
:101860002068006820F40050216808602068006843
:1018700040F400502168086000BF3348E16CC86242
:101880003248E16C88623248E16C08630020E16C08
:1018900048632068406820F4804021684860E06820
:1018A000B0F5E06F1DD8E06C4069B0F5806F18D1DD
:1018B000E08E00F0010048B92068406820F48040C4
:1018C00021684860E08E4010E0860AE020684068A9
:1018D00040F4804021684860E08E012101EB600007
:1018E000E086E38ED4F800C00CF10C02216BE06CB2
:1018F000FFF752FA40B1A06D40F01000A06501273B
:10190000012084F8550018E02068006800F04000CD
:10191000402805D02068006840F040002168086039
:101920002068406840F020002168486020684068D6
:1019300040F002002168486000BF00BF002084F82A
:10194000540000BF384659E7CF1E0008DD1E0008CE
:10195000A71E00087047704770B504462546681EEC
:10196000B0F1807F01D301200FE0681E4FF0E0212D
:10197000486107214FF0FF3000F0AEFF00204FF02C
:10198000E021886107200861002070BD7047704722
:10199000704710B5044620680069C0F34000D8B114
:1019A0002068C068C0F34000B0B16FF00200216849
:1019B0000861012020772068806900F0030018B1D9
:1019C0002046FFF7E5FF05E0204600F0ADF8204691
:1019D00000F0ABF80020207720680069C0F3800099
:1019E000D8B12068C068C0F38000B0B16FF00400C7
:1019F00021680861022020772068806900F4407027
:101A000018B12046FFF7C4FF05E0204600F08CF82F
:101A1000204600F08AF80020207720680069C0F393
:101A2000C000D8B12068C068C0F3C000B0B16FF08A
:101A3000080021680861042020772068C06900F050
:101A4000030018B12046FFF7A3FF05E0204600F091
:101A50006BF8204600F069F80020207720680069C4
:101A6000C0F30010D8B12068C068C0F30010B0B156
:101A70006FF0100021680861082020772068C06995
:101A800000F4407018B12046FFF782FF05E02046C1
:101A900000F04AF8204600F048F80020207720683F
:101AA000006900F0010058B12068C06800F0010032
:101AB00030B16FF0010021680861204600F036F86F
:101AC00020680069C0F3C01058B12068C068C0F336
:101AD000C01030B16FF08000216808612046FFF728
:101AE00055FF20680069C0F3801058B12068C068B5
:101AF000C0F3801030B16FF04000216808612046CB
:101B000000F020F820680069C0F3401058B1206848
:101B1000C068C0F3401030B16FF020002168086148
:101B20002046FFF734FF10BD7047704710B50446DC
:101B300003492068884201D100F04AFB10BD000033
:101B400000100040704700BFFEE700BFFEE770478F
:101B50007047000008B508490968C9084FF47A724F
:101B6000B1FBF2F14143009100BF00BF00994A1E52
:101B700000920029F9D108BD000000204FF48070C8
:101B80004FF0904188614FF47070014908607047D0
:101B9000180800482DE9F04104460D4616460E4F40
:101BA00000BF387808B900F0D9FC00BFEFF311800E
:101BB0000746202080F3118800BF00BF3246294627
:101BC000204600F00BF88046F8B280F3118800BF81
:101BD00000BF4046BDE8F081201300202DE9F0470A
:101BE000074688461646C24607EB47011B4800EBEE
:101BF000C109D9F8140020B1012811D0022826D13A
:101C00001EE0484600F0DCFC0546B54201D2002447
:101C100005E0344632465146484600F028FE18E0BA
:101C2000484600F0CDFC0546B54201D2284600E00A
:101C30003046044622465146484600F018FE08E069
:101C400032465146484600F0D7FD044601E00024E4
:101C500000BF00BF2046BDE8F08700003813002019
:101C600070B505460C462046FEF7A2FA06463246F7
:101C700021462846FFF78EFF70BD0FB438B50446E5
:101C800006A800906A462046059900F007F8054628
:101C900000200090284638BC5DF814FB2DE9F04F79
:101CA00099B082460D46144603A814904020159022
:101CB00000201690CDF860A0179000BF2E786D1C04
:101CC00006B9DDE0252E79D100274FF0010900BFCC
:101CD0002E78232E12D02B2E0CD02D2E02D0302E6B
:101CE00010D103E047F001076D1C0EE047F002073A
:101CF0006D1C0AE047F004076D1C06E047F008077A
:101D00006D1C02E04FF0000900BF00BFB9F1000FE9
:101D1000DED14FF0000800BF2E78302E01DB392EC7
:101D200000DD07E06D1CA6F1300008EB880100EB38
:101D30004108F1E700BF002013902E782E2E12D11B
:101D40006D1C00BF2E78302E01DB392E00DD09E03E
:101D50006D1CA6F13000139901EB810100EB4100ED
:101D60001390EFE700BF2E7800BF6C2E01D0682ED5
:101D700002D16D1C2E7800E000E0F6E700BF702E67
:101D80005DD008DC252E6AD0582E35D0632E09D0C0
:101D9000642E69D113E0732E3CD0752E1DD0782EA1
:101DA00062D128E02168081D2060D1F8009009F078
:101DB000FF0B594614A800F0FDFC56E058E02168DE
:101DC000081D2060D1F80090CDE900870A2249461D
:101DD00014A8139B00F002FC47E02168081D206056
:101DE000D1F80090CDE900870A22494614A8139B38
:101DF00000F06AFC39E000BF2168081D2060D1F8BE
:101E00000090CDE900871022494614A8139B00F0EA
:101E10005BFC2AE02168081D2060D1F800B000BFFB
:101E20009BF800600BF1010B06B906E0314614A8DF
:101E300000F0C0FC17980028F2DA00BF15E0216816
:101E4000081D2060D1F80090002008210B461022C8
:101E5000CDE90010494614A800F036FC05E0252124
:101E600014A800F0A7FC00E000BF00BF6D1C03E059
:101E7000314614A800F09EFC17980028BFF61EAF4C
:101E800000BF179800280ADD169820B103A9504614
:101E9000169AFFF77FFEDDE9161008441790179891
:101EA00019B0BDE8F08F70B505466C6A20684068CF
:101EB00020F0030021684860A06D40F01000A0658C
:101EC000012084F855002046FFF78AFC70BD70B5EC
:101ED0000446656A2846FFF73EFD70BDF8B5054625
:101EE0006C6AFEF7BBFF06462868006800F0200019
:101EF00020282DD02068406820F02000216848600C
:101F00002068406820F00200216848603246642161
:101F1000204600F022F818B1A06D40F02000A06526
:101F2000A06850B900BF002000902068C0680090F1
:101F300020688068009000BF00BF0020E08601207C
:101F400084F85500A06D18B12046FFF749FCF8BD94
:101F50002046FFF7FFFC00BFF9E7F8B504460E4640
:101F60001546334600224FF4C0512046009500F03C
:101F700027F828B1A06D40F02000A0650320F8BD2F
:101F80003346002280212046009500F095F828B1C4
:101F9000A06D40F02000A0650320F0E7334600224A
:101FA0004FF4C0612046009500F00AF828B1A06DFA
:101FB00040F02000A0650320E1E70020DFE70000FB
:101FC0002DE9FC5F04460D4616461F46DDF83090AD
:101FD00000200090FEF742FFA0EB0900A7EB0008ED
:101FE000FEF73CFF8246206800F10C0B3148006888
:101FF000C0EBC00000EB8000000D00FB08F001907A
:1020000050E0B5F5C06F05D126B99BF800000090EF
:102010009DF80000781C002844D0FEF71FFFA0EBBD
:102020000A00404502D2B8F1000F34D12068406860
:1020300020F0E000216848606068B0F5827F0DD133
:10204000A068B0F5004F03D0A068B0F5806F05D14F
:102050002068006820F0400021680860A06AB0F5A0
:10206000005F0DD100BF2068006820F40050216897
:1020700008602068006840F400502168086000BFD4
:10208000012084F8550000BF002084F8540000BFF0
:102090000320BDE8FC9F019808B94FF000080198A3
:1020A000401E0190206880682840B042A9D10020DD
:1020B000EFE70000000000202DE9F84F04460D4630
:1020C00090461E46DDF82890FEF7C8FEA0EB0900FA
:1020D000371AFEF7C3FE82462C480068C0F3CB30A7
:1020E0007843009045E0701C002842D0FEF7B6FE11
:1020F000A0EB0A00B84200D2A7BB2068406820F0DD
:10210000E000216848606068B0F5827F0DD1A0686A
:10211000B0F5004F03D0A068B0F5806F05D12068FE
:10212000006820F0400021680860A06AB0F5005FF8
:102130000DD100BF2068006820F4005021680860BD
:102140002068006840F400502168086000BF01204A
:1021500084F8550000BF002084F8540000BF03201D
:10216000BDE8F88FFFE7009800B900270098401EEF
:102170000090206880682840A84201D1012000E03A
:1021800000204045AFD10020EAE700000000002019
:10219000704710B5FEF768FE10BD000010B5FEF7E1
:1021A0005FF80648006840F47000044908604FF08A
:1021B000006002498039086010BD000088ED00E031
:1021C00010B50248FFF7E5FB10BD000058040020E1
:1021D00002480068401C0149086070474800002020
:1021E0002DE9F047D74890F80080801C0578401E04
:1021F000077800F0C7FF824608F00400D0B14FF422
:10220000C071D148FDF7C9FF4020CF49486001F0B7
:1022100087FCCC48C01E007840F00100C949C91EA7
:1022200008700120C749891D08700020491E0870E8
:10223000C649087008F0020008B101F095FC08F0EA
:10224000010008B101F096FCBE48801D00780540F1
:1022500005F0010030B1002000F0C0FF00F098FB55
:1022600025F001050124E1E00120A04028400028DC
:102270007ED0204600F0B2FFB2481130007800F066
:10228000040038B1AF481130007820F00400AD49A7
:102290001131087004EB8401AB48283000EB810059
:1022A00004EB8402C168A848283030F8220081423B
:1022B0003FD904EB8401A448283000EB810004EBF3
:1022C00084028168A048283030F82200014404EBE1
:1022D00084029D48283000EB8200816004EB840179
:1022E0009948283000EB810004EB8402016996488C
:1022F000283030F82200014404EB84029248283050
:1023000000EB8200016104EB84018F48283000EB70
:10231000810004EB8402C1688B48283030F8220029
:10232000091A04EB84028848283000EB8200C1605F
:1023300035E004EB84018448283000EB810004EB95
:10234000840281688048283000EB8200C068014424
:1023500004EB84027C48283000EB8200816004EBAF
:1023600084017948283000EB810004EB840200E00E
:102370005AE001697448283000EB8200C0680144CB
:1023800004EB84027048283000EB820001610021D8
:1023900004EB84026C48283000EB8200C16004EB3F
:1023A00084016948283000EB8100C06858B904EB0B
:1023B0008403654A283202EB830244F080001169ED
:1023C00001F026FB2DE004EB84015F48283000EB90
:1023D000810004EB8402C1685B48283030F8220099
:1023E000814207D204EB84015748283000EB81007A
:1023F000C06805E004EB84015348283030F8210020
:102400001FFA80F904EB84024F48283000EB820069
:102410004A468168204600F0E7FE01204949113113
:1024200008700120A0408543601CC4B2002D7FF4D9
:102430001BAF4448401D0078074001247AE001208A
:10244000A0403840002873D0204600F0C7FE3D4829
:102450001530007800F00100002866D039481830A7
:10246000068804EB84023848C83000EB820032460C
:102470008168204600F09EFE04EB84013248C8309B
:1024800000EB81008068811904EB84022E48C8307B
:1024900000EB8200816004EB84012B48C83000EB24
:1024A00081000069811904EB84022748C83000EBE1
:1024B0008200016104EB84012348C83000EB8100F5
:1024C000C068811B04EB84021F48C83000EB820007
:1024D000C16004EB84011C48C83030F82100B042D0
:1024E00007DC04EB84011848C83000EB8100C068A9
:1024F00098B91448401D00780121A1408843114932
:10250000491D087004EB84020F48C83000EB8200BC
:102510000169204601F0C2FA07E00A481530007848
:1025200020F001000749153108700120A0408743C1
:10253000601CC4B2002F82D1504600F04FFEBDE8AF
:10254000F0870000045C0040A0110020A0000020E3
:1025500010B5FFF745FE10BD00BFFEE7114803228E
:102560000261426110A28261124BC3614FF4806329
:102570000362002383624362C3620BA202660E4BB6
:1025800043661023836600230367C3664367002105
:1025900005E0C1F10F02094B9A5C4254491C102915
:1025A000F7D37047201300205465726D696E616C1B
:1025B00000000000C8130020C8170020DF430008F7
:1025C00010B501460A69CB689A4204D88C68641E2B
:1025D000E41AA01801E0D41A601E10BD2DE9FC5FBA
:1025E00006460F4692469846DDE90C45002F01DA73
:1025F000784200E0384683464FF0010903E09BFB38
:10260000FAFB09F10109D345F9DAC84500D9C146F9
:1026100034B1002F03DB05F00400042800D1641E50
:1026200005F0020010B1B8F1000F11D005F0010063
:1026300070B96CB108E0641E2021304600F0BAF891
:10264000F068002800DA02E00CB1A145F3D300BF26
:10265000F068002836DB002F05DA7F422D21304656
:1026600000F0A8F807E005F00400042803D12B21AE
:10267000304600F09FF8F068002823DB05F00200E8
:10268000022814D105F0010088B9B8F1000F0ED16D
:102690006CB108E0641E3021304600F08BF8F06821
:1026A000002800DA02E00CB1A145F3D300BFF068C6
:1026B000002807DB4346524639463046CDE90045FF
:1026C00000F002F8BDE8FC9F2DE9FC5F80468946DA
:1026D00015461E460C9CCDF804900127BB4605E02C
:1026E0000198B0FBF5F001900BF1010B0198A842A5
:1026F000F6D25E4500D9B3460D9800F00100D0B97E
:10270000CCB10D9800F00200022803D116B9302098
:10271000009001E02020009009E0641E40460099EE
:1027200000F048F8D8F80C00002800DA02E00CB1FC
:10273000A345F2D300BFD8F80C00002835DB09E030
:10274000012E01D9761E04E0B9FBF7FAAA4500D2A2
:1027500001E06F43F4E700BF00BFB9FBF7FA0AFBE3
:102760001799134810F80A10404600F023F8D8F8DB
:102770000C00002800DA03E0B7FBF5F7002FECD1DE
:1027800000BF0D9800F0010078B174B109E0641E3B
:102790002021404600F00EF8D8F80C00002800DA9E
:1027A00002E00CB1A345F2D300BFBDE8FC9F0000DE
:1027B000F043000870B504460E46A568681C6168C1
:1027C000814206D320684655681CA060E068401C22
:1027D000E060D4E9011088420DD1A2682168206927
:1027E000FFF7D8F9A168884203D04FF0FF30E060CE
:1027F00001E00020A06070BD2DE9F05F044689462D
:1028000017464FF0000AE56800BFD4F81080A845CD
:1028100003D9A8EB0500461E04E0A5EB0800401C08
:10282000A1680E1AA068401BB04201D9304601E0F1
:10283000A068401B0646BE4201D2304600E0384642
:102840000646606800EB050B324649465846FDF7E0
:102850008BFCB244B144BF1B3544A068A84200D1F0
:102860000025E560002FD0D15046BDE8F09F2DE94E
:10287000F047044689461546E668A068871BAF42C4
:102880000AD9606800EB060A2A4649465046FDF719
:102890006BFC7019E06014E0B846606800EB060A53
:1028A000424649465046FDF75FFCA5EB0708D4F8C1
:1028B00004A009EB070142465046FDF755FCC4F859
:1028C0000C80BDE8F087000002480068C0F30220D9
:1028D000704700000CED00E010B5002804DB4A074B
:1028E000130E054A135406E04A07140E034A00F07B
:1028F0000F031B1FD45410BD00E400E018ED00E0EE
:1029000002E008C8121F08C1002AFAD170477047B8
:10291000002001E001C1121F002AFBD17047000016
:102920000F48806820F001000D4988600D4848611B
:102930000E20C8600F2048606FF012000A4908603E
:102940000748806840F00300054988600648083061
:10295000006840F4800004490831086070470000B6
:10296000000002409C0300200024014070B5044692
:102970000D46064890F85500012801D0022070BD90
:102980002A4621460148FEF72DFFF8E7B80300204C
:1029900070B55048057805F0040048B14D480078FE
:1029A00020F004004B49087000204B49087070BDAE
:1029B00005F0100028B180204649087000204649E3
:1029C000087046480078002807DD444800784149EF
:1029D000103908700020414908703F4800780728E6
:1029E00075D2DFE800F00418743A6F706A0005F0E1
:1029F000010078B13748401C0478082C00D0D6E795
:102A0000082236492031002000F0D4FB3348203022
:102A100000F08AFF5BE03148406B3049098D884205
:102A20000DD92E48806B2D49098D01442B488163B7
:102A3000406B2A49098D411A2848416307E027481D
:102A4000816B406B01442548816300214163234829
:102A5000816B802000F0DCFF39E005F0010038B325
:102A60001C48401C04781D482246D0F8D010002095
:102A700000F0A0FB1948D0F8D00001191748C0F8A1
:102A8000D010D0F8D80001191448C0F8D810B0F808
:102A9000C800A04206DC1148D0F8D810D0F8D40005
:102AA000814206D10D48D0F8D810002000F0F6FF82
:102AB00002E040200749087009E00021802000F072
:102AC000A7FF04E000BF00200349087000BF00BF5B
:102AD00000BF6CE7105C0040A0000020A0110020A7
:102AE000F0B504462B2694FBF6F6F5B22B2694FBA4
:102AF000F6F706FB174000EB40067606300E052D74
:102B000026D2DFE805F0030911171F00FF260E701B
:102B1000107000261E7023E0C0F1FF060E70FF2625
:102B2000167000261E701BE000260E70FF26167021
:102B3000187015E000260E70C0F1FF061670FF2613
:102B40001E700DE0087000261670FF261E7007E04C
:102B5000FF260E7000261670C0F1FF061E7000BF23
:102B600000BFF0BD034890F85D0108B10120704737
:102B70000020FCE7B00000202DE9F0412B48007850
:102B8000012851D100243FE0002539E0C4EBC40006
:102B9000274901EB4000405D40B90020C4EBC4016F
:102BA000244A02EB810121F8150027E0C4EBC400A0
:102BB000204901EB800030F81500032190FBF1F073
:102BC00086B20020C4EBC4011A4A02EB810121F84D
:102BD0001500C4EBC40000EB8000174901EBC000F6
:102BE00005EB850100EB810700BF3146384600F058
:102BF00037FB3146384600F087FA00BF681CC5B283
:102C00000E2DC3DB601CC4B2052CBDDB00200749C0
:102C100008700A4908700A49087000F0F9FA232080
:102C2000FDF754FEFFF77CFEBDE8F0818C0000202C
:102C30004443000898040020240500208B00002055
:102C40008A0000202DE9FF5F82464FF47A7B052041
:102C5000BBFBF0F4BAFBFBF00BFB10A00390039856
:102C6000B0FBF4F0C6B20398B0FBF4F104FB11071B
:102C70004FEA54094F4504D2C7EB0720B0FBF9F8DF
:102C800004E0E01BC0EB0020B0FBF9F808FB08F003
:102C9000C0F3072506EB46001349085C10FB05F05E
:102CA000FF2190FBF1F0C0B2029006EB46000E4906
:102CB0000844407810FB05F0FF2190FBF1F0C0B212
:102CC000019006EB460008490844807810FB05F0A7
:102CD000FF2190FBF1F0C0B20090DDE900210298E5
:102CE00000F04FF9BDE8FF9FD04300082DE9FF5FDA
:102CF00082465020BAFBF0F100FB11A400221146DD
:102D0000104600F03EF902200390062002900820B1
:102D10000190002592E000268BE0C5EBC5004A49F2
:102D200001EB4000805DFF2800D180E00027B8461D
:102D3000B946142C35D2AA1923469A4212DCA3F1C3
:102D4000030C94450EDAA3EB020C0CF1010C4FF0CE
:102D5000FF0B9BFBFCFC0CF0FF09CC4609EBDC7B7A
:102D60004FEA6B08C5F1040CC6F10D0B0CEB0B0020
:102D70002146884214DCA1F1030C844510DAA1EB52
:102D8000000C0CF1010C4FF0FF0B9BFBFCFC0CF05A
:102D9000FF07BC464FEAE77B07EB9B7B4FEAAB089C
:102DA00034E0142C32D33C2C30D2A4F11400A5F121
:102DB000020CBCF1000F01DBE34601E0CCF1000B9B
:102DC000B31F002B01DB9E4601E0C3F1000E0BEBAD
:102DD0000E01034600EBD37C4FEA6C02914208D10E
:102DE0004FF0FF0CACEB800C0CF0FF0398469946BB
:102DF0000BE0531E8B4208D14FF0780CACEB400C2B
:102E00000CF0FF039846994600BF00BF002F05DC79
:102E1000B8F1000F02DCB9F1000F07DD43463A4676
:102E200031462846CDF8009000F0BEF800BF701C77
:102E3000C6B20E2EFFF671AF681CC5B2052DFFF6A7
:102E40006AAFBDE8FF9F00008A4300082DE9F04FFC
:102E500087B0804646200690102005904620B8FB9B
:102E6000F0F100FB118900221146104600F089F8AC
:102E700000255BE0002655E0C5EBC5002E4901EBBF
:102E80004000805DFF2800D14AE0C5EBC50006EB9D
:102E90004007B94503DBA9EB070004B203E009F1E1
:102EA0004600C01B04B2102C39DA4FEA880000EB50
:102EB000C40000F0FF0B02AB03AA04A95846FFF7B9
:102EC0000FFEC4F11001C1EB0120C11700EB11711D
:102ED000C1F3071A9DF8100010FB0AF0FF2190FBC8
:102EE000F1F0C0B204909DF80C0010FB0AF090FBCA
:102EF000F1F0C0B203909DF8080010FB0AF090FBBF
:102F0000F1F0C0B202909DF8080000909DF80C30DE
:102F10009DF810203146284600F046F800BF00BF5B
:102F2000701CC6B20E2EA7DB681CC5B2052DA1DB36
:102F300007B0BDE8F08F00008A430008FEB50546E3
:102F40006806060E002419E006EB8400C11700EBAA
:102F500011610912A0EB01218FB26B4601AA02A9EF
:102F60003846FFF7BDFD9DF800309DF804209DF820
:102F70000810204600F040F8601C84B23D2CE3D3DA
:102F8000FEBD2DE9F04105460E461746002407E038
:102F90003B4632462946204600F02EF8601C84B29B
:102FA0003D2CF5D3BDE8F0812DE9F04104460D46F6
:102FB00016461F46DDF81880052C01DA0E2D02DBBF
:102FC0000020BDE8F081C4EBC4000A4901EB4000D9
:102FD000405DFF2801D10020F3E7C4EBC401054A9E
:102FE00002EB4101485D43463A46314600F004F8A1
:102FF000E7E700008A4300082DE9F04104460F4648
:1030000015461E463D2C02D30020BDE8F08104EB9E
:10301000440007490F5404EB44000844457004EB96
:10302000440008448670204601F0CAF80120ECE70D
:10303000CC10002010B54FF4C6610248FFF796FC93
:1030400010BD00009C0A0020FDF71AFFFDF704FAEE
:103050000EA10020FEF704FE16A10020FEF700FEE0
:103060001EA10020FEF709FE0FE04FF49670FDF759
:10307000E1FE1EA10020FEF700FE4FF49670FDF762
:10308000D9FE1EA10020FEF7F8FDEEE753454747A5
:103090004552205265616C2D54696D652D546572E1
:1030A0006D696E616C2053616D706C650D0A0D0A5F
:1030B0000000000023232323232320546573746915
:1030C0006E67205345474745525F7072696E74665C
:1030D0002829202323232323230D0A00525454207C
:1030E000696E6974206F6B0D0A00000068656C6C76
:1030F0006F20776F726C640D0A00000068656C6C5D
:103100006F200D0A0000000070B502460B461088C3
:10311000C41A002C01DD20B200E0002001465089D5
:10312000884205DD00209074D074D081108270BD7B
:103130009089884201DA908901B2907C90B9158A11
:103140008D4200DD1182D57C1DB1158AD6883544AB
:1031500000E09588A8B2814203DB01259574D574FF
:10316000D1810DE0D5898D4200DAD181D5891689CA
:10317000AD1BA8B2814202DC00259574118200BF0C
:10318000907CD4E701480078704700000E5C004056
:1031900010B50346012006E0C200934201D80A8020
:1031A00010BD441CE0B20828F6DD00200880012094
:1031B000F6E7000070B503460C461046064E06EBD7
:1031C000830538B104E02E7804F8016B461EB0B2D6
:1031D0000028F8D170BD0000205C00400149087053
:1031E000704700000E5C004070B503460C46104668
:1031F000064E06EB830538B104E014F8016B2E701F
:10320000461EB0B20028F8D170BD0000205C00401E
:1032100000B50246FEF7B2FC052A1CD2DFE802F038
:1032200003090E1317004FF480704FF0904188622D
:1032300011E04FF40070094908600CE04FF4807011
:103240000649086007E080200449086003E0402048
:103250000249086000BF00BF00BD00002808004808
:103260000A46837C13B10023438070470388991A70
:103270000F2917DA11F10F0F14DD43885B1C43800F
:103280004388B3F57A7F0FDD002903DD03885B1ED9
:10329000038004E0002902DA03885B1C038000231A
:1032A000438001E00023438000BFDEE72DE9F041C9
:1032B00006460F460748046807E02546286918B106
:1032C000394630462A6990472468002CF5D1BDE87C
:1032D000F0810000900000202DE9F04105460F46E6
:1032E0009046287800F00300012815D11948046899
:1032F0000FE02646706858B196F820002979884278
:1033000006D142463946284673689847BDE8F081A1
:103310002468002CEDD119E0287800F00300022881
:1033200014D10C4804680FE02646B06858B196F8EE
:103330002000A988B0EB112F05D142463946284616
:10334000B3689847E2E72468002CEDD14FF0FF30D6
:10335000DCE700009000002010B540220249022066
:1033600000F0A6F910BD00009C02002070B50446D4
:103370000D46022C00D070BD40220349022000F00F
:1033800097F900BFF7E700009C02002000200149E8
:1033900008707047A10000200120014908707047A3
:1033A000A100002070B5044624F08005FFF7EAFE76
:1033B00006462846FFF712FF04F08000A8B935B989
:1033C0001748007820F004001549087022E01448DE
:1033D0000930007820F06000114909310870084672
:1033E000007840F08000087014E035B90C4800788F
:1033F00020F004000A4908700CE00948401D0078DC
:1034000020F030000649491D08700846007840F059
:10341000400008703046FFF7E1FE002070BD00005C
:10342000105C004001460020704700002DE9F0418B
:1034300005460C4625F08006FFF7A4FE07463046F9
:10344000FFF7CCFE05F0800048B916B900202070C7
:103450000FE00B480078C0F34010207009E016B967
:103460000020207005E00648001F0078C0F300101F
:1034700020703846FFF7B2FE0020BDE8F081000062
:10348000195C00402DE9F843044600200090804676
:10349000207820F0800500270026BDB94020634930
:1034A000A1F8C8000021614880F8CA10012180F805
:1034B000CC1040205D49088500215C4880F82A1026
:1034C000012180F82C100020BDE8F883072D04DDD1
:1034D00000BF00BF4FF0FF30F6E7FFF753FE814615
:1034E0002846FFF77BFE207800F08000002849D1B5
:1034F000618805EB85024D48C83020F822106178BC
:1035000005EB850200EB82008170012105EB85024D
:103510004648C83000EB8200017107F0020000B19C
:10352000802607F0080010B146F0300604E007F0EE
:10353000040008B146F020066078012801D146F069
:1035400040063B490E70481C007800F0010018B19D
:103550009020491C087003E080203549491C087000
:1035600060886946FFF714FE1FFA80F83049891C0D
:1035700081F800802D484068BDF8001008442B49B0
:1035800048604EE0618805EB85022848283020F825
:103590002210617805EB850200EB82008170012129
:1035A00005EB85022148283000EB8200017120489C
:1035B0000E380078A94008431D490E39087007F0FD
:1035C000010008B146F0800607F00C0008B146F093
:1035D00010066078012801D146F0400646F020062A
:1035E0001349091F0E70481C007800F0020018B142
:1035F0004820491C087003E040200D49C91E08708E
:1036000060886946FFF7C4FD1FFA80F80849891EE3
:1036100081F8008005484068BDF80010084403495F
:1036200048604846FFF7DAFD00204DE7A011002072
:10363000185C004070B5044624F08005FFF7A2FD39
:1036400006462846FFF7CAFD04F0800098B94DB938
:103650000720154908701548007840F060001349AC
:1036600008701BE011480930007840F020000F4935
:103670000931087012E04DB907200B4908700B485A
:10368000007840F060000949087007E00748401DD5
:10369000007840F010000549491D08703046FFF7DA
:1036A0009DFD002070BD0000A0000020105C0040C7
:1036B0002DE9F04107460D46164627F0800425B94E
:1036C0001EB14FF0FF30BDE8F08104EB84012848C3
:1036D00000EB8100007910B96FF00100F3E7FFF70C
:1036E00051FD80462046FFF779FD04EB8401204818
:1036F00000EB8100856004EB84011D4800EB810034
:10370000C660002104EB8402194800EB82000161CD
:10371000BCB91848007820B101280CD006280FD178
:103720000AE01548007840F0400013490870032073
:103730001049087004E000BF05200E49087000BF62
:1037400010E00D48C01F00780121A14008430A493C
:10375000C91F087008480930007820F001000649A8
:10376000093108704046FFF739FD0020ABE7000043
:1037700068120020A0000020105C00402DE9F041FC
:1037800007460E46144627F0800526B91CB14FF0B7
:10379000FF30BDE8F08105EB85015F4800EB81005B
:1037A000007910B96FF00100F3E7FFF7EBFC8046FA
:1037B0002846FFF713FD5948007800F0010028B1B2
:1037C0004046FFF70BFD6FF00200E2E705EB8501D5
:1037D000514800EB8100866005EB85014E4800EB07
:1037E0008100C460002105EB85024B4800EB82009C
:1037F0000161002D70D14A48007820B1012834D0F1
:10380000032867D15EE03CB948204449491F08704D
:1038100004204349087027E040204049491F0870B0
:1038200005EB85013C4830F82100A0420CD33D480F
:10383000007848B9A2B231462846FFF7D5FC0A20E5
:103840003649491F08700CE005EB8501324830F815
:10385000212031462846FFF7C7FC02202F49491F87
:10386000087001202E49087034E04CB9FFF78EFD36
:103870000A202A49491F087006202949087020E0BB
:1038800005EB8501244830F82100A0420CD32548DF
:10389000007848B9A2B231462846FFF7A5FC0A20B5
:1038A0001E49491F08700CE005EB85011A4830F8E5
:1038B000212031462846FFF797FC02201749491F6F
:1038C000087007E048201549491F08700420144972
:1038D000087000BF1AE0FFE7ACB105EB85010E48A8
:1038E00030F82100A04209D205EB85010A4830F8E2
:1038F000212031462846FFF777FC04E0A2B231468A
:103900002846FFF771FC0120044908704046FFF784
:1039100065FC00203DE70000C8110020155C004058
:10392000A0000020A100002070B50546374C286893
:10393000206068686060E088B0F5807F09DD2078ED
:1039400000F0800028B900BF00BF8020FFF772FEA2
:1039500070BD2E481C302D498860E088C860E08822
:10396000086100200875E08850B1207800F08000E0
:1039700030B9E288084681680020FFF799FEE7E742
:10398000224A1032A2F10801204600F023FA18B9A9
:103990008020FFF74FFEDBE71C480069E188884282
:1039A00002D21A48006900E0E0881849C860084659
:1039B000007A00F0030088B10846C068B0F5807F47
:1039C00002D900BF00BFC3E71048C26881681C303D
:1039D000FCF7CAFB0D481C300C498860E0880B4995
:1039E0000969884209D90948007C00F03F0020B9E4
:1039F000012006490875FFF7CFFC0448C2688168BA
:103A00008020FFF7BBFE00BFA2E70000B00000204F
:103A100070B504460D46802C2DD11E4E3046806870
:103A20002844314688600846C068401BC860084684
:103A3000C06830B10846C26881688020FFF79EFEEA
:103A400018E01448007D012808D1002011490875AC
:103A5000002211468020FFF791FE0BE0F08848B16C
:103A6000307800F08000802804D1002211461046F2
:103A7000FFF71EFE0DE004F07F01074850F821001B
:103A800038B104F07F01044850F82120294620462F
:103A9000904770BDB0000020CC01002070B50446F6
:103AA0000D4644BB1C4E2DB3304680682844314639
:103AB00088600846C068401BC8600846C06898B95E
:103AC00001F11C008860A0F10C020831304600F0C2
:103AD00081F918B98020FFF7ADFD70BD00221146B5
:103AE0008020FFF74BFE05E00B48C268816800208C
:103AF000FFF7DEFD0DE004F07F01084850F82100DB
:103B000038B104F07F01054850F8212029462046AD
:103B1000904700BFE1E70000B0000020EC0100206A
:103B200008B5002000F0BCF800200E4981F85C01C7
:103B300081F85D014020ADF8020000208DF8010001
:103B400080208DF800006846FFF79CFC00208DF86F
:103B500000006846FFF796FC00210120FFF7A6FB56
:103B600008BD0000B000002010B500210620FFF7BE
:103B70009DFB10BD10B500210520FFF797FB10BD80
:103B80002DE9F04105460C4613460021002600228F
:103B90008C460027290AEEB2032911D1EE2E0FD14F
:103BA0002748006810B90020BDE8F081244800686B
:103BB0000068206022480068007918600120F3E75F
:103BC0000F290ED11F48006808B90020ECE71D48F6
:103BD0000068006820601B48006840681860012089
:103BE000E2E7042902D0052900D001D90020DBE753
:103BF000154882694FF0000C0AE05078884205D1E0
:103C0000B44501D1012706E00CF1010C1078024403
:103C100010780028F1D100BF77B12260022901D0CD
:103C2000072906D1907892F8038040EA08201860AE
:103C300004E01078186001E000BF00BF3846B3E729
:103C4000940000209C000020B0000020812803D1B7
:103C50000022044B1A7004E0822802D10022024B99
:103C60001A7070472000002021000020704738B5EE
:103C70000446A0788DF80000A088C0F30A00ADF8D3
:103C80000200E07800F003008DF801009DF80000CC
:103C9000FFF7C8FB08B9012038BD0020FCE7000091
:103CA000014611B90020034A10700348017000203A
:103CB00070470000005C0040A01100202DE9F04793
:103CC00005460E46174884694FF0FF08FF274FF05E
:103CD000000921E06078022804D0042808D00528D3
:103CE00016D108E06779AF4201D14FF0010910E029
:103CF00094F803800DE0AF4201D1B04503D02046D7
:103D0000FFF7B5FF05E0204600F00EF8814600E021
:103D100000BF00BF2078044420780028DAD148464C
:103D2000BDE8F087B000002038B50446A0788DF8D3
:103D30000000A088C0F30A00ADF80200E07800F0AF
:103D400003008DF801006846FFF79CFB08B90120CD
:103D500038BD0020FCE700002DE9F05F05460E4667
:103D60001B4884694FF0000A4FF0FF08C1464FF02E
:103D7000000B22E06078042802D0052819D109E060
:103D800094F8038094F80290A94502D1B04500D17F
:103D9000A2460FE0A9450BD12746B04504D03846CE
:103DA000FFF765FF834603E03846FFF7BDFF834614
:103DB00000E000BF00BF2078044420780028D9D15B
:103DC00051460820FFF772FA5846BDE8F09F000000
:103DD000B000002070B504460D461646207800F06D
:103DE000600020B1202811D040282DD11DE032469E
:103DF0002946204600F02DF8002806DA00BF00BF53
:103E00002046FFF733FF002070BD1FE032462946F1
:103E10002046FFF761FA002806DA00BF00BF2046FF
:103E2000FFF724FF0020EFE710E032462946204646
:103E300000F052F9002806DA00BF00BF2046FFF765
:103E400015FF0020E0E701E00020DDE700BF0120D2
:103E5000DAE72DE9F04104460D46164600272078A2
:103E600000F0030020B101280BD002281BD111E083
:103E700032462946204600F01DF808B94FF0FF37BA
:103E800014E032462946204600F0BEF808B94FF04B
:103E9000FF370BE032462946204600F06DF808B99E
:103EA0004FF0FF3702E04FF0FF3700BF00BF38464A
:103EB000BDE8F0812DE9F04107460E4615467C88A5
:103EC0004FF0010878780C284BD2DFE800F0060E9E
:103ED0004A0F4A151B22252A4647002031680870E0
:103EE00031684870022028603EE000BF012C00D0FD
:103EF00000BF0020286037E0E0B2FFF7D1FE0020CD
:103F0000286031E02A4631462046FFF739FE8046D8
:103F10002AE04FF0000827E01548306001202860B3
:103F200022E0E4B220460021FFF7C8FE30B9114973
:103F300081F85D41002081F85C010BE00D4981F8BA
:103F40005D41012081F85C0100210720FFF7AEF9F7
:103F5000FFF702FA0020286006E000BF4FF00008DB
:103F600002E04FF0000800BF00BF4046BDE8F0810E
:103F70000D020020B00000202DE9F84304460E4653
:103F8000154627794FF00108FEF7ECFD10B9002027
:103F9000BDE8F883607830B1012812D003281DD025
:103FA0000C282BD127E069463846FFF73FFA9DF8E9
:103FB00000003168087000203168487002202860D5
:103FC0001FE0608828B900BF00BF3846FFF7EAF954
:103FD00017E04FF000080020286012E0608828B940
:103FE00000BF00BF3846FFF725FB01E04FF0000897
:103FF0000020286005E04FF0000802E04FF00008C4
:1040000000BF00BF4046C3E72DE9F04704460D4618
:1040100016466088070A94F804804FF00109FEF7FD
:10402000A1FD10B90020BDE8F08760780C284BD2C4
:10403000DFE800F006394A3A4A4A0E4A4A4A3D4306
:1040400000202968087029684870022030603EE02E
:10405000212F11D11F4801680BE00A4692F8200079
:10406000404505D150692860092030600120DAE719
:1040700009680029F1D113E0222F11D115480168F8
:104080000BE00A4692F82000404505D1906928606F
:10409000D06930600120C6E709680029F1D100BF6E
:1040A0004FF0000913E000BF4FF000090FE00020BF
:1040B000296808700120306009E0A1782079FFF7B5
:1040C0004BFE0020306002E04FF0000900BF00BF4F
:1040D0004846A8E7900000202DE9F04104460D462F
:1040E00016462C48006828B360782A49096849793F
:1040F00088423AD1A088042802D0052815D10AE0C8
:104100002448006880682860224800688089306000
:104110000020BDE8F0811F480068006928601D4844
:104120000068808A30600020F3E700BF00BF4FF0D6
:10413000FF30EEE718480068B8B1607816490968A2
:104140008979884211D1A088072809D112480068CE
:104150000068286010480068808830600020D8E738
:1041600000BF00BF4FF0FF30D3E70C4807680DE0F9
:10417000B846D8F80C0040B1324629462046D8F857
:104180000C30984708B90020C3E73F68002FEFD1F3
:10419000781EBEE7940000209800002090000020C8
:1041A0000246002009E08023C34013400BB1F823EE
:1041B00000E0E0230B54431CD8B20828F3D3704727
:1041C00070B5054605EB45004FF6FF7101EAC004E6
:1041D00005EB45000A4946180A4A11197078FFF79D
:1041E000DFFF084B04F1080299183078FFF7D8FF79
:1041F000044B04F110029918B078FFF7D1FF70BD9D
:10420000CC1000209C0A00200000000000000000EC
:10421000010203040607080900000000010203046C
:104220001051FF1F1451FF1F1851FF1F4851FF1F4E
:104230004C51FF1F0056FF1F0456FF1F0052FF1F67
:104240000452FF1F4051FF1F4451FF1F0852FF1F20
:104250002051FF1F2451FF1F2851FF1F2C51FF1F0A
:104260003051FF1F3451FF1F082202400C22024030
:104270002022024028220240242202401C22024026
:104280002C22024010220240142202401822024036
:10429000FF0FFF0FFF0000000F001F00FF07FF1FB1
:1042A000FF07FF073F003F003F000000FFFFFFFF49
:1042B000FFFFFFFFFF0FFF0F291E1F2021222324D6
:1042C0002526272D2E2A2B141A0815171C180C1218
:1042D000132F303139041607090A0B0D0E0F333432
:1042E0000028E1001D1B061905111036373800E5BE
:1042F000E0E3E20000002C000000E665E4F0353A5F
:104300003B3C3D3E3F40414243444500000052009B
:10431000000000000000000000000050514F0000AD
:10432000000000000000000000000000000000008D
:10433000000000000000000000000000000000007D
:10434000F10000F001010101010101010101010180
:10435000010101010101010101010101010101014D
:10436000010101010101010101010101000101003F
:10437000010101010101010101010001010101002F
:104380000000010000000101010100010203040519
:10439000060708090A0B0C0D1B1A19181716151415
:1043A000131211100F0E1C1D1E1F20212223242565
:1043B0002627FF2834FF333231302F2E2D2C2B2A85
:1043C000FF29353637FFFFFF38FFFFFF393A3B3C07
:1043D000020A32FF0A0A0A32FF0A0A3232280A00A7
:1043E00000000000005454522052454747455300F6
:1043F000303132333435363738394142434445461B
:10440000204400080000002010020000FC01000809
:104410006044000810020020C8190000102900089C
:10442000110329127A3281134D3C330802136D3384
:104430005B088210C132014BC90414290C4B3507AB
:104440000C320A5A190C32194BE9050C321E13FDB5
:1044500006031F0805292D295001FF0161000000F6
:0400000508000131BD
:00000001FF
