:020000040800F2
:100000003005002045010008B1130008A9130008BD
:10001000AD13000831040008F914000800000000C6
:10002000000000000000000000000000B9130008FC
:100030004D04000800000000B5130008BD130008BF
:100040005F0100085F0100085F0100085F01000810
:100050005F0100085F0100085F0100085F01000800
:100060005F0100085F0100085F0100083504000817
:10007000410400085F0100085F0100085F010008FB
:100080005F0100085F0100085F0100085F010008D0
:100090005F01000800000000000000005F01000890
:1000A0005F0100085F0100085F0100085F010008B0
:1000B0005F0100085F0100085F0100085F010008A0
:1000C0005F0100085F0100085F0100085F01000890
:1000D0005F0100085F0100085F0100085F01000880
:1000E0005F0100085F010008000000005F010008D8
:1000F0005F0100085F0100085F0100085F01000860
:100100005F0100085F0100085F0100085F0100084F
:100110005F0100085F010008ED1300085F0100089F
:100120005F0100085F0100085F0100085F0100082F
:10013000DFF80CD000F05CF800480047F11500082B
:10014000300500200648804706480047FEE7FEE7E6
:10015000FEE7FEE7FEE7FEE7FEE7FEE7FEE7FEE777
:10016000CD13000831010008D2B201E000F8012BE4
:10017000491EFBD270470022F6E710B513460A4627
:1001800004461946FFF7F0FF204610BD2DE9F05F49
:100190000546002092469B468846064681464024F6
:1001A0001BE0284641464746224600F048F85346A1
:1001B0005A46C01A914110D311461846224600F003
:1001C0002FF82D1A67EB01084F4622460120002127
:1001D00000F026F817EB00094E41201EA4F101049F
:1001E000DFDC484631462A464346BDE8F09F000022
:1001F0001CB509480090094801900546009C06E09E
:10020000E06840F0010394E8070098471034AC42DE
:10021000F6D3FFF791FF0000141C0008341C0008FF
:10022000202A04DB203A00FA02F1002070479140B6
:10023000C2F1200320FA03F3194390407047202AAB
:1002400004DB203A21FA02F00021704721FA02F380
:10025000D040C2F120029140084319467047000087
:100260002DE9F0439DB00DF12C0942F214084846E7
:100270004821C4F20208FFF77EFF01AC2046282186
:10028000FFF779FF40F22310C4F2675048F80C0CD6
:1002900048F6AB10CCF6EF5048F80C0C42F63B2079
:1002A000C0F6190048F8080C46F67F60C4F65D40B9
:1002B00048F8080C44F25100C5F67F50C8F878029F
:1002C00042F2637041F62036C4F2CE600027C0F6D9
:1002D0000006C8F8780208E049F827509A4218BF8B
:1002E00000F07CFB0137122F0DD056F827006FF07D
:1002F000020100BF0568EB432A0C9BB29342EBD08E
:100300000131F7D3EAE7DDE90B0100226FF31F307B
:1003100061F31B409DF83410C0F6FF72CDE9010176
:10032000DDE90E0102F1805200F00F0061F314408C
:100330001099039011986FF3DF2102EA00400844FE
:100340000490DDE912011A9A6FF3DF2061F31A407D
:100350000590DDE914011B9B00F03F0061F315409F
:1003600006901698189900F03F000790BDF85C00C1
:100370006FF31F3340EA0140BDF86410089041EA72
:10038000024009901C9841F6683541F6903760F3B9
:100390001B430020C0F60005C0F600070A9302E0E8
:1003A00001300A280FD055F820100E6857F8203079
:1003B00054F820201E40B242F2D00E6826EA030311
:1003C0001A430A60ECE7D8F8EC01002640F001007F
:1003D000C8F8EC0100BF00BF00BF00BF00BF00BFF6
:1003E00000BF00BF00BF00BFD8F8EC0120F0010043
:1003F000C8F8EC0155F82600006857F8261054F8A4
:1004000026200840824218BF00F0E8FA01360A2E82
:10041000F0D1D8F8000040F08040C8F80000D8F8CB
:10042000000040F00040C8F800001DB0BDE8F083B7
:10043000FEE7000040F25C00C2F2000000F008B8E5
:1004400040F2E400C2F2000000F002B87047000081
:1004500010B5D0E90FE3D0F800C0DEF80020DCF8DA
:100460000010DA4054072DD511F004042AD0DCF82E
:100470000010890605D4DCF8001021F00401CCF846
:1004800000100422C4F2020202F17C018C454CD916
:1004900040F20841C4F202018C4500F0A98040F20C
:1004A0001C41C4F202018C4500F0A68040F23041AC
:1004B000C4F202018C4540F0A3804FF48061C2F881
:1004C0000014EAE0940745D511F0020442D0DCF8AC
:1004D0000010890608D4DCF8001021F00A01CCF8DD
:1004E0000010012180F821100422C4F2020202F15E
:1004F0007C018C4549D940F20841C4F202018C4587
:1005000000F0AB8040F21C41C4F202018C4500F0C7
:10051000A88040F23041C4F202018C4540F0A58031
:100520004FF40071C2F80014C6E04321C4F2020186
:100530008C453EDD6B21C4F202018C454BDC44212D
:10054000C4F202018C4500F09B805821C4F20201E4
:100550008C4560E0120740F1B58011F0080108BF3A
:1005600010BDDCF8001021F00E01CCF800100121C4
:1005700001FA03F2CEF804208163016B4FF480721C
:100580000029028440F08B809CE04321C4F20201E8
:100590008C4543DD6B21C4F202018C4550DC4421C3
:1005A000C4F202018C457DD05821C4F202018C4571
:1005B0006EE00821C4F202018C4564D01C21C4F213
:1005C00002018C4567D03021C4F202018C4522D152
:1005D0004FF4806160E06C21C4F202018C4554D07C
:1005E0008021C4F202018C4515D14FF0806153E0A7
:1005F0000421C2F8001450E04021C2F800144CE07D
:1006000002F588634FF480219C4508BF4FF4804178
:10061000C2F8001441E04FF480213DE00821C4F20B
:1006200002018C4541D01C21C4F202018C4541D00D
:100630003021C4F202018C452AD14FF400713AE016
:100640006C21C4F202018C4531D08021C4F2020138
:100650008C451DD14FF000712DE00221C2F800142D
:100660002AE02021C2F8001426E002F588634FF446
:1006700000319C4508BF4FF40051C2F800141BE044
:100680004FF4804108E0042106E04FF4800103E0CC
:100690004FF400310FE040211160C16A91B1BDE813
:1006A000104008474FF4005105E0022103E04FF4E9
:1006B000001100E020211160816A0022002980F8E9
:1006C0002020ECD110BD0000B0B5044600F0D8F8F1
:1006D000054640F20800C2F200000078611C18BF15
:1006E000044400BF00F0CCF8401BA042FAD3B0BDD8
:1006F0002DE9F04F82B00E68002E00F0BD8041F26F
:10070000000400F138428705C4F60004072340F2D4
:10071000004C47EA9222A04208BF0423C4F2010C15
:10072000042A38BF134600224FF0010B0027002592
:10073000009309E00E68013536FA05F307F1040766
:1007400002F1020200F098800BFA05F816EA080E92
:10075000F0D04C6844F01004122C12D16FF0030357
:1007600003EA5504044407F01C060F23D4F8209034
:1007700003FA06FA0B6929EA0A09B34043EA0903B6
:10078000236203680324D1F8049094406FEA040ABA
:10079000A34309F0030494402343B9F1120F03600B
:1007A00013D80BFA09F313F0061F0ED08368CC6838
:1007B00003EA0A039440234383604368C9F30014A7
:1007C00023EA0803AC4023434360C3688C6803EA10
:1007D0000A03944023435FEAC904C360AAD541F2E7
:1007E0001804C4F2020423684FF6144943F00103CD
:1007F00023602368CFF6FF7903F001030193019B87
:1008000025F00303634453F8098007F00C060F2416
:10081000B44028EA0408009C04FA06F646EA0804F4
:1008200043F80940DCF800804C6848EA0E06E30310
:1008300058BF28EA0E06CCF80060DCF80480A30359
:1008400048EA0E0658BF28EA0E06CCF80460DCF829
:100850000880E30248EA0E0658BF28EA0E06CCF8E4
:100860000860DCF80C30A40243EA0E0658BF23EA05
:100870000E06CCF80C605DE702B0BDE8F08F00001A
:1008800040F22810C2F200000068704740F20800F1
:1008900040F22811C2F20000C2F2000100780A689A
:1008A000104408607047000080B5042000F086F80E
:1008B000072000F005F800F02BF8002080BD0000B4
:1008C000B0B540F20802C2F2000240F20401127810
:1008D000C2F200014FF47A730968B3FBF2F20446E6
:1008E000B1FBF2F1084600F097FB072C4FF0010531
:1008F0000CD858B94FF0FF3021460022002500F0F7
:1009000031F840F20C00C2F2000004602846B0BD8D
:1009100082B041F21800C4F20200016841F0010106
:100920000160016801F0010101910199416841F004
:1009300080514160406800F080500090009802B003
:1009400070470000002848BF704700F01F010122D7
:1009500002FA01F14EF200124009CEF2000242F812
:100960002010704710B54EF60C5CCEF2000CDCF88F
:100970000030C3F3022E8EF00704032C28BF03249B
:10098000BEF104034FF0FF3E0EFA04F438BF00231B
:10099000A14399400EFA03F39A43114300F16042D8
:1009A00000F00F03490102F56442043B6344002850
:1009B00048BF03F10C02117010BD00004EF60C513F
:1009C000CEF200010A684FF6FF031A4060F30A22D4
:1009D00042F0806040F0FD700860704700F08EFDCE
:1009E000002804BF012070472DE9F04381B042F296
:1009F0000008C4F202080446D8F800000D4600F0D2
:100A00000F0088420DD2D8F8000020F00F002843D4
:100A1000C8F80000D8F8000000F00F00A84240F02D
:100A20008080206841F204098107C4F2020917D5C9
:100A3000410705D5D9F8001041F4E061C9F800106C
:100A4000010705D5D9F8001041F46051C9F800102C
:100A5000D9F80010A26821F0F0011143C9F8001084
:100A6000C00755D1D8F8000000F00F00A8420CD9FB
:100A7000D8F8000020F00F002843C8F80000D8F88C
:100A8000000000F00F00A8424BD12068410707D5B5
:100A9000D9F80010E26821F4E0611143C9F80010B0
:100AA000000708D5D9F80000216920F4605040EA19
:100AB000C100C9F80000D9F8001043F2006001F04D
:100AC0000C02042AC0F26E1061D0082A55D14FF4EE
:100AD000400202EAD11201F470131A4441F6B8330D
:100AE000920CC0F6000341F400319A5C01F44031ED
:100AF000B1F5403F46D1D9F8001041F6F833C1F3C3
:100B00004041C0F60003595C5043B0FBF1F03EE0B9
:100B10006068022809D001282AD159F8041C8903E9
:100B200007D4012001B0BDE8F08359F8041CC901C5
:100B3000F7D5D9F8001021F003010843C9F80000E7
:100B4000FFF79EFE064641F2883700BFD9F8000045
:100B5000616800F00C00B0EB810F3FF483AFFFF74A
:100B60008FFE801BB842F1D9032001B0BDE8F083AD
:100B700059F8041C8907D4D5DBE741F20020C0F204
:100B80007A0004E041F20020C0F27A005043D9F824
:100B9000001041F6FA32C1F30311C0F60002515CB5
:100BA00040F2040220FA01F140F20C00C2F200000F
:100BB0000068C2F200021160FFF782FE002001B05F
:100BC000BDE8F08340F2040041F20401C2F20000EB
:100BD000C4F202010068096841F60A42C1F3022129
:100BE000C0F60002515CC8407047000040F20400AB
:100BF00041F20401C2F20000C4F202010068096877
:100C000041F60A42C1F3C221C0F60002515CC8405D
:100C100070470000002804BF012070472DE9F04113
:100C200082B00446007841F20006C007C4F2020612
:100C30006CD0706800F00C00042809D13068800383
:100C400064D56068002861D1012002B0BDE8F08160
:100C5000706800F00C00082803D17068C003EDD460
:100C600070686068B0F5803F1DD1306820F4803036
:100C70003060306820F480203060FFF701FE0546C8
:100C80003068800309D5FFF7FBFD401B64284FF057
:100C90000300F5D902B0BDE8F081B06BA16820F483
:100CA00040700843B06365682DB1B5F5A02F0AD038
:100CB000B5F5803F0BD0306820F48030306030686C
:100CC00020F4802006E0306840F4802030603068F6
:100CD00040F480303060FFF7D3FD002D054612D080
:100CE0003068800312D4FFF7CBFD401B64284FF01F
:100CF0000300F5D9CEE700BFFFF7C2FD401B642813
:100D00004FF00300C6D830688003F5D42078800700
:100D100013D5706810F00C0F08D0706800F00C004C
:100D2000082836D17068C00333D4706830688007F3
:100D300003D56069012840F0D6802078C00616D41B
:100D40002078000770D5E169706A002948D040F02A
:100D500001007062FFF794FD054600BF706A8007CE
:100D60004FD4FFF78DFD401B0228F7D934E0A1696D
:100D7000B06A11B340F01000B062FFF781FD054684
:100D8000B06A8006DCD4FFF77BFD401B0228F7D950
:100D900022E061693068002900F0C98040F001005C
:100DA0003060FFF76DFD054630688007C5D4FFF75A
:100DB00067FD401B0228F7D90EE020F01000B0625A
:100DC000FFF75EFD054600BFB06A8006B8D5FFF7A5
:100DD00057FD401B0228F7D9032002B0BDE8F0817F
:100DE00020F001007062FFF74BFD0546706A800736
:100DF0001AD5FFF745FD401B02284FF00300F5D937
:100E000048E740F20400C2F20000006844F6D35103
:100E1000C1F26201A0FB0101480A019000BF0198E4
:100E2000411E00280191F9D12078400719D4256A84
:100E30009DB1706800F00C00082858D1012D52D0E7
:100E40007068616A00F480328A424CD10021C6F297
:100E50003C01A26A0840904245D1002002B0BDE8A2
:100E6000F081F0695FEAC00808D4F06940F0805072
:100E7000F061F06900F080500090009847F20007A0
:100E8000C4F200073868C00511D4386840F4807097
:100E90003860FFF7F5FC05463868C00507D4FFF752
:100EA000EFFC401B64284FF00300F5D9F2E6E06840
:100EB000012855D1306A20F001003062306A20F0FC
:100EC00004003062FFF7DCFC054641F2883700BFC2
:100ED000306A80073ED5FFF7D3FC401BB8424FF085
:100EE0000300F5D9D6E6012002B0BDE8F0813068F4
:100EF00020F080703060FFF7C3FC022D05460BD157
:100F0000306880016AD5FFF7BBFC401B02284FF018
:100F10000300F5D9BEE600BF306880019DD5FFF71C
:100F2000AFFC401B02284FF00300F5D9B2E620F0D9
:100F300001003060FFF7A4FC054600BF3068800761
:100F40007FF5FBAEFFF79CFC401B02284FF003002F
:100F5000F4D99FE6306A216920F018000843306216
:100F6000E5681DB1052D09D0012D0BD0306A20F0A8
:100F700001003062306A20F0040006E0306A40F080
:100F800004003062306A40F001003062FFF778FC04
:100F9000002D054641F2883714D000BF306A800723
:100FA00013D4FFF76DFC401BB8424FF00300F5D996
:100FB00070E600BFFFF764FC401BB8424FF003002F
:100FC0003FF668AE306A8007F4D4B8F1000F3FF501
:100FD0002EAFF06920F08050F06128E770684FF67E
:100FE000FF71C9F6C071D4E90923084010431843C2
:100FF0007060306840F080703060FFF741FC04465C
:10100000306880013FF529AFFFF73AFC001B02284A
:101010004FF00300F4D93DE6411E0020B0EB116F04
:101020001CBF012070474EF21002CEF20002516048
:101030004EF62351CEF20001E0230B7007219060A1
:101040001160704770470000704700007047000053
:1010500010B5044600680169890744BFC1685FEAAA
:1010600081713FD420680169490744BFC1685FEAC4
:10107000417143D420680169090744BFC1685FEA30
:10108000017148D420680169C90644BFC1685FEA9C
:10109000C1614CD420680169C9071CBFC1685FEAFF
:1010A000C17151D120680169090644BFC1685FEA76
:1010B000016150D420680169490644BFC1685FEAF4
:1010C00041614FD421680869800646BFC8685FEA5D
:1010D000806010BD6FF0200220460A61BDE810401C
:1010E000FFF7B2BF6FF00201016101212177806932
:1010F00080073ED02046FFF7A9FF40E06FF00401D3
:10110000016102212177806910F4407F3AD02046A6
:10111000FFF79CFF3CE06FF008010161042121779B
:10112000C069800737D02046FFF790FF39E06FF0A5
:101130001001016108212177C06910F4407F33D08C
:101140002046FFF783FF35E06FF001010161204683
:1011500000F038F8A6E76FF0800101612046FFF744
:1011600071FFA7E76FF040010161204600F034F8FD
:10117000A8E7204600F022F8204600F021F80020E1
:1011800020776FE7204600F019F8204600F018F8A5
:10119000002020776EE7204600F010F8204600F08F
:1011A0000FF8002020776DE7204600F007F8204672
:1011B00000F006F8002020776CE700007047000080
:1011C00070470000006841F20001C4F2000188424B
:1011D00018BF704700F010B970470000002804BF26
:1011E0000120704710B5044690F8450028B900204A
:1011F00084F84400204600F035F8242084F84500A7
:101200002068C16821F40051C160204600F0FCF85C
:1012100094F82000400610D52068616A4269B1F553
:10122000805F22F4805242EA0102426105D14169A5
:10123000A26A21F4C041114341612068016921F48F
:1012400090410161416921F02A014161C16841F485
:101250000051C16000202021A06484F8451084F86A
:10126000461010BD704700002DE9F04381B00446E0
:1012700090F8450020281AD10D4600294FF00100B2
:1012800000F08F801746002A00F08B80A0689846F7
:10129000B0F5805F07D1E80705D0206918B90120B3
:1012A00001B0BDE8F08394F84400012803D1022086
:1012B00001B0BDE8F083012084F844000020A06460
:1012C000212084F84500FFF7DBFA27866786A168AE
:1012D0008146B1F5805F01D1206910B12E4600250D
:1012E00000E00026608E60B308F101070AE000BF4D
:1012F00096B116F8010B21684860608E013860864F
:10130000608EF0B1206800680006F1D4BFB1B8F17A
:10131000000F0ED120E000BF35F8020B21686FF3FB
:101320005F2048600026E8E701680906E0D4002F46
:10133000FAD0FFF7A5FAA0EB090040450CD82068C9
:10134000F2E720680068400624D4B8F1000F03D00B
:1013500018F1010510D016E02068C16821F4D071A1
:10136000C160416921F001014161202084F84500FC
:1013700084F84600032011E0206800BF0168490698
:1013800008D4002DFAD0FFF77BFAA0EB0900404506
:10139000F2D9E1E7202084F845000020002184F8FC
:1013A000441001B0BDE8F083FEE70000FEE7000056
:1013B00070470000704700007047000080B5FFF7DD
:1013C00065FABDE8804000F017B8000080B5FEF770
:1013D00047FF4EF68850CEF20000016841F47001DC
:1013E00001604FF0006140F8801C80BD40F2A00019
:1013F000C2F20000FFF72CBE40F2E000C2F2000093
:10140000016801310160704770B50446006804F15D
:1014100008030ECB0569194325F440552A430261A0
:10142000626941F20C631143C2684FF69C769A439D
:101430001143C1604169A26921F4407111434161C6
:101440004169E26921F400611143416143F6000101
:10145000C0F6FF76B2F5006FC4F2010104D18842F4
:1014600007D0FFF7AFFB06E0884223D0FFF7AAFBC7
:1014700022E0FFF7BBFB6268192148435100B0FB33
:10148000F1F048F21F51C5F2EB11A0FB01235A09FC
:1014900006F1805302FB0300322303EBC000A0FBE4
:1014A00001014FF4F87000EA111000EB0210C1F3D3
:1014B00042111CE0FFF79AFB626819214843910032
:1014C000B0FBF1F048F21F51C5F2EB11A0FB012374
:1014D0005A0902FB0600322303EB0010A0FB0101B6
:1014E000F02000EA511000EB0210C1F34311084450
:1014F0002168886070BD0000FEE700004EF60C50C9
:10150000BFF34F8FCEF200000168042201F4E061C6
:10151000C0F2FA5211430160BFF34F8F00BFFDE7E5
:10152000F0B587B0002641F218010696CDE90466B1
:10153000CDE90266C4F202010A68044642F4804220
:101540000A600A68022702F480420192019ACA697D
:1015500002AD42F00402CA61C96901F004000190C1
:1015600001984FF400700290012004900320CDE90F
:1015700005074FF0904029460397FFF7B9F84FF45D
:10158000806002904FF0904029460697FFF7B0F830
:1015900040F2100043F60001C2F20000C4F2010163
:1015A0000C2280E85200C0E90366C0E90526C0E9C4
:1015B0000766FFF713FE00B1FEE725200021012298
:1015C000FFF7D0F92520FFF7BDF907B0F0BD000007
:1015D00080B582B0019040F21000C2F2000001A973
:1015E00001224FF47A73FFF73FFE019802B080BDED
:1015F00090B0FFF759F905AC20462C21FEF7BBFD52
:101600001F2005904FF48030022606904FF40071A1
:10161000CDE90D604FF00050002507911021012207
:101620000F9020460495CDE90255CDE900550B9168
:101630000A92CDE908510C95FFF7ECFA08B100BF0A
:10164000FEE70F20CDE9000668460621CDE90255E8
:101650000495FFF7C5F900B1FEE74FF4E130FFF75D
:101660005FFF04A4204600F009F8C820FFF72CF81B
:10167000F8E700BF68656C6C6F0000000FB4054BA5
:1016800010B503A9044A029800F018F810BC5DF8E0
:1016900014FB0000D11500080000002002E008C87B
:1016A000121F08C1002AFAD170477047002001E0DC
:1016B00001C1121F002AFBD1704700002DE9FF4F26
:1016C0008DB00F460546002606E025280BD0DDE943
:1016D0000F1290476D1C761C28780028F5D111B0A8
:1016E0003046BDE8F08F0024A246A1460122EC4915
:1016F00000E0044315F8013F203B02FA03F00842E2
:10170000F7D128782A2810D06FF02F022878A0F17E
:101710003001092914D80AEB8A0102EB410144F097
:10172000020400EB010A6D1CF0E701CF5FEA000A3A
:1017300003D544F40054CAF1000A44F002046D1CBD
:1017400028782E2817D115F8010F44F004042A2810
:101750000ED06FF02F022878A0F1300109290AD8A5
:1017600009EB890102EB410100EB01096D1CF2E775
:1017700057F8049B6D1C28786C280FD006DC4C2889
:1017800017D068280DD06A2814D104E0742810D02E
:101790007A280FD10DE044F400140AE044F48014D8
:1017A00001E044F440146978814202D104F58014C8
:1017B0006D1C6D1C2A786E2A1FD00CDC632A31D078
:1017C00004DC002A8BD0582A11D1A3E0642A68D007
:1017D000692A0CD165E0732A2ED004DC6F2A73D0FD
:1017E000702A04D19BE0752A6FD0782A6ED01046FB
:1017F000DDE90F129047761C50E1C4F30250022835
:1018000006D0032809D0042801CF09D0066045E19D
:1018100001CFF117C0E9006140E101CF06803DE151
:1018200006703BE117F8040B8DF8000000208DF8DE
:101830000100EB46012003E057F804BB4FF0FF30F6
:1018400061074FF0000102D40DE008F10101884664
:1018500049450FDA8045F8DB1BF808100029F4D160
:1018600008E008F1010188468142FADB1BF8081004
:101870000029F6D1DDE90F23AAEB080081462146B5
:1018800000F036F9304400EB080604E0DDE90F1201
:101890001BF8010B9047B8F10108F7D221464846E2
:1018A000F7E00A21C4F302534FF0000B0891022B1A
:1018B00004D001CFC117032B09D00AE0FF1D27F088
:1018C0000707F7E8020108E032E01FE020E000B27D
:1018D000C117042B01D140B2C117031E71F10003DF
:1018E00007DA4FF0000CD0EB0C006CEB01012D235C
:1018F00002E0230504D52B238DF82430012303E0D7
:10190000E30701D02023F7E7984658E00A2110E0CA
:1019100010210EE010204FF0000B08900CE0102179
:101920004FF0000B44F004044FF00809089103E065
:1019300008214FF0000B0891C4F30253022B04D08E
:1019400001CF0021032B06D006E0FF1D27F007077B
:10195000F7E8020103E080B2042B00D1C0B24FF0DF
:10196000000823072BD5702A07D0DDF820C08CF0A3
:10197000100C5CEA0B0C05D00EE040238DF82430EF
:10198000012308E050EA010306D030238DF824300B
:101990008DF8252002239846DDF820C08CF0080C35
:1019A0005CEA0B0C0BD150EA010301D1630706D5A9
:1019B00030238DF824304FF00108A9F10109582A8D
:1019C00004D038A20B9208AA0A920BE03AA2F9E7D7
:1019D0005B46089AFEF7DAFB0B9B9B5C0A9A521E49
:1019E0000A92137050EA0102F2D10A98ADEB00009E
:1019F00000F1200B600702D524F4803401E04FF0A1
:101A00000109D94502DDA9EB0B0000E0002000EB45
:101A10000B0141440890AAEB010AE00306D4DDE97A
:101A20000F232146504600F063F806444FF00009AA
:101A300008E009A911F80900DDE90F12904709F142
:101A40000109761CC145F4DBE0030CD5DDE90F2369
:101A50002146504600F04CF8064404E0DDE90F1240
:101A600030209047761C0899481E08900029F5DC24
:101A700008E00A980A990078491C0A91DDE90F12DA
:101A80009047761CBBF10001ABF1010BF1DC214664
:101A90005046DDE90F2300F019F806446D1C1BE6E3
:101AA0000928010030313233343536373839616234
:101AB00063646566000000003031323334353637F8
:101AC0003839414243444546000000002DE9F041C9
:101AD000044600251E461746880404D405E039460E
:101AE0002020B0476D1C641EF9D52846BDE8F08162
:101AF0002DE9F041044600251E469046C80301D555
:101B0000302700E02027880404D505E04146384608
:101B1000B0476D1C641EF9D52846BDE8F081000071
:101B20001051FF1F1451FF1F1851FF1F4851FF1F75
:101B30004C51FF1F0056FF1F0456FF1F0052FF1F8E
:101B40000452FF1F4051FF1F4451FF1F0852FF1F47
:101B50002051FF1F2451FF1F2851FF1F2C51FF1F31
:101B60003051FF1F3451FF1F082202400C22024057
:101B70002022024028220240242202401C2202404D
:101B80002C2202401022024014220240182202405D
:101B9000FF0FFF0FFF0000000F001F00FF07FF1FD8
:101BA000FF07FF073F003F003F000000FFFFFFFF70
:101BB000FFFFFFFFFF0FFF0F0203040506070809E1
:101BC0000A0B0C0D0E0F10111213141516171819FD
:101BD0001A1B1C1D1E1F20212223242526272829ED
:101BE0002A2B2C2D2E2F30313233343536373839DD
:101BF0003A3B3C3D3E3F3F3F0102000000000000F9
:101C000000000102030406070809000000000102A9
:101C100003040000381C0008000000201000000031
:101C20009C160008481C0008100000202005000039
:101C3000AC160008000000000000000000127A004E
:081C4000010000000800000093
:0400000508000131BD
:00000001FF
