:020000040800F2
:10000000C80D0020D90200084152000839520008EA
:100010003D52000821230008895800080000000014
:10002000000000000000000000000000F152000885
:100030008523000800000000B15200084953000861
:10004000F3020008F3020008F3020008F3020008BC
:10005000F3020008F3020008F3020008F3020008AC
:10006000F3020008F3020008F30200082523000849
:10007000F3020008F3020008F3020008F30200088C
:10008000F3020008F3020008F3020008F30200087C
:10009000F30200080000000000000000F302000866
:1000A000F3020008F3020008F3020008F30200085C
:1000B000F3020008F3020008F3020008F30200084C
:1000C000F3020008F3020008F3020008F30200083C
:1000D000F3020008F3020008F3020008F30200082C
:1000E000F3020008F302000800000000F302000819
:1000F000F3020008F3020008F3020008F30200080C
:10010000F3020008F3020008F3020008F3020008FB
:10011000F3020008F30200087D530008F302000810
:10012000F3020008F3020008F3020008F3020008DB
:1001300000F002F800F0C0F814A696E8000CB244F3
:10014000B344DA4501D100F0B7F8BAE80F000FA6C2
:1001500096E83000A5EB040504EB0607AAEB0704BC
:10016000A7F101074FEA15154FEA3414A4F1010471
:10017000AC4201D300F0A0F813F0010F18BFFB1A36
:1001800043F0010300F001F8DBE718479C71000021
:10019000BC7100000A4410F8014B14F00F0508BFB1
:1001A00010F8015B240908BF10F8014B6D1E05D043
:1001B00010F8013B6D1E01F8013BF9D1641E03D01C
:1001C000641E01F8015BFBD19142E4D3704700004B
:1001D000704700000023002400250026103A28BFA5
:1001E00078C1FBD8520728BF30C148BF0B607047A9
:1001F0006E2900F0DD81702900F01383662906F076
:10020000D686652906F0D386672906F0D08661294F
:1002100006F0CF8603681B0A28BF41F080016929D8
:1002200000F08A81642900F08781752900F08481BB
:100230006F2900F0A182782900F0DF82E92900F01F
:100240003B82E42900F03882F52900F03582EF295D
:1002500000F09E82F82900F0DE820368DB0928BFE7
:1002600041F08001632900F0F787732900F0FC87D3
:10027000E32901F00780F32901F00C80002070478A
:100280001FB506F087FE9DE8030001F0FDFA01F0BE
:10029000F7F804000020002106F066FE401C6060B4
:1002A0000020002106F04AFEE06000F0FBFF1FBDC9
:1002B00010B501F060F810BD01F0B4F81146FFF779
:1002C000DFFF05F065FF01F07BFA03B4FFF7F0FFF5
:1002D00003BC01F097FC000009488047094800472B
:1002E000FEE7FEE7FEE7FEE7FEE7FEE7FEE7FEE7E6
:1002F000FEE7FEE704480549054A064B7047000043
:100300005553000831010008C8070020C80D00201F
:10031000C8090020C80900200FB4044910B503AA79
:10032000029800F059F910BC5DF814FB140200208B
:10033000032A40F2308010F0030C00F0158011F811
:10034000013BBCF1020F624498BF11F801CB00F8E9
:10035000013B38BF11F8013BA2F1040298BF00F83D
:1003600001CB38BF00F8013B11F0030300F02580FA
:10037000083AC0F0088051F8043B083A51F804CB21
:10038000A0E80810F5E7121D5CBF51F8043B40F8E7
:10039000043BAFF30080D20724BF11F8013B11F8F2
:1003A00001CB48BF11F8012B24BF00F8013B00F836
:1003B00001CB48BF00F8012B704710B5203AC0F0C0
:1003C0000B80B1E81850A0E81850B1E81850A0E828
:1003D0001850203ABFF4F5AF5FEA027C24BFB1E8C1
:1003E0001850A0E8185044BF18C918C0BDE8104004
:1003F0005FEA827C24BF51F8043B40F8043B08BF0D
:100400007047D20728BF31F8023B48BF11F8012BD3
:1004100028BF20F8023B48BF00F8012B70474FF07F
:10042000000200B5134694469646203922BFA0E844
:100430000C50A0E80C50B1F12001BFF4F7AF090750
:1004400028BFA0E80C5048BF0CC05DF804EB890041
:1004500028BF40F8042B08BF704748BF20F8022B84
:1004600011F0804F18BF00F8012B7047704770479C
:10047000704770B5044685690068C10601D530260D
:1004800000E02026C00707D070BDD4E90121304626
:100490009047206A401C20626D1EF6D570BD70B575
:1004A000044685690078C00707D170BDD4E90121F1
:1004B00020209047206A401C20626D1EF6D570BD3A
:1004C00009684A0501D540B27047C905FCD500B29C
:1004D000704709684A0501D5C0B27047C905FCD507
:1004E00080B2704770B50C460546012A05D02878C1
:1004F000800600D5EA69002302E0012305E05B1CC9
:10050000934202D2E05C0028F9D1A869E618C01A2B
:10051000A861286A184428622846FFF7AAFF04E069
:10052000D5E9012114F8010B9047B442F8D32846CD
:10053000FFF7B5FF70BD00002DE9F041064600242D
:1005400010687529314616A510D0FFF7B9FF0028AD
:1005500002DA404213A507E031688A0701D512A5E7
:1005600002E0490704D511A5012401E0FFF7B1FF1E
:1005700000210A2206F1240709E0B0FBF2FCB0FBDF
:10058000F2F302FB1C00303078541846491C002856
:10059000F3D123462A463046BDE8F04100F055BA73
:1005A000000000002D0000002B00000020000000D3
:1005B00011680268006A530501D508700AE0D30586
:1005C00001D5088006E0130603D5C217C1E9000271
:1005D00000E0086001207047074B70B50D467B4472
:1005E00000F01DFE0446284600F058FE10B14FF002
:1005F000FF3070BD204670BD9F5900002DE9FF5FA0
:1006000015468A460446DFF8AC80F8440027D8E94E
:1006100000103E46CDE9001010E03AF816106A4688
:1006200002A800F0DBFE411C07D02178890603D523
:10063000E269391891420DD80744761C207880066B
:1006400002D5E069B84205DDAE42E6DB3AF81600B5
:100650000028E2D1A069C01BA0612046FFF709FF76
:10066000D8E90010CDE90010002017E03AF8181082
:100670006A4602A800F0B2FEB0F1FF3F81460BD0FF
:1006800000250DF1080B05E0D4E901211BF8050058
:1006900090476D1C4D45F7D308F10100B0428046EC
:1006A000E4DB206A384420622046FFF7F8FEBDE80C
:1006B000FF9F0000AA6900002DE9F0418046D21D8D
:1006C00022F007020025D2E90002F52915A614D070
:1006D000011E72F1000106DA0023D0EB030063EB88
:1006E000020211A608E0D8F800108B0701D50FA66A
:1006F00002E0490701D50EA601251146002408F1A4
:10070000240704E000F05CF930323A55641C50EAEA
:100710000102F7D12B46324621464046BDE8F04162
:1007200000F093B9000000002D0000002B00000035
:100730002000000030B4002100F1240408E002F0A1
:100740000705D208303542EA4372DB086554491C7C
:1007500052EA0305F3D10468002310A2250708D547
:1007600004F020040C4304D0C46901230CA2641ECD
:10077000C46130BC00F069B910B504462146106868
:10078000FFF7A7FE02462046BDE810400023D1E750
:10079000D21D22F00701D1E90023CBE700000000C1
:1007A00030000000F0B40D460188090502D5214C47
:1007B0007C4402E01F4C7C440E34002100F12406EE
:1007C00008E002F00F071209E75D42EA03721B0915
:1007D0007754491C52EA0307F3D102780023120729
:1007E00004D5702D06D009B1022311342246F0BC85
:1007F00000F02BB901231034F8E770B504460D461C
:1008000021461068FFF765FE024629462046BDE8EE
:1008100070400023C6E7D21D22F00703D3E900236E
:10082000C0E70368126843F0200303600823C36134
:100830000023B7E70C6800002DE9F05F8946044605
:100840004FF0000ADFF874B1FB44C0F820A0204646
:10085000E1688847002874D0252806D0D4E9012112
:100860009047206A401C2062F1E700265F46204640
:10087000E16888472028054607DB312D05D2781925
:1008800010F8200C08B10643F1E7B00701D526F0B7
:100890000406C4F81CA00027C4F818A02A2D09D00B
:1008A000284606F043FB38B304EB8708303DC8F810
:1008B000185019E059F8041B204604EB8702916197
:1008C000E1688847012F054618D1E069002820DA41
:1008D00026F020061DE0D8F8180000EB800005EB9C
:1008E00040003038C8F818002046E16888470546BF
:1008F00006F01CFB0028EED1012F0AD02E2D08D1C6
:100900002046E16888477F1C0546022F46F02006F6
:10091000C4DBA069002803DA404246F00106A0616A
:10092000F00701D026F010066C2D0BD0682D09D0F1
:100930004C2D39D06A2D35D0742D35D07A2D33D049
:1009400016E038E0E1682F4620468847B842054661
:1009500009D16C2F26D04FF48060E1680643204611
:100960008847054604E06C2F1AD04FF48070064388
:100970000DB3A5F14100192802D8203546F40066D0
:100980004A462946204626604E46FFF731FC80B194
:1009900001280BD0F61D26F0070000F1080956E7E4
:1009A0004020E4E78020D8E70020D6E706F10409DC
:1009B0004DE7284652E7206ABDE8F09F9C6700009B
:1009C00030B5B0F10A0271F100034FEA900E4EEA21
:1009D000817EB0EB0E0061EB91014FEA101E4EEAF2
:1009E000017E10EB0E0041EB11114FEA102E4EEA82
:1009F000016E10EB0E0041EB11214FEA104E4EEA52
:100A0000014E10EB0E0041EB1141401841F1000185
:100A10004FEAD00040EA41704FEAD1014FEA810429
:100A200044EA907410EB800544EB01046D1944EB2B
:100A30000404521BA3414FF0000348BF0A3200D503
:100A400030BD401C41F1000130BD2DE9F0470D469D
:100A500099469246044600F124080168880604D5A8
:100A6000E06921F01001216000E00120A84201DDD1
:100A7000471B00E00027A1697A1902EB0900081A58
:100A8000A0612078C00602D42046FFF7F2FC0026C1
:100A900008E0D4E901211AF806009047206A401CBA
:100AA000761C20624E45F4DB2078C0060AD520462D
:100AB000FFF7DFFC06E0D4E9012130209047206AEF
:100AC000401C2062381EA7F10107F4DC07E0D4E9DE
:100AD000012118F805009047206A401C2062281E5A
:100AE000A5F10105F3DC2046FFF7D9FC20780006CC
:100AF00002D50220BDE8F0870120FBE72DE9FF4F7A
:100B00000C461E464FF0FF378BB0D2E90001DDF8EE
:100B100060800A908A46C1F30A5505B93D46002116
:100B200008464FF00000BAF1000F00F4400005DA6B
:100B300000EB80004FF4400101EA50004FEA905969
:100B4000B9F1010F00DDB9460A9850EA4A000ED00B
:100B500044F61050A5F2FF3545432F14B8F1000FAD
:100B60001ED07542291E1EDDC9F100021CE0B8F13D
:100B7000010F4FF0000001D0302103E0F24305E007
:100B80002154401CB042FBDB30460022002121549E
:100B90000B99C1F80880C1E900200FB0BDE8F08FC3
:100BA000BD1B6D1CDEE74A4600DA694206A800F06C
:100BB000D3FC06AB93E8070003AB83E8070050467D
:100BC0000A9905F0D2FD8DE80700A0F500501F3806
:100BD00000900398002D0ADD42F21F014A460844A6
:100BE000002303A90390684606F03CF809E0A0F54D
:100BF00000504A461F38002303A90390684606F0B8
:100C000046F88DE807000004000C03D04FF0FF30D9
:100C1000410800E01046B8F1000F03D00022009216
:100C200015461EE0751E05D4FFF7CAFE3032625528
:100C30006D1EF9D5B3460122084302D000227F1C65
:100C400004E02078302801D100227F1E002A099775
:100C500084D01DE0112D07DAFFF7B2FE3032625565
:100C60006D1C50EA0102F5D1084302D00098C8B1CA
:100C70000EE00021681E05E0235C625C6354225490
:100C8000401E491C8142F7DBAB46A81B401E099061
:100C9000002004F80B000B98099AC0F80880C0E9FE
:100CA000002B7AE711264FF0000857E72DE9F04FA7
:100CB00088460446D21D22F0070191B0D1E9000117
:100CC000CDE90A0106F01AF902460B98C00F01D0CF
:100CD0002D2007E02068810701D52B2002E020218C
:100CE00001EAC000032A099001D0072A05DB034668
:100CF0004146204600F0F0FB0BE12078800601D54C
:100D0000E06900E00620B8F1650F814606D0B8F131
:100D1000660F18D0B8F1670F70D131E00020B9F13B
:100D2000110F009001DB112301E009F101030AAA70
:100D300001A90CA8FFF7E2FEDDE90C70002609F11D
:100D40000105834647E001204B4600904FF00047E5
:100D50000AAA01A90CA8FFF7D1FEDDE90DB00C9994
:100D60005D46002610B909F101000D18B9EB050028
:100D700003D4C0F1FF3609F10105A5EB09002BE012
:100D8000B9F1010F01DA4FF001090020B9F1110F9B
:100D90000090484601DD112300E003460AAA01A99C
:100DA0000CA8FFF7ABFEDDE90C704D46002683462C
:100DB000207800070AD4AB4500DA5D4601A8012D72
:100DC00004DD411911F8011C302907D04F4502DA22
:100DD00017F1040F04DA012082460FE06D1EEEE7E2
:100DE000002F02DCED1B3E4403E0781CA84200DD2E
:100DF0007D1CB81B00F1010A4FF000472078000766
:100E000003D4AA4501DB4FF0FF3A0021B7F1004FB0
:100E10000DF143088DF8431024D002202B23002F1E
:100E200001DA7F422D230A21021EA0F1010000DC1D
:100E30005FB197FBF1FC97FBF1F201FB1C7C1746BD
:100E40000CF1300C08F801CDEEE7A8F101000370B9
:100E50002188090501D5452100E06521A0F101089F
:100E600000F8011C09980FA9A1EB0807FF1D00B1AC
:100E70000120411901EBEA70A1693844081A401EAB
:100E8000A0612078C00602D42046FFF7F2FA099844
:100E900028B1D4E901219047206A401C20622078C3
:100EA000C00622D52046FFF7E4FA1EE0002E04DB40
:100EB000B34502DD01A8805D00E03020D4E90121C6
:100EC0009047206A401C2062761CAAF101005FEA6C
:100ED000000A0AD100F0D4FAC0680168405CD4E985
:100EE00001219047206A401C2062281EA5F10105BF
:100EF000DCDC07E0D4E9012118F8010B9047206AF7
:100F0000401C2062381EA7F10107F3DC2046FFF7E2
:100F1000C6FA032011B041E62DE9F04F04460D4614
:100F2000D21D22F0070089B0D0E900974846394623
:100F300005F0E4FF0246F80F01D02D2307E02068FA
:100F4000810701D52B2302E0202101EAC0038DF89F
:100F500020300BB1012000E00020032A824601D09E
:100F6000072A04DB2946204600F0B6FA3FE1207844
:100F7000800601D40D2500E0E569C7F30A560D2D62
:100F800049DA00214FEA175B08464FF00000002FB6
:100F900000F4400007DA00EB80004FF4400100EB62
:100FA000D07001EA60008115012901DD4FF0FF31A9
:100FB00000224FEA850CBCF1180F06D31346ACF1A2
:100FC00018004FF08052C24003E04FF4801323FA20
:100FD0000CF30CF10C0CBCF1200F04D3ACF1200C81
:100FE00009FA0CF001E007FA0CF000294FF0004874
:100FF00001DD18B90FE00ED140450CD319EB020901
:101000005F4121B9404502D19F4329EA0209BBEB68
:10101000175F00D0761C2088000502D57B487844F5
:1010200002E07A487844193808AA302302F80A30D6
:10103000037C0AF10101002E0AF1020A53546A46A8
:1010400002DC4FF0300101E04FF031014FF00108B8
:101050008DF8001002D0A6F2FF3603E059EA4701EE
:1010600000D06B4E002D02DC2178090704D54FF02B
:1010700002082E218DF80110C44600210BE0C7F3B1
:1010800003433F01C35C491C6D1E02F8083005296B
:1010900008F1010801DA002DF1DC00210CE000EB81
:1010A0001973491C1B786D1E082902F808304FEA95
:1010B000091908F1010801DA002DF0DC21688B061E
:1010C00002D516E0A8F10108E04505DD02EB0803B2
:1010D00013F8013C302BF5D0B8F1000F09DD02EB1D
:1010E000080313F8013C2E2B03D1090701D4A8F102
:1010F0000108002D05DD3E2102F808106D1E08F1E3
:101100000108407C002E02F8080008F1010804DA0A
:101110002D20764202F8080002E02B2002F8080099
:101120000A214FF47A70864208F101080BDB96FB26
:10113000F0F3303302F8083096FBF0F308F10108C1
:1011400000FB136601E0642E0CDB642096FBF0F3D9
:10115000303302F8083096FBF0F308F1010800FB89
:10116000136601E00A2E06DB96FBF1F0303002F840
:10117000080008F1010896FBF1F001FB1060303027
:1011800002F80800A16908F1010808EB050202EB6A
:101190000A00081AA0612078C00602D42046FFF792
:1011A00068F9216A08AE01EB0A00206204E0D4E984
:1011B000012116F8010B9047BAF1010AF7D2207805
:1011C000C00602D52046FFF754F96E4609E016F82E
:1011D000010B3E280FD0D4E901219047206A401C22
:1011E0002062B8F10108F2D22046FFF758F909B0A1
:1011F0000320BDE8F08F206A2844206203E0D4E990
:101200000121302090476D1EEBD3F8E7EA5F000024
:1012100002FCFFFF01694A1C02610878704700B5B3
:101220008FB0CDE901310021059105497944CDE91F
:10123000031011466846FFF7FFFA0FB000BD00002B
:10124000E5FFFFFF10B5436913B1AFF3008001E084
:10125000FFF748F9012010BD127800F124010A704F
:1012600000224A700122EDE711684FF0FF32E9E7F2
:1012700010B5436913B1AFF3008001E0FFF7BEF989
:10128000012010BD128800F1240182840022C28452
:101290000122EDE711684FF0FF32E9E7007B00F033
:1012A0008000704710B542485421FFF7B8F8414814
:1012B0005421FFF7B4F840485421FFF7B0F83F49F4
:1012C0003B483C4A3F4B08603D490A603A49196037
:1012D000531C0365481C1065012008653B48344ACF
:1012E00039A1784400F0CEF920B9384878440A385A
:1012F00000F06FFA37482F4A35A1784400F0C2F960
:1013000020B9344878440A3800F063FA32482A4A4F
:101310002FA1784400F0B6F920B92F4878440A3854
:1013200000F057FA40232248DC000021224600F05A
:1013300085F920B125487844543800F04AFA1D4810
:1013400022464023002100F079F920B12148784459
:10135000543800F03EFA184822461023002100F0CD
:101360006DF9002806D01C487844BDE81040563876
:1013700000F02FBA10BD104870B5006D20F00104C8
:101380000B4800F0F7F90B4800F0F4F90A4800F0B8
:10139000F1F909E0206D20F00105204600F0EAF99E
:1013A000204600F071F82C46002CF3D170BD0000EF
:1013B000C00100201402002068020020000000206C
:1013C000040000200800002072000000395D0000C9
:1013D00077000000255D0000115D00002DE9F0415F
:1013E00016460C46054600F043F8036893F80101E1
:1013F000012807D0FF2C12D8185D80B101202C7075
:10140000BDE8F081D3F807013246214603F2071305
:10141000C7182846BC46BDE8F041002360474FF09E
:10142000FF30EDE7754600F00FFAAE46050069465D
:10143000534620F00700854618B020B5FEF75AFF46
:10144000BDE820404FF000064FF000074FF00008C5
:101450004FF0000BAC46ACE8C009ACE8C009ACE802
:10146000C009ACE8C00921F007018D4670470000B3
:1014700010B500F005F8001D10BD00BFED5A0000CA
:1014800000487047DC02002070B50446051F00F0DC
:10149000DFF90068002C14BF446870BD002C18BF31
:1014A000AC423CBF20466468F8D301680A18AA42DF
:1014B00018BF456003D12A680546114401602868B9
:1014C0004119A1421CBF6C6070BD616869602168F0
:1014D0000844286070BD00002DE9F0411F46044615
:1014E00003260168072A01F4006004DB08B116A591
:1014F00005E016A503E008B115A500E015A521F04B
:1015000010002060A069C01EA0610FB1401EA06144
:101510002046FEF7AEFF4FB1D4E90121384690478F
:10152000206A401C2062C01C206206E0206AFAE7A4
:10153000D4E9012115F8010B9047761EF8D2204618
:10154000FEF7ADFFBDE8F0814E414E006E616E00CA
:10155000494E4600696E66002DE9F0478146164601
:101560008AB0354878440DC88DE80D00324878447B
:10157000801C03AC0DC884E80D0041F69B30084484
:10158000372190FBF1F290FBF1F5A5F1800501FB0D
:1015900012041B3C02D56442012000E00020DFF869
:1015A00098A080460027FA44AAF1BE0A0EE0E007A0
:1015B0000AD03246684607EB470101230AEB810156
:1015C00005F065FB8DE8070064107F1C002CEED150
:1015D000194F7F44AE3F19E0E80715D007EB041020
:1015E0000DF1180A90E80E008AE80E00C068F0427B
:1015F00001D1981908903246012306A903A805F0E5
:1016000046FB03AB83E807006D10641C002DE3D19B
:101610004FF0010332466946B8F1000F03A802D02B
:1016200005F020FB01E005F032FBC9E90001C9F833
:1016300008200AB0BDE8F087405B000070B5C468C0
:10164000A50713D0650211D4B2F5807F09D0B2F599
:10165000007F06D0B2F5806F08D1012300F124018C
:1016600006E05D1E6FF07F46B54201D3012070BDDC
:101670000161C361416024F470611143C1600020C5
:1016800070BD00002DE9F0410C461646070047D01A
:10169000104600F06FF82078611C61280AD072288B
:1016A00002D077283CD102E00125002405E0022584
:1016B000042402E0082448F2020511F8010B2B284B
:1016C00006D0622809D011F8010C74280AD00BE06A
:1016D00045F0030544F00204EFE745F0040544F04B
:1016E0000104EAE744F010043846214600F078F897
:1016F000411C15D00021316171604FF40071F5601B
:10170000F1617061200704D530460222002100F00B
:1017100019F9306D40F0010030653046BDE8F081C8
:101720000020FBE72DE9F0410D460646104C206DE8
:10173000C10704D0410804D020F00104F7E7224695
:101740000EE0542000F0CFF807000ED0206D47F0D7
:1017500001010843542120653846FEF760FE3A46F1
:1017600029463046BDE8F0418CE70020D6E700006E
:10177000C00100202DE9F04704464FF0FF38002655
:10178000C568D4E90497A80718D0204600F096F958
:10179000384600F02FF8002800DA4646280502D522
:1017A0004846FFF771FE4C212046FEF738FE206DBB
:1017B00020F0010020653046BDE8F0874046FBE799
:1017C00010B50446AFF300802046BDE81040FEF798
:1017D0007CBD10B500F0BCF9BDE8104000F0B2B916
:1017E0000EB5CDE9000100F075FA029069460120BE
:1017F000ABBE0EBD08B5694600900220ABBE08BD69
:101800001FB58DE8070069460520ABBE04B010BDCA
:101810001FB58DE80F0069460620ABBEF6E708B598
:10182000694600900920ABBE08BD1CB5CDE900019A
:1018300069460A20ABBE1CBD704708B569460090DA
:101840000C20ABBE08BD000000487047BC02002061
:1018500000487047C40200207047704770477047C7
:1018600038B504460A4600206946AFF300800028D8
:1018700008BF38BD02460099204600F0D0F901208B
:1018800038BD012000F01FBAF8B5AFF3008005465F
:1018900000200C460C2000BF0646A819A0420DD916
:1018A000324669460020AFF30080070008BF00F011
:1018B0000AFA0098A04218BF0546C419FFF7C8FFEE
:1018C00005600746F01D20F007004619284600F085
:1018D000A0F9B44208BFF8BDA21B31463868BDE884
:1018E000F84000F09CB970B50646FFF7B1FF0568F7
:1018F00006F10B0020F00704B4429CBF002070BD2D
:101900002B466A68BAB11068A04210D304F10801EE
:1019100088423CBF5068586007D351681019416035
:101920001168091B016058601460101D70BD1346DA
:101930005268002AE7D121462846FFF791FF002888
:10194000DED170BD2DE9F041044616460D464769CB
:10195000007B80072ED03846FFF761FF50BB3EB3B7
:10196000012E02D0022E25D104E0204600F071F9AC
:1019700005441DE03846FFF760FFE168002841F0AC
:101980001001E16005DA204600F058F80120BDE8BA
:10199000F081C9030BD56268E16A914200D8114613
:1019A000A26911442269891A814200DD0846054472
:1019B000002D01DA0220EAE7E16A6068E26881420C
:1019C00006D29103E06203D522F4003141F0100207
:1019D000A6690027AE4213DCE16A814201D90B46B9
:1019E00000E0034603EB060C2369ACEB030CAC45AB
:1019F00006DD814201D98C4600E084469C4505D134
:101A0000A760276042F02000A5620DE0AD1BE669EB
:101A1000AE1B8142A66000D90846C01A281A206071
:101A20005819606022F0200003490840E06000205F
:101A300084F84870ABE70000BFCFD7FFC16821F43E
:101A4000001141F08001C160002181600160704798
:101A50002DE9F74F15460C464FF0FF3B3848D76845
:101A6000D2F814A0074209D05046A969FFF7DDFE5D
:101A7000002819DB3248C0430740EF604FF00049AF
:101A80006FF000484C4501D3464600E026460099D9
:101A90003B4650463246FFF7B3FEA96920F00042AC
:101AA000B21A1144A96128B12846FFF7C7FF58466A
:101AB000BDE8FE8FA41BE5D10020F9E770B5044610
:101AC0000569C06A6168884200D80846E16821F467
:101AD0002011E160C90312D5A84208D02246411B5B
:101AE0002846FFF7B5FF10B14FF0FF3070BD002062
:101AF000E562C4E90150E06820F48030E060002035
:101B000070BD10B50446C06820F02000E060A16AF6
:101B1000A06988420DD02046FFF7D0FFE06820F48E
:101B2000405040F01000E060A06AA0612069E062CF
:101B3000606044F24001E0688843E06010BD00004E
:101B400010000200002801D000F05CB870470000CF
:101B500010B5014602A000F09DF8012010BD000064
:101B600053494752545245443A205265646972655C
:101B700063743A2063616E2774206F70656E3A203B
:101B8000000000000000000030B44FF0013C50F8AD
:101B9000042B51F8043BCCFA52F4D51A20D1FCB9ED
:101BA00050F8042B51F8043BCCFA52F4D51A17D153
:101BB000B4B950F8042B51F8043BCCFA52F4D51ABE
:101BC0000ED16CB950F8042B51F8043BCCFA52F406
:101BD000D51A05D1002CDAD030BC4FF00000704788
:101BE00029BAB1FA81F111F01801D1F12000844035
:101BF000F2D1CA40CB4012F0FF0213F0FF0330BC19
:101C0000D01A704701491820ABBEFEE7260002003B
:101C1000704700210160416070470C207047034607
:101C200040688C46002818BF88423CBF0346406885
:101C3000F8D318681844884207D00CF1030020F04C
:101C40000700001D411A521A0146081D0A60FFF7DD
:101C50001BBC10B50146C268900703D0900607D59B
:101C6000886A0AE000F05CF801210160881E10BD5E
:101C70008B69486818440B69C01A91F848301BB149
:101C800091F84910401A10BD1103FCD50028FADD67
:101C9000401E10BD70B505460C460A2000E06D1CC4
:101CA00000F037F835B128780028F8D102E0641C3C
:101CB00000F02FF814B120780028F8D1BDE870406A
:101CC0000A2000F026B810B500F02EF8BDE810404C
:101CD000FFF738BF10B5431C02E010F8011B71B1CB
:101CE0008107FAD14FF0013202C88C1A8C4314EAF2
:101CF000C211F9D0C01A0A0603D0C01E10BDC01A06
:101D000010BD0A0401D0801E10BD0902FCD0401E87
:101D100010BD08B569468DF800000320ABBE08BDB4
:101D200000487047BC02002010B5012805D00021F2
:101D300003A0FFF7AFFF012010BD09A1F8E70000E5
:101D400053494752544D454D3A204F7574206F66A4
:101D50002068656170206D656D6F7279000000000C
:101D60003A2048656170206D656D6F727920636FF0
:101D7000727275707465640080B584B00290002042
:101D80000190029800688068C00738B3FFE70298A6
:101D90000168886820F00100886001F0C5FC0190AE
:101DA000FFE7029800688068C007B0B1FFE701F064
:101DB000BBFC0199401A03280ED3FFE70299C86AB9
:101DC00040F01000C8620299086B40F001000863FF
:101DD00001208DF80F0005E0E3E7FFE700208DF814
:101DE0000F00FFE79DF80F0004B080BD80B582B002
:101DF00001900198406A00900098C06A10F0500F5E
:101E000028D1FFE70099C86A40F40070C8620098C2
:101E10000068806800F46020B0F5602F16D1FFE7FD
:101E20000098007C90B9FFE70099C86A20F48070A0
:101E3000C8620098C06AC004002806D4FFE7009971
:101E4000C86A40F00100C862FFE7FFE7009800F0B1
:101E50003DFC05E00098406A016B01988847FFE768
:101E600002B080BD80B582B001900198406A0090B8
:101E70000099C86A40F04000C8620099086B40F0C1
:101E800004000863009800F053FC02B080BD00001D
:101E900080B582B001900198406A0090009800F0EF
:101EA00043FC02B080BD000080B584B002900020E9
:101EB00001900090029800688068C00700284AD10D
:101EC000FFE702980168886840F001008860029886
:101ED00001686FF01000086040F20C00C2F20000D0
:101EE00000684DF68361C4F21B31A0FB0110800C29
:101EF00000EB800080000090FFE7009820B1FFE732
:101F0000009801380090F8E701F00EFC0190FFE71F
:101F1000029800688068C007E0B9FFE701F004FCA0
:101F20000199401A032814D3FFE70299C86A40F0C8
:101F30001000C8620299086B40F001000863FFE7D7
:101F40000299002081F82800FFE701208DF80F009A
:101F500005E0DDE7FFE700208DF80F00FFE79DF8C3
:101F60000F0004B080BD0000FFE7FEE780B501F080
:101F700081FC80BD10B5C8B047F2C001C0F60001B9
:101F800036A848220092FEF718FA009924A8FEF716
:101F900046FA47F20813C0F600030193186859681F
:101FA0009A68D3F80CC0D3F810E05C691F94CDF8A0
:101FB00078E0CDF874C01C921B911A909869D96989
:101FC0001A6A5B6A239322922191209047F2301380
:101FD000C0F600030293186859689A68D3F80CC0D9
:101FE000D3F810E05C691594CDF850E0CDF84CC002
:101FF0001292119110909869D9691A6A5B6A1993C3
:1020000018921791169006A82821FEF708FA0020CA
:1020100005900490039042F20802C4F2020240F2DA
:102020002311C4F26751116048F6AB11CCF6EF51A1
:10203000116042F20C02C4F2020242F63B21C0F6E9
:102040001901116046F67F61C4F65D41116042F2EC
:102050008C22C4F2020244F25101C5F67F51116094
:1020600042F26371C4F2CE6111600590FFE70598FA
:10207000112828D8FFE703200490FFE7059936A828
:1020800050F82100006803900399C84380B2B0EB78
:10209000114F06D1FFE70398059A24A941F82200C1
:1020A00006E0FFE70498013804900028E6D1FFE736
:1020B000049818B9FFE7FFF759FFFFE7FFE7059816
:1020C00001300590D3E7249825996FF31F306FF303
:1020D0001F3140EA014006909DF89800079027982C
:1020E000289900F00F0001F01F0140EA014008901C
:1020F00029982A996FF3DF206FF35F3140EA01409E
:1021000009902B982C996FF3DF206FF3DF2140EAC1
:1021100001400A902D982E9900F03F0001F03F01F8
:1021200040EA01400B902F9800F03F000C90BDF862
:10213000C000319940EA01400D90BDF8C8003399C4
:1021400040EA01400E90349835996FF31F306FF3D9
:102150001F3140EA01400F9000200590FFE70598ED
:10216000092829D8FFE705991AA850F82100006826
:102170000390059B06A850F82300039910AA52F873
:1021800023201140884212D0FFE705981AA951F880
:1021900020000068059A10AB53F82230984306AB34
:1021A00053F82230184351F822100860FFE7FFE788
:1021B000059801300590D2E742F20021C4F20201F5
:1021C000086840F00100086000BF00BF00BF00BF0A
:1021D00000BF00BF00BF00BF00BF00BF086820F005
:1021E0000100086000200590FFE7059809281AD82B
:1021F000FFE705991AA850F8210000680390059B95
:1022000006A850F82300039910AA52F82320114081
:10221000884203D0FFE7FFF7A9FEFFE7FFE7059835
:1022200001300590E1E742F21401C4F202010868AE
:1022300040F080400860086840F00040086048B006
:1022400010BD000080B592B007A800902C21FEF7C9
:10225000E6F80098002201920692059204920392F9
:1022600002921F21079108920D9201210C910A926E
:102270000E920F9102F026F818B1FFE7FFF774FEF7
:10228000FFE70F20029000210391049105914FF484
:102290008060069002A801F043FE18B1FFE7FFF747
:1022A00063FEFFE712B080BD40F2BA71C2F20001D6
:1022B0000020087040F2B471C2F20001888008600A
:1022C0007047000080B503F0FBFE08B9FFE726E089
:1022D00040F25030C2F200000078C00740B9FFE77A
:1022E00047F2F011C0F60001002003F0F3FE04E015
:1022F0000021084603F0EEFEFFE740F25030C2F244
:10230000000001780131017000780A2807D3FFE747
:1023100040F25031C2F2000100200870FFE780BD9A
:10232000FFE7FEE780B540F2A030C2F2000000F007
:102330001BFC80BD84B0039002910192009303982E
:10234000C16B026C012090404860009803990968B5
:10235000486003984068102809D1FFE70198039965
:1023600009688860029803990968C86008E00298C3
:10237000039909688860019803990968C860FFE7B4
:1023800004B070477047000080B586B0049000200C
:102390008DF80F000190FFE7049890F828000128BD
:1023A00004D1FFE702208DF81700B1E00499012065
:1023B00081F82800FFE7FFE70498FFF7DDFC8DF8C0
:1023C0000F009DF80F00002840F09780FFE7049869
:1023D000C06A40F0020020F488500499C86240F2BC
:1023E0000C00C2F2000000680090022001F044FAE4
:1023F00001460098B0FBF1F040000190FFE7019822
:1024000020B1FFE7019801380190F8E704980068CF
:102410008068C00790B1FFE70498C06A40F01000E0
:1024200020F002000499C862FFE70499002081F8B7
:102430002800FFE701208DF8170069E00498016883
:10244000886840F00800886001F06EF90290FFE7AC
:10245000049800688068000700281AD5FFE701F09B
:1024600063F90299401A0B2812D3FFE70498C06A57
:1024700040F0100020F002000499C862FFE70499C0
:10248000002081F82800FFE701208DF817003FE0C9
:10249000DEE704980168886840F00400886001F075
:1024A00043F90290FFE7049800688068400700281D
:1024B0001AD5FFE701F038F90299401A0B2812D318
:1024C000FFE70498C06A40F0100020F00200049971
:1024D000C862FFE70499002081F82800FFE7012087
:1024E0008DF8170014E0DEE70498C06A40F00100A0
:1024F00020F002000499C862FFE7FFE7049900207A
:1025000081F82800FFE79DF80F008DF81700FFE71E
:102510009DF8170006B080BD85B0039002910020A1
:102520008DF807000090FFE7039890F82800012835
:1025300004D1FFE702208DF81300C3E003990120C6
:1025400081F82800FFE7FFE702984068062812D8C4
:10255000FFE703980068406B029A1168526802EB2B
:102560008202053A1F239340984391400843039900
:102570000968486329E0029840680C2812D8FFE7F0
:1025800003980068006B029A1168526802EB82029D
:10259000233A1F23934098439140084303990968C5
:1025A000086311E003980068C06A029A11685268D3
:1025B00002EB8202413A1F23934098439140084323
:1025C00003990968C862FFE7FFE7029800680A28D4
:1025D00012D3FFE703980068C06802990A68896807
:1025E00002EB42021E3A072393409843914008436E
:1025F00003990968C86010E00398006800690299AF
:102600000A68896802EB420207239340984391408D
:102610000843039909680861FFE7029800681028D9
:1026200005D0FFE702980068112840D1FFE7039822
:10263000006842F20041C4F2010188422DD1FFE757
:102640000398006880680002002825D4FFE70398FB
:102650000168886840F400008860029800681028CB
:1026600019D1FFE740F20C00C2F2000000684DF6FD
:102670008361C4F21B31A0FB0110800C00EB8000D1
:1026800040000090FFE7009820B1FFE70098013874
:102690000090F8E7FFE7FFE708E00399C86A40F019
:1026A0002000C86201208DF80700FFE7FFE7FFE781
:1026B0000399002081F82800FFE79DF807008DF8B6
:1026C0001300FFE79DF8130005B0704780B582B096
:1026D000019040F22440C2F2000001780131017003
:1026E0000078052807DBFFE740F22441C2F2000131
:1026F00000200870FFE740F22440C2F20000009082
:10270000007803F0B3FD009901980978C1EBC1028C
:1027100040F22841C2F2000101EBC2010E2200F09A
:1027200047F902B080BD000081B0009001B0704751
:1027300081B0009001B0704780B58CB00A90002045
:102740008DF827000890079006900A9820B9FFE7B7
:1027500001208DF82F0023E10A98C06820B9FFE717
:102760000A98007E08B1FFE7FFE70A98007E08B1EB
:10277000FFE7FFE70A98C06A50B9FFE70A9900200F
:1027800008630A9981F828000A9800F00DF9FFE71C
:102790000A98FFF7F1FA8DF827000A98C06AC00678
:1027A000002800F1EF80FFE79DF82700002840F0A7
:1027B000E980FFE70A98C06A40F0020020F48850E0
:1027C0000A99C8620A9908688968059143F6004128
:1027D000C4F20101884211D1FFE70A98006AB0F5FE
:1027E000002F04D1FFE74FF40020049003E00A9883
:1027F000006A0490FFE70498039003E00A98006AD7
:102800000390FFE70598039908430A99097C40EA79
:1028100041010798084307900A98C1680120B1F563
:10282000807F029008D0FFE70A98C0680138B0FAAC
:1028300080F040090290FFE702980A994968C207B0
:1028400041F48070002A18BF014608980843089098
:102850000A98007E01281ED1FFE70A98007C70B913
:10286000FFE70A98C1694EF20000CFF6FF7000EB57
:1028700041300899084340F4006008900AE00A9942
:10288000C86A40F02000C8620A99086B40F0010055
:102890000863FFE7FFE70A980068406841F2FF61BC
:1028A000CFF6FF410840089908430A990968486033
:1028B0000A98006880684FF2FD71CFF6E171084018
:1028C000079908430A99096888600A98C168012035
:1028D000B1F5807F019008D0FFE70A98C068013801
:1028E000B0FA80F040090190FFE7019800F0010084
:1028F000002818BF4FF48070B0F5807F05D0FFE747
:102900000A98007E012809D1FFE70A984169002052
:10291000CFF6F07000EB01500690FFE70A980068D0
:10292000C06A20F47000069908430A990968C862D1
:102930000A98006880684FF6FE61CFF63F71084044
:10294000079988420CD1FFE70A99002008630A988A
:10295000C06A40F0010020F002000A99C86210E04D
:102960000A98C06A40F0100020F002000A99C8627C
:102970000A99086B40F00100086301208DF82700D8
:10298000FFE708E00A99C86A40F01000C862012019
:102990008DF82700FFE79DF827008DF82F00FFE74F
:1029A0009DF82F000CB080BD81B0009001B0704741
:1029B00080B586B004900391029200208DF8070044
:1029C0000498006842F20041C4F20101884209D033
:1029D000FFE70498006842F60001C4F20101884252
:1029E00009D1FFE742F20440C4F20100006800F49C
:1029F0007020009002E000200090FFE7009800287F
:102A000040F0A580FFE7FFE7049890F82800012830
:102A100004D1FFE702208DF81700A1E004990120FE
:102A200081F82800FFE7FFE70498FFF73DFA8DF8EB
:102A300007009DF80700002840F08180FFE7049818
:102A4000C06A40F4807040F2012188430499C86252
:102A50000498006842F60001C4F20101884209D1DD
:102A6000FFE742F20440C4F20100006810F4702F46
:102A700003D008E0002030B9FFE70499C86A20F4C9
:102A80008010C86205E00499C86A40F48010C862EA
:102A9000FFE70498C06AC004002806D5FFE7049940
:102AA000086B20F00400086303E004990020086329
:102AB000FFE7FFE70499002081F82800FFE704986A
:102AC000416A41F6ED50C0F6000088620498416A00
:102AD00041F69160C0F60000C8620498416A41F670
:102AE0006560C0F600000863049801686FF002009A
:102AF000086004980168886840F4807088600498D1
:102B00000168406A4C31039A029B00F0E9FB04988B
:102B10000068806800F46020B0F5602F07D1FFE7FF
:102B200004980168886840F4A000886006E0049872
:102B30000168886840F480108860FFE706E0FFE7DE
:102B40000499002081F82800FFE7FFE703E0012057
:102B50008DF80700FFE79DF807008DF81700FFE7E5
:102B60009DF8170006B080BD80B5ACB02B902B98B7
:102B7000C06B00682A902B980068006829902A98FA
:102B80002B99096CC8404007002840F17581FFE788
:102B90009DF8A4004007002840F16E81FFE72B98C4
:102BA000006800688006002807D4FFE72B980168BA
:102BB000086820F004000860FFE72B980068812176
:102BC000C4F202018842C0F0A880FFE72B98006899
:102BD0000821C4F20201884203D1FFE704202890B3
:102BE00094E02B9800681C21C4F20201884203D1B2
:102BF000FFE74020279086E02B9800683021C4F240
:102C00000201884204D1FFE74FF48060269077E00C
:102C10002B9800684421C4F20201884204D1FFE7E6
:102C20004FF48040259068E02B9800685821C4F24A
:102C30000201884204D1FFE74FF48020249059E03C
:102C40002B9800686C21C4F20201884204D1FFE78E
:102C50004FF4800023904AE02B9800688021C4F252
:102C60000201884204D1FFE74FF0806022903BE0F0
:102C70002B98006840F20841C4F20201884203D157
:102C8000FFE7042021902CE02B98006840F21C41C3
:102C9000C4F20201884203D1FFE7402020901DE0EA
:102CA0002B98006840F23041C4F20201884204D1FE
:102CB000FFE74FF480601F900DE02B98016840F211
:102CC0004442C4F202024FF48020914208BF4FF404
:102CD00080401F90FFE71F982090FFE720982190E9
:102CE000FFE721982290FFE722982390FFE723989F
:102CF0002490FFE724982590FFE725982690FFE78A
:102D000026982790FFE727982890FFE7289840F219
:102D10000441C4F202010860A5E02B980068082174
:102D2000C4F20201884203D1FFE704201E9094E020
:102D30002B9800681C21C4F20201884203D1FFE7EE
:102D400040201D9086E02B9800683021C4F20201DB
:102D5000884204D1FFE74FF480601C9077E02B9805
:102D600000684421C4F20201884204D1FFE74FF415
:102D700080401B9068E02B9800685821C4F2020143
:102D8000884204D1FFE74FF480201A9059E02B9835
:102D900000686C21C4F20201884204D1FFE74FF4BD
:102DA000800019904AE02B9800688021C4F202014B
:102DB000884204D1FFE74FF0806018903BE02B98E9
:102DC000006840F20841C4F20201884203D1FFE7E3
:102DD000042017902CE02B98006840F21C41C4F2AC
:102DE0000201884203D1FFE7402016901DE02B9896
:102DF000006840F23041C4F20201884204D1FFE78A
:102E00004FF4806015900DE02B98016840F2444229
:102E1000C4F202024FF48020914208BF4FF4804078
:102E20001590FFE715981690FFE716981790FFE7A3
:102E300017981890FFE718981990FFE719981A90BB
:102E4000FFE71A981B90FFE71B981C90FFE71C9860
:102E50001D90FFE71D981E90FFE71E980421C4F205
:102E600002010860FFE72B98C06A20B1FFE72B98AA
:102E7000C16A8847FFE7B7E12A982B99096CC840D7
:102E80008007002840F17F81FFE79DF8A4008007BC
:102E9000002840F17881FFE72B98006800688006E1
:102EA00000280BD4FFE72B980168086820F00A007F
:102EB00008602B99012081F82100FFE72B9800681A
:102EC0008121C4F202018842C0F0A880FFE72B985C
:102ED00000680821C4F20201884203D1FFE7022002
:102EE000149094E02B9800681C21C4F202018842DF
:102EF00003D1FFE72020139086E02B980068302153
:102F0000C4F20201884204D1FFE74FF4007012902E
:102F100077E02B9800684421C4F20201884204D172
:102F2000FFE74FF40050119068E02B98006858219B
:102F3000C4F20201884204D1FFE74FF40030109040
:102F400059E02B9800686C21C4F20201884204D138
:102F5000FFE74FF400100F904AE02B9800688021A3
:102F6000C4F20201884204D1FFE74FF000700E90D6
:102F70003BE02B98006840F20841C4F2020188420D
:102F800003D1FFE702200D902CE02B98006840F25F
:102F90001C41C4F20201884203D1FFE720200C90BB
:102FA0001DE02B98006840F23041C4F202018842D3
:102FB00004D1FFE74FF400700B900DE02B980168EF
:102FC00040F24442C4F202024FF40030914208BF82
:102FD0004FF400500B90FFE70B980C90FFE70C9814
:102FE0000D90FFE70D980E90FFE70E980F90FFE70A
:102FF0000F981090FFE710981190FFE7119812902A
:10300000FFE712981390FFE713981490FFE71498C6
:1030100040F20441C4F202010860A5E02B98006868
:103020000821C4F20201884203D1FFE702200A907E
:1030300094E02B9800681C21C4F20201884203D15D
:10304000FFE72020099086E02B9800683021C4F229
:103050000201884204D1FFE74FF40070089077E046
:103060002B9800684421C4F20201884204D1FFE792
:103070004FF40050079068E02B9800685821C4F284
:103080000201884204D1FFE74FF40030069059E076
:103090002B9800686C21C4F20201884204D1FFE73A
:1030A0004FF4001005904AE02B9800688021C4F28C
:1030B0000201884204D1FFE74FF0007004903BE02A
:1030C0002B98006840F20841C4F20201884203D103
:1030D000FFE7022003902CE02B98006840F21C418F
:1030E000C4F20201884203D1FFE7202002901DE0D4
:1030F0002B98006840F23041C4F20201884204D1AA
:10310000FFE74FF4007001900DE02B98016840F24A
:103110004442C4F202024FF40030914208BF4FF41F
:1031200000500190FFE701980290FFE7029803909A
:10313000FFE703980490FFE704980590FFE70598E0
:103140000690FFE706980790FFE707980890FFE7CB
:1031500008980990FFE709980A90FFE70A98042168
:10316000C4F202010860FFE7FFE72B99002081F815
:103170002000FFE72B98806A20B1FFE72B98816A37
:103180008847FFE72FE02A982B99096CC840000771
:10319000002827D5FFE79DF8A4000007002821D5C7
:1031A000FFE72B980168086820F00E0008602B9854
:1031B000C26B016C012000FA01F151602B99886308
:1031C0002B9981F82100FFE72B99002081F820003E
:1031D000FFE72B98006B20B1FFE72B98016B884726
:1031E000FFE7FFE7FFE7FFE72CB080BD83B001906A
:1031F00000200090019820B9FFE701208DF80B0016
:103200006AE00198006840F20741C4F20201884276
:1032100018D8FFE7019908684FF6F872CBF6FD72EF
:1032200010444CF6CD42CCF6CC42A0FB02026FF02B
:10323000030000EA9200086401990020C4F2020031
:10324000C86318E0019908684FF6F832CBF6FD72B2
:1032500010444CF6CD42CCF6CC42A0FB02026FF0FB
:10326000030000EA92000864019940F20040C4F2B1
:103270000200C863FFE70199022081F8210001984C
:10328000006800680090009843F6F0718843009051
:1032900001994868D1F808C0CB680A6940EA0C0077
:1032A000184310434A6910438A691043C9690143AE
:1032B00000980843009000980199096808600199F6
:1032C00000208863019A012182F82110019981F878
:1032D00020008DF80B00FFE79DF80B0003B070474E
:1032E00080B586B0049003910292019300208DF87E
:1032F0000300FFE7049890F82000012804D1FFE7BD
:1033000002208DF817004CE00499012081F820007C
:10331000FFE7FFE7049890F82100012832D1FFE78A
:103320000499022081F82100049900208863049800
:103330000168086820F00100086004980399029A67
:10334000019BFEF7F7FF0498C06A38B1FFE70498C5
:103350000168086840F00E0008600CE004980168FD
:10336000086820F00400086004980168086840F0CC
:103370000A000860FFE704980168086840F001004F
:10338000086009E0FFE70499002081F82000FFE7CA
:1033900002208DF80300FFE79DF803008DF8170069
:1033A000FFE79DF8170006B080BD00008AB00990C5
:1033B000089100200790FFE7089800680799C84027
:1033C000002800F09881FFE708980068079A01211B
:1033D0009140084006900698002800F08881FFE799
:1033E00008984068022805D0FFE70898406812282E
:1033F00026D1FFE7099807996FF0030202EA51010D
:103400000844006A0590079800F0070081000F202B
:1034100000FA01F10598884305900898006907991A
:1034200001F00701890000FA01F1059808430590B1
:1034300005980999079B02EA530211440862FFE7C5
:1034400009980068059007984100032000FA01F1EF
:103450000598884305900898406800F00300079994
:10346000490000FA01F1059808430590059809996B
:1034700008600898406801280FD0FFE70898406866
:1034800002280AD0FFE708984068112805D0FFE716
:103490000898406812282FD1FFE7099880680590A6
:1034A00007984100032000FA01F105988843059030
:1034B0000898C0680799490000FA01F10598084387
:1034C00005900598099988600998406805900799C2
:1034D000012000FA01F1059888430590089840689A
:1034E000C0F30010079900FA01F105980843059010
:1034F000059809994860FFE70998C0680590079802
:103500004100032000FA01F10598884305900898CE
:1035100080680799490000FA01F105980843059071
:1035200005980999C8600898C079C006002840F13C
:10353000DD80FFE7FFE741F21800C4F202000168F6
:1035400041F001010160006800F00100049004985E
:10355000FFE7079820F003001421C4F2010140584E
:103560000590079800F0030081000F2000FA01F198
:103570000598884305900998B0F1904F03D1FFE773
:103580000020039034E0099840F20041C4F60001A5
:10359000884203D1FFE70120029026E0099840F617
:1035A0000001C4F60001884203D1FFE70220019028
:1035B00018E0099840F60041C4F60001884203D1A2
:1035C000FFE7032000900AE0099941F20002C4F6E7
:1035D00000020720914208BF04200090FFE70098F6
:1035E0000190FFE701980290FFE702980390FFE740
:1035F0000398079901F00301890000FA01F1059889
:10360000084305900598079921F003011422C4F29C
:103610000102885040F20040C4F2010000680590A9
:10362000069905988843059008988079C00728B1C5
:10363000FFE70699059808430590FFE7059840F2D3
:103640000041C4F20101086040F20440C4F20100EC
:103650000068059006990598884305900898807938
:103660008007002805D5FFE70699059808430590CF
:10367000FFE7059840F20441C4F20101086040F2FE
:103680000840C4F201000068059006990598884337
:10369000059008988079C006002805D5FFE70699AF
:1036A000059808430590FFE7059840F20841C4F2E9
:1036B0000101086040F20C40C4F20100006805906E
:1036C0000699059888430590089880798006002817
:1036D00005D5FFE70699059808430590FFE705988B
:1036E00040F20C41C4F201010860FFE7FFE70798D0
:1036F0000130079060E60AB07047000082B0019088
:10370000ADF802108DF801209DF8010028B1FFE707
:10371000BDF802000199886104E0BDF8020001993A
:103720008862FFE702B0704740F2C070C2F200004A
:103730000068704740F23C00C2F20000027840F29C
:10374000C071C2F2000108681044086070470000B0
:1037500080B5042000F086F8072000F005F800F09E
:103760003BF8002080BD000080B582B0009040F2A0
:103770000C00C2F20000006840F23C01C2F20001FD
:103780000A784FF47A71B1FBF2F1B0FBF1F001F07D
:1037900081FA20B1FFE701208DF8070018E00098BA
:1037A00007280DD8FFE700994FF0FF30002200F006
:1037B0003FF8009840F24001C2F20001086003E0C7
:1037C00001208DF8070003E000208DF80700FFE7D7
:1037D0009DF8070002B080BD82B0FFE741F21800FB
:1037E000C4F20200016841F001010160006800F0CC
:1037F000010001900198FFE7FFE741F21C00C4F2CD
:103800000200016841F080510160006800F08050C2
:1038100000900098FFE702B07047000080B582B0CA
:103820008DF807009DF9070002F030F802B080BD66
:1038300080B586B08DF817000491039200200290A5
:1038400002F03CF802909DF917000190029804994B
:10385000039A01F0F7FC0146019802F037F806B030
:1038600080BD000080B582B00190019802F050F850
:1038700002B080BD02F06AF880B59CB01B9047F2A0
:103880005811C0F600010BA84022FCF751FD40F290
:103890000120ADF82A0000200990089007900690BA
:1038A0000590049003901B980138014602911F284F
:1038B00000F21A820299DFE811F020006500170279
:1038C0001702170217021702170217021702170230
:1038D0001702170217021702BE001702170217027B
:1038E0001702170217021702170217021702170210
:1038F0001702170217021702970141F22000C4F2C3
:10390000020000680490049800F44070B0F5807FD5
:103910000AD1FFE79DF810008007002804D5FFE7D3
:103920004FF4004003902CE0049800F44070B0F590
:10393000007F0DD1FFE741F22400C4F202000068CD
:103940008007002804D5FFE749F64040039017E0C0
:10395000049800F44070B0F5407F0FD1FFE741F2CA
:103960000000C4F2020000688003002806D5FFE7CB
:103970004DF66C40C0F20200039000E0FFE7FFE765
:10398000FFE7B2E141F20400C4F2020000684CF229
:103990000001C1F20001084001460191F8B1FFE7C2
:1039A0000198B0F5804F1FD0FFE70198B0F5004FA8
:1039B0001FD0FFE70198B0F5404F25D0FFE70198F1
:1039C00044F20001C1F20001884222D0FFE70198D1
:1039D0004CF20001C1F20001884225D029E000F03C
:1039E000E9FB4008039025E000F0E4FB8008039029
:1039F00020E000F0DFFB4AF6AB21CAF6AA21A0FBCB
:103A000001108008039015E000F0D4FBC00803907B
:103A100010E000F0CFFB4AF6AB21CAF6AA21A0FBCA
:103A20000110C008039005E000F0C4FB00090390FA
:103A300000E0FFE759E141F22800C4F2020000680B
:103A400004909DF81300000600280FD5FFE741F20F
:103A50002800C4F2020000688006002806D5FFE7AF
:103A600046F60040C0F2DC200390BCE0049800F071
:103A70000040B0F1004F00F0B480FFE741F20000D9
:103A8000C4F202000068C001002840F1AA80FFE7EC
:103A900041F20400C4F2020000680990099901F0A3
:103AA000C04001F47011400E40EA91410BA8405C07
:103AB0000690099800F44030B0F5803F07D0FFE74A
:103AC000099800F44030B0F5403F18D1FFE741F2CB
:103AD0000400C4F20200006800F400310DF12A0075
:103AE00040EA514000780890069843F20061C0F225
:103AF0006E1148430899B0FBF1F0079007E0069873
:103B000041F20021C0F27A0148430790FFE741F2F9
:103B10000400C4F2020000680021C8F2C00108409D
:103B2000059005980090B0F1004F3BD0FFE700985A
:103B30000021C8F2400188423ED0FFE7009810F112
:103B4000FF4F48D0FFE7009890B1FFE70098B0F52D
:103B5000800F0AD0FFE70098B0F5000F17D0FFE7FD
:103B60000098B0F5400F0ED039E00798039037E089
:103B7000079840004AF6AB21CAF6AA21A0FB011023
:103B8000400803902CE007984008039028E007982D
:103B900040004CF6CD41CCF6CC41A0FB0110800892
:103BA00003901DE007984AF6AB21CAF6AA21A0FBB4
:103BB00001104008039013E00799480044F62512CD
:103BC000C2F29242A0FB0220C0EB410100EB510087
:103BD0008008039004E007988008039000E0FFE766
:103BE00000E0FFE7FFE780E041F23800C4F20200A6
:103BF00000680490049800F00F00082807D0FFE741
:103C00009DF810000007002801D5FFE76BE004983D
:103C100000F00F0008280FD1FFE741F20000C4F2C6
:103C2000020000688003002806D5FFE743F2006029
:103C3000C0F26E10039055E041F20000C4F20200A1
:103C40000068C00100284CD5FFE741F20400C4F22F
:103C5000020000680990099901F0C04001F4701158
:103C6000400E40EA91410BA8405C0690099800F490
:103C70004030B0F5803F07D0FFE7099800F44030AE
:103C8000B0F5403F18D1FFE741F20400C4F2020052
:103C9000006800F400310DF12A0040EA514000783C
:103CA0000890069843F20061C0F26E1148430899EB
:103CB000B0FBF1F0079007E0069841F20021C0F256
:103CC0007A0148430790FFE7079841F23801C4F2B0
:103CD0000201096801F00F010131B0FBF1F003901E
:103CE000FFE7FFE7FFE700E0FFE703981CB080BDB8
:103CF00080B586B00490002003900290049800786C
:103D0000C007002800F0B080FFE700208DF8070012
:103D100041F21C00C4F202000068C000002813D465
:103D2000FFE7FFE741F21C00C4F20200016841F026
:103D300080510160006800F0805000900098FFE71B
:103D400001208DF80700FFE747F20000C4F20000F1
:103D50000068C005002822D4FFE747F20001C4F242
:103D60000001086840F480700860FFF7DDFC0390F4
:103D7000FFE747F20000C4F200000068C005002819
:103D80000CD4FFE7FFF7D0FC0399401A652804D351
:103D9000FFE703208DF81700BEE0EAE7FFE741F2F6
:103DA0002000C4F20200006800F440700290029803
:103DB00000283FD0FFE702980499496801F4407158
:103DC000884237D0FFE741F22001C4F202010868BF
:103DD00020F440700290086840F480300860086861
:103DE00020F480300860029808609DF80800C00741
:103DF000F8B1FFE7FFF798FC0390FFE741F22000DE
:103E0000C4F20200006800F002010020B0EB510F84
:103E10000ED1FFE7FFF788FC0399401A41F2893180
:103E2000884204D3FFE703208DF8170074E0E5E72C
:103E3000FFE7FFE741F22001C4F20201086820F425
:103E40004070049A5268104308609DF807000128EA
:103E500009D1FFE741F21C01C4F20201086820F019
:103E600080500860FFE7FFE704980078800700288B
:103E70000FD5FFE741F20401C4F20201086843F6DE
:103E8000FF72CEF6FF721040049A926810430860E9
:103E9000FFE704980078C006002827D5FFE70498BC
:103EA000C068B0F1004F17D0FFE741F22801C4F21B
:103EB0000201086820F00040086041F20401C4F2E9
:103EC000020108684FF6FF72C7F63F721040049A6D
:103ED000D2681043086008E041F22801C4F20201F0
:103EE000086840F000400860FFE7FFE704980078AA
:103EF000800600280CD5FFE741F23801C4F2020128
:103F0000086820F00F00049A126910430860FFE768
:103F100000208DF81700FFE79DF8170006B080BD60
:103F200080B584B002900191029820B9FFE701208A
:103F30008DF80F0021E1019842F20001C4F2020164
:103F4000096801F00F01884216D9FFE742F200002C
:103F5000C4F20200016821F00F01019A11430160CF
:103F6000006800F00F000199884204D0FFE70120AB
:103F70008DF80F0001E1FFE7029800788007002824
:103F80002AD5FFE7029800784007002809D5FFE707
:103F900041F20401C4F20201086840F4E0600860E4
:103FA000FFE7029800780007002809D5FFE741F2F3
:103FB0000401C4F20201086840F460500860FFE7A1
:103FC00041F20401C4F20201086820F0F000029AF4
:103FD000926810430860FFE702980078C007002845
:103FE00066D0FFE702984068012811D1FFE741F24F
:103FF0000000C4F20200006800F400310020B0EBC1
:10400000514F04D1FFE701208DF80F00B5E024E007
:104010000298406802280ED1FFE741F20000C4F286
:1040200002000068C001002804D4FFE701208DF8D9
:104030000F00A2E010E041F20000C4F202000068AC
:1040400000F002010020B0EB510F04D1FFE7012086
:104050008DF80F0091E0FFE7FFE741F20401C4F2A1
:104060000201086820F00300029A526810430860B9
:10407000FFF75AFB0090FFE741F20400C4F2020090
:10408000006800F00C0002994968B0EB810F0ED077
:10409000FFE7FFF749FB0099401A41F28931884256
:1040A00004D3FFE703208DF80F0066E0E4E7FFE7A5
:1040B000019842F20001C4F20201096801F00F0107
:1040C000884216D2FFE742F20000C4F20200016803
:1040D00021F00F01019A11430160006800F00F0008
:1040E0000199884204D0FFE701208DF80F0044E0D9
:1040F000FFE702980078400700280CD5FFE741F25F
:104100000401C4F20201086820F4E060029AD26857
:1041100010430860FFE702980078000700280DD5DB
:10412000FFE741F20401C4F20201086820F4605084
:10413000029A126940EAC2000860FFE700F04CF8FA
:1041400041F20401C4F202010968C9B20A0947F246
:10415000D811C0F60001895CC84040F20C01C2F2DF
:104160000001086040F24000C2F200000068FFF762
:10417000FBFA00208DF80F00FFE79DF80F0004B058
:1041800080BD000040F20C00C2F2000000687047E1
:1041900080B5FFF7F7FF41F20401C4F2020109689C
:1041A000C1F3022247F2E811C0F60001895CC84061
:1041B00080BD000080B5FFF7E5FF41F20401C4F2C5
:1041C00002010968C1F3C22247F2E811C0F60001FA
:1041D000895CC84080BD000080B598B047F2981156
:1041E000C0F6000108A84022FCF7A2F840F2012026
:1041F000ADF81E00002006900590049003900290F8
:1042000041F20400C4F2020000680690069800F033
:104210000C000146019100284AD0FFE701980428CC
:1042200004D0FFE70198082806D042E043F200607E
:10423000C0F26E10029042E0069901F0C04001F415
:104240007011400E40EA914108A8405C0390069826
:1042500000F44030B0F5803F07D0FFE7069800F447
:104260004030B0F5403F18D1FFE741F20400C4F2FE
:104270000200006800F400310DF11E0040EA5140D8
:1042800000780590039843F20061C0F26E11484334
:104290000599B0FBF1F0049007E0039841F200218A
:1042A000C0F27A0148430490FFE70498029006E0C8
:1042B000FFE741F20020C0F27A000290FFE7029887
:1042C00018B080BD80B586B00490049828B9FFE787
:1042D00001208DF8170000F02BBC04980078C0076F
:1042E000002800F00081FFE741F20400C4F2020060
:1042F000006800F00C00042820D0FFE741F2040021
:10430000C4F20200006800F00C0008282BD1FFE77F
:1043100041F20400C4F20200006800F48030B0F5FD
:10432000803F0BD0FFE741F20400C4F202000068B6
:1043300000F48030B0F5403F15D1FFE741F20000B6
:10434000C4F20200006800F400310020B0EB514FCD
:1043500008D0FFE70498406820B9FFE701208DF8F6
:104360001700E5E3BEE004984068B0F5803F36D121
:10437000FFE7FFE741F20001C4F20201086820F400
:1043800080300860086820F480200860FFE7FFF7AD
:10439000CBF90390FFE741F20000C4F2020000688D
:1043A00000F400310120B0EB514F0CD1FFE7FFF7D3
:1043B000BBF90399401A652804D3FFE703208DF861
:1043C0001700B5E3E7E741F23801C4F202010868DB
:1043D00020F44070049A926810430860FFE7FFE7FA
:1043E00004984068B0F5803F09D1FFE741F2000131
:1043F000C4F20201086840F48030086032E004989A
:10440000406868B9FFE741F20001C4F202010868A0
:1044100020F480300860086820F48020086020E0E4
:1044200004984068B0F5A02F0DD1FFE741F20001DC
:10443000C4F20201086840F480200860086840F473
:10444000803008600CE041F20001C4F2020108680B
:1044500020F480300860086820F480200860FFE7BE
:10446000FFE7FFE7FFE704984068E8B1FFE7FFF7E1
:104470005BF90390FFE741F20000C4F2020000681C
:1044800000F400310020B0EB514F0CD1FFE7FFF7F3
:104490004BF90399401A652804D3FFE703208DF8F0
:1044A000170045E3E7E71CE0FFF73EF90390FFE75D
:1044B00041F20000C4F20200006800F40031002064
:1044C000B0EB514F0CD0FFE7FFF72EF90399401ADC
:1044D000652804D3FFE703208DF8170028E3E7E7FA
:1044E000FFE7FFE7FFE7049800788007002840F126
:1044F0009080FFE741F20400C4F20200006810F06F
:104500000C0F20D0FFE741F20400C4F20200006863
:1045100000F00C0008282CD1FFE741F20400C4F29F
:104520000200006800F48030B0F5803F21D0FFE742
:1045300041F20400C4F20200006800F48030B0F5DB
:10454000403F16D0FFE741F20000C4F202000068CD
:1045500000F002010020B0EB510F09D0FFE70498F2
:104560004069012804D0FFE701208DF81700DFE241
:104570004EE00498406928B3FFE741F20001C4F21D
:104580000201086840F001000860FFF7CDF80390D1
:10459000FFE741F20000C4F20200006800F00201EF
:1045A0000020B0EB510F0CD1FFE7FFF7BDF80399E6
:1045B000401A032804D3FFE703208DF81700B7E261
:1045C000E7E724E041F20001C4F20201086820F0AC
:1045D00001000860FFF7A8F80390FFE741F2000030
:1045E000C4F20200006800F002010020B0EB510F9D
:1045F0000CD0FFE7FFF798F80399401A032804D37B
:10460000FFE703208DF8170092E2E7E7FFE7FFE7F7
:10461000FFE704980078C00600284FD5FFE704980C
:10462000806928B3FFE741F22801C4F2020108685B
:1046300040F010000860FFF777F80390FFE741F2C1
:104640002800C4F20200006800F020010020B0EB56
:10465000511F0CD1FFE7FFF767F80399401A0328B1
:1046600004D3FFE703208DF8170061E2E7E724E0B9
:1046700041F22801C4F20201086820F0100008602D
:10468000FFF752F80390FFE741F22800C4F202005E
:10469000006800F020010020B0EB511F0CD0FFE7B4
:1046A000FFF742F80399401A032804D3FFE70320D9
:1046B0008DF817003CE2E7E7FFE7FFE70498007892
:1046C0000007002852D5FFE70498C06940B3FFE710
:1046D00041F22401C4F20201086840F001000860C0
:1046E000FFF722F80390FFE741F22400C4F2020032
:1046F000006800F002010020B0EB510F0CD1FFE781
:10470000FFF712F80399401A032804D3FFE70320A8
:104710008DF817000CE2E7E7012000F0CBFD24E064
:1047200041F22401C4F20201086820F0010008608F
:10473000FEF7FAFF0390FFE741F22400C4F2020003
:10474000006800F002010020B0EB510F0CD0FFE731
:10475000FEF7EAFF0399401A032804D3FFE703207A
:104760008DF81700E4E1E7E7FFE7FFE7049800783A
:104770004007002840F11B81FFE700208DF807006B
:1047800041F21C00C4F202000068C000002813D4EB
:10479000FFE7FFE741F21C00C4F20200016841F0AC
:1047A00080510160006800F0805000900098FFE7A1
:1047B00001208DF80700FFE747F20000C4F2000077
:1047C0000068C005002822D4FFE747F20001C4F2C8
:1047D0000001086840F480700860FEF7A5FF0390B0
:1047E000FFE747F20000C4F200000068C00500289F
:1047F0000CD4FFE7FEF798FF0399401A652804D30D
:10480000FFE703208DF8170092E1EAE7FFE704983D
:10481000C068012838D1FFE7FFE741F22001C4F268
:104820000201086820F001000860086820F0040018
:104830000860FFE7FEF778FF0390FFE741F22000F2
:10484000C4F20200006800F002010120B0EB510F39
:104850000ED1FFE7FEF768FF0399401A41F2893154
:10486000884204D3FFE703208DF8170060E1E5E7F5
:1048700041F22001C4F20201086820F01800049AF5
:10488000126910430860FFE7FFE70498C068012839
:1048900009D1FFE741F22001C4F20201086840F0AB
:1048A0000100086031E00498C06868B9FFE741F290
:1048B0002001C4F20201086820F0010008600868C5
:1048C00020F0040008601FE00498C06805280DD19E
:1048D000FFE741F22001C4F20201086840F0040041
:1048E0000860086840F0010008600CE041F2200117
:1048F000C4F20201086820F001000860086820F096
:1049000004000860FFE7FFE7FFE7FFE70498C068DF
:10491000F8B1FFE7FEF708FF0390FFE741F2200040
:10492000C4F20200006800F002010020B0EB510F59
:104930000ED1FFE7FEF7F8FE0399401A41F28931E4
:10494000884204D3FFE703208DF81700F0E0E5E785
:104950001EE0FEF7E9FE0390FFE741F22000C4F2FB
:104960000200006800F002010020B0EB510F0ED0F1
:10497000FFE7FEF7D9FE0399401A41F289318842D8
:1049800004D3FFE703208DF81700D1E0E5E7FFE748
:104990009DF80700012809D1FFE741F21C01C4F28C
:1049A0000201086820F080500860FFE7FFE70498E4
:1049B000006A002800F0B880FFE741F20400C4F26A
:1049C0000200006800F00C00082800F08580FFE776
:1049D0000498006A022859D1FFE741F20001C4F2AD
:1049E0000201086820F080700860FEF79DFE0390C9
:1049F000FFE741F20000C4F20200006800F000711D
:104A00000020B0EB516F0CD0FFE7FEF78DFE03994D
:104A1000401A032804D3FFE703208DF8170087E02E
:104A2000E7E741F20401C4F2020108684FF6FF72A1
:104A3000C9F6C0721040049B5A6A9B6A1A4310431D
:104A4000086041F20001C4F20201086840F0807081
:104A50000860FEF769FE0390FFE741F20000C4F230
:104A60000200006800F000710020B0EB516F0CD123
:104A7000FFE7FEF759FE0399401A032804D3FFE726
:104A800003208DF8170053E0E7E724E041F200012E
:104A9000C4F20201086820F080700860FEF744FE4E
:104AA0000390FFE741F20000C4F20200006800F04A
:104AB00000710020B0EB516F0CD0FFE7FEF734FE21
:104AC0000399401A032804D3FFE703208DF8170049
:104AD0002EE0E7E7FFE726E00498006A012804D10A
:104AE000FFE701208DF8170022E041F20400C4F234
:104AF000020000680290029800F480300499496A2C
:104B000088420AD1FFE702980021C6F23C01084022
:104B10000499896A884204D0FFE701208DF81700C4
:104B200006E0FFE7FFE7FFE700208DF81700FFE74B
:104B30009DF8170006B080BD80B584B00290029841
:104B400020B9FFE701208DF80F009AE00298406835
:104B5000B0F5827F01D1FFE703E002990020C86130
:104B6000FFE70298806AB0F5005F01D1FFE7FFE739
:104B7000029890F8550040B9FFE70299002081F8AB
:104B80005400029800F082F8FFE70299022081F8B1
:104B9000550002980168086820F0400008600298FB
:104BA000C068B0F5E06F03D9FFE70020019003E093
:104BB0004FF480500190FFE70298C068B0F5706F25
:104BC0000AD0FFE70298C068B0F5E06F04D0FFE7B5
:104BD000029900208862FFE7029A009211685068EB
:104BE000D2F808C0D36800F482700CF4044C60441E
:104BF000D2F810C00CF0020C6044D2F814C00CF0D3
:104C0000010C6044D2F818C00CF4007C6044D2F867
:104C10001CC00CF0380C604403F400631844136AA1
:104C200003F080031843926A02F4005210430860B4
:104C3000029A508B00F004001168526A02F400429C
:104C40001044019A02F48052104448600298806A2D
:104C5000B0F5005F05D1FFE70299888D096808610A
:104C6000FFE702980168C86920F40060C8610299F2
:104C700000208865029A012182F855108DF80F00F6
:104C8000FFE79DF80F0004B080BD000081B00090E8
:104C900001B0704780B582B00190019800F02AFB06
:104CA00002B080BD81B0009001B0704781B000902B
:104CB00001B0704780B582B00090009820B9FFE73E
:104CC00001208DF807001DE0009890F83D0040B9E4
:104CD000FFE70099002081F83C00009800F016F8EA
:104CE000FFE70099022081F83D00009951F8040B7C
:104CF00000F04CFB0099012081F83D0000208DF868
:104D00000700FFE79DF8070002B080BD81B000906A
:104D100001B0704782B0019001980168C86840F006
:104D20000100C86001980068806800F007000090EA
:104D30000098062807D0FFE701980168086840F04E
:104D400001000860FFE7002002B0704781B00090CA
:104D500001B0704780B582B0019001980068006989
:104D600000F002010020B0EB510F28D0FFE70198BE
:104D70000068C06800F002010020B0EB510F1DD0A8
:104D8000FFE7019801686FF00200086101990120B6
:104D90000877019800688069800720B1FFE70198D3
:104DA000FFF7D4FF06E0019800F012F9019800F037
:104DB00013F9FFE7019900200877FFE7FFE7019863
:104DC0000068006900F004010020B0EB910F29D0C9
:104DD000FFE701980068C06800F004010020B0EB14
:104DE000910F1ED0FFE7019801686FF00400086181
:104DF00001990220087701980068806910F4407FCB
:104E000004D0FFE70198FFF7A1FF06E0019800F04A
:104E1000DFF8019800F0E0F8FFE70199002008773B
:104E2000FFE7FFE701980068006900F00801002033
:104E3000B0EBD10F28D0FFE701980068C06800F000
:104E400008010020B0EBD10F1DD0FFE701980168E9
:104E50006FF0080008610199042008770198006844
:104E6000C069800720B1FFE70198FFF76FFF06E0F8
:104E7000019800F0ADF8019800F0AEF8FFE7019955
:104E800000200877FFE7FFE701980068006900F05D
:104E900010010020B0EB111F29D0FFE70198006836
:104EA000C06800F010010020B0EB111F1ED0FFE71A
:104EB000019801686FF010000861019908200877D7
:104EC00001980068C06910F4407F04D0FFE70198A2
:104ED000FFF73CFF06E0019800F07AF8019800F037
:104EE0007BF8FFE7019900200877FFE7FFE70198CB
:104EF00000680069C00780B1FFE701980068C068DA
:104F0000C00748B1FFE7019801686FF00100086130
:104F1000019800F065F8FFE7FFE701980068006975
:104F2000C1B20020B0EBD11F13D0FFE70198006899
:104F3000C068C1B20020B0EBD11F09D0FFE70198D3
:104F400001686FF0800008610198FFF7ABFEFFE792
:104F5000FFE701980068006900F040010020B0EB15
:104F6000911F14D0FFE701980068C06800F040016D
:104F70000020B0EB911F09D0FFE7019801686FF0A6
:104F800040000861019800F03DF8FFE7FFE7019855
:104F90000068006900F020010020B0EB511F14D020
:104FA000FFE701980068C06800F020010020B0EB26
:104FB000511F09D0FFE7019801686FF020000861D8
:104FC0000198FFF773FEFFE7FFE702B080BD000026
:104FD00081B0009001B0704781B0009001B070477F
:104FE00080B582B001900198006841F20001C4F2DE
:104FF0000001884203D1FFE700F0E0FAFFE702B0CA
:1050000080BD000081B0009001B0704780B582B0D3
:105010000090009820B9FFE701208DF8070046E0D6
:105020000098806908B1FFE700E0FFE7009890F87A
:10503000450040B9FFE70099002081F8440000983E
:1050400000F03AF8FFE70099242081F84500009825
:105050000168C86820F40050C860009800F0DEFACB
:105060000098006A20B1FFE7009800F0AFFAFFE770
:1050700000980168086920F4904008610098016870
:10508000486920F02A00486100980168C86840F427
:105090000050C860009900208864009A202182F89E
:1050A0004510009A82F846108DF80700FFE79DF83A
:1050B000070002B080BD000081B0009001B07047D1
:1050C00080B58AB008900791ADF81A2005930020AA
:1050D0000290089890F84500202840F0A480FFE74F
:1050E000079820B1FFE7BDF81A0020B9FFE70120BB
:1050F0008DF827009BE008988068B0F5805F0ED19E
:10510000FFE70898006950B9FFE79DF81C00C00749
:1051100020B1FFE701208DF8270088E0FFE7FFE7D7
:10512000089890F84400012804D1FFE702208DF888
:1051300027007CE00899012081F84400FFE7FFE7A1
:105140000899002088640899212081F84500FEF71D
:10515000EBFA0290BDF81A0008990886BDF81A000B
:105160000899488608988068B0F5805F09D1FFE704
:105170000898006928B9FFE7002004900798039079
:1051800004E00798049000200390FFE7FFE70898E9
:10519000408E58B3FFE70898029B05996A46116054
:1051A0008021002200F022FB20B1FFE703208DF8D0
:1051B00027003CE0049858B9FFE7039800886FF394
:1051C0005F2008990968486003980230039008E05E
:1051D00004980078089909684860049801300490A0
:1051E000FFE70899488E01384886D0E70898029B67
:1051F00005996A4611604021002200F0F7FA20B1BB
:10520000FFE703208DF8270011E00899202081F89E
:105210004500FFE70899002081F84400FFE70020DF
:105220008DF8270003E002208DF82700FFE79DF8A6
:1052300027000AB080BD0000FFE7FEE7FFE7FEE7BA
:105240007047000088B0079006910592079800F01B
:10525000070004900498C0F10700042803D3FFE777
:105260000320019004E00498C0F107000190FFE7DB
:105270000198039004980330062803D8FFE7002024
:10528000009003E0049804380090FFE70098029033
:1052900006980399012202FA01F101390840029BA4
:1052A000984005999A40013A1140084308B0704768
:1052B0007047000082B00190019840F20C01C2F2E8
:1052C00000010968C90844F6D352C1F26202A1FB89
:1052D0000221890948430090FFE700BFFFE70098DB
:1052E000411E00910028F8D1FFE702B0704700008E
:1052F0007047000080B584B0029002980138B0F188
:10530000807F03D3FFE7012003901AE00298013861
:105310004EF21401CEF2000108604FF0FF30072179
:10532000019100F0D3FA01994EF21802CEF2000278
:10533000002010604EF21002CEF2000211600390C5
:10534000FFE7039804B080BD80B5FEF7F3F900F0E5
:1053500035F980BD80B5FCF70DFE4EF68851CEF2D2
:105360000001086840F4700008604EF60851CEF263
:1053700000014FF00060086080BD000080B540F281
:10538000E430C2F20000FFF7E5FC80BD83B002907C
:105390000191029800680090029842F60041C4F220
:1053A0000101884225D0FFE70298B0F1804F20D05C
:1053B000FFE7029840F20041C4F20001884218D091
:1053C000FFE7029840F60001C4F20001884210D0C5
:1053D000FFE7029840F60041C4F20001884208D07D
:1053E000FFE7029843F20041C4F2010188420AD16A
:1053F000FFE7009820F07000009001984168009845
:1054000008430090FFE7029842F60041C4F2010110
:10541000884255D0FFE70298B0F1804F50D0FFE7A7
:10542000029840F20041C4F20001884248D0FFE7F0
:10543000029840F60001C4F20001884240D0FFE724
:10544000029840F60041C4F20001884238D0FFE7DC
:10545000029843F20041C4F20101884230D0FFE7D4
:10546000029844F60041C4F20101884228D0FFE7C7
:10547000029845F20001C4F20101884220D0FFE702
:10548000029845F20041C4F20101884218D0FFE7BA
:10549000029841F60001C4F20001884210D0FFE7F3
:1054A000029841F60041C4F20001884208D0FFE7AB
:1054B000029842F20001C4F2000188420AD1FFE7DB
:1054C000009820F4407000900198C168009808434B
:1054D0000090FFE7009820F0800001994969084397
:1054E0000090009802990860019880680299C8624B
:1054F0000198006802998862029842F60041C4F25D
:105500000101884208D0FFE7029843F20041C4F24B
:105510000101884205D1FFE70198006902990863FB
:10552000FFE702990120486103B0704780B582B05F
:105530000020ADF80600FFE7BDF8060040F22C01A0
:10554000C2F200010988884235DAFFE740F2405094
:10555000C2F200000068BDF8061001EB410340F202
:105560003002C2F2000202EB830152F82320801ABB
:105570004968884218D3FFE740F24050C2F2000069
:105580000168BDF8060000EB400240F23000C2F2B4
:10559000000040F82210BDF8061001EB410100EBBD
:1055A000810080688047FFE7FFE7BDF80600013013
:1055B000ADF80600C0E702B080BD000040F24051E7
:1055C000C2F20001086801300860704781B00090A5
:1055D000009890F82000400600281CD5FFE70098AE
:1055E0000068406920F48050009A1168526A1043A4
:1055F00048610098406AB0F5805F0BD1FFE70098E2
:105600000068406920F4C040009A1168926A104313
:105610004861FFE7FFE701B07047000080B584B044
:10562000039003980068006920F44050039A1168C1
:10563000D26810430861039988680A694969104370
:105640000843029003980068C06841F20C618843E7
:105650000299084303990968C86003980068406983
:1056600020F44070039A11689269104348610398CE
:105670000068406920F40060039A1168D269104301
:1056800048610398C069B0F5006F58D1FFE70398EF
:10569000006843F60001C4F20101884227D1FFE708
:1056A000FEF788FD0190019819214843039A11687B
:1056B00052685200B0FBF2FE48F21F53C5F2EB13E2
:1056C000AEFB0320420910014FF0640C02FB1CECFE
:1056D000322202EBCC02A2FB0332F82303EA52137C
:1056E00000EB4300C2F342121044886026E0FEF74C
:1056F0004FFD0190019819214843039A116852689F
:105700005200B0FBF2FE48F21F53C5F2EB13AEFBA2
:105710000320420910014FF0640C02FB1CEC322202
:1057200002EBCC02A2FB0332F82303EA521300EB94
:105730004300C2F3421210448860FFE753E003982D
:10574000006843F60001C4F20101884225D1FFE759
:10575000FEF730FD0190019819214843039A116822
:1057600052689200B0FBF2FC48F21F52C5F2EB12F5
:10577000ACFB02304309642003FB10CC322000EB69
:105780000C10A0FB0202F02000EA521000EB031004
:10579000C2F343121044886024E0FEF7F9FC019044
:1057A000019819214843039A116852689200B0FB8E
:1057B000F2FC48F21F52C5F2EB12ACFB0230430977
:1057C000642003FB10CC322000EB0C10A0FB020283
:1057D000F02000EA521000EB0310C2F34312104411
:1057E0008860FFE7FFE704B080BD000080B586B0A9
:1057F000DDF820C0049003918DF80B200193FFE7A2
:1058000004980068006803990840401AB0FA80F0D4
:1058100040099DF80B1088422ED1FFE7089801300F
:1058200048B3FFE7089840B1FFE7FDF77DFF019916
:10583000401A089988421DD9FFE704980168C86892
:1058400020F4D070C86004980168486920F0010015
:1058500048610499202081F84500049981F84600A8
:10586000FFE70499002081F84400FFE703208DF84A
:10587000170005E0FFE7C3E700208DF81700FFE7FA
:105880009DF8170006B080BDFFE7FEE781B08DF8F8
:1058900003009DF9030000280ED4FFE79DF90310D3
:1058A00001F01F02012090404A094EF20011CEF291
:1058B000000141F82200FFE701B070474EF60C509E
:1058C000CEF200000068C0F30220704782B08DF86D
:1058D000070000919DF9070000280AD4FFE700980F
:1058E00040019DF907104EF20042CEF200028854AA
:1058F0000BE0009840019DF8071001F00F014EF6F3
:105900001452CEF200028854FFE702B07047000044
:1059100083B00290029800F0070000904EF60C5100
:10592000CEF200010868019001984FF6FF02104086
:1059300001900198009A40EA02200022C0F2FA5237
:10594000104301900198086003B07047BFF34F8F78
:105950004EF60C51CEF20001086800F4E06004221B
:10596000C0F2FA5210430860BFF34F8FFFE700BF49
:10597000FDE7000080B590B0FFE741F21800C4F2E7
:105980000200016841F400710160006800F40070D9
:105990000F900F98FFE7FFE741F21400C4F20200F6
:1059A000016841F001010160006800F001000E9003
:1059B0000E98FFE7002003900D900C900B900A903A
:1059C0000990022009904FF440400B9009A8FEF77F
:1059D0008FF9039940F2A030C2F20000049008222F
:1059E000C4F202020260416081608021C1604FF414
:1059F000007101614FF400614161202181614FF428
:105A00000051C161FDF7F2FBFFE740F21C30C2F22A
:105A1000000040F2A031C2F2000141624862FFE79B
:105A200040F21C30C2F20000019042F20041C4F288
:105A30000101016000210291416081604FF4807298
:105A4000C260012202740E22426101764FF460218D
:105A50000162FCF771FE02980890079006900421FD
:105A600008910590FFE705980D2817DCFFE70599D9
:105A700047F2F810C0F6000050F821000690059893
:105A80000130079040F21C30C2F2000006A9FCF77A
:105A900043FDFFE7059801300590E4E740F21C3034
:105AA000C2F20000FCF770FC0B20009001210022E4
:105AB000FDF7BEFE0098FDF7B1FE10B080BD0000FE
:105AC00080B58AB000200990089007900690059054
:105AD000FFE741F23400C4F20200016841F0040122
