:020000040800F2
:10000000B00F002045010008351700082D17000823
:1000100031170008210400085D1E000800000000E0
:10002000000000000000000000000000E1190008CE
:100030003D0400080000000039170008E519000819
:100040005F0100085F0100085F0100085F01000810
:100050005F0100085F0100085F0100085F01000800
:100060005F0100085F0100085F0100082504000827
:10007000310400085F0100085F0100085F0100080B
:100080005F0100085F0100085F010008591E0008B9
:100090005F01000800000000000000005F01000890
:1000A0005F0100085F0100085F0100085F010008B0
:1000B0005F0100085F0100085F0100085F010008A0
:1000C0005F0100085F0100085F0100085F01000890
:1000D0005F0100085F0100085F0100085F01000880
:1000E0005F0100085F010008000000005F010008D8
:1000F0005F0100085F0100085F0100085F01000860
:100100005F0100085F0100085F0100085F0100084F
:100110005F0100085F010008091A00085F0100087C
:100120005F0100085F0100085F0100085F0100082F
:10013000DFF80CD000F03CF800480047D922000856
:10014000B00F00200648804706480047FEE7FEE75C
:10015000FEE7FEE7FEE7FEE7FEE7FEE7FEE7FEE777
:10016000E91900083101000840EA01039B0703D0A8
:1001700009E008C9121F08C0042AFAD203E011F8E6
:10018000013B00F8013B521EF9D27047D2B201E0A8
:1001900000F8012B491EFBD270470022F6E710B58C
:1001A00013460A4604461946FFF7F0FF204610BDE5
:1001B0001CB509480090094801900546009C06E0DE
:1001C000E06840F0010394E8070098471034AC421F
:1001D000F6D3FFF7B1FF0000CC310008EC31000886
:1001E00030B58C1810F8012B12F00F0301D110F864
:1001F000013B120906D110F8012B03E010F8015B56
:1002000001F8015B5B1EF9D101E001F8013B521ED0
:10021000FBD1A142E6D3002030BD00002DE9F04320
:100220009DB00DF12C0942F2140848464821C4F251
:100230000208FFF7B2FF01AC20462821FFF7ADFF0F
:1002400040F22310C4F2675048F80C0C48F6AB108B
:10025000CCF6EF5048F80C0C42F63B20C0F61900E3
:1002600048F8080C46F67F60C4F65D4048F8080C74
:1002700044F25100C5F67F50C8F8780242F263702C
:1002800043F21C06C4F2CE600027C0F60006C8F890
:10029000780208E049F827509A4218BF00F062FC43
:1002A0000137122F0DD056F827006FF0020100BF62
:1002B0000568EB432A0C9BB29342EBD00131F7D394
:1002C000EAE7DDE90B0100226FF31F3061F31B4009
:1002D0009DF83410C0F6FF72CDE90101DDE90E0191
:1002E00002F1805200F00F0061F314401099039066
:1002F00011986FF3DF2102EA004008440490DDE921
:1003000012011A9A6FF3DF2061F31A400590DDE9BC
:1003100014011B9B00F03F0061F3154006901698F6
:10032000189900F03F000790BDF85C006FF31F3391
:1003300040EA0140BDF86410089041EA024009908B
:100340001C9843F2640543F28C0760F31B430020C2
:10035000C0F60005C0F600070A9302E001300A2843
:100360000FD055F820100E6857F8203054F8202090
:100370001E40B242F2D00E6826EA03031A430A6016
:10038000ECE7D8F8EC01002640F00100C8F8EC01D9
:1003900000BF00BF00BF00BF00BF00BF00BF00BF65
:1003A00000BF00BFD8F8EC0120F00100C8F8EC0154
:1003B00055F82600006857F8261054F82620084003
:1003C000824218BF00F0CEFB01360A2EF0D1D8F8D9
:1003D000000040F08040C8F80000D8F8000040F06D
:1003E0000040C8F800001DB0BDE8F08380B582B0C1
:1003F000002001904FF4F0100090694681200822FF
:1004000002F08CF9002808D440F60C30C2F200004B
:100410000121017001780129FCD002B080BD0000EB
:10042000FEE7000040F2CC10C2F2000000F04CB831
:1004300040F6C820C2F2000000F046B87047000045
:1004400041F21802C4F202020068A2F54163984228
:100450004FF6F833CBF6FD730AD218444CF6CD4371
:1004600000F58060CCF6CC43A0FB0303180909E03B
:1004700018444CF6CD43CCF6CC43A0FB0303072035
:1004800000EB131080B581B0136840F2080C43F004
:10049000010313601268C4F2010C02F00102009221
:1004A000009A20F00302182352F80CE003EAC0007F
:1004B0007F2383402EEA030301FA00F0184342F839
:1004C0000C0001B080BD000010B5D0E90FE3D0F8FA
:1004D00000C0DEF80020DCF80010DA4054072DD50B
:1004E00011F004042AD0DCF80010890605D4DCF8E9
:1004F000001021F00401CCF800100422C4F2020222
:1005000002F17C018C454CD940F20841C4F2020151
:100510008C4500F0A98040F21C41C4F202018C45D8
:1005200000F0A68040F23041C4F202018C4540F058
:10053000A3804FF48061C2F80014EAE0940745D527
:1005400011F0020442D0DCF80010890608D4DCF86F
:10055000001021F00A01CCF80010012180F82110D0
:100560000422C4F2020202F17C018C4549D940F216
:100570000841C4F202018C4500F0AB8040F21C41FE
:10058000C4F202018C4500F0A88040F23041C4F270
:1005900002018C4540F0A5804FF40071C2F80014B0
:1005A000C6E04321C4F202018C453EDD6B21C4F25A
:1005B00002018C454BDC4421C4F202018C4500F061
:1005C0009B805821C4F202018C4560E0120740F183
:1005D000B58011F0080108BF10BDDCF8001021F053
:1005E0000E01CCF80010012101FA03F2CEF804202C
:1005F0008163016B4FF480720029028440F08B808C
:100600009CE04321C4F202018C4543DD6B21C4F21E
:1006100002018C4550DC4421C4F202018C457DD09E
:100620005821C4F202018C456EE00821C4F2020197
:100630008C4564D01C21C4F202018C4567D0302166
:10064000C4F202018C4522D14FF4806160E06C213C
:10065000C4F202018C4554D08021C4F202018C45C1
:1006600015D14FF0806153E00421C2F8001450E02E
:100670004021C2F800144CE002F588634FF4802159
:100680009C4508BF4FF48041C2F8001441E04FF48C
:1006900080213DE00821C4F202018C4541D01C219B
:1006A000C4F202018C4541D03021C4F202018C45D4
:1006B0002AD14FF400713AE06C21C4F202018C455A
:1006C00031D08021C4F202018C451DD14FF0007160
:1006D0002DE00221C2F800142AE02021C2F8001403
:1006E00026E002F588634FF400319C4508BF4FF4C3
:1006F0000051C2F800141BE04FF4804108E00421CF
:1007000006E04FF4800103E04FF400310FE0402198
:100710001160C16A91B1BDE8104008474FF4005123
:1007200005E0022103E04FF4001100E020211160F8
:10073000816A0022002980F82020ECD110BD000041
:10074000002804BF012070472DE9F04140F2000C61
:10075000C4F2020C01684FF6F8320CF58163CBF657
:10076000FD72994238BF02F580624CF6CD430A44CF
:10077000CCF6CC43A2FB03236FF003050CF5806499
:1007800005EA9303D0E9012ED0F80C803CBF002489
:10079000C4F20204C0E90F430B6843F6F075AB43A3
:1007A0001A43D0E9045442EA0E0242EA0802D0E9B0
:1007B00006672A43224332433A430A6000214FF43A
:1007C000807281630284BDE8F041084670470000F2
:1007D00090F820C0BCF1010F04BF02207047F0B5B3
:1007E00090F821C04FF0010EBCF1010F80F820E01D
:1007F00023D14FF0020C80F821C04FF0000CC0F85C
:1008000038C0D0E900C4C56AC66BDCF80070102C93
:1008100027F00107CCF80070006C0EFA00F0706051
:100820000846CCF8043004BF10460A46CCF808004D
:10083000CCF80C2035B10E200BE0002180F8201000
:100840000220F0BDDCF8000020F00400CCF800002D
:100850000A20DCF800100843CCF80000DCF80000A7
:1008600040F00100CCF800000020F0BD2DE9F04F71
:1008700082B00E68002E00F0BD8041F2000400F14D
:1008800038428705C4F60004072340F2004C47EACB
:100890009222A04208BF0423C4F2010C042A38BFEC
:1008A000134600224FF0010B00270025009309E0BA
:1008B0000E68013536FA05F307F1040702F102026A
:1008C00000F098800BFA05F816EA080EF0D04C6894
:1008D00044F01004122C12D16FF0030303EA550404
:1008E000044407F01C060F23D4F8209003FA06FAFC
:1008F0000B6929EA0A09B34043EA09032362036842
:100900000324D1F8049094406FEA040AA34309F049
:10091000030494402343B9F1120F036013D80BFA78
:1009200009F313F0061F0ED08368CC6803EA0A03AC
:100930009440234383604368C9F3001423EA080307
:10094000AC4023434360C3688C6803EA0A039440C5
:1009500023435FEAC904C360AAD541F21804C4F274
:10096000020423684FF6144943F00103236023680F
:10097000CFF6FF7903F001030193019B25F00303F8
:10098000634453F8098007F00C060F24B44028EAAA
:100990000408009C04FA06F646EA080443F80940F5
:1009A000DCF800804C6848EA0E06E30358BF28EAEA
:1009B0000E06CCF80060DCF80480A30348EA0E06BB
:1009C00058BF28EA0E06CCF80460DCF80880E30281
:1009D00048EA0E0658BF28EA0E06CCF80860DCF894
:1009E0000C30A40243EA0E0658BF23EA0E06CCF8E8
:1009F0000C605DE702B0BDE8F08F00001823002A0C
:100A000008BF2823C150704740F6A830C2F200004A
:100A10000068704740F2100040F6A831C2F20000B2
:100A2000C2F2000100780A681044086070470000B4
:100A300080B5042000F086F8072000F005F800F0EB
:100A40002BF8002080BD0000B0B540F21002C2F2C9
:100A5000000240F204011278C2F200014FF47A73EE
:100A60000968B3FBF2F20446B1FBF2F1084600F06C
:100A700095FC072C4FF001050CD858B94FF0FF300A
:100A800021460022002500F031F840F21400C2F2A5
:100A9000000004602846B0BD82B041F21800C4F2E4
:100AA0000200016841F001010160016801F00101EB
:100AB00001910199416841F080514160406800F026
:100AC00080500090009802B070470000002848BF96
:100AD000704700F01F01012202FA01F14EF20012EC
:100AE0004009CEF2000242F82010704710B54EF6D1
:100AF0000C5CCEF2000CDCF80030C3F3022E8EF05A
:100B00000704032C28BF0324BEF104034FF0FF3E6B
:100B10000EFA04F438BF0023A14399400EFA03F300
:100B20009A43114300F1604200F00F03490102F5BE
:100B30006442043B6344002848BF03F10C02117077
:100B400010BD00004EF60C51CEF200010A684FF6BF
:100B5000FF031A4060F30A2242F0806040F0FD700B
:100B60000860704701F07CF9002804BF012070473D
:100B70002DE9F04381B042F20008C4F202080446B5
:100B8000D8F800000D4600F00F0088420CD2D8F8CB
:100B9000000020F00F002843C8F80000D8F800003B
:100BA00000F00F00A8427DD1206841F204098107BE
:100BB000C4F2020917D5410705D5D9F8001041F450
:100BC000E061C9F80010010705D5D9F8001041F41B
:100BD0006051C9F80010D9F80010A26821F0F001A6
:100BE0001143C9F80010C00753D1D8F8000000F035
:100BF0000F00A8420CD9D8F8000020F00F002843BD
:100C0000C8F80000D8F8000000F00F00A84249D151
:100C10002068410707D5D9F80010E26821F4E061A7
:100C20001143C9F80010000708D5D9F80000216960
:100C300020F4605040EAC100C9F80000D9F8001063
:100C400001F00C00082841F20020C0F27A0055D1D2
:100C50004FF4400202EAD11201F470131A4443F235
:100C6000B403920CC0F6000341F400319A5C01F425
:100C70004031B1F5403F40D1D9F8001043F2F403C0
:100C8000C1F34041C0F60003595C5043B0FBF1F0A2
:100C900034E06068022809D0012829D159F8041CE1
:100CA000890307D4012001B0BDE8F08359F8041C82
:100CB000C901F7D5D9F8001021F003010843C9F89C
:100CC0000000FFF7A1FE064641F28837D9F8000080
:100CD000616800F00C00B0EB810F3FF486AFFFF7C6
:100CE00093FE801BB842F1D9032001B0BDE8F08328
:100CF00059F8041C8907D5D5DCE75043D9F8001012
:100D000043F2F602C1F30311C0F60002515C40F257
:100D1000040220FA01F140F21400C2F2000000685F
:100D2000C2F200021160FFF78FFE002001B0BDE8A3
:100D3000F083000040F2040041F20401C2F200001E
:100D4000C4F202010068096843F20612C1F30221ED
:100D5000C0F60002515CC8407047000040F2040039
:100D600041F20401C2F20000C4F202010068096805
:100D700043F20612C1F3C221C0F60002515CC84022
:100D800070470000002804BF012070472DE9F041A2
:100D900082B00446007841F20006C007C4F20206A1
:100DA0006CD0706800F00C00042809D13068800312
:100DB00064D56068002861D1012002B0BDE8F081EF
:100DC000706800F00C00082803D17068C003EDD4EF
:100DD00070686068B0F5803F1DD1306820F48030C5
:100DE0003060306820F480203060FFF70DFE05464B
:100DF0003068800309D5FFF707FE401B64284FF0D9
:100E00000300F5D902B0BDE8F081B06BA16820F411
:100E100040700843B06365682DB1B5F5A02F0AD0C6
:100E2000B5F5803F0BD0306820F4803030603068FA
:100E300020F4802006E0306840F480203060306884
:100E400040F480303060FFF7DFFD002D054612D002
:100E50003068800312D4FFF7D7FD401B64284FF0A1
:100E60000300F5D9CEE700BFFFF7CEFD401B642895
:100E70004FF00300C6D830688003F5D4207880078F
:100E800013D5706810F00C0F08D0706800F00C00DB
:100E9000082836D17068C00333D470683068800782
:100EA00003D56069012840F0D6802078C00616D4AA
:100EB0002078000770D5E169706A002948D040F0B9
:100EC00001007062FFF7A0FD054600BF706A800751
:100ED0004FD4FFF799FD401B0228F7D934E0A169F0
:100EE000B06A11B340F01000B062FFF78DFD054607
:100EF000B06A8006DCD4FFF787FD401B0228F7D9D3
:100F000022E061693068002900F0C98040F00100EA
:100F10003060FFF779FD054630688007C5D4FFF7DC
:100F200073FD401B0228F7D90EE020F01000B062DC
:100F3000FFF76AFD054600BFB06A8006B8D5FFF727
:100F400063FD401B0228F7D9032002B0BDE8F08101
:100F500020F001007062FFF757FD0546706A8007B8
:100F60001AD5FFF751FD401B02284FF00300F5D9B9
:100F700048E740F20400C2F20000006844F6D35192
:100F8000C1F26201A0FB0101480A019000BF019873
:100F9000411E00280191F9D12078400719D4256A13
:100FA0009DB1706800F00C00082858D1012D52D076
:100FB0007068616A00F480328A424CD10021C6F226
:100FC0003C01A26A0840904245D1002002B0BDE831
:100FD000F081F0695FEAC00808D4F06940F0805001
:100FE000F061F06900F080500090009847F200072F
:100FF000C4F200073868C00511D4386840F4807026
:101000003860FFF701FD05463868C00507D4FFF7D3
:10101000FBFC401B64284FF00300F5D9F2E6E068C2
:10102000012855D1306A20F001003062306A20F08A
:1010300004003062FFF7E8FC054641F2883700BF44
:10104000306A80073ED5FFF7DFFC401BB8424FF007
:101050000300F5D9D6E6012002B0BDE8F081306882
:1010600020F080703060FFF7CFFC022D05460BD1D9
:10107000306880016AD5FFF7C7FC401B02284FF09B
:101080000300F5D9BEE600BF306880019DD5FFF7AB
:10109000BBFC401B02284FF00300F5D9B2E620F05C
:1010A00001003060FFF7B0FC054600BF30688007E4
:1010B0007FF5FBAEFFF7A8FC401B02284FF00300B2
:1010C000F4D99FE6306A216920F0180008433062A5
:1010D000E5681DB1052D09D0012D0BD0306A20F037
:1010E00001003062306A20F0040006E0306A40F00F
:1010F00004003062306A40F001003062FFF784FC87
:10110000002D054641F2883714D000BF306A8007B1
:1011100013D4FFF779FC401BB8424FF00300F5D918
:1011200070E600BFFFF770FC401BB8424FF00300B1
:101130003FF668AE306A8007F4D4B8F1000F3FF58F
:101140002EAFF06920F08050F06128E770684FF60C
:10115000FF71C9F6C071D4E9092308401043184350
:101160007060306840F080703060FFF74DFC0446DE
:10117000306880013FF529AFFFF746FC001B0228CD
:101180004FF00300F4D93DE670470000002804BF8B
:10119000012070472DE9F04F81B004464068B0F55A
:1011A000827F1CBF0020E06194F8550028B9002020
:1011B00084F85400204600F059F8022084F85500C5
:1011C0002068E2680168B2F5E06F21F0400101603B
:1011D0004FF0000142F400634FF0000C98BF012172
:1011E000B3F5706F18BFC4F828C04FEA013ED4E9C8
:1011F0000131D4E904C503F4827902F4006201F4F8
:1012000004484A440CF0020CD4E90667424405F055
:10121000010A624406F40071236A524407F0380B55
:10122000A56A114403F08003594405F4005719439B
:10123000394301600421626A01EA164102F4004266
:1012400041EA0E0111444160B5F5005F04BFA18D74
:101250000161C16921F40061C16100200121A06523
:1012600084F8551001B0BDE8F08F00007047000011
:1012700070B5044690F85400012804BF022070BDE8
:10128000012084F8540094F85500012855D1002914
:101290004FF0010018BF002A50D0032084F85500F9
:1012A0000020A0652163A286E286A063C4E9110044
:1012B000A087E087A068B0F5004F08D120680268D9
:1012C00022F040020260026842F480420260A06A9A
:1012D000B0F5005F08D12068026822F40052026075
:1012E000026842F400520260E06C41F25D7C41F21F
:1012F000657E41F23D752268C0F6000CC0F6000E16
:10130000C0F600050026C0E90AECC0E90C56E36807
:101310005668B3F5E06F26F4804656601AD84369E4
:10132000B3F5806F16D1E68E5368F6070AD123F421
:1013300080435360E38E5B080BE00220002184F8B9
:10134000541070BD43F480435360E38E012606EBD6
:101350005303E386E38E0C32FFF73AFA38B1A06DFF
:1013600040F01000A065012084F85500E6E72068F1
:101370000168490603D4016841F0400101604168F9
:1013800041F020014160416841F0020141600020CC
:10139000D4E700007047000070470000411E0020A5
:1013A000B0EB116F1CBF012070474EF21002CEF25D
:1013B000000251604EF62351CEF20001E0230B7083
:1013C000072190601160704770470000704700006F
:1013D0007047000010B5044600680169890744BFE2
:1013E000C1685FEA81713FD420680169490744BF41
:1013F000C1685FEA417143D420680169090744BFAD
:10140000C1685FEA017148D420680169C90644BF18
:10141000C1685FEAC1614CD420680169C9071CBF7B
:10142000C1685FEAC17151D120680169090644BFF2
:10143000C1685FEA016150D420680169490644BF70
:10144000C1685FEA41614FD421680869800646BFE0
:10145000C8685FEA806010BD6FF0200220460A6114
:10146000BDE81040FFF7B2BF6FF00201016101213A
:101470002177806980073ED02046FFF7A9FF40E032
:101480006FF00401016102212177806910F4407F2F
:101490003AD02046FFF79CFF3CE06FF00801016165
:1014A00004212177C069800737D02046FFF790FFDD
:1014B00039E06FF01001016108212177C06910F453
:1014C000407F33D02046FFF783FF35E06FF0010106
:1014D0000161204600F038F8A6E76FF08001016155
:1014E0002046FFF771FFA7E76FF04001016120463A
:1014F00000F034F8A8E7204600F022F8204600F07B
:1015000021F8002020776FE7204600F019F82046E8
:1015100000F018F8002020776EE7204600F010F861
:10152000204600F00FF8002020776DE7204600F0FD
:1015300007F8204600F006F8002020776CE700004E
:101540007047000070470000006841F20001C4F2DB
:101550000001884218BF704700F06CBA7047000065
:10156000002804BF0120704710B5044690F84500DC
:1015700028B9002084F84400204600F035F82420E3
:1015800084F845002068C16821F40051C1602046FC
:1015900000F058FA94F82000400610D52068616ADF
:1015A0004269B1F5805F22F4805242EA0102426151
:1015B00005D14169A26A21F4C0411143416120680B
:1015C000016921F490410161416921F02A014161E1
:1015D000C16841F40051C16000202021A06484F85A
:1015E000451084F8461010BD704700002DE9F04307
:1015F00081B0044690F8450020281AD10D460029F4
:101600004FF0010000F08F801746002A00F08B8019
:10161000A0689846B0F5805F07D1E80705D020693B
:1016200018B9012001B0BDE8F08394F84400012806
:1016300003D1022001B0BDE8F083012084F844000A
:101640000020A064212084F84500FFF7DDF92786FB
:101650006786A1688146B1F5805F01D1206910B12C
:101660002E46002500E00026608E60B308F10107D9
:101670000AE000BF96B116F8010B21684860608E41
:1016800001386086608EF0B1206800680006F1D4F1
:10169000BFB1B8F1000F0ED120E000BF35F8020B4A
:1016A00021686FF35F2048600026E8E701680906BB
:1016B000E0D4002FFAD0FFF7A7F9A0EB09004045CE
:1016C0000CD82068F2E720680068400624D4B8F1FE
:1016D000000F03D018F1010510D016E02068C16892
:1016E00021F4D071C160416921F0010141612020E4
:1016F00084F8450084F84600032011E0206800BF0C
:101700000168490608D4002DFAD0FFF77DF9A0EB57
:1017100009004045F2D9E1E7202084F84500002087
:10172000002184F8441001B0BDE8F083FEE700001A
:10173000FEE700007047000070470000406A016843
:101740004A6822F003024A60816D41F01001816510
:10175000012180F85510FFF717BD0000406AFFF720
:101760001BBE0000B0B582B0446A0546FFF74CF9D5
:1017700029680968890642D4054620680022416824
:10178000642321F020014160416821F002014160A1
:1017900020464FF4C051009500F038F880B920463B
:1017A000802100226423009500F0AAF840B9204669
:1017B0004FF4C06100226423009500F027F838B18F
:1017C000A06D40F02000A065A06D40F02000A06555
:1017D000A06838B9002001902068C1680191806834
:1017E000019001980020E086012084F85500A06D4A
:1017F00028B1204602B0BDE8B040FFF7C5BC204686
:1018000002B0BDE8B040FFF7C5BD00002DE9F04FC4
:1018100083B00C9C00251F4691460E4682468DF8EB
:101820000750FFF7F1F8201AC419FFF7EDF840F25E
:101830000401C2F20001096823225143090DDAF8BC
:1018400000B061430291DBF808103140494553D0A4
:10185000804686F4C06040EA0900B0FA80F039465C
:1018600047094D1C06E000BFDAF8000080683040F0
:10187000484516D02FB19BF80C008DF807009DF855
:101880000700002DF0D0FFF7BFF8A0EB0800A04242
:1018900009D202980299002808BF0446481E029007
:1018A000E2E7002528E0DAE900014268B1F5827F2D
:1018B00022F0E00242600BD1DAF80810B1F5004FD7
:1018C00002D0B1F5806F03D1016821F040010160C1
:1018D000DAF82810B1F5005F07D1016821F4005152
:1018E0000160016841F40051016001208AF855004F
:1018F00000208AF854000325284603B0BDE8F08F85
:101900002DE9F04782B00A9C984615460E4681465E
:10191000FFF77AF8201A00EB0804FFF775F840F299
:101920000401C2F200010968C1F3CB3161430191A6
:10193000D9F8001089683140891BB1FA81F1490951
:10194000A94203D1002002B0BDE8F087824608F129
:10195000010709E0D9F8000080683040801BB0FA28
:1019600080F04009A842EDD0002FF3D0FFF74CF8EB
:10197000A0EB0A00A04207D201980199002808BFF5
:101980000446481E0190E5E7D9E900014268B1F537
:10199000827F22F0E00242600BD1D9F80810B1F545
:1019A000004F02D0B1F5806F03D1016821F04001F2
:1019B0000160D9F82810B1F5005F07D1016821F462
:1019C00000510160016841F400510160012089F873
:1019D0005500002089F85400032002B0BDE8F087CC
:1019E00070470000FFF716B880B5FEF717FC4EF6FB
:1019F0008850CEF20000016841F4700101604FF0A0
:101A0000006140F8801C80BD40F21020C2F200004E
:101A1000FFF7E0BC40F2542040F69C31C2F20000D7
:101A2000C2F2000100680A68904214BF0860704763
:101A3000FEF7DCBC40F25420C2F200000168013124
:101A40000160704770B50446006804F108030ECBCE
:101A50000569194325F440552A430261626941F240
:101A60000C631143C2684FF69C769A431143C160E0
:101A70004169A26921F44071114341614169E26900
:101A800021F400611143416143F60001C0F6FF7685
:101A9000B2F5006FC4F2010104D1884207D0FFF70C
:101AA00049F906E0884223D0FFF744F922E0FFF726
:101AB00055F96268192148435100B0FBF1F048F232
:101AC0001F51C5F2EB11A0FB01235A0906F1805307
:101AD00002FB0300322303EBC000A0FB01014FF423
:101AE000F87000EA111000EB0210C1F342111CE083
:101AF000FFF734F96268192148439100B0FBF1F017
:101B000048F21F51C5F2EB11A0FB01235A0902FB59
:101B10000600322303EB0010A0FB0101F02000EAD5
:101B2000511000EB0210C1F3431108442168886092
:101B300070BD00002DE9F04F83B045F60E48C4F2A9
:101B4000000818F80A5C18F8084C18F8090C40F25C
:101B50006026019098F80000C2F200060290680723
:101B600019D530464FF4C071FEF717FB4020706066
:101B700000F054FF18F80D0C40F6A03140F00100C1
:101B800008F80D0C012008F8040C0020C2F2000136
:101B900008F8050C0870A80748BF00F06BFFE807BD
:101BA00018BF00F07BFF18F8040C00EA04095FEA94
:101BB000C97038D0002188F8001098F80200420758
:101BC00024D4C10608D5802188F8021040F6A0313F
:101BD000C2F2000100220A70317821B1317808F890
:101BE0000E1C0021317040F6A031C2F200010A78CB
:101BF000062A16D8DFE812F0D80019011500F00007
:101C0000070007001401002008700AE098F802009D
:101C100000F0FB0088F8020040F6A030C2F200009D
:101C2000017009F0FE09B9F1000F5FD04FF0010B10
:101C3000012411E0DCF8381044F08000C0B200F05C
:101C400081FE40F2602629EA0A09C2F20006B9F1D3
:101C5000000F04F1010449D0E0B20BFA00FA1AEACD
:101C6000090FF4D088F8004098F80710490705D507
:101C700098F8071001F0FB0188F8071000EB8001CD
:101C800006EB810C634653F8302F1E4656F8045F6E
:101C900033F8081C03F108078D4209D902EB010E45
:101CA0003A68C3F800E00A443A606B1A08E000BFE3
:101CB00002EB050E3A68C3F800E02A4400233A60BC
:101CC000002B3360B6D08B4238BF194659B1DCF8CF
:101CD000303008F11202013B13F8017F01390E0484
:101CE00002F82070F8D188F807B0AAE718F8050CB8
:101CF000019910EA010A51D04FF0010908F11207C9
:101D000001260EE018F8052C22EA0B0208F8052C33
:101D100000F050FE2AEA0B0ABAF1000F06F10106A4
:101D20003CD0F0B209FA00FB1BEA0A0FF4D088F8A5
:101D3000006098F80B10C907ECD040F26022B8F8A8
:101D40000E3000EB8001C2F2000202EB810E0EF1B8
:101D5000D00C53B1DCF800101A46013917F82040B6
:101D6000013A150401F8014FF8D1DCF800100EF12A
:101D7000C8051944CCF80010DEE935212D88194436
:101D8000D41AAB42CEE93541BCD39A42BAD098F8C6
:101D90000B0000F0FE0088F80B00BBE7029888F803
:101DA000000003B0BDE8F08FC0073FF43AAF98F8E9
:101DB000030008287FF435AF06F11F00082100BF9B
:101DC00098F8122001390B0400F8012FF8D106F120
:101DD000200000F069FD24E7C0073FF422AF98F827
:101DE000030050B1D6F8D0100246013998F81230ED
:101DF000013A170401F8013FF8D106F1D0030ECBE8
:101E0000B6F8C8700144C6F8D01019188742C6F851
:101E1000D8101CD891421AD0402088F8020000E760
:101E20008020002100F08EFDFBE6D6E90D01328D09
:101E3000904203D91144B163801A02E00844B063B0
:101E40000020B16B7063802000F07CFDE9E600208B
:101E500000F0B0FDE5E60000FFF76CBEFEE7000015
:101E60004EF60C50BFF34F8FCEF2000001680422F3
:101E700001F4E061C0F2FA5211430160BFF34F8FE9
:101E800000BFFDE710B586B000200590CDE9030046
:101E9000CDE9010041F23400C4F20200016840F2D1
:101EA000004441F0080101600068C4F6000400F03D
:101EB0000800009000984FF48040019001200290AB
:101EC0000320049001A92046FEF7D0FC20464FF4E1
:101ED00080410022FEF792FD06B010BD024640F29E
:101EE0000040C4F600004FF48041FEF787BD0000BB
:101EF000B0B586B0002541F214000595CDE9035533
:101F0000CDE90155C4F20200016A41F00801016205
:101F1000016A01F0080100910099816841F4804153
:101F20008160816801F4804100910099016841F06D
:101F300001010160006800F0010000900098FFF7C7
:101F4000A1FF4FF400400190022002900320CDE950
:101F5000040040F20040C4F6000001A9FEF786FC30
:101F600040F6C8241C20C2F20004C4F20200102172
:101F700080224FF4005384E823002046C4E903255F
:101F8000C4E90555E361FEF7DBFB40F6103043F68C
:101F90000001C2F20000C4F200014FF482724FF45B
:101FA000E06380E8260000F11401C46460624FF42D
:101FB000007C05624FF0180EC0E9033581E820501F
:101FC000FFF7E4F820460821FEF73AFA0C20012139
:101FD0000022FEF78BFD0C20FEF778FD06B0B0BDA9
:101FE00040F61032C2F2000292F85530012B1CBFAD
:101FF000022070470A46014640F61030C2F2000047
:10200000FFF736B9F0B587B0002641F21801069601
:10201000CDE90466CDE90266C4F202010A6804460D
:1020200042F480420A600A68022702F48042019268
:10203000019ACA6902AD42F00402CA61C96901F09D
:102040000400019001984FF4007002900120049068
:102050000320CDE905074FF0904029460397FEF78E
:1020600005FC4FF4806002904FF09040294606979F
:10207000FEF7FCFB40F2801043F60001C2F20000C4
:10208000C4F20101082280E85200C0E90366C0E9F9
:102090000526C0E90766FFF763FA00B1FEE707B05F
:1020A000F0BD000080B582B0019040F28010C2F215
:1020B000000001A901224FF47A73FFF797FA019803
:1020C00002B080BD70B582B01646024640780D461B
:1020D000411E0A294FF0FF3032D89488DFE801F022
:1020E000060D1230303030301A242B005188E0B207
:1020F0000A0AC9B200F066FF07E09178E0B200F08A
:1021000059FF02E0E0B200F05BFF2968087001208F
:10211000306014E051882B6836780A0AE0B2C9B200
:10212000009600F059FF0AE05188E0B20A0AC9B2ED
:1021300000F04AFF03E09178E0B200F04BFF00208E
:1021400002B070BD80B543F20E10C0F6000000F082
:102150007BF940F6703043F2C31143F28312C2F2AE
:102160000000C0F60001C0F60002402300F0AAFC07
:1021700000F050F940F20800C2F2000000F036F919
:10218000BDE8804000F0B6BCF0B581B040F29844A4
:10219000C2F2000420464FF4C661FDF7FEFF40F294
:1021A000E037C2F200073846B721FDF7F6FF0020FE
:1021B00000EB4002B9184B78002500BF03FA05F682
:1021C00036066FF0070658BF6FF01F0666550135DB
:1021D000082DF3D1BA5C002302FA03F636066FF03D
:1021E000070604EB030503F1010358BF6FF01F0658
:1021F000082B2E72F0D18978002200BF01FA02F379
:102200001B066FF0070304EB020602F1010258BF40
:102210006FF01F03082A3374F0D101303D2804F118
:102220001804C5D1012001B0BDE8F040FFF756BE4B
:1022300070B540F2984340F2E03E4FF0000CC2F21D
:102240000003C2F2000E00BF0CEB4C040EEB0405C1
:102250000EF8040000246970AA7000BF01FA04F5AA
:102260002D066FF0070558BF6FF01F051D5501348F
:10227000082CF3D1002400BF00FA04F52D066FF0FE
:10228000070503EB040604F1010458BF6FF01F05B6
:10229000082C3572F0D1002402FA04F52D066FF0F7
:1022A000070503EB040604F1010458BF6FF01F0596
:1022B000082C3574F0D10CF1010CBCF13D0F03F189
:1022C000180308BF70BDBFE740F29840C2F200009B
:1022D0004FF4C661FFF784BE90B0FEF7A9FB05ACD2
:1022E00020462C21FDF759FF1F2005904FF4803028
:1022F000022606904FF40071CDE90D604FF00050BA
:1023000000250791102101220F9020460495CDE968
:102310000255CDE900550B910A92CDE908510C9573
:10232000FEF730FD08B100BFFEE70F20CDE9000643
:1023300068460621CDE902550495FEF715FC00B16B
:10234000FEE74FF4E130FFF75DFEFFF7D1FDFFF749
:102350001BFF18A000F050FE002000210022FFF714
:1023600067FFFFF7B1FF41F21800C4F202000168F5
:1023700041F001010160016801F001010591059939
:10238000016941F000410161416841F4000141608F
:10239000406800F4000005900598FFF7D3FE4EF268
:1023A0000010CEF200004FF400210160FFF732FB75
:1023B000FCE700BF696E69745F737563636573736F
:1023C0000D00000080B500F00FF845F60041C4F2A2
:1023D0000001002207208A730A70087201208872A7
:1023E00000204A7280BD00007047000090F9001084
:1023F00040F2180301F07F02C2F20003406803EBD1
:10240000820202F59E73002948BF02F58E731860A0
:102410007047000040F2180CC2F2000C9CF85E21DC
:1024200040F6A433C2F2000380F8202019461B684E
:10243000002BFBD1086000210160501C8CF85E016C
:10244000704700007047000040F21801C2F200011E
:102450008861002081F85E017047000040F6AC30D2
:10246000C2F20000012101707047000045F61041E2
:10247000C4F2000143B211F8022C00F07F00002BDF
:1024800001F8020C09D490B1487A00F09F0048721C
:10249000487A40F0800048720DE040B1487900F081
:1024A000CF004871487940F04000487103E0087857
:1024B00000F0FB000870002001F8022C70470000BB
:1024C0000020704745F60E42C4F2000292F800C0A8
:1024D00010F07F0313700ED040B20723B0F1FF3F1E
:1024E000C8BF0B23D05C4FF00403C8BF0523D840FE
:1024F00000F0010000E000200870002082F800C019
:1025000070470000027812F07F0341D0072B84BF90
:102510004FF0FF307047B0B545F60E44C4F20004EA
:1025200094F800C0237051B2428840F2602E002916
:10253000C2F2000E3FD403EB830140780EEB810121
:1025400081F8CA000138B0FA80F040090123800107
:10255000A1F8C82081F8CC30A072E07A0723C00728
:102560006FF06F0008BF6FF07F00E072082A98BF1D
:102570000822501EC108072938BFC308013300BF15
:10258000402A48D93728FBD901230020237347E08C
:1025900040F26021C2F20001402200200123A1F894
:1025A000C82081F8CA0081F8CC300A8581F82A0059
:1025B00081F82C30704703EB830140780EEB8101EA
:1025C00001250A8581F82A0081F82C5014F8041C92
:1025D00005FA03F3194304F8041C2021012808BF5D
:1025E0006021A171E079072380074FF0480058BFB0
:1025F0004020E071082A98BF0822501EC108072910
:1026000038BFC308013300BF402A07D93728FBD998
:102610000123002003E0D800237301E0D8002372D7
:10262000DEF804100844CEF80400002084F800C04E
:10263000B0BD000045F61041C4F2000143B211F8EC
:10264000022C00F07F00002B01F8020C05D450B1E1
:10265000487A40F0200048720FE020B1487940F0FD
:102660001000487109E040F6A030C2F200000723D4
:102670000370087840F060000870002001F8022C18
:102680007047000021B9002A1CBF4FF0FF3070478F
:1026900010B500F07F0440F2602304EB8400C2F226
:1026A000000303EB800090F8CC30DBB145F60E4E12
:1026B000C4F2000E9EF800C000238EF80040C0E96E
:1026C0003412C0F8D83084B101201EF8051CA04097
:1026D00008430EF8050C9EF80B0000F0FE008EF883
:1026E0000B0016E06FF0010010BD40F6A031C2F201
:1026F00000010878062818BF012801D1052007E04D
:1027000038B99EF8020040F040008EF80200032025
:10271000087000208EF800C010BD000021B9002A0A
:102720001CBF4FF0FF30704770B500F07F0040F2E3
:10273000602500EB8003C2F2000505EB830393F8EC
:102740002C501DB345F61046C4F2000616F802CC14
:1027500006F8020C7479E4071BD103F12804002564
:10276000C3E90C129D63C8B1002A4CD0248894425E
:102770003DD2002C47D006F11002013911F8013F7B
:10278000013C250402F82030F8D13CE06FF0010054
:1027900070BD6FF0020006F802CC70BD40F6A03E9E
:1027A000C2F2000E9EF80030032B32D0012B36D03F
:1027B0005BBB72B3402333702488944206D340F647
:1027C000AC33C2F200031B78002B4FD04CB106F1A2
:1027D0001002013911F8013F013C250402F82030B4
:1027E000F8D10220307001208EF800000DE01304B3
:1027F00009D006F11003013911F8015F013A140400
:1028000003F82050F8D101207071002006F802CCA6
:1028100070BD4820307004208EF80000F5E7BAB192
:102820002488944205D340F6AC33C2F200031B78EF
:1028300053B354B106F11002013900BF11F8013F42
:10284000013C250402F82030F8D102203070DCE78A
:1028500040F6AC31C2F20001002008700A2131704C
:1028600006218EF8001006F802CC70BD130409D0C2
:1028700006F11003013911F8014F013A150403F86C
:102880002040F8D10A20ADE7130409D006F1100367
:10289000013911F8015F013A140403F82050F8D10E
:1028A0000A203070B1E70000F0B581B001684068DF
:1028B00040F21805C2F20005C5E90010EA8848B2E6
:1028C000B2F5807F01D9002836D505F11C0400211E
:1028D000C5E902422A61297542B1002806D40020C8
:1028E000214601B0BDE8F040FFF7CCBE00F014F97E
:1028F00010B32E69EF88A968BE423A4638BF324607
:102900008807EA6008D0B2F5807F84BF01B0F0BDCF
:102910002046FDF729FCAC60B00605D1BE4203D2CB
:1029200001202875FFF79AFDD5E90212802001B039
:10293000BDE8F040FFF7F2BE802001B0BDE8F040F6
:10294000FFF778BE802815D140F2180CC2F2000CB7
:10295000DCE902024318521ACCE9023216D19CF883
:102960001400B8B100238020002100228CF814301C
:10297000FFF7D4BE40F2180300F07F02C2F200035A
:1029800003EB8202D2F81C2192B110478020194635
:10299000FFF7C4BEBCF8060050B19CF90000B0F1CE
:1029A000FF3FC8BF7047002000210022FFF76ABE2A
:1029B0007047000058B140F2180300F07F02C2F2E5
:1029C000000303EB8202D2F83C210AB3104700292E
:1029D00008BF704740F2180CC2F2000CDCE902207C
:1029E0005318421ACCE9023213D180B50CF11C0005
:1029F000CCF8080000F090F80028BDE880404FF0C7
:102A0000800008BFFFF716BE00210022FFF786BE38
:102A1000704700201946FFF735BE0000B0B582B000
:102A20000020002500F068F840F21800C2F2000013
:102A3000A0F85C518020C0F2400001AC019020461B
:102A4000FFF760FD20468DF80450FFF75BFD40F670
:102A5000A430C2F20000046801E000BF246834B171
:102A60002269002AFAD0012000219047F6E702B03F
:102A7000B0BD000010B540F6A430C2F200000468FA
:102A800001E000BF2468002C08BF10BD2269002AA5
:102A9000F8D0062000219047F4E7000010B540F67A
:102AA000A430C2F20000046801E000BF2468002CDA
:102AB00008BF10BD2269002AF8D0052000219047E8
:102AC000F4E7000080B542F2C50CC0F6000C4FF0F0
:102AD000000EC0E901CE00F1140CC0E903EE8CE851
:102AE0000E0080BD40F60C30C2F2000000210170E3
:102AF00070470000FFF766BC014628B945F6004064
:102B0000C4F200000022027040F26022C2F2000211
:102B100000201170704700002DE9F04F83B040F2A3
:102B20001804C2F20004207800F06001402927D088
:102B300020293AD0002940F02B8200F0030002281F
:102B400000F0AC80012800F0C380002840F0208213
:102B500060780025092800F21C82B4F80290DFE8B2
:102B600010F0D100D4011802D40118020A00EF00BD
:102B7000180206010A015FFA89F0FFF7BDFFC4E100
:102B800040F69430C2F20000006898B36178427950
:102B9000914241D1A188052900F0BB80042940F071
:102BA000F78181688089A160B0E100F0030001280D
:102BB0004FD002286AD140F6A437C2F2000704F1D0
:102BC000080504F1100602E00121002960D03F68E9
:102BD000002F5BD0BB68002BF6D097F820106279ED
:102BE0008A42F1D1204629463246984700210029E1
:102BF000EDD14DE040F69830C2F20000006858B1C7
:102C000061788279914207D1A188072940F0C0817B
:102C100001688088A16079E140F6A430C2F200002A
:102C20000768002F00F0B48104F1080504F11006D4
:102C300004E000BF3F68002F00F0AA81FB68002B72
:102C4000F8D020462946324698470028F2D101257F
:102C50009FE140F6A437C2F2000704F1080504F131
:102C6000100601E0012199B13F687FB17B68002B1C
:102C7000F8D097F8201022799142F3D120462946C6
:102C80003246984700210029EED101E04FF0FF3095
:102C90000025B0F1FF3FC8BF01257AE194F85D013E
:102CA000002800F075816178A088032935D00129BA
:102CB0003FD0002940F06C81C0B20DF10B01FFF74D
:102CC00001FC9DF80B00A1680870A06800211DE0C0
:102CD00094F85D01002800F05B81627800250B2AE2
:102CE00000F257816188A088DFE812F00C005301E0
:102CF0005301530153015301880053015301530100
:102D0000A200A800A06800210170A0684170022004
:102D1000FCE00169808AA160F8E06188B1FA81F283
:102D20004FEA521511B9C0B2FFF784FC00202061B0
:102D30002FE16188002900F0EC800025256128E161
:102D40004FEA192003285FFA89F108BFEE2900F045
:102D5000E5800F2840F0EC8040F25020C2F20000E5
:102D60000068002800F01581D0E900015CE004F261
:102D70005D10A0605FE0A7693878002800F0C0808F
:102D8000FF2500265FFA89FB0DF102084FF0FF0ACC
:102D900007E097F803A03878395C0744002900F071
:102DA0009580787805280BD00428F2D00228F2D13B
:102DB0007D79A5EB0B00B0FA80F040090643EAE705
:102DC000E8B2584508BFBAF1000F03D0B878FFF752
:102DD00077FBE0E7B878F9788DF80200B8886FF3F0
:102DE000DF20ADF8040001F003008DF80300404639
:102DF000FFF788FBB0FA80F04609CCE7090A2129E1
:102E000000F0B780222940F0C480C1B240F6A4305F
:102E1000C2F200000068002800F0BA8090F820207C
:102E20008A42F7D1D0E90601A06021610125B0E016
:102E3000A0680021017001252561AAE0A7693A7800
:102E4000AAB35FFA80FA5FFA81F9FF260DF106084E
:102E50004FF0FF0B13E0B878F9788DF80600B888CA
:102E60006FF3DF20ADF8080001F003008DF80700D4
:102E70004046FFF747FB3878395C0744B9B17878AA
:102E800005280CD00428F6D1BE7897F803B086EA5E
:102E90000A008BEA0901084308BF3D46EBE75645A7
:102EA000E9D1CB45D7D0B878FFF70AFBE3E740F686
:102EB000A430C2F20000066800E036682EB3326922
:102EC000002AFAD0082029469047F6E7F00717D0E5
:102ED00040F6A430C2F200000568012084F85D913C
:102EE00084F85C012DB9FFF7ADFA0EE02D68002DD6
:102EF000F9D02A69002AF9D0072000219047F5E788
:102F0000002084F85D9184F85C0100202061012597
:102F10003FE0C0B2FFF7AAFA01253AE040F694304C
:102F2000C2F200000068A0B301680079A160EDE77B
:102F30004FEA5922022A2CD809F47E42B2F5806F5A
:102F400027D0A2691378002B1D4618BF012520D079
:102F5000002707E0D618D35C3246002B1D4618BF69
:102F6000012516D05678B042F4D18F4216D00137E1
:102F7000F0E7C1B240F6A430C2F20000006838B1F8
:102F800090F820208A42F9D14069A0600920BDE76D
:102F9000002505F0010003B0BDE8F08FE907F8D087
:102FA0000228A26002D150882061F2E710782061E7
:102FB000EFE7000040F66C30C2F200000078704786
:102FC000002070470020704740F66C30C2F20000CD
:102FD0000270704770470000704702E008C8121F77
:102FE00008C1002AFAD170477047002001E001C1F2
:102FF000121F002AFBD1704710B5044601E0FFF70D
:1030000051F814F8010B04490028F8D1BDE810402C
:103010000A20FFF747B80000000000201051FF1FF2
:103020001451FF1F1851FF1F4851FF1F4C51FF1F24
:103030000056FF1F0456FF1F0052FF1F0452FF1FC0
:103040004051FF1F4451FF1F0852FF1F2051FF1F17
:103050002451FF1F2851FF1F2C51FF1F3051FF1F0C
:103060003451FF1F082202400C220240202202405D
:1030700028220240242202401C2202402C2202402C
:10308000102202401422024018220240FF0FFF0FBC
:10309000FF0000000F001F00FF07FF1FFF07FF07D3
:1030A0003F003F003F000000FFFFFFFFFFFFFFFF6B
:1030B000FF0FFF0F02030405060708090A0B0C0D9A
:1030C0000E0F101112131415161718191A1B1C1DA8
:1030D0001E1F202122232425262728292A2B2C2D98
:1030E0002E2F303132333435363738393A3B3C3D88
:1030F0003E3F3F3F010200000000000000000102CF
:10310000030406070809000000000102030412017D
:10311000000200000040B736FFFF02000102030179
:1031200009022200010100803209040000010300AD
:103130000100092111010001224000070581030857
:10314000000A040309040A03500055005900410015
:103150001C03500055005900410020004800490060
:1031600044002000440045004D004F00160332008B
:1031700030003200320031003200330034003500BC
:1031800036000005010906A101050719E029E71528
:1031900000250175019508810295017508810305D7
:1031A000081901290595057501910295017503918D
:1031B0000395067508150026FF0005071900296408
:1031C0008100C009211101000122400000320008E5
:1031D0000000002080010000E0010008203200080B
:1031E00080010020300E0000EA2F000800000000DF
:1031F00000000000000000000000000000000000CF
:103200006145127A008146E52A00080102FF0801A3
:103210006E00000000000000000000000000000040
:0400000508000131BD
:00000001FF
