:020000040800F2
:10000000A013002045010008C1260008B9260008F9
:10001000BD26000829060008F92B00080000000092
:10002000000000000000000000000000ED260008B5
:10003000B907000800000000C3260008EF260008EA
:100040005F0100085F0100085F0100085F01000810
:100050005F0100085F0100085F0100085F01000800
:100060005F0100085F0100085F0100082D0600081D
:10007000A90700085F0100085F0100085F01000890
:100080005F0100085F0100085F010008F12B000814
:100090005F01000800000000000000005F01000890
:1000A0005F0100085F0100085F0100085F010008B0
:1000B0005F0100085F0100085F0100085F010008A0
:1000C0005F0100085F0100085F0100085F01000890
:1000D0005F0100085F0100085F0100085F01000880
:1000E0005F0100085F010008000000005F010008D8
:1000F0005F0100085F0100085F0100085F01000860
:100100005F0100085F0100085F0100085F0100084F
:100110005F0100085F0100081D2700085F0100085B
:100120005F0100085F0100085F0100085F0100082F
:10013000DFF80CD000F06EF80048004721350008C9
:10014000A01300200648804706480047FEE7FEE768
:10015000FEE7FEE7FEE7FEE7FEE7FEE7FEE7FEE777
:10016000F92600083101000840EA01039B0703D08B
:1001700009E008C9121F08C0042AFAD203E011F8E6
:10018000013B00F8013B521EF9D27047D2B201E0A8
:1001900000F8012B491EFBD270470022F6E710B58C
:1001A00013460A4604461946FFF7F0FF204610BDE5
:1001B0002DE9F05F0546002092469B46884606469C
:1001C000814640241BE0284641464746224600F02F
:1001D00042F853465A46C01A914110D31146184668
:1001E000224600F029F82D1A67EB01084F462246F7
:1001F0000120002100F020F817EB00094E41201EDD
:10020000A4F10104DFDC484631462A464346BDE8F6
:10021000F09F0000064C074D06E0E06840F0010347
:1002200094E8070098471034AC42F6D3FFF784FFF8
:10023000E447000804480008202A04DB203A00FABA
:1002400002F1002070479140C2F1200320FA03F32D
:10025000194390407047202A04DB203A21FA02F02B
:100260000021704721FA02F3D040C2F120029140F0
:1002700008431946704730B58C1810F8012B12F05E
:100280000F0301D110F8013B120906D110F8012B20
:1002900003E010F8015B01F8015B5B1EF9D101E09E
:1002A00001F8013B521EFBD1A142E6D3002030BD34
:1002B00070B5044600252068806800F00100F0B1A8
:1002C0002068806820F001002168886001F0B6F89D
:1002D00005460EE001F0B2F8401B022809D9E06A99
:1002E00040F01000E062206B40F00100206301202C
:1002F00070BD2068806800F001000028EAD100206D
:10030000F6E7000010B598B00020159016901790F1
:1003100000BF2348806940F4007021498861084685
:10032000806900F40070019000BF00BF142110A884
:10033000FFF733FF022010901A48129010A801F026
:10034000D9FA194819490860002048600021174867
:1003500081604FF48071C160002101740E21416100
:100360000904016200F0DEFB3822114902A8FFF700
:10037000FBFE0120179000240BE002A850F8240097
:100380001590601C169015A9084800F01BFB601C16
:10039000C4B20E2CF1DB054800F082FA18B010BD93
:1003A0000010024000400010002401409401002091
:1003B000AC47000800BFFEE710B501F009F910BD19
:1003C00070B5C2B04822734930A8FFF7CDFE48216E
:1003D0001EA8FFF7E2FE28226E49483114A8FFF755
:1003E000C3FE28226B4970310AA8FFF7BDFE282101
:1003F0006846FFF7D2FE00240026002566486749BC
:100400008860674888606748C8606748C860674810
:100410006749086067486149C1F88C0200BF16E06F
:10042000032600BF30A850F824000568E84380B2D6
:10043000B0EB154F03D11EA840F8245002E0701E07
:10044000061EEFD100BF0EB9FFF7B6FF641C122CD9
:10045000E6D31E98C0F30B001F99C1F30B0140EACD
:10046000014000902098C0B20190219800F00F0048
:10047000229901F01F0140EA014002902398C0F345
:100480000A002499C1F30C0140EA01400390259829
:10049000C0F30A002699C1F30A0140EA0140049022
:1004A000279800F03F00289901F03F0140EA014001
:1004B0000590299800F03F000690DDE92A0161F3DC
:1004C0001F400790DDE92C0161F31F4008902E9832
:1004D000C0F30B002F99C1F30B0140EA01400990D2
:1004E00000241BE014A850F8240005685DF82410CF
:1004F0000AA850F82400284081420ED014A850F8D1
:10050000240000680AA951F8241088435DF82410DB
:10051000084314A951F824100860641C0A2CE1D384
:1005200023488C38006840F001001C49C1F80002E3
:1005300000BF00BF00BF00BF00BF00BF00BF00BFC3
:1005400000BF00BF1548D0F8000220F00100134999
:10055000C1F8000200240EE014A850F82400056839
:100560005DF824100AA850F824002840814201D0E8
:10057000FFF722FF641C0A2CEED30848406940F0C4
:100580008040064948610846406940F000404861A3
:1005900042B070BDCC4600082301674500200240F0
:1005A000AB89EFCD3B2A19087F6E5D4C51407F5DD2
:1005B0008C2202406327CE4600B591B02C2106A8BC
:1005C000FFF7EBFD142101A8FFF7E7FD1F200690C0
:1005D0004FF480300790C011089010200C9001203B
:1005E0000B900020099010200A9000200D9002200E
:1005F0000E90C1030F910107109106A801F084FB32
:1006000008B1FFF7D7FE0F200190022002900020D2
:10061000039004900590062101A801F029FA08B181
:10062000FFF7C8FE11B000BD00BFFEE700B5574898
:10063000006800F00200002861D00F205349486094
:100640000846806820F00100886088154FF09041CE
:1006500088614FF470704E490860002010E04D4AE8
:100660001278C2EBC2024C4B03EB820202EB400158
:100670000A884A4B33F810301A440A80411CC8B229
:100680000E28ECDB43480078401C424908700520E6
:1006900000F093F83F480078052831DA3D480078AB
:1006A00028B94FF480704FF09041886222E03948B9
:1006B0000078012804D1400235491031086019E062
:1006C00034480078022804D1C00131491031086053
:1006D00010E030480078032804D180202C491031E4
:1006E000086007E02B480078042803D140202849FF
:1006F000103108600A2000F060F802F015FD43E0B8
:1007000000202449087026480078401C24490870BD
:10071000052000F052F822480078032831DA1D48FD
:10072000007828B94FF480704FF09041886222E041
:1007300018480078012804D140021549103108609A
:1007400019E014480078022804D1C0011049103182
:10075000086010E00F480078032804D180200C497D
:100760001031086007E00B480078042803D14020CE
:100770000749103108600A2000F01FF802F0D4FC8D
:1007800002E001200749087000BD0000000002409F
:100790001808004804000020280200200C02002055
:1007A000060000200500002010B5024800F04AFBBA
:1007B00010BD000058060020704708B50AE00F2160
:1007C000009100E000BF9DF800104A1ED2B20092D6
:1007D0000029F7D1011EA0F10100F0D108BD0000F1
:1007E00000B587B000BF2B48406B40F0040029499A
:1007F00048630846406B00F00400019000BF00BF52
:1008000000BF0846406B40F0080048630846406B54
:1008100000F00800019000BF00BF00BF0846406B19
:1008200040F0100048630846406B00F01000019053
:1008300000BF00BF142102A8FFF7AFFC4FF4707097
:10084000029001200390002004900320059002A94B
:10085000114800F009FD4FF48070029002A94FF09A
:10086000904000F001FDFF2002900320039002A9B8
:100870004FF0904000F0F8FC0320029002A90748D6
:1008800000F0F2FC0F20029002A9034800F0ECFCFB
:1008900007B000BD001002400008004800040048F6
:1008A000F8B5044600260020009000BF94F8280008
:1008B000012801D10220F8BD012084F8280000BFE2
:1008C0002046FFF7F5FC0646002E71D1E06A20F4C1
:1008D000885040F00200E062022000F08FFE3849AC
:1008E0000968B1FBF0F04000009002E00098401E63
:1008F000009000980028F9D12068806800F001007D
:1009000060B1E06A20F0020040F01000E06200BF39
:10091000002084F8280000BF0120CCE72068806810
:1009200040F008002168886000F088FD054611E06D
:1009300000F084FD401B0A280CD9E06A20F0020078
:1009400040F01000E06200BF002084F8280000BFE3
:100950000120B0E72068806800F008000028E7D197
:100960002068806840F004002168886000F066FD1F
:10097000054611E000F062FD401B0A280CD9E06A30
:1009800020F0020040F01000E06200BF002084F878
:10099000280000BF01208EE72068806800F0040076
:1009A0000028E7D1E06A20F0020040F00100E06298
:1009B00000BF002084F8280000BF30467BE700001D
:1009C0000000002038B5024600230020009000BF40
:1009D00092F82800012801D1022038BD012082F8B8
:1009E000280000BF4868072812D21068406B0C79B5
:1009F000641E04EB84051F24AC40A0430D796D1EDA
:100A000005EB85050C68AC4020431468606327E063
:100A100048680D2812D21068006B0C79E41F04EBB3
:100A200084051F24AC40A0430D79ED1F05EB85051F
:100A30000C68AC4020431468206311E01068C06A61
:100A40000C790D3C04EB84051F24AC40A0430D79C8
:100A50000D3D05EB85050C68AC4020431468E06251
:100A600008680A2812D31068C0680C780A3C04EBA6
:100A700044050724AC40A0430D780A3D05EB45052D
:100A80008C68AC4020431468E0600FE01068006997
:100A90000C7804EB44050724AC40A0430D7805EB2B
:100AA00045058C68AC402043146820610868102814
:100AB00002D00868112827D1174C1068A0421ED117
:100AC0001068806800F40000F0B91068806840F495
:100AD00000001468A0600868102815D10F4800684D
:100AE0000F4CB0FBF4F000EB80004000009002E0FF
:100AF0000098401E009000980028F9D104E0D06AC8
:100B000040F02000D062012300BF002082F82800BE
:100B100000BF184661E700000024014000000020EB
:100B200040420F002DE9F041044600270025002631
:100B3000A84614B90120BDE8F081E06808B9207E1C
:100B400000B100BF207E00B100BFE06A30B90020D4
:100B5000206384F82800204600F09EF82046FFF726
:100B6000A7FB0746E06A00F01000002878D1002FAC
:100B7000FCD1E06A20F4885040F00200E062424A72
:100B8000A1682068904208D1206AB0F5002F02D1F8
:100B90004FF4002002E0206A00E0206A0143207C3C
:100BA00041EA40000643E068B0F5807F02D0E0688B
:100BB000012802D14FF4807000E0002061680843F2
:100BC0000543207E012811D1207C38B9E069401E00
:100BD0004FF4006141EA4030054307E0E06A40F02D
:100BE0002000E062206B40F0010020632068406834
:100BF00026490840284321684860206880682449C5
:100C00000840304321688860E068B0F5807F02D0FA
:100C1000E068012802D14FF4807000E00020B0F5B8
:100C2000807F02D0207E012803D1A08A401E4FEA97
:100C300000582068C06A20F4700040EA080021686B
:100C4000C8622068806813490840B04209D100207A
:100C50002063E06A20F0020040F00100E06211E051
:100C60000BE0E06A20F0020040F01000E062206B30
:100C700040F001002063012704E0E06A40F010002A
:100C8000E0620127384656E7003C0140FF16FFFCB2
:100C9000FDF7E1FFFEFE3FFF38B5044600BF2248E6
:100CA000406940F00100204948610846406900F071
:100CB0000100009000BF00BF00BF0846806940F0FF
:100CC000010088610846806900F00100009000BFC3
:100CD00000BF1648164908600020486000211448EB
:100CE00081608021C160490001618900416100216A
:100CF00081614FF44051C16100F05EF80C4800F092
:100D00006DFA00210A4800F015F800BF084860623B
:100D1000446200BF002201210B2000F007FC0B20E1
:100D200000F0F0FB38BD0000001002400800024057
:100D3000C801002038B502461B4C1368A34206D2F6
:100D40001A4C13681B1B1424B3FBF4F006E0164C7A
:100D500013681B1B1424B3FBF4F3D81D00BF144B02
:100D60009B6943F00103124CA36123469B6903F086
:100D70000103009300BF00BF022303EB90030D4C5F
:100D800054F823308407E50E7F24AC40A343840746
:100D9000E40E01FA04F42343022404EB9004054D0D
:100DA00045F8243038BD0000080402400800024025
:100DB0000010024000000140014609B901207047BF
:100DC0000868006820F001000A68106000200A68C6
:100DD00010600A6850600A6890600A68D060174A1C
:100DE000086890420BD2164A0868801A1422B0FB99
:100DF000F2F08000086412480838C8630AE00F4A1D
:100E00000868801A1422B0FBF2F0800008640B48D6
:100E10000838C86391F8402001209040CA6B5060A8
:100E200000208862C86208634863886381F82100F3
:100E300000BF81F8200000BF00BFC0E708040240E7
:100E40000800024070B50446E06B0568206806683B
:100E500094F84010042088402840002875D006F0FF
:100E600004000028FAD02068006800F0200028B9AB
:100E70002068006820F0040021680860D5492068D7
:100E8000884254D9D34978392068884201D1042056
:100E900049E0D04964392068884201D1402042E0CD
:100EA000CC4950392068884201D100153BE0C9493E
:100EB0003C392068884202D14FF4804033E0C54974
:100EC00028392068884202D14FF480202BE0C149A4
:100ED00014392068884202D14FF4800023E0BD49D4
:100EE0002068884201D1C0041DE0BB4920688842C7
:100EF00001D1042017E0B84914312068884201D19B
:100F0000402010E0B44928312068884201D1001502
:100F100009E0B1493C312068884202D14FF4804059
:100F200001E04FF48020AC49091F086054E0A94952
:100F300078392068884201D104204AE0A549643903
:100F40002068884202D1402043E04CE0A14950395A
:100F50002068884201D100153BE09E493C39206859
:100F6000884202D14FF4804033E09A492839206802
:100F7000884202D14FF480202BE096491439206832
:100F8000884202D14FF4800023E0924920688842D1
:100F900001D1C0041DE090492068884201D104209D
:100FA00017E08D4914312068884201D1402010E0BB
:100FB000894928312068884201D1001509E0864915
:100FC0003C312068884202D14FF4804001E04FF468
:100FD0008020804980394860E06A002802D020469D
:100FE000E16A8847F4E094F84010022088402840E5
:100FF000002871D006F002000028FAD020680068AE
:1010000000F0200040B92068006820F00A00216844
:101010000860012084F821006E492068884254D974
:101020006C4978392068884201D1022049E0694939
:1010300064392068884201D1202042E06549503956
:101040002068884201D140153BE062493C39206864
:10105000884202D14FF4005033E05E4928392068BD
:10106000884202D14FF400302BE05A4914392068ED
:10107000884202D14FF4001023E05649206888428C
:1010800001D180041DE054492068884201D102202A
:1010900017E0514914312068884201D1202010E026
:1010A0004D4928312068884201D1401509E04A495C
:1010B0003C312068884202D14FF4005001E04FF4E7
:1010C00000304549091F086054E0424978392068DA
:1010D000884202D102204AE057E03E496439206844
:1010E000884201D1202042E03A49503920688842A4
:1010F00001D140153BE037493C392068884202D194
:101100004FF4005033E0334928392068884202D137
:101110004FF400302BE02F4914392068884202D167
:101120004FF4001023E02B492068884201D180044D
:101130001DE029492068884201D1022017E0264994
:1011400014312068884201D1202010E02249283142
:101150002068884201D1401509E01F493C312068D0
:10116000884202D14FF4005001E04FF40030194999
:101170008039486000BF002084F8200000BFA06ACA
:1011800030B32046A16A884722E094F84010082036
:1011900088402840E0B106F00800C8B12068006827
:1011A00020F00E002168086094F84010012088406B
:1011B000E16B48600120A06384F8210000BF00209B
:1011C00084F8200000BF206B10B12046216B8847B7
:1011D00070BD000080000240080402400146002269
:1011E00009B9012070471E4B086898420BD21D4B6D
:1011F0000868C01A1423B0FBF3F080000864194893
:101200000838C8630AE0164B0868C01A1423B0FBFC
:10121000F3F08000086412480838C863022081F89F
:1012200021000868026843F6F0708243D1E90103A7
:101230001843CB6818430B6918434B6918438B69F3
:101240001843CB6918430243086802600020886392
:10125000012081F82100002081F8200000BFC1E7B3
:10126000080402400800024078B503460022CAE0A4
:10127000012696400D6805EA0604002C71D04D68E1
:10128000022D02D04D68122D13D1D60803F120058E
:1012900055F826005507EE0E0F25B540A843560712
:1012A000F60E0D69B5402843D60803F1200545F830
:1012B0002600186856000325B540A8430D7905F0AF
:1012C00003055600B540284318604D68012D08D02D
:1012D0004D68022D05D04D68112D02D04D68122D9C
:1012E00013D1986856000325B540A8435600CD6831
:1012F000B54028439860586801259540A8430D796A
:10130000C5F30015954028435860D868560003255A
:10131000B540A84356008D68B5402843D8604D6855
:1013200005F08055B5F1805F6CD100BF394DAD69D6
:1013300045F00105374EB5613546AD6905F001054B
:10134000009500BF00BF344D960855F8260095075C
:101350002E0F0F25B540A843B3F1904F02D10025C1
:1013600015E04FE02D4DAB4201D101250FE02C4D92
:10137000AB4201D102250AE02A4DAB4201D103253F
:1013800005E0294DAB4201D1042500E00725960771
:10139000360FB5402843204D960845F82600234DCA
:1013A0002868A0434D6805F48035B5F5803F00D12D
:1013B00020431E4D28602D1D2868A0434D6805F46C
:1013C0000035B5F5003F00D12043184D2D1D286094
:1013D0002D1D2868A0434D6805F48015B5F5801FC4
:1013E00000D12043114D083528602D1D2868A043E9
:1013F0004D6805F40015B5F5001F00D120430B4DD5
:101400000C352860521C0D68D540002D7FF430AF9C
:1014100078BD0000001002401400014000040048A4
:1014200000080048000C004800100048000401407B
:101430000AB1816100E081627047000001480068E4
:101440007047000024000020034800680349097821
:101450000844014908607047240000202C00002047
:1014600010B5042000F0A0F8072000F005F800F007
:1014700029F8002010BD000070B504460E48007821
:101480004FF47A71B1FBF0F00C490968B1FBF0F54B
:10149000284600F077FF08B1012070BD082C07D264
:1014A00000222146501E00F041F80548046001E08A
:1014B0000120F2E70020F0E72C00002000000020CF
:1014C0002800002008B500BF0D48806940F00100E9
:1014D0000B4988610846806900F00100009000BF58
:1014E00000BF00BF0846C06940F08050C861084690
:1014F000C06900F08050009000BF00BF08BD000030
:10150000001002400146084600280DDB00BF00BF66
:1015100000F01F0301229A4043099B0003F1E023DE
:10152000C3F8002100BF00BF00BF70472DE9F05F86
:1015300080460D461646002701F070FB07463946E7
:101540002A46334601F00700C0F1070ABAF1030F3B
:1015500002D94FF0030A01E0C0F1070AD14600F1B9
:10156000030ABAF1070F02D24FF0000A01E0A0F11E
:10157000040AD4464FF0010A0AFA09FAAAF1010A4C
:101580000AEA020A0AFA0CFA4FF0010B0BFA0CFBFA
:10159000ABF1010B0BEA030B4AEA0B042146404670
:1015A00001F044FBBDE8F09F00BF00F00702064BCE
:1015B00019684FF6FF031940044B0B4343EA02211D
:1015C000014B196000BF70470CED00E00000FA0508
:1015D00000BFBFF34F8F0748006800F4E060064982
:1015E0000843001D03490860BFF34F8F00BF00BFD1
:1015F00000BFFDE70CED00E00000FA052DE9F04F1B
:1016000091B081464022A3A101A8FEF7ADFDB1A093
:1016100000680090002600270024A046A24600256E
:10162000A346B9F1010F09D0B9F1020F2DD0B9F1DC
:10163000100F64D0B9F1200F70D1DCE0A648056A24
:1016400005F44070B0F5807F05D105F0020010B1BF
:101650004FF4004B18E005F44070B0F5007F07D15F
:101660009D48406A00F0020010B149F6404B0BE083
:1016700005F44070B0F5407F06D19748006800F44B
:10168000003008B14FF2244BFFE093484068934983
:101690000840B0F5404F1FD007DC68B1B0F5804F6F
:1016A0000FD0B0F5004F27D110E08D490844C0B1EC
:1016B000B0F5004F20D11AE000F0A6FA4FEA500B27
:1016C0001BE000F0A1FA4FEA900B16E000F09CFA44
:1016D0000621B0FBF1FB10E000F096FA4FEAD00BC8
:1016E0000BE000F091FA0C21B0FBF1FB05E000F0FB
:1016F0008BFA4FEA101B00E000BF00BFC5E0764840
:10170000856A05F00040B0F1004F08D17248806A48
:1017100000F0200018B1DFF8CCB16BE0B4E005F0C8
:101720000040B0F1004F65D06B48006800F0807059
:1017300000285FD06848466806F4701006F0C04183
:1017400040EAD11001A901EB904090F8008006F426
:101750004030B0F5803F04D006F44030B0F5403F53
:101760000BD15D484068C0F340401DF800705E48F2
:1017700008FB00F0B0FBF7F402E05B4808FB00F464
:1017800055484068594900EA010ABAF1000F16D0DD
:1017900009DCBAF1004F1FD05548504400B3B0F5F2
:1017A000800F25D121E0BAF5800F06D0BAF5000FE1
:1017B0000DD0BAF5400F1BD106E0A34619E060003A
:1017C0000321B0FBF1FB14E04FEA540B11E0600081
:1017D0000521B0FBF1FB0CE00320B4FBF0FB08E0BB
:1017E00060000721B0FBF1FB03E04FEA940B00E03F
:1017F00000BF00BF49E03848856B05F00F0008289E
:1018000003D005F0080008283DD005F00F00082897
:1018100007D13148006800F4003010B1DFF8C8B0DB
:1018200031E02D48006800F0807060B32A484668B7
:1018300006F4701006F0C04140EAD11001A901EB96
:10184000904090F8008006F44030B0F5803F04D01E
:1018500006F44030B0F5403F0BD11F484068C0F35C
:1018600040401DF80070204808FB00F0B0FBF7F482
:1018700002E01D4808FB00F41748806B00F00F00E1
:10188000401CB4FBF0FB00E000BF00BF584611B0A5
:10189000BDE8F08F02030405060708090A0B0C0DCA
:1018A0000E0F101112131415161718191A1B1C1DE0
:1018B0001E1F202122232425262728292A2B2C2DD0
:1018C0002E2F303132333435363738393A3B3C3DC0
:1018D0003E3F3F3F010200000010024000C00010E8
:1018E00000C0FFEF006CDC0200127A000000C08034
:1018F0000000C07FF8B5044600260025207800F0DF
:101900000100002871D000275548C06900F08050C0
:1019100070B900BF5248C06940F080505049C8615A
:101920000846C06900F08050009000BF00BF01274A
:101930004C48006800F48070B0B94A48006840F430
:10194000807048490860FFF779FD064606E0FFF71A
:1019500075FD801B642801D90320F8BD414800684B
:1019600000F480700028F2D03D48006A00F4407511
:101970005DB3A08800F44070A84226D03848006AC1
:1019800020F440753648006A40F4803034490862DB
:101990000846006A20F4803008620846056205F0B7
:1019A000010090B1FFF74AFD064608E0FFF746FD4B
:1019B000801B41F28831884201D90320CDE72848B5
:1019C000006AC0F340000028F0D02548006A20F4E7
:1019D00040706168084322490862012F04D108461B
:1019E000C06920F08050C86100BF207800F002007C
:1019F000022807D11A4840681B490840A1680843DB
:101A000017494860207800F01000102818D1E068CD
:101A1000B0F1004F0ED01248806A20F0004010490B
:101A200088620846406811490840E16808430C494B
:101A3000486005E00A48806A40F000400849886232
:101A4000207800F02000202807D10548806B20F086
:101A50000F00216908430249886300207DE70000E8
:101A60000010024000700040FF3FFFEFFFFF3F7F8C
:101A700070B504460D460CB9012070BD5A48006887
:101A800000F00F00A8420ED25748006820F00F0067
:101A90002843554908600846006800F00F00A84236
:101AA00001D00120E9E7207800F0020002281DD1D2
:101AB000207800F00400042805D14C48406840F428
:101AC000E0604A494860207800F00800082805D105
:101AD0004648406840F46050444948604348406884
:101AE00020F0F000A168084340494860207800F0E9
:101AF000010078B36068012806D13C480068C0F353
:101B0000404090B90120B8E76068022806D1374804
:101B1000006800F0807040B90120AEE733480068EB
:101B2000C0F3400008B90120A7E73048406820F022
:101B30000300616808432D494860FFF77FFC0646B3
:101B400009E0FFF77BFC801B41F28831884202D913
:101B5000032092E707E02548406800F00C00616828
:101B6000B0EB810FEDD12048006800F00F00A842D3
:101B70000ED91D48006820F00F0028431A4908605C
:101B80000846006800F00F00A84201D0012074E769
:101B9000207800F00400042807D11448406820F49D
:101BA000E060E168084311494860207800F00800CF
:101BB000082808D10D48406820F46050216940EAA7
:101BC000C1000A49486000F02FF808494968C1F38C
:101BD0000311074A515CC84006490860064800687E
:101BE000FFF74AFC002048E70020024000100240B6
:101BF000B4460008000000202800002001480068CA
:101C0000704700000000002000B5FFF7F7FF04490F
:101C10004968C1F3C221034A515CC84000BD0000BD
:101C200000100240C44600082DE9F04192B0402265
:101C300022A102A8FEF798FA30A0006801900024C3
:101C4000002500260027A0462D48446804F00C001B
:101C500060B3042802D0082827D102E0DFF8A4806E
:101C600027E004F4701004F0C04140EAD11002A94A
:101C700001EB9040077804F44030B0F5803F04D089
:101C800004F44030B0F5403F0AD11D484068C0F32D
:101C9000404001A90D5C1B487843B0FBF5F602E01B
:101CA000184807FB00F6B04603E000BFDFF8548099
:101CB00000BF00BF404612B0BDE8F081020304053A
:101CC000060708090A0B0C0D0E0F1011121314153C
:101CD000161718191A1B1C1D1E1F2021222324252C
:101CE000262728292A2B2C2D2E2F3031323334351C
:101CF000363738393A3B3C3D3E3F3F3F010200001A
:101D00000010024000127A00F8B504460CB9012018
:101D1000F8BD207800F00100002878D0F64840682F
:101D200000F00C00042813D0F348406800F00C00C9
:101D3000082818D1F048406800F48030B0F5803FA2
:101D400006D0ED48406800F48030B0F5403F0AD13D
:101D5000E9480068C0F340400028DED060680028F1
:101D600055D10120D4E76068B0F5803F25D100BF90
:101D7000E148006820F48030DF49086008460068C8
:101D800020F48020086000BFFFF758FB054606E0FE
:101D9000FFF754FB401B642801D90320B8E7D6485D
:101DA0000068C0F340400028F2D1D348806B20F493
:101DB0004070A1680843D049886300BF6068B0F5EF
:101DC000803F06D1CC48006840F48030CA490860A2
:101DD00029E0606858B9C848006820F48030C649D6
:101DE00008600846006820F4802008601BE06068F6
:101DF000B0F5A02F0CD1C048006840F48020BE4947
:101E000008600846006840F4803008600BE030E06D
:101E1000B948006820F48030B74908600846006877
:101E200020F48020086000BF606888B1FFF706FBDF
:101E3000054606E0FFF702FB401B642801D903209A
:101E400066E7AD480068C0F340400028F2D010E0DB
:101E5000FFF7F4FA054606E0FFF7F0FA401B6428A6
:101E600001D9032054E7A4480068C0F3404000288B
:101E7000F2D1207800F00200022854D19E48406838
:101E800000F00C0098B19C48406800F00C00082855
:101E900017D19948406800F48030B0F5803F10D0E9
:101EA0009548406800F48030B0F5403F09D0924832
:101EB0000068C0F3400078B36069012833D0012086
:101EC00026E76069B8B18C48006840F001008A4993
:101ED0000860FFF7B3FA054606E0FFF7AFFA401BCC
:101EE000022801D9032013E783480068C0F34000AB
:101EF0000028F2D017E08048006820F001007E49F9
:101F00000860FFF79BFA054607E0FFF797FA401BCA
:101F1000022802D90320FBE605E077480068C0F3F9
:101F200040000028F1D1207800F01000102830D1B6
:101F3000A069B8B17048806A40F010006E498862AC
:101F4000FFF77CFA054606E0FFF778FA401B022807
:101F500001D90320DCE66848806AC0F340100028FD
:101F6000F2D016E06448806A20F01000624988626E
:101F7000FFF764FA054606E0FFF760FA401B022807
:101F800001D90320C4E65C48806AC0F340100028F1
:101F9000F2D1207800F00800082833D1E069D0B1F0
:101FA0005548406A40F0010053494862FFF746FA3D
:101FB000054606E0FFF742FA401B022801D903203C
:101FC000A6E64D48406AC0F340000028F2D0012048
:101FD00000F078FB16E04848406A20F001004649CE
:101FE0004862FFF72BFA054606E0FFF727FA401B89
:101FF000022801D903208BE63F48406AC0F3400025
:102000000028F2D1207800F00400042878D10027BD
:102010003948C06900F0805070B900BF3648C069C7
:1020200040F080503449C8610846C06900F08050D3
:10203000009000BF00BF01273048006800F48070A6
:10204000B0B92E48006840F480702C490860FFF752
:10205000F5F9054606E0FFF7F1F9401B642801D9C0
:10206000032055E62548006800F480700028F2D06F
:10207000E068012827D100BF1F48006A20F0010056
:102080001D4908620846006A20F00400086200BF8B
:10209000FFF7D4F9054608E0FFF7D0F9401B41F2FD
:1020A0008831884201D9032032E61348006AC0F320
:1020B00040000028F0D11048006A20F01800216983
:1020C00008430D49086200BFE068012806D10A48AC
:1020D000006A40F00100084908622CE0E06880B91D
:1020E0000548006A20F00100034908620846006ABA
:1020F00020F0040008621EE0001002400070004062
:102100004CE0E06805280BD15C48006A40F0040010
:102110005A4908620846006A40F0010008620AE075
:102120005648006A20F00100544908620846006AD7
:1021300020F00400086200BFE06898B1FFF77EF964
:10214000054608E0FFF77AF9401B41F288318842E2
:1021500001D90320DCE54948006AC0F340000028AB
:10216000F0D012E0FFF76AF9054608E0FFF766F9DC
:10217000401B41F28831884201D90320C8E53F481D
:10218000006AC0F340000028F0D1012F05D13B4880
:10219000C06920F080503949C86100BF206A90B3FF
:1021A0003648406800F00C00082853D0206A022806
:1021B00038D13248006820F0807030490860FFF75D
:1021C0003DF9054606E0FFF739F9401B022801D921
:1021D00003209DE529480068C0F340600028F2D143
:1021E000D4E90901084325494968254A11400843B3
:1021F000224948600846006840F080700860FFF798
:102200001DF9054607E037E0FFF718F9401B0228E3
:1022100001D903207CE519480068C0F3406000281C
:10222000F2D029E01548006820F08070134908605A
:10223000FFF704F9054606E0FFF700F9401B022806
:1022400001D9032064E50D480068C0F34060002810
:10225000F2D111E0206A012800D159E5074846680B
:1022600006F48031606A814204D106483040A16A98
:10227000884201D001204BE5002049E500100240D2
:10228000FFFFC09F00003C6070B504460CB9012000
:1022900070BD6068B0F5827F00D101E00021E1618E
:1022A000A06AB0F5005F00D100BF94F8550028B9CE
:1022B000002084F85400204600F063F8022084F8DF
:1022C00055002068006820F0400021680860E06840
:1022D000B0F5E06F01D9002501E04FF48055E068CA
:1022E000B0F5706F05D0E068B0F5E06F01D0002167
:1022F000A162A08800F48270218901F4044108439E
:10230000217C01F002010843217D01F00101084315
:10231000218B01F400710843217F01F0380108434B
:10232000A18901F4006108432021095D01F08001C9
:102330000843218D01F400510843216808600421FD
:10234000A06901EA1040A18C01F40041084305F4A2
:102350008051084321684860A06AB0F5005F03D14E
:10236000A08D80B2216808612068C06920F40060F7
:102370002168C8610020A065012084F85500002074
:1023800086E7704770B504462546681EB0F1807F29
:1023900001D301200FE0681E4FF0E02148610721C2
:1023A0004FF0FF3000F042FC00204FF0E021886148
:1023B00007200861002070BD7047704710B50446C3
:1023C0000CB9012010BD94F83D0028B9002084F814
:1023D0003C00204600F00CF8022084F83D00211D4E
:1023E000206800F0A3F9012084F83D000020E9E70F
:1023F000704701460868C06840F001000B68D8606B
:102400000868806800F00702062A05D0086800689E
:1024100040F001000B68186000207047704710B54D
:10242000044620680069C0F34000D8B12068C06845
:10243000C0F34000B0B16FF00200216808610120D4
:1024400020772068806900F0030018B12046FFF76C
:10245000E5FF05E0204600F0ADF8204600F0ABF8BF
:102460000020207720680069C0F38000D8B1206880
:10247000C068C0F38000B0B16FF00400216808614B
:10248000022020772068806900F4407018B120464F
:10249000FFF7C4FF05E0204600F08CF8204600F06E
:1024A0008AF80020207720680069C0F3C000D8B106
:1024B0002068C068C0F3C000B0B16FF008002168A8
:1024C0000861042020772068C06900F0030018B17B
:1024D0002046FFF7A3FF05E0204600F06BF82046FA
:1024E00000F069F80020207720680069C0F3001030
:1024F000D8B12068C068C0F30010B0B16FF0100010
:1025000021680861082020772068C06900F44070C5
:1025100018B12046FFF782FF05E0204600F04AF898
:10252000204600F048F8002020772068006900F07D
:10253000010058B12068C06800F0010030B16FF0B0
:10254000010021680861204600F036F82068006923
:10255000C0F3C01058B12068C068C0F3C01030B1DB
:102560006FF08000216808612046FFF725FF206892
:102570000069C0F3801058B12068C068C0F38010B3
:1025800030B16FF0400021680861204600F020F86B
:1025900020680069C0F3401058B12068C068C0F3DB
:1025A000401030B16FF02000216808612046FFF72D
:1025B00004FF10BD7047704710B5044603492068FA
:1025C000884201D100F01EF910BD0000001000404B
:1025D00070472DE9F84F04460D46174699464FF0CF
:1025E000000A94F84500202864D105B117B90120EC
:1025F000BDE8F88FA068B0F5805F06D1206920B9EA
:1026000005F0010008B10120F2E700BF94F8440092
:10261000012801D10220EBE7012084F8440000BF2B
:102620000020A064212084F84500FEF707FF8246C1
:1026300027866786A068B0F5805F04D1206910B94D
:102640000026A84602E02E464FF000081BE0534645
:10265000002280212046CDF8009000F0DBF808B180
:102660000320C5E746B9B8F80000C0F308002168A8
:10267000486008F1020803E0307821684860761C61
:10268000608E401E6086608E0028E0D15346002296
:1026900040212046CDF8009000F0BCF808B103209E
:1026A000A6E7202084F8450000BF002084F84400FD
:1026B00000BF9DE702209BE700BFFEE700BFFEE7EB
:1026C0007047704708B508490968C9084FF47A721D
:1026D000B1FBF2F14143009100BF00BF00994A1ED7
:1026E00000920029F9D108BD00000020704710B504
:1026F000FEF7AAFE10BD000010B5FDF761FE06480A
:10270000006840F47000044908604FF0006002491E
:102710008039086010BD000088ED00E010B5024867
:10272000FFF77DFE10BD00009C06002010B502687A
:10273000294B98420ED0B0F1804F0BD0274B9842D6
:1027400008D0274B984205D0264B984202D0264B02
:10275000984203D122F070024B681A431E4B9842F4
:1027600020D0B0F1804F1DD01C4B98421AD01C4B8A
:10277000984217D01B4B984214D01B4B984211D053
:102780001A4B98420ED01A4B98420BD0194B9842D4
:1027900008D0194B984205D0184B984202D0184BDC
:1027A000984203D122F44072CB681A4322F080038E
:1027B0004C6943EA040202608B68C3620B6883625F
:1027C000054B984202D0084B984201D10B69036334
:1027D0000123436110BD0000002C014000040040B3
:1027E00000080040000C004000340140004C014053
:1027F000005001400054014000180040001C0040FF
:102800000020004002480068401C014908607047F1
:10281000080000202DE9F04104460D461746984671
:10282000069E21E0701CF8B12EB1FEF707FEA0EB6A
:102830000800B04218D92068C06820F4D070216820
:10284000C8602068406920F00100216848612020AC
:1028500084F8450084F8460000BF002084F8440056
:1028600000BF0320BDE8F081206800682840A8422E
:1028700001D1012000E00020B842D3D00020F1E7D0
:102880002DE9F047D74890F80080801C0578401E5D
:10289000077800F00FFF824608F00400D0B14FF433
:1028A000C071D148FDF779FC4020CF49486001F064
:1028B0009DFBCC48C01E007840F00100C949C91EEC
:1028C00008700120C749891D08700020491E087042
:1028D000C649087008F0020008B101F0ABFB08F02F
:1028E000010008B101F0ACFBBE48801D0078054036
:1028F00005F0010030B1002000F008FF00F042FDBB
:1029000025F001050124E1E00120A0402840002835
:102910007ED0204600F0FAFEB2481130007800F078
:10292000040038B1AF481130007820F00400AD4900
:102930001131087004EB8401AB48283000EB8100B2
:1029400004EB8402C168A848283030F82200814294
:102950003FD904EB8401A448283000EB810004EB4C
:1029600084028168A048283030F82200014404EB3A
:1029700084029D48283000EB8200816004EB8401D2
:102980009948283000EB810004EB840201699648E5
:10299000283030F82200014404EB840292482830A9
:1029A00000EB8200016104EB84018F48283000EBCA
:1029B000810004EB8402C1688B48283030F8220083
:1029C000091A04EB84028848283000EB8200C160B9
:1029D00035E004EB84018448283000EB810004EBEF
:1029E000840281688048283000EB8200C06801447E
:1029F00004EB84027C48283000EB8200816004EB09
:102A000084017948283000EB810004EB840200E067
:102A10005AE001697448283000EB8200C068014424
:102A200004EB84027048283000EB82000161002131
:102A300004EB84026C48283000EB8200C16004EB98
:102A400084016948283000EB8100C06858B904EB64
:102A50008403654A283202EB830244F08000116946
:102A600001F03CFA2DE004EB84015F48283000EBD4
:102A7000810004EB8402C1685B48283030F82200F2
:102A8000814207D204EB84015748283000EB8100D3
:102A9000C06805E004EB84015348283030F8210079
:102AA0001FFA80F904EB84024F48283000EB8200C3
:102AB0004A468168204600F02FFE01204949113125
:102AC00008700120A0408543601CC4B2002D7FF433
:102AD0001BAF4448401D0078074001247AE00120E4
:102AE000A0403840002873D0204600F00FFE3D483B
:102AF0001530007800F00100002866D03948183001
:102B0000068804EB84023848C83000EB8200324665
:102B10008168204600F0E6FD04EB84013248C830AD
:102B200000EB81008068811904EB84022E48C830D4
:102B300000EB8200816004EB84012B48C83000EB7D
:102B400081000069811904EB84022748C83000EB3A
:102B50008200016104EB84012348C83000EB81004E
:102B6000C068811B04EB84021F48C83000EB820060
:102B7000C16004EB84011C48C83030F82100B04229
:102B800007DC04EB84011848C83000EB8100C06802
:102B900098B91448401D00780121A140884311498B
:102BA000491D087004EB84020F48C83000EB820016
:102BB0000169204601F0D8F907E00A48153000788D
:102BC00020F001000749153108700120A04087431B
:102BD000601CC4B2002F82D1504600F097FDBDE8C2
:102BE000F0870000045C0040200E00202000002040
:102BF00010B5FFF745FE10BD00BFFEE70FB4054B53
:102C000010B503A9044A029800F034F810BC5DF82E
:102C100014FB0000693300083000002002480068FF
:102C2000C0F30220704700000CED00E010B5002852
:102C300004DB4A07130E054A135406E04A07140E34
:102C4000034A00F00F031B1FD45410BD00E400E042
:102C500018ED00E002E008C8121F08C1002AFAD1EE
:102C600070477047002001E001C1121F002AFBD10C
:102C7000704700002DE9FF4F8DB00F460546002636
:102C800006E025280BD0DDE90F1290476D1C761C5D
:102C900028780028F5D111B03046BDE8F08F002427
:102CA000A246A1460122EC4900E0044315F8013F89
:102CB000203B02FA03F00842F7D128782A2810D0E6
:102CC0006FF02F022878A0F13001092914D80AEBFF
:102CD0008A0102EB410144F0020400EB010A6D1C81
:102CE000F0E701CF5FEA000A03D544F40054CAF1CB
:102CF000000A44F002046D1C28782E2817D115F81C
:102D0000010F44F004042A280ED06FF02F02287817
:102D1000A0F1300109290AD809EB890102EB410130
:102D200000EB01096D1CF2E757F8049B6D1C287835
:102D30006C280FD006DC4C2817D068280DD06A28E4
:102D400014D104E0742810D07A280FD10DE044F497
:102D500000140AE044F4801401E044F4401469785B
:102D6000814202D104F580146D1C6D1C2A786E2AF4
:102D70001FD00CDC632A31D004DC002A8BD0582A07
:102D800011D1A3E0642A68D0692A0CD165E0732AC6
:102D90002ED004DC6F2A73D0702A04D19BE0752AF0
:102DA0006FD0782A6ED01046DDE90F129047761C5E
:102DB00050E1C4F30250022806D0032809D00428A9
:102DC00001CF09D0066045E101CFF117C0E90061EC
:102DD00040E101CF06803DE106703BE117F8040BAE
:102DE0008DF8000000208DF80100EB46012003E083
:102DF00057F804BB4FF0FF3061074FF0000102D4D9
:102E00000DE008F10101884649450FDA8045F8DBFD
:102E10001BF808100029F4D108E008F101018846E8
:102E20008142FADB1BF808100029F6D1DDE90F23F7
:102E3000AAEB08008146214600F036F9304400EB49
:102E4000080604E0DDE90F121BF8010B9047B8F10A
:102E50000108F7D221464846F7E00A21C4F302539D
:102E60004FF0000B0891022B04D001CFC117032BA8
:102E700009D00AE0FF1D27F00707F7E8020108E084
:102E800032E01FE020E000B2C117042B01D140B2B4
:102E9000C117031E71F1000307DA4FF0000CD0EBED
:102EA0000C006CEB01012D2302E0230504D52B233C
:102EB0008DF82430012303E0E30701D02023F7E756
:102EC000984658E00A2110E010210EE010204FF043
:102ED000000B08900CE010214FF0000B44F00404AC
:102EE0004FF00809089103E008214FF0000B08910A
:102EF000C4F30253022B04D001CF0021032B06D0D0
:102F000006E0FF1D27F00707F7E8020103E080B2A3
:102F1000042B00D1C0B24FF0000823072BD5702A34
:102F200007D0DDF820C08CF0100C5CEA0B0C05D04B
:102F30000EE040238DF82430012308E050EA01031D
:102F400006D030238DF824308DF8252002239846B2
:102F5000DDF820C08CF0080C5CEA0B0C0BD150EAB9
:102F6000010301D1630706D530238DF824304FF0DB
:102F70000108A9F10109582A04D038A20B9208AA25
:102F80000A920BE03AA2F9E75B46089AFDF710F9BE
:102F90000B9B9B5C0A9A521E0A92137050EA010224
:102FA000F2D10A98ADEB000000F1200B600702D5CA
:102FB00024F4803401E04FF00109D94502DDA9EB8A
:102FC0000B0000E0002000EB0B0141440890AAEB4D
:102FD000010AE00306D4DDE90F232146504600F044
:102FE00063F806444FF0000908E009A911F8090048
:102FF000DDE90F12904709F10109761CC145F4DBA8
:10300000E0030CD5DDE90F232146504600F04CF8D3
:10301000064404E0DDE90F1230209047761C089941
:10302000481E08900029F5DC08E00A980A99007803
:10303000491C0A91DDE90F129047761CBBF1000193
:10304000ABF1010BF1DC21465046DDE90F2300F026
:1030500019F806446D1C1BE6092801003031323393
:1030600034353637383961626364656600000000C4
:1030700030313233343536373839414243444546AE
:10308000000000002DE9F041044600251E461746C9
:10309000880404D405E039462020B0476D1C641E26
:1030A000F9D52846BDE8F0812DE9F0410446002518
:1030B0001E469046C80301D5302700E0202788042B
:1030C00004D505E041463846B0476D1C641EF9D56D
:1030D0002846BDE8F08100000F48006840F001007C
:1030E0000D490860084600680C4908430A49086011
:1030F0000B48806820F00100094988600648443088
:103100000861084848610E20C8604FF45650886036
:103110000F204860704700000824014000011000A3
:10312000000002400C0200200F48806820F00100DF
:103130000D4988600D4848610E20C8600F20486026
:103140006FF012000A4908600748806840F00300E9
:103150000549886006480830006840F4800004494A
:103160000831086070470000000002400C02002097
:103170000024014000B587B0142102A8FDF70DF826
:1031800000BF0F48406B40F008000D4948630846F7
:10319000406B00F00800019000BF00BF4FF480407A
:1031A000029001200390002004900320059002A9C2
:1031B0000448FEF759F8002000F006F807B000BDFB
:1031C000001002400004004810B5044622464FF4A7
:1031D00080410248FEF72CF910BD000000040048B1
:1031E00000B587B0142102A8FCF7D7FF00BF3B4809
:1031F000406B40F00800394948630846406B00F0D6
:103200000800019000BF00BF00BF0846C06940F43D
:103210008040C8610846C06900F48040019000BF4A
:1032200000BF00BF0846406940F001004861084601
:10323000406900F00100019000BF00BFFFF79AFF56
:103240004FF4004002900220039003200690059066
:1032500002A92348FEF708F82248234908601020F5
:1032600048600021204881608021C1600021016107
:10327000416181614FF40051C161FDF7AFFF00BFB3
:1032800019481A49C86408461749486200BF1848D7
:10329000164908604FF4827048600021134881602D
:1032A0004FF4E061C1600021016141614FF40071A0
:1032B0008161002101621821C161FEF7E5FF08214B
:1032C0000948FDF737FD002201210C20FEF72EF9F9
:1032D0000C20FEF717F907B000BD000000100240F7
:1032E000000400481C00024058060020FC05002095
:1032F0000038004008B500BF1648C06940F0100013
:103300001449C8610846C06900F01000009000BF71
:1033100000BF114811490860114800681149B0FB0D
:10332000F1F0401E0D49C86040F2E73048600021CE
:103330000A48816041618161FFF740F80022032162
:103340003620FEF7F3F83620FEF7DCF80348FFF7E7
:1033500050F808BD00100240001000409C060020FC
:103360000000002040420F0013B50C464FF47A7362
:10337000012269460248FFF72CF900981CBD0000A5
:10338000DC06002070B55048057805F0040048B10F
:103390004D48007820F004004B49087000204B494C
:1033A000087070BD05F0100028B1802046490870F3
:1033B00000204649087046480078002807DD444848
:1033C00000784149103908700020414908703F4891
:1033D0000078072875D2DFE800F00418743A6F709F
:1033E0006A0005F0010078B13748401C0478082CC9
:1033F00000D0D6E7082236492031002000F072F9CB
:103400003348203000F0F6FC5BE03148406B304937
:10341000098D88420DD92E48806B2D49098D0144B4
:103420002B488163406B2A49098D411A2848416322
:1034300007E02748816B406B0144254881630021E8
:1034400041632348816B802000F048FD39E005F09E
:10345000010038B31C48401C04781D482246D0F8AF
:10346000D010002000F03EF91948D0F8D000011922
:103470001748C0F8D010D0F8D80001191448C0F887
:10348000D810B0F8C800A04206DC1148D0F8D81017
:10349000D0F8D400814206D10D48D0F8D8100020D1
:1034A00000F062FD02E040200749087009E00021B9
:1034B000802000F013FD04E000BF002003490870E5
:1034C00000BF00BF00BF6CE7105C00402000002080
:1034D000200E0020034890F85D0108B101207047DC
:1034E0000020FCE73400002010B54FF4C6610A4804
:1034F000FCF753FEB7210948FCF74FFE002404E017
:10350000204601F0B3F8601C84B23D2CF8D30120B2
:10351000FFF75AFE10BD000028070020580D0020BC
:10352000FDF79EFFFDF748F8FFF7E4FEFFF758FEB2
:10353000FFF7DAFFFDF754F9FCF7E4FEFFF7CCFDE7
:103540000020314908703149087000F0F9F80F2067
:10355000FDF733F9FFF7E8FD2DA0FFF74FFB00263D
:1035600050E02F480068801B02284BD32C48066887
:1035700026480078012845D1002433E000252DE0BD
:10358000C4EBC400274901EB800030F8150003218B
:1035900090FBF1F0C4EBC401234A02EB810121F856
:1035A0001500C4EBC400214901EB4000405D012837
:1035B0000AD1C4EBC400114601EB800030F815209D
:1035C0002946204600F036F80020C4EBC401154A15
:1035D00002EB810121F81500681CC5B20E2DCFDB6E
:1035E000601CC4B2052CC9DB0020084908701049D2
:1035F00008700549087000F0A3F81420FDF7DDF805
:10360000FFF792FDADE70000040000200500002058
:10361000696E69745F73756363657373000000009E
:103620000800002028020020B4020020644700089F
:1036300006000020F0B503460C46C3EBC30505EBBE
:1036400085051B4E06EB850504EB840605EB46005D
:10365000068836B217B2F51B002D01DB2E4600E0BE
:103660006E4231B2057A7DB9B0F906508D4200DD67
:10367000C180B0F906501E358D4217DA502915DD8C
:1036800001250572818011E0B0F904508D4200DA05
:103690008180B0F904501E3D8D4202DD0025057287
:1036A000C1803C2902DA00250572C180F0BD00000E
:1036B0004003002001480078704700000E5C004085
:1036C00010B50346012006E0C200934201D80A80EB
:1036D00010BD441CE0B20828F6DD0020088001205F
:1036E000F6E7000070B503460C461046064E06EBA2
:1036F000830538B104E02E7804F8016B461EB0B2A1
:103700000028F8D170BD0000205C0040014908701D
:10371000704700000E5C004070B503460C46104632
:10372000064E06EB830538B104E014F8016B2E70E9
:10373000461EB0B20028F8D170BD0000205C0040E9
:1037400010B504464FF480704FF0904188614FF4FB
:103750007070144908604FF4FA70FDF72EF82CB918
:103760004FF480704FF0904188621AE0012C04D130
:1037700060020C491031086013E0022C04D1E00112
:103780000849103108600CE0032C04D18020054961
:103790001031086005E0042C03D1402001491031AC
:1037A000086010BD180800482DE9F04106460F4694
:1037B0000748046807E02546286918B139463046AD
:1037C0002A6990472468002CF5D1BDE8F0810000FB
:1037D000100000202DE9F04105460F46904628785C
:1037E00000F00300012815D1194804680FE02646AF
:1037F000706858B196F820002979884206D142466F
:103800003946284673689847BDE8F0812468002C43
:10381000EDD119E0287800F00300022814D10C48FB
:1038200004680FE02646B06858B196F82000A988D1
:10383000B0EB112F05D1424639462846B368984768
:10384000E2E72468002CEDD14FF0FF30DCE7000008
:1038500010000020704700000020014908707047E8
:10386000210000200120014908707047210000203C
:1038700070B5044624F08005FFF71CFF0646284675
:10388000FFF744FF04F08000A8B935B91748007865
:1038900020F004001549087022E01448093000782F
:1038A00020F060001149093108700846007840F0A6
:1038B0008000087014E035B90C48007820F004004E
:1038C0000A4908700CE00948401D007820F03000DB
:1038D0000649491D08700846007840F0400008700D
:1038E0003046FFF713FF002070BD0000105C004061
:1038F00001460020704700002DE9F04105460C46C6
:1039000025F08006FFF7D6FE07463046FFF7FEFE9D
:1039100005F0800048B916B9002020700FE00B4870
:103920000078C0F34010207009E016B90020207024
:1039300005E00648001F0078C0F3001020703846EC
:10394000FFF7E4FE0020BDE8F0810000195C0040B4
:103950002DE9F8430446002000908046207820F0AE
:10396000800500270026BDB940206349A1F8C800A2
:103970000021614880F8CA10012180F8CC10402055
:103980005D49088500215C4880F82A10012180F8F3
:103990002C100020BDE8F883072D04DD00BF00BF18
:1039A0004FF0FF30F6E7FFF785FE81462846FFF728
:1039B000ADFE207800F08000002849D1618805EB39
:1039C00085024D48C83020F82210617805EB850249
:1039D00000EB82008170012105EB85024648C8306A
:1039E00000EB8200017107F0020000B1802607F0B1
:1039F000080010B146F0300604E007F0040008B1FA
:103A000046F020066078012801D146F040063B4987
:103A10000E70481C007800F0010018B19020491C7D
:103A2000087003E080203549491C087060886946A9
:103A3000FFF746FE1FFA80F83049891C81F80080A4
:103A40002D484068BDF8001008442B4948604EE0FE
:103A5000618805EB85022848283020F8221061781B
:103A600005EB850200EB82008170012105EB8502E8
:103A70002148283000EB8200017120480E38007880
:103A8000A94008431D490E39087007F0010008B12C
:103A900046F0800607F00C0008B146F0100660788A
:103AA000012801D146F0400646F020061349091FBF
:103AB0000E70481C007800F0020018B14820491C24
:103AC000087003E040200D49C91E087060886946EF
:103AD000FFF7F6FD1FFA80F80849891E81F800807B
:103AE00005484068BDF8001008440349486048464E
:103AF000FFF70CFE00204DE7200E0020185C004070
:103B000070B5044624F08005FFF7D4FD064628462C
:103B1000FFF7FCFD04F0800098B94DB90720154966
:103B200008701548007840F06000134908701BE0E9
:103B300011480930007840F020000F490931087021
:103B400012E04DB907200B4908700B48007840F08F
:103B500060000949087007E00748401D007840F000
:103B600010000549491D08703046FFF7CFFD0020C1
:103B700070BD000020000020105C00402DE9F041E5
:103B800007460D46164627F0800425B91EB14FF0B2
:103B9000FF30BDE8F08104EB8401284800EB810090
:103BA000007910B96FF00100F3E7FFF783FD80465D
:103BB0002046FFF7ABFD04EB8401204800EB8100B9
:103BC000856004EB84011D4800EB8100C660002184
:103BD00004EB8402194800EB82000161BCB918486B
:103BE000007820B101280CD006280FD10AE0154832
:103BF000007840F040001349087003201049087015
:103C000004E000BF05200E49087000BF10E00D4819
:103C1000C01F00780121A14008430A49C91F08704C
:103C200008480930007820F0010006490931087081
:103C30004046FFF76BFD0020ABE70000E80E0020D8
:103C400020000020105C00402DE9F04107460E46A0
:103C5000144627F0800526B91CB14FF0FF30BDE8AF
:103C6000F08105EB85015F4800EB8100007910B918
:103C70006FF00100F3E7FFF71DFD80462846FFF7D0
:103C800045FD5948007800F0010028B14046FFF793
:103C90003DFD6FF00200E2E705EB8501514800EBC6
:103CA0008100866005EB85014E4800EB8100C46011
:103CB000002105EB85024B4800EB82000161002DDD
:103CC00070D14A48007820B1012834D0032867D148
:103CD0005EE03CB948204449491F0870042043492C
:103CE000087027E040204049491F087005EB850116
:103CF0003C4830F82100A0420CD33D48007848B938
:103D0000A2B231462846FFF707FD0A203649491F6F
:103D100008700CE005EB8501324830F8212031466F
:103D20002846FFF7F9FC02202F49491F087001209F
:103D30002E49087034E04CB9FFF78EFD0A202A495D
:103D4000491F087006202949087020E005EB85010D
:103D5000244830F82100A0420CD32548007848B907
:103D6000A2B231462846FFF7D7FC0A201E49491F58
:103D700008700CE005EB85011A4830F82120314627
:103D80002846FFF7C9FC02201749491F087007E0C1
:103D900048201549491F087004201449087000BFC5
:103DA0001AE0FFE7ACB105EB85010E4830F82100C1
:103DB000A04209D205EB85010A4830F8212031469E
:103DC0002846FFF7A9FC04E0A2B231462846FFF7D7
:103DD000A3FC0120044908704046FFF797FC00202F
:103DE0003DE70000480E0020155C00402000002048
:103DF0002100002070B50546374C286820606868AF
:103E00006060E088B0F5807F09DD207800F08000F8
:103E100028B900BF00BF8020FFF772FE70BD2E489A
:103E20001C302D498860E088C860E0880861002067
:103E30000875E08850B1207800F0800030B9E28841
:103E4000084681680020FFF799FEE7E7224A103212
:103E5000A2F10801204600F013FA18B98020FFF7FC
:103E60004FFEDBE71C480069E188884202D21A480D
:103E7000006900E0E0881849C8600846007A00F050
:103E8000030088B10846C068B0F5807F02D900BF42
:103E900000BFC3E71048C26881681C30FCF764F9B2
:103EA0000D481C300C498860E0880B49096988423C
:103EB00009D90948007C00F03F0020B901200649DB
:103EC0000875FFF7CFFC0448C26881688020FFF7BF
:103ED000BBFE00BFA2E700003400002070B504461E
:103EE0000D46802C2DD11E4E304680682844314628
:103EF00088600846C068401BC8600846C06830B18A
:103F00000846C26881688020FFF79EFE18E01448CA
:103F1000007D012808D100201149087500221146B2
:103F20008020FFF791FE0BE0F08848B1307800F078
:103F30008000802804D1002211461046FFF71EFEA3
:103F40000DE004F07F01074850F8210038B104F07B
:103F50007F01044850F8212029462046904770BD33
:103F6000340000205001002070B504460D4644BBCB
:103F70001C4E2DB330468068284431468860084680
:103F8000C068401BC8600846C06898B901F11C00B1
:103F90008860A0F10C020831304600F071F918B9C0
:103FA0008020FFF7ADFD70BD002211468020FFF795
:103FB0004BFE05E00B48C26881680020FFF7DEFD7C
:103FC0000DE004F07F01084850F8210038B104F0FA
:103FD0007F01054850F8212029462046904700BF20
:103FE000E1E70000340000207001002008B5002047
:103FF00000F0ACF800200E4981F85C0181F85D0109
:104000004020ADF8020000208DF8010080208DF8DE
:1040100000006846FFF79CFC00208DF80000684611
:10402000FFF796FC00210120FFF7BEFB08BD000052
:104030003400002010B500210620FFF7B5FB10BDAD
:1040400010B500210520FFF7AFFB10BD2DE9F041B1
:1040500005460C4613460021002600228C46002708
:10406000290AEEB2032911D1EE2E0FD1274800689C
:1040700010B90020BDE8F081244800680068206085
:1040800022480068007918600120F3E70F290ED15B
:104090001F48006808B90020ECE71D480068006868
:1040A00020601B480068406818600120E2E704298E
:1040B00002D0052900D001D90020DBE7154882692C
:1040C0004FF0000C0AE05078884205D1B44501D188
:1040D000012706E00CF1010C10780244107800284A
:1040E000F1D100BF77B12260022901D0072906D1A2
:1040F000907892F8038040EA0820186004E0107875
:10410000186001E000BF00BF3846B3E7140000208C
:104110001C00002034000020704738B50446A07809
:104120008DF80000A088C0F30A00ADF80200E07826
:1041300000F003008DF801009DF80000FFF7D8FBA8
:1041400008B9012038BD0020FCE70000014611B984
:104150000020034A107003480170002070470000DF
:10416000005C0040200E00202DE9F04705460E4679
:10417000174884694FF0FF08FF274FF0000921E03E
:104180006078022804D0042808D0052816D108E059
:104190006779AF4201D14FF0010910E094F8038034
:1041A0000DE0AF4201D1B04503D02046FFF7B5FF87
:1041B00005E0204600F00EF8814600E000BF00BF99
:1041C0002078044420780028DAD14846BDE8F087FA
:1041D0003400002038B50446A0788DF80000A0888F
:1041E000C0F30A00ADF80200E07800F003008DF89B
:1041F00001006846FFF7ACFB08B9012038BD00207C
:10420000FCE700002DE9F05F05460E461B48846977
:104210004FF0000A4FF0FF08C1464FF0000B22E0BC
:104220006078042802D0052819D109E094F80380A9
:1042300094F80290A94502D1B04500D1A2460FE002
:10424000A9450BD12746B04504D03846FFF765FF96
:10425000834603E03846FFF7BDFF834600E000BF1A
:1042600000BF2078044420780028D9D15146082086
:10427000FFF79AFA5846BDE8F09F0000340000208E
:1042800070B504460D461646207800F0600020B157
:10429000202811D040282DD11DE032462946204645
:1042A00000F02DF8002806DA00BF00BF2046FFF717
:1042B00033FF002070BD1FE0324629462046FFF73D
:1042C00089FA002806DA00BF00BF2046FFF724FF66
:1042D0000020EFE710E032462946204600F052F970
:1042E000002806DA00BF00BF2046FFF715FF0020B8
:1042F000E0E701E00020DDE700BF0120DAE72DE97B
:10430000F04104460D4616460027207800F00300D1
:1043100020B101280BD002281BD111E032462946DA
:10432000204600F01DF808B94FF0FF3714E0324680
:104330002946204600F0BEF808B94FF0FF370BE0E1
:1043400032462946204600F06DF808B94FF0FF3795
:1043500002E04FF0FF3700BF00BF3846BDE8F081F4
:104360002DE9F04107460E4615467C884FF00108BE
:1043700078780C284BD2DFE800F0060E4A0F4A1579
:104380001B22252A46470020316808703168487092
:10439000022028603EE000BF012C00D000BF0020BA
:1043A000286037E0E0B2FFF7D1FE0020286031E05E
:1043B0002A4631462046FFF749FE80462AE04FF064
:1043C000000827E0154830600120286022E0E4B2B0
:1043D00020460021FFF7C8FE30B9114981F85D4140
:1043E000002081F85C010BE00D4981F85D4101205E
:1043F00081F85C0100210720FFF7D6F9FFF72AFAC0
:104400000020286006E000BF4FF0000802E04FF0F7
:10441000000800BF00BF4046BDE8F08191010020C8
:10442000340000202DE9F84304460E46154627794E
:104430004FF00108FFF74EF810B90020BDE8F883EF
:10444000607830B1012812D003281DD00C282BD160
:1044500027E069463846FFF74FFA9DF800003168BB
:104460000870002031684870022028601FE06088D2
:1044700028B900BF00BF3846FFF7FAF917E04FF040
:1044800000080020286012E0608828B900BF00BF43
:104490003846FFF735FB01E04FF0000800202860A8
:1044A00005E04FF0000802E04FF0000800BF00BF39
:1044B0004046C3E72DE9F04704460D46164660889E
:1044C000070A94F804804FF00109FFF703F810B9C8
:1044D0000020BDE8F08760780C284BD2DFE800F0C0
:1044E00006394A3A4A4A0E4A4A4A3D430020296858
:1044F000087029684870022030603EE0212F11D1F9
:104500001F4801680BE00A4692F82000404505D19B
:1045100050692860092030600120DAE70968002925
:10452000F1D113E0222F11D1154801680BE00A46A2
:1045300092F82000404505D190692860D06930602C
:104540000120C6E709680029F1D100BF4FF000093A
:1045500013E000BF4FF000090FE000202968087049
:104560000120306009E0A1782079FFF74BFE0020A0
:10457000306002E04FF0000900BF00BF4846A8E7E6
:10458000100000202DE9F04104460D4616462C4847
:10459000006828B360782A490968497988423AD185
:1045A000A088042802D0052815D10AE02448006814
:1045B0008068286022480068808930600020BDE85B
:1045C000F0811F480068006928601D480068808AE3
:1045D00030600020F3E700BF00BF4FF0FF30EEE790
:1045E00018480068B8B16078164909688979884226
:1045F00011D1A088072809D11248006800682860F6
:1046000010480068808830600020D8E700BF00BFF5
:104610004FF0FF30D3E70C4807680DE0B846D8F8F4
:104620000C0040B1324629462046D8F80C30984755
:1046300008B90020C3E73F68002FEFD1781EBEE71E
:104640001400002018000020100000200246002066
:1046500009E08023C34013400BB1F82300E0E023BE
:104660000B54431CD8B20828F3D3704770B50546E5
:1046700005EB45004FF6FF7101EAC00405EB45006C
:104680000A4946180A4A11197078FFF7DFFF084BEC
:1046900004F1080299183078FFF7D8FF044B04F1B1
:1046A00010029918B078FFF7D1FF70BD580D0020A7
:1046B00028070020000000000000000001020304A1
:1046C0000607080900000000010203041051FF1F43
:1046D0001451FF1F1851FF1F4851FF1F4C51FF1F5E
:1046E0000056FF1F0456FF1F0052FF1F0452FF1FFA
:1046F0004051FF1F4451FF1F0852FF1F2051FF1F51
:104700002451FF1F2851FF1F2C51FF1F3051FF1F45
:104710003451FF1F082202400C2202402022024096
:1047200028220240242202401C2202402C22024065
:10473000102202401422024018220240FF0FFF0FF5
:10474000FF0000000F001F00FF07FF1FFF07FF070C
:104750003F003F003F000000FFFFFFFFFFFFFFFFA4
:10476000FF0FFF0F01010101010101010101010121
:104770000101010101010101010101010101010129
:10478000010101010101010101010101000101FF1C
:1047900001010101010101010101FF01010101FF0D
:1047A000FFFF01FFFFFF0101010100000000000009
:1047B00001000000020000000300000004000000EF
:1047C00005000000060000000700000008000000CF
:1047D000090000000A0000000B0000000C000000AF
:1047E0000D000000044800080000002094010000B3
:1047F0007602000810480008940100200C12000006
:10480000642C0008042600127A420802FF01016AA3
:0400000508000131BD
:00000001FF
