:020000040800F2
:10000000E00F0020450100083D25000835250008C7
:1000100039250008350A0008D12A00080000000030
:10002000000000000000000000000000452500085E
:10003000510A000800000000412500084925000879
:100040005F0100085F0100085F0100085F01000810
:100050005F0100085F0100085F0100085F01000800
:100060005F0100085F0100085F010008390A00080D
:10007000450A00085F0100085F0100085F010008F1
:100080005F0100085F0100085F010008CD2A000839
:100090005F01000800000000000000005F01000890
:1000A0005F0100085F0100085F0100085F010008B0
:1000B0005F0100085F0100085F0100085F010008A0
:1000C0005F0100085F0100085F0100085F01000890
:1000D0005F0100085F0100085F0100085F01000880
:1000E0005F0100085F010008000000005F010008D8
:1000F0005F0100085F0100085F0100085F01000860
:100100005F0100085F0100085F0100085F0100084F
:100110005F0100085F0100086D2500085F0100080D
:100120005F0100085F0100085F0100085F0100082F
:10013000DFF80CD000F00CFB00480047012F00084E
:10014000E00F00200648804706480047FEE7FEE72C
:10015000FEE7FEE7FEE7FEE7FEE7FEE7FEE7FEE777
:100160004D2500083101000840EA01039B0703D038
:1001700009E008C9121F08C0042AFAD203E011F8E6
:10018000013B00F8013B521EF9D27047D2B201E0A8
:1001900000F8012B491EFBD270470022F6E710B58C
:1001A00013460A4604461946FFF7F0FF204610BDE5
:1001B0002DE9FE4F81EA030404F0004421F00041E0
:1001C00000944FF0000B23F0004350EA01045ED08E
:1001D00052EA03045BD0C3F30A54C1F30A552C441A
:1001E000A4F2F3340194A0FB0254C1F3130141F4CF
:1001F0008011C3F3130343F4801301FB024400FB9B
:10020000034E840A970A44EA815447EA8357A4FBC1
:10021000076802958D0A05FB07854FEA932C04FBBE
:100220000C542705029D4FEA065847EA1637B5EBEE
:1002300008056EEB070C870E920E47EA811742EA1B
:100240008312A7FB0201B6EB0B0164EB00042B0D3C
:1002500043EA0C335E1844EB1C50DA465146E7FB88
:100260000201C5F313044FEA0B3343EA14534FEA78
:100270000432019C43EA0603A4F10C040294009C9E
:10028000CDE900B400F03EF903B0BDE8F08F0020E6
:100290000146F9E72DE9F04D81EA030404F0004B33
:1002A00021F0004514464FF0000A23F0004150EAC7
:1002B000050220D054EA01021DD0C5F30A570246B8
:1002C000C5F31303C1F31300C1F30A5640F48015BC
:1002D00043F48013A7EB0608101BD64608F2FD383E
:1002E00073EB050002D308F1010801E092185B41AD
:1002F000B8F1000F03DA00200146BDE8F08D0020C0
:100300004FF48011064684460EE0171B73EB050779
:1003100005D3121B63EB050306434CEA010C4908A5
:100320004FEA300092185B4150EA0107EDD152EAE2
:10033000030012D082EA040083EA0501084305D0D5
:10034000101BAB4106D20122002306E000224FF031
:10035000004302E06FF0010253101AEB06004CEB71
:10036000085110EB0A0041EB0B01BDE8F04D00F025
:10037000BAB80EB540F2334102910021CDE9001127
:100380000A460B4600F0BEF803B000BD00F0004284
:1003900030F000400AD0C10D01F56071C0F31600C5
:1003A00042EA0151C208400711437047002001464C
:1003B000704701F0004330B421F0004150EA0102DF
:1003C00006D00A0DA2F56072C1F31301002A02DC07
:1003D00030BC00207047440F44EAC104C100E0185B
:1003E00030BC00EBC25000F047B830B50B460146B8
:1003F00000202022012409E021FA02F59D4205D3C4
:1004000003FA02F5491B04FA02F52844151EA2F16D
:100410000102F1DC30BD2DE9F05F05460020924677
:100420009B4688460646814640241BE028464146B6
:100430004746224600F0B3F953465A46C01A914146
:1004400010D311461846224600F09AF92D1A67EB90
:1004500001084F4622460120002100F091F917EBD8
:1004600000094E41201EA4F10104DFDC484631465C
:100470002A464346BDE8F09F0029A8BF7047401CAC
:10048000490008BF20F00100704710B4B0FA80FCAA
:1004900000FA0CF050EA010404BF10BC704749B1E7
:1004A000CCF1200421FA04F411FA0CF118BF012157
:1004B00021430843A3EB0C01CB1D4FEA00614FEA37
:1004C000102042BF002010BC704700EBC350104406
:1004D0000029A4BF10BC7047401C490008BF20F091
:1004E000010010BC704710B5141E73F1000408DA47
:1004F000401C41F1000192185B411A4301D120F0E8
:10050000010010BD2DE9F04D92469B4611B1B1FAA4
:1005100081F202E0B0FA80F22032904600F030F929
:1005200004460F4640EA0A0041EA0B0153465A4688
:10053000084313D0114653EA010019D0C8F1400214
:10054000504600F02CF905460E46504659464246A4
:1005500000F016F9084305D0012004E02046394692
:10056000BDE8F08D0020054346EAE0762C43374392
:100570000A986305E40AA0EB08000022FD0A44EA99
:1005800047540A3002D500200146E9E70105101959
:100590006941DDE9084500196941BDE8F04DA2E770
:1005A0002DE9FE4F804681EA0300C00F0C46009003
:1005B00021F0004123F00045B8EB0200A94105D22B
:1005C0004046214690461C460B46024623F000401A
:1005D000104347D0270DC7F30A00C3F30A51029016
:1005E000401A019040286BDAC3F3130040F4801BDB
:1005F0000098924620B10023D2EB030A63EB0B0B69
:1006000001985946C0F14002504600F0B9F806463C
:100610000D4650465946019A00F0D1F810EB0800FB
:100620006141002487EA115284EAE7731A4340D0FB
:10063000009A62B3019A012A4FEA075215DC001BA7
:1006400061EB02014FF0004202EA0752CDE900429D
:10065000001C41F5801132462B46FFF753FF03B0D3
:10066000BDE8F08F40462146F9E7001B61EB02012F
:10067000001C41F5801300185B412018A2F50017FB
:1006800047EB030140EAD570B6196D4111E06D08E2
:100690004FEA360645EAC0754FEA0752001B61EB88
:1006A0000201001C41F5801149084FEA3000001991
:1006B000514132462B4603B0BDE8F04FFFF713BF60
:1006C0000098012240000023D0EB020263EBE073AC
:1006D000009821464FEAE074B8EB000061EB04019A
:1006E000E9E783F000435BE781F0004158E7C1F39D
:1006F0000A52C1F3130140F2FF3341F480119A42D0
:1007000002DA00200146704740F233439A42A2F2D7
:10071000334202DC524200F042B800F031B800002F
:1007200030B5041E71F1000404DB4FF00044404278
:1007300064EB0101141E73F1000405DB1C464FF04D
:100740000043524263EB0403994208BF904230BD1C
:100750001CB509480090094801900546009C06E038
:10076000E06840F0010394E8070098471034AC4279
:10077000F6D3FFF7E1FC000078480008984800082D
:10078000202A04DB203A00FA02F100207047914051
:10079000C2F1200320FA03F3194390407047202A46
:1007A00004DB203A21FA02F00021704721FA02F31B
:1007B000D040C2F120029140084319467047202AD8
:1007C00006DBCB17203A41FA02F043EAE07306E079
:1007D00041FA02F3D040C2F1200291400843194689
:1007E000704730B58C1810F8012B12F00F0301D1AF
:1007F00010F8013B120906D110F8012B03E010F8A4
:10080000015B01F8015B5B1EF9D101E001F8013BDE
:10081000521EFBD1A142E6D3002030BDB0B5044644
:1008200000688168C90701D10020B0BD816821F04E
:100830000101816000F0DEFE054600BF206880688F
:10084000C007F1D000F0D6FE401B0328F6D3E06AC3
:1008500040F01000E062206B40F0010020630120B6
:10086000B0BD00002DE9F0439DB00DF12C0942F21E
:10087000140848464821C4F20208FFF78EFC01AC78
:1008800020462821FFF789FC40F22310C4F267506C
:1008900048F80C0C48F6AB10CCF6EF5048F80C0CAE
:1008A00042F63B20C0F6190048F8080C46F67F6077
:1008B000C4F65D4048F8080C44F25100C5F67F507C
:1008C000C8F8780242F2637044F27866C4F2CE60EF
:1008D0000027C0F60006C8F8780208E049F827505B
:1008E0009A4218BF00F034FF0137122F0DD056F88E
:1008F00027006FF0020100BF0568EB432A0C9BB292
:100900009342EBD00131F7D3EAE7DDE90B01002296
:100910006FF31F3061F31B409DF83410C0F6FF7277
:10092000CDE90101DDE90E0102F1805200F00F0076
:1009300061F314401099039011986FF3DF2102EADC
:10094000004008440490DDE912011A9A6FF3DF2099
:1009500061F31A400590DDE914011B9B00F03F0094
:1009600061F3154006901698189900F03F00079023
:10097000BDF85C006FF31F3340EA0140BDF864101E
:10098000089041EA024009901C9844F2C06544F284
:10099000E86760F31B430020C0F60005C0F60007BF
:1009A0000A9302E001300A280FD055F820100E6893
:1009B00057F8203054F820201E40B242F2D00E6882
:1009C00026EA03031A430A60ECE7D8F8EC01002694
:1009D00040F00100C8F8EC0100BF00BF00BF00BF3D
:1009E00000BF00BF00BF00BF00BF00BFD8F8EC01D0
:1009F00020F00100C8F8EC0155F82600006857F80F
:100A0000261054F826200840824218BF00F0A0FEAD
:100A100001360A2EF0D1D8F8000040F08040C8F826
:100A20000000D8F8000040F00040C8F800001DB0F9
:100A3000BDE8F083FEE7000040F2CC10C2F20000F7
:100A400000F072BB40F6FC20C2F2000000F06CBB6C
:100A50007047000070B582B004460020019094F801
:100A60002800012801D1022552E0012084F8280045
:100A70002046FFF7D3FE0546002846D1E06A41F242
:100A8000021188430230E06240F20400C2F200002A
:100A90000668022000F05EFEB6FBF0F0400000BFEA
:100AA0000190019810B101980138F9E72068816838
:100AB000C90722D1816841F00801816000F09AFDE8
:100AC000064600BF20688168090705D500F092FD41
:100AD000801B0A28F6D910E0816841F0040181608A
:100AE00000F088FD064600BF20688068400712D5E8
:100AF00000F080FD801B0B28F6D3012510206FF03D
:100B00001201E26A11400843E062002084F82800E4
:100B1000284602B070BD01206FF00301F1E700002C
:100B2000B0B581B00022009290F82820012A01D1AE
:100B3000022179E04A680123062A02EB820C80F840
:100B4000283005D8026802F1340E6FF004020AE082
:100B500003680C2A87BF03F12C0E6FF0400203F1EB
:100B6000300E6FF022026244DEF800C01F230C68D2
:100B700093402CEA030304FA02F21A43CEF8002051
:100B8000D1F800E002680EEB4E041023BEF1090F0D
:100B900088BF1E3C88BF0C2352F803C00725896814
:100BA000A5402CEA0505A1402943D1502EF00101B2
:100BB0004FF0000C10294FF0000133D1016842F2D0
:100BC0000042C4F20102914205D0C16A41F0200105
:100BD000C162012126E09268120222D48A68BEF125
:100BE000100F42F400028A601BD140F20401C2F2ED
:100BF000000109684DF68362C4F21B32A1FB0212A8
:100C0000910C01EB810149000091009949B100BFAD
:100C1000009901390091009900294FF00001F7D1A6
:100C200000E0002180F828C0084601B0B0BD0000F7
:100C30000068C06C70470000002804BF01207047A6
:100C400070B50446C06A30B90020206384F82800DB
:100C5000204600F09DF820688168C90702D1002075
:100C600001211AE0816821F00101816000F0C2FCDD
:100C7000054600BF20688068C007F0D000F0BAFCCD
:100C8000401B0328F6D3E06A002140F01000E06228
:100C9000206B40F0010020630120E36AE26A39B36F
:100CA00013F0100124D141F2021122EA01010231B4
:100CB000E162236A94E866002B4342F48075012EBA
:100CC00008BF2A46B6F5807F08BF2A4694F818E088
:100CD000257CBEF1010F43EA450C16D16DB1E36AE4
:100CE00043F02003E362236B43F0010323630CE032
:100CF00042F01000E062012070BDE3694EF600058D
:100D0000CFF6FF7505EB43331A434B6841F2FF659D
:100D1000CFF6FF452B401A434A608A684FF2FD73B5
:100D2000CFF6E1731A4042EA0C02012E8A6005D028
:100D3000B6F5807F02D0BEF1010F26D16269002393
:100D4000CFF6F07303EB0252CB6A23F470031A431D
:100D5000CA6289684FF6FE62CFF63F721140614564
:100D600007D100212163E16A012262F30101E162FE
:100D700070BDE06A40F0100020F00200E062206BDD
:100D800040F001002063012070BD0022DCE700007C
:100D9000704700002DE9F04182B000260D46044660
:100DA000019600F027FC21688A68D20539D4804674
:100DB000C86A10F4700F3ED040F20400C2F2000086
:100DC000066842F292470220C1F2492700F0C2FCB5
:100DD000216844F624130A69B6FBF0F0C2F292438C
:100DE0001A4206D1CA6844F62413C0F292031A428A
:100DF00029D00A693A4206D1CA6842F29243C0F247
:100E000049031A422DD00A6949F24923C0F224034A
:100E10001A424FF0FC0225D1C968194208BF93223B
:100E200020E0E06A40F02000E06284F828600120C1
:100E300002B0BDE8F08120680068800741D435B376
:100E40006F1C18D01DE00A693A424FF01A0209D10E
:100E5000C96842F29243C0F24903194208BF122204
:100E600000E09322019902FB00F7B94229D275B143
:100E70006E1C17D01EE020680168890721D4002F5E
:100E8000FAD000F0B7FBA0EB0800A842F3D9E06A63
:100E900040F00400E062002084F82800032002B043
:100EA000BDE8F0810198013001900198B84208D264
:100EB000002EF7D000F09EFBA0EB0800A842F1D96D
:100EC000E5E72068E16A41F40071E162806800F4BE
:100ED0006020B0F5602F0CD1207C50B9E06A20F47E
:100EE0008070E062E06AC00403D4E06A40F0010070
:100EF000E062002002B0BDE8F0810000B0B582B031
:100F0000044690F82800012802D1022002B0B0BDAA
:100F10000121002084F82810019022689368DB07E3
:100F200035D190684DF6836140F0010090606FF01C
:100F30001000106040F20400C2F200000068C4F229
:100F40001B31A0FB0101880C00EB8000800000BF7A
:100F50000190019810B101980138F9E700F04AFBBF
:100F6000054600BF20688068C00725D100F042FB1D
:100F7000401B0328F6D3E06A002140F01000E06235
:100F8000206B40F001002063012084F82810B9B1E3
:100F900042F2044C2168E26AC4F2010C40F20133CF
:100FA0009A430CF57F7302F580729942E2620CD08D
:100FB000E26A22F4801510E0002001210029E7D127
:100FC000002184F8281002B0B0BDDCF8002012F433
:100FD000702FEDD0E26A42F48015E562E26A0025E6
:100FE000D2044FF0000244BF226B22F004022263BD
:100FF0006FF0020284F828500A608A6802F46022C6
:10100000B2F5602F0AD1994203D08A6842F4A00257
:1010100007E0DCF8002012F4702FF6D08A6842F462
:1010200080128A6002B0B0BDB0B5044690F82800C6
:10103000012804BF0220B0BD0121206884F82810D7
:101040008268D20702D1002001BB25E0816821F02F
:101050000101816000F0CEFA054600BF206880687B
:10106000C00710D000F0C6FA401B0328F6D3E06A90
:10107000002140F01000E062206B40F0010020638E
:10108000012019B908E00020012129B1E16A41F2EB
:10109000011291430131E162002184F82810B0BDB2
:1010A00041F21802C4F202020068A2F541639842BC
:1010B0004FF6F833CBF6FD730AD218444CF6CD4305
:1010C00000F58060CCF6CC43A0FB0303180909E0CF
:1010D00018444CF6CD43CCF6CC43A0FB03030720C9
:1010E00000EB131080B581B0136840F2080C43F098
:1010F000010313601268C4F2010C02F001020092B5
:10110000009A20F00302182352F80CE003EAC00012
:101110007F2383402EEA030301FA00F0184342F8CC
:101120000C0001B080BD000010B5D0E90FE3D0F88D
:1011300000C0DEF80020DCF80010DA4054072DD59E
:1011400011F004042AD0DCF80010890605D4DCF87C
:10115000001021F00401CCF800100422C4F20202B5
:1011600002F17C018C454CD940F20841C4F20201E5
:101170008C4500F0A98040F21C41C4F202018C456C
:1011800000F0A68040F23041C4F202018C4540F0EC
:10119000A3804FF48061C2F80014EAE0940745D5BB
:1011A00011F0020442D0DCF80010890608D4DCF803
:1011B000001021F00A01CCF80010012180F8211064
:1011C0000422C4F2020202F17C018C4549D940F2AA
:1011D0000841C4F202018C4500F0AB8040F21C4192
:1011E000C4F202018C4500F0A88040F23041C4F204
:1011F00002018C4540F0A5804FF40071C2F8001444
:10120000C6E04321C4F202018C453EDD6B21C4F2ED
:1012100002018C454BDC4421C4F202018C4500F0F4
:101220009B805821C4F202018C4560E0120740F116
:10123000B58011F0080108BF10BDDCF8001021F0E6
:101240000E01CCF80010012101FA03F2CEF80420BF
:101250008163016B4FF480720029028440F08B801F
:101260009CE04321C4F202018C4543DD6B21C4F2B2
:1012700002018C4550DC4421C4F202018C457DD032
:101280005821C4F202018C456EE00821C4F202012B
:101290008C4564D01C21C4F202018C4567D03021FA
:1012A000C4F202018C4522D14FF4806160E06C21D0
:1012B000C4F202018C4554D08021C4F202018C4555
:1012C00015D14FF0806153E00421C2F8001450E0C2
:1012D0004021C2F800144CE002F588634FF48021ED
:1012E0009C4508BF4FF48041C2F8001441E04FF420
:1012F00080213DE00821C4F202018C4541D01C212F
:10130000C4F202018C4541D03021C4F202018C4567
:101310002AD14FF400713AE06C21C4F202018C45ED
:1013200031D08021C4F202018C451DD14FF00071F3
:101330002DE00221C2F800142AE02021C2F8001496
:1013400026E002F588634FF400319C4508BF4FF456
:101350000051C2F800141BE04FF4804108E0042162
:1013600006E04FF4800103E04FF400310FE040212C
:101370001160C16A91B1BDE8104008474FF40051B7
:1013800005E0022103E04FF4001100E0202111608C
:10139000816A0022002980F82020ECD110BD0000D5
:1013A000002804BF012070472DE9F04140F2000CF5
:1013B000C4F2020C01684FF6F8320CF58163CBF6EB
:1013C000FD72994238BF02F580624CF6CD430A4463
:1013D000CCF6CC43A2FB03236FF003050CF580642D
:1013E00005EA9303D0E9012ED0F80C803CBF00241D
:1013F000C4F20204C0E90F430B6843F6F075AB4337
:101400001A43D0E9045442EA0E0242EA0802D0E943
:1014100006672A43224332433A430A6000214FF4CD
:10142000807281630284BDE8F04108467047000085
:10143000B0B5044600F0DEF8054640F21000C2F2F6
:1014400000000078611C18BF044400BF00F0D2F80F
:10145000401BA042FAD3B0BD2DE9F04F82B00E6818
:10146000002E00F0BD8041F2000400F138428705F3
:10147000C4F60004072340F2004C47EA9222A0423F
:1014800008BF0423C4F2010C042A38BF134600220B
:101490004FF0010B00270025009309E00E6801358D
:1014A00036FA05F307F1040702F1020200F0988012
:1014B0000BFA05F816EA080EF0D04C6844F0100458
:1014C000122C12D16FF0030303EA5504044407F011
:1014D0001C060F23D4F8209003FA06FA0B6929EAB8
:1014E0000A09B34043EA0903236203680324D1F8DD
:1014F000049094406FEA040AA34309F00304944063
:101500002343B9F1120F036013D80BFA09F313F058
:10151000061F0ED08368CC6803EA0A039440234375
:1015200083604368C9F3001423EA0803AC402343F3
:101530004360C3688C6803EA0A03944023435FEA6C
:10154000C904C360AAD541F21804C4F20204236896
:101550004FF6144943F0010323602368CFF6FF7967
:1015600003F001030193019B25F00303634453F847
:10157000098007F00C060F24B44028EA0408009CF8
:1015800004FA06F646EA080443F80940DCF800804D
:101590004C6848EA0E06E30358BF28EA0E06CCF86A
:1015A0000060DCF80480A30348EA0E0658BF28EA6E
:1015B0000E06CCF80460DCF80880E30248EA0E0668
:1015C00058BF28EA0E06CCF80860DCF80C30A402FC
:1015D00043EA0E0658BF23EA0E06CCF80C605DE71E
:1015E00002B0BDE8F08F00001823002A08BF2823AE
:1015F000C150704740F6D830C2F200000068704712
:1016000040F2100040F6D831C2F20000C2F20001F0
:1016100000780A68104408607047000080B5042014
:1016200000F086F8072000F005F800F02BF8002005
:1016300080BD0000B0B540F21002C2F2000240F2DC
:1016400004011278C2F200014FF47A730968B3FB07
:10165000F2F20446B1FBF2F1084600F075FD072CEA
:101660004FF001050CD858B94FF0FF302146002249
:10167000002500F031F840F21400C2F200000460CE
:101680002846B0BD82B041F21800C4F202000168E1
:1016900041F001010160016801F00101019101992E
:1016A000416841F080514160406800F080500090F6
:1016B000009802B070470000002848BF704700F053
:1016C0001F01012202FA01F14EF200124009CEF28E
:1016D000000242F82010704710B54EF60C5CCEF2B6
:1016E000000CDCF80030C3F3022E8EF00704032C4C
:1016F00028BF0324BEF104034FF0FF3E0EFA04F4AA
:1017000038BF0023A14399400EFA03F39A431143D3
:1017100000F1604200F00F03490102F56442043B0E
:101720006344002848BF03F10C02117010BD000093
:101730004EF60C51CEF200010A684FF6FF031A4034
:1017400060F30A2242F0806040F0FD70086070474C
:1017500001F0C0F980B5411E1F294FF0000000F2D2
:101760001D81DFE811F020004A001B011B011B0155
:101770001B011B011B011B011B011B011B011B0189
:101780001B011B016D001B011B011B011B011B0128
:101790001B011B011B011B011B011B011B011B0169
:1017A0001B011B019F0041F20400C4F20200C16949
:1017B00040F202320A40B2F5817F04BF4FF400408C
:1017C00080BD01F44071B1F5407F0ED0B1F5007FCE
:1017D00040F0A580026A920744BF49F6404080BDB0
:1017E000B1F5407F1CBF002080BD50F8040C4FF2C3
:1017F0002441800301EAE07080BD41F20400C4F29C
:10180000020000684CF20002C1F2000200EA02018C
:10181000B1F5404F4FF0000080F28380002900F0C6
:101820009780B1F5804F00F09780B1F5004F40F000
:10183000B58000F001FA4AF6AB21CAF6AA21FCE015
:1018400041F20400C4F20200416AB1F1FF3F76DDCB
:1018500050F8041CC90162D502684FF4400101EA46
:10186000D21102F47013194444F21073890CC0F6BB
:10187000000342F40032595C02F44032B2F5403FBA
:1018800040F08D80026844F25073C2F34042C0F6CB
:1018900000039A5C41F20023C0F27A035943B1FB82
:1018A000F2F181E041F20400C4F20200426B02F066
:1018B0000F01082918BF12F0080230D1082903D1FE
:1018C00050F8041C890359D450F8041CC9015CBFAA
:1018D000002080BD02684FF4400101EAD21102F4F9
:1018E0007013194444F21073890CC0F6000342F4DB
:1018F0000032595C02F44032B2F5403F43D10268F5
:1019000044F25073C2F34042C0F600039A5C41F2C5
:101910000023C0F27A035943B1FBF2F138E0002012
:1019200080BD1DD044F20003C1F2000399421BD0D8
:10193000914218BF80BD00F07FF9000980BD406A68
:1019400046F600418006C0F2DC2101EAE07080BD6D
:1019500000F072F9400880BD00F06EF9800880BD8B
:1019600000F06AF9C00880BD00F066F94AF6AB21C4
:10197000CAF6AA21A0FB0101C80880BD41F20020DF
:10198000C0F27A0080BD41F20022C0F27A025143D7
:10199000406B00F00F000130B1FBF0F080BD41F270
:1019A0000022C0F27A02514300680022C8F2C0024D
:1019B0000240B2F1FF3F4FF0000009DDB2F5000F29
:1019C00014DAC2B1B2F5800F04BF084680BDE5E766
:1019D000B2F1004F18D00023C8F240039A421AD047
:1019E00012F1FF4F04BF880880BDD7E720D0B2F5C1
:1019F000400F07D0D2E748004AF6AB21CAF6AA2129
:101A0000A0FB0101480880BD45F25650C5F2555073
:101A1000A1FB001080BD44F625124800C2F292429C
:101A2000A0FB0202C2EB410002EB5000800880BD27
:101A300048004CF6CD41CCF6CC41A0FB0101880812
:101A400080BD0000002804BF012070472DE9F0434D
:101A500081B042F20008C4F202080446D8F800003F
:101A60000D4600F00F0088420CD2D8F8000020F09C
:101A70000F002843C8F80000D8F8000000F00F005D
:101A8000A8427DD1206841F204098107C4F202090D
:101A900017D5410705D5D9F8001041F4E061C9F820
:101AA0000010010705D5D9F8001041F46051C9F8BC
:101AB0000010D9F80010A26821F0F0011143C9F814
:101AC0000010C00753D1D8F8000000F00F00A84262
:101AD0000CD9D8F8000020F00F002843C8F8000007
:101AE000D8F8000000F00F00A84249D12068410753
:101AF00007D5D9F80010E26821F4E0611143C9F874
:101B00000010000708D5D9F80000216920F46050C2
:101B100040EAC100C9F80000D9F8001001F00C003B
:101B2000082841F20020C0F27A0055D14FF440025B
:101B300002EAD11201F470131A4444F25273920C67
:101B4000C0F6000341F400319A5C01F44031B1F574
:101B5000403F40D1D9F8001044F29273C1F34041A4
:101B6000C0F60003595C5043B0FBF1F034E060680C
:101B7000022809D0012829D159F8041C890307D467
:101B8000012001B0BDE8F08359F8041CC901F7D564
:101B9000D9F8001021F003010843C9F80000FFF74D
:101BA00029FD064641F28837D9F80000616800F047
:101BB0000C00B0EB810F3FF486AFFFF71BFD801BDD
:101BC000B842F1D9032001B0BDE8F08359F8041CF4
:101BD0008907D5D5DCE75043D9F8001044F2947258
:101BE000C1F30311C0F60002515C40F2040220FA76
:101BF00001F140F21400C2F200000068C2F20002DB
:101C00001160FFF717FD002001B0BDE8F083000070
:101C100040F2040041F20401C2F20000C4F20201E9
:101C20000068096844F2A472C1F30221C0F6000200
:101C3000515CC8407047000040F2040041F20401CA
:101C4000C2F20000C4F202010068096844F2A47202
:101C5000C1F3C221C0F60002515CC84070470000C9
:101C6000002804BF012070472DE9F04182B00446EE
:101C7000007841F20006C007C4F202066CD070681A
:101C800000F00C00042809D13068800364D5606836
:101C9000002861D1012002B0BDE8F081706800F039
:101CA0000C00082803D17068C003EDD47068606828
:101CB000B0F5803F1DD1306820F48030306030684E
:101CC00020F480203060FFF795FC054630688003E3
:101CD00009D5FFF78FFC401B64284FF00300F5D9AE
:101CE00002B0BDE8F081B06BA16820F440700843F9
:101CF000B06365682DB1B5F5A02F0AD0B5F5803F6A
:101D00000BD0306820F480303060306820F48020C0
:101D100006E0306840F480203060306840F4803065
:101D20003060FFF767FC002D054612D03068800355
:101D300012D4FFF75FFC401B64284FF00300F5D975
:101D4000CEE700BFFFF756FC401B64284FF00300AE
:101D5000C6D830688003F5D42078800713D5706822
:101D600010F00C0F08D0706800F00C00082836D175
:101D70007068C00333D470683068800703D5606929
:101D8000012840F0D6802078C00616D420780007BD
:101D900070D5E169706A002948D040F00100706296
:101DA000FFF728FC054600BF706A80074FD4FFF795
:101DB00021FC401B0228F7D934E0A169B06A11B3B5
:101DC00040F01000B062FFF715FC0546B06A8006CF
:101DD000DCD4FFF70FFC401B0228F7D922E0616931
:101DE0003068002900F0C98040F001003060FFF742
:101DF00001FC054630688007C5D4FFF7FBFB401B9C
:101E00000228F7D90EE020F01000B062FFF7F2FBD5
:101E1000054600BFB06A8006B8D5FFF7EBFB401B54
:101E20000228F7D9032002B0BDE8F08120F00100BC
:101E30007062FFF7DFFB0546706A80071AD5FFF76F
:101E4000D9FB401B02284FF00300F5D948E740F2C8
:101E50000400C2F20000006844F6D351C1F26201EE
:101E6000A0FB0101480A019000BF0198411E002813
:101E70000191F9D12078400719D4256A9DB1706885
:101E800000F00C00082858D1012D52D07068616A0A
:101E900000F480328A424CD10021C6F23C01A26A91
:101EA0000840904245D1002002B0BDE8F081F069C1
:101EB0005FEAC00808D4F06940F08050F061F06932
:101EC00000F080500090009847F20007C4F200072D
:101ED0003868C00511D4386840F480703860FFF766
:101EE00089FB05463868C00507D4FFF783FB401B14
:101EF00064284FF00300F5D9F2E6E068012855D1D7
:101F0000306A20F001003062306A20F00400306254
:101F1000FFF770FB054641F2883700BF306A800743
:101F20003ED5FFF767FB401BB8424FF00300F5D9E1
:101F3000D6E6012002B0BDE8F081306820F0807064
:101F40003060FFF757FB022D05460BD1306880014A
:101F50006AD5FFF74FFB401B02284FF00300F5D96D
:101F6000BEE600BF306880019DD5FFF743FB401BF4
:101F700002284FF00300F5D9B2E620F001003060EE
:101F8000FFF738FB054600BF306880077FF5FBAEE2
:101F9000FFF730FB401B02284FF00300F4D99FE607
:101FA000306A216920F0180008433062E5681DB1ED
:101FB000052D09D0012D0BD0306A20F001003062D0
:101FC000306A20F0040006E0306A40F0040030621D
:101FD000306A40F001003062FFF70CFB002D05462F
:101FE00041F2883714D000BF306A800713D4FFF75E
:101FF00001FB401BB8424FF00300F5D970E600BF6B
:10200000FFF7F8FA401BB8424FF003003FF668AE06
:10201000306A8007F4D4B8F1000F3FF52EAFF069B5
:1020200020F08050F06128E770684FF6FF71C9F624
:10203000C071D4E909230840104318437060306828
:1020400040F080703060FFF7D5FA044630688001B8
:102050003FF529AFFFF7CEFA001B02284FF003002F
:10206000F4D93DE6002804BF012070472DE9F04F68
:1020700081B004464068B0F5827F1CBF0020E0615B
:1020800094F8550028B9002084F85400204600F048
:1020900059F8022084F855002068E2680168B2F51A
:1020A000E06F21F0400101604FF0000142F4006355
:1020B0004FF0000C98BF0121B3F5706F18BFC4F842
:1020C00028C04FEA013ED4E90131D4E904C503F444
:1020D000827902F4006201F404484A440CF0020CD4
:1020E000D4E90667424405F0010A624406F400712F
:1020F000236A524407F0380BA56A114403F08003A9
:10210000594405F400571943394301600421626AB8
:1021100001EA164102F4004241EA0E011144416015
:10212000B5F5005F04BFA18D0161C16921F40061B3
:10213000C16100200121A06584F8551001B0BDE8FF
:10214000F08F000070470000411E0020B0EB116FBF
:102150001CBF012070474EF21002CEF20002516007
:102160004EF62351CEF20001E0230B700721906060
:10217000116070477047000070470000002804BFDE
:102180000120704710B5044690F83D0028B90020A2
:1021900084F83C00204600F00DF8022084F83D0051
:1021A0002068211D00F0E8F9012084F83D0000209E
:1021B00010BD0000704700000068C16841F00101D7
:1021C000C160816801F00701062903D0016841F070
:1021D00001010160002070477047000010B50446FF
:1021E00000680169890744BFC1685FEA81713FD413
:1021F00020680169490744BFC1685FEA417143D45F
:1022000020680169090744BFC1685FEA017148D4C9
:1022100020680169C90644BFC1685FEAC1614CD446
:1022200020680169C9071CBFC1685FEAC17151D14B
:1022300020680169090644BFC1685FEA016150D4A2
:1022400020680169490644BFC1685FEA41614FD413
:1022500021680869800646BFC8685FEA806010BDD3
:102260006FF0200220460A61BDE81040FFF784BFEE
:102270006FF00201016101212177806980073ED062
:102280002046FFF7A9FF40E06FF004010161022141
:102290002177806910F4407F3AD02046FFF79CFFF9
:1022A0003CE06FF00801016104212177C0698007DB
:1022B00037D02046FFF790FF39E06FF01001016141
:1022C00008212177C06910F4407F33D02046FFF702
:1022D00083FF35E06FF001010161204600F038F81E
:1022E000A6E76FF0800101612046FFF743FFA7E7F3
:1022F0006FF040010161204600F034F8A8E7204665
:1023000000F022F8204600F021F8002020776FE747
:10231000204600F019F8204600F018F80020207739
:102320006EE7204600F010F8204600F00FF800207D
:1023300020776DE7204600F007F8204600F006F809
:10234000002020776CE70000704700007047000015
:10235000006841F20001C4F20001884218BF7047D2
:1023600000F0A2B970470000002804BF01207047A8
:1023700010B5044690F8450028B9002084F84400C0
:10238000204600F035F8242084F845002068C16814
:1023900021F40051C160204600F08EF994F820002D
:1023A000400610D52068616A4269B1F5805F22F469
:1023B000805242EA0102426105D14169A26A21F4D8
:1023C000C041114341612068016921F490410161DC
:1023D000416921F02A014161C16841F40051C160A5
:1023E00000202021A06484F8451084F8461010BD18
:1023F000704700002DE9F04381B0044690F8450095
:1024000020281AD10D4600294FF0010000F08F80DE
:102410001746002A00F08B80A0689846B0F5805FD0
:1024200007D1E80705D0206918B9012001B0BDE83F
:10243000F08394F84400012803D1022001B0BDE8E4
:10244000F083012084F844000020A064212084F857
:102450004500FFF7CFF827866786A1688146B1F56A
:10246000805F01D1206910B12E46002500E00026D2
:10247000608E60B308F101070AE000BF96B116F85C
:10248000010B21684860608E01386086608EF0B173
:10249000206800680006F1D4BFB1B8F1000F0ED17A
:1024A00020E000BF35F8020B21686FF35F20486021
:1024B0000026E8E701680906E0D4002FFAD0FFF70C
:1024C00099F8A0EB090040450CD82068F2E7206895
:1024D0000068400624D4B8F1000F03D018F10105BC
:1024E00010D016E02068C16821F4D071C160416944
:1024F00021F001014161202084F8450084F8460064
:10250000032011E0206800BF0168490608D4002DAF
:10251000FAD0FFF76FF8A0EB09004045F2D9E1E7E8
:10252000202084F845000020002184F8441001B0E8
:10253000BDE8F083FEE70000FEE700007047000002
:102540007047000070470000FFF75AB880B5FEF7EB
:1025500089F94EF68850CEF20000016841F470010E
:1025600001604FF0006140F8801C80BD40F21020F7
:10257000C2F20000FFF732BE10B540F6FF3E03681E
:10258000C4F2000E43F2004C7045C4F2010C0FDCA3
:10259000B0F1804F1AD040F20042C4F200029042E3
:1025A00014D040F60002C4F2000290420ED011E0B6
:1025B00040F60042C4F20002904207D0604505D0C8
:1025C00042F60042C4F20102904203D14A6823F06D
:1025D0007003134341F6FF72C4F2000290420DDC17
:1025E000704520DCB0F1804F42D040F20042C4F28E
:1025F000000290423CD040F6000222E044F6FF3256
:10260000C4F20102904221DC42F20002C4F2000254
:1026100090422DD042F60042C4F20102904227D0EF
:10262000604525D028E040F60042C4F20002904206
:102630001ED041F60002C4F20002904218D041F6CA
:102640000042C4F20002904212D015E044F600426B
:10265000C4F2010290420BD045F20042C4F20102E2
:10266000904205D045F20002C4F20102904203D12B
:10267000CA6823F44073134323F080024B69D1F8F6
:1026800000E08C681A4360450260C462C0F828E02C
:1026900005D042F60042C4F20102904201D109691C
:1026A00001630121416110BD40F25420C2F20000DB
:1026B000016801310160704770B50446006804F19B
:1026C00008030ECB0569194325F440552A430261DE
:1026D000626941F20C631143C2684FF69C769A43DB
:1026E0001143C1604169A26921F440711143416104
:1026F0004169E26921F400611143416143F600013F
:10270000C0F6FF76B2F5006FC4F2010104D1884231
:1027100007D0FFF77DFA06E0884223D0FFF778FA6A
:1027200022E0FFF789FA6268192148435100B0FBA3
:10273000F1F048F21F51C5F2EB11A0FB01235A0939
:1027400006F1805302FB0300322303EBC000A0FB21
:1027500001014FF4F87000EA111000EB0210C1F310
:1027600042111CE0FFF768FA6268192148439100A2
:10277000B0FBF1F048F21F51C5F2EB11A0FB0123B1
:102780005A0902FB0600322303EB0010A0FB0101F3
:10279000F02000EA511000EB0210C1F3431108448D
:1027A0002168886070BD00002DE9F04F83B045F6C8
:1027B0000E48C4F2000818F80A5C18F8084C18F81B
:1027C000090C40F26026019098F80000C2F2000661
:1027D0000290680719D530464FF4C071FDF7DDFC53
:1027E0004020706000F0DCFF18F80D0C40F6D0318E
:1027F00040F0010008F80D0C012008F8040C00203E
:10280000C2F2000108F8050C0870A80748BF00F0E4
:10281000F3FFE80718BF01F003F818F8040C00EA0A
:1028200004095FEAC97038D0002188F8001098F8D0
:102830000200420724D4C10608D5802188F802107E
:1028400040F6D031C2F2000100220A70317821B185
:10285000317808F80E1C0021317040F6D031C2F2F8
:1028600000010A78062A16D8DFE812F0D80019010C
:102870001500F000070007001401002008700AE0AE
:1028800098F8020000F0FB0088F8020040F6D03013
:10289000C2F20000017009F0FE09B9F1000F5FD02B
:1028A0004FF0010B012411E0DCF8381044F08000F7
:1028B000C0B200F009FF40F2602629EA0A09C2F21C
:1028C0000006B9F1000F04F1010449D0E0B20BFA9F
:1028D00000FA1AEA090FF4D088F8004098F80710B7
:1028E000490705D598F8071001F0FB0188F8071093
:1028F00000EB800106EB810C634653F8302F1E4637
:1029000056F8045F33F8081C03F108078D4209D913
:1029100002EB010E3A68C3F800E00A443A606B1A11
:1029200008E000BF02EB050E3A68C3F800E02A4455
:1029300000233A60002B3360B6D08B4238BF194673
:1029400059B1DCF8303008F11202013B13F8017F75
:1029500001390E0402F82070F8D188F807B0AAE710
:1029600018F8050C019910EA010A51D04FF001093D
:1029700008F1120701260EE018F8052C22EA0B02D6
:1029800008F8052C00F0D8FE2AEA0B0ABAF1000F6D
:1029900006F101063CD0F0B209FA00FB1BEA0A0F6F
:1029A000F4D088F8006098F80B10C907ECD040F21A
:1029B0006022B8F80E3000EB8001C2F2000202EB98
:1029C000810E0EF1D00C53B1DCF800101A4601391B
:1029D00017F82040013A150401F8014FF8D1DCF84E
:1029E00000100EF1C8051944CCF80010DEE93521BD
:1029F0002D881944D41AAB42CEE93541BCD39A4252
:102A0000BAD098F80B0000F0FE0088F80B00BBE786
:102A1000029888F8000003B0BDE8F08FC0073FF4CB
:102A20003AAF98F8030008287FF435AF06F11F008D
:102A3000082100BF98F8122001390B0400F8012F7B
:102A4000F8D106F1200000F0F1FD24E7C0073FF4C3
:102A500022AF98F8030050B1D6F8D01002460139E1
:102A600098F81230013A170401F8013FF8D106F145
:102A7000D0030ECBB6F8C8700144C6F8D0101918B0
:102A80008742C6F8D8101CD891421AD0402088F846
:102A9000020000E78020002100F016FEFBE6D6E9E8
:102AA0000D01328D904203D91144B163801A02E0C6
:102AB0000844B0630020B16B7063802000F004FE16
:102AC000E9E6002000F038FEE5E60000FFF76CBE06
:102AD000FEE700004EF60C50BFF34F8FCEF2000021
:102AE0000168042201F4E061C0F2FA52114301606E
:102AF000BFF34F8F00BFFDE710B586B000200590F3
:102B0000CDE90300CDE9010041F23400C4F2020036
:102B1000016840F2004441F0080101600068C4F619
:102B2000000400F00800009000984FF480400190ED
:102B3000012002900320049001A92046FEF78CFC9E
:102B400020464FF480410022FEF74EFD06B010BD36
:102B5000024640F20040C4F600004FF48041FEF708
:102B600043BD0000B0B586B0002541F214000595C4
:102B7000CDE90355CDE90155C4F20200016A41F0E7
:102B800008010162016A01F0080100910099816861
:102B900041F480418160816801F480410091009995
:102BA000016841F001010160006800F0010000903F
:102BB0000098FFF7A1FF4FF400400190022002901F
:102BC0000320CDE9040040F20040C4F6000001A952
:102BD000FEF742FC40F6FC241C20C2F20004C4F2C2
:102BE0000200102180224FF4005384E82300204685
:102BF000C4E90325C4E90555E361FEF7D1FB40F6BE
:102C0000443043F60001C2F20000C4F200014FF468
:102C100082724FF4E06380E8260000F11401C4647E
:102C200060624FF4007C05624FF0180EC0E9033576
:102C300081E82050FFF716FA20460821FEF730FA07
:102C40000C2001210022FEF747FD0C20FEF734FD89
:102C500006B0B0BD10B582B041F21C00C4F2020053
:102C6000016840F2102441F01001016000684DF647
:102C7000836100F010000190019840F20400C2F25C
:102C800000000068C4F21B31A0FB010141F200000A
:102C9000C2F20004C4F200004FF0FF3202EB914197
:102CA00040F2E732002384E80D002046E160C4E9E9
:102CB0000533FFF763FA362003210022FEF70CFDEF
:102CC0003620FEF7F9FC204602B0BDE81040FFF7C1
:102CD00073BA0000F0B587B0002641F218010696DD
:102CE000CDE90466CDE90266C4F202010A68044631
:102CF00042F480420A600A68022702F4804201928C
:102D0000019ACA6902AD42F00402CA61C96901F0C0
:102D10000400019001984FF400700290012004908B
:102D20000320CDE905074FF0904029460397FEF7B1
:102D300093FB4FF4806002904FF090402946069735
:102D4000FEF78AFB40F2801043F60001C2F2000059
:102D5000C4F20101082280E85200C0E90366C0E91C
:102D60000526C0E90766FFF7FFFA00B1FEE707B0E6
:102D7000F0BD000080B582B0019040F28010C2F238
:102D8000000001A901224FF47A73FFF733FB019889
:102D900002B080BD70B582B01646024640780D463E
:102DA000411E0A294FF0FF3032D89488DFE801F045
:102DB000060D1230303030301A242B005188E0B22A
:102DC0000A0AC9B200F0C0FF07E09178E0B200F053
:102DD000B3FF02E0E0B200F0B5FF296808700120FF
:102DE000306014E051882B6836780A0AE0B2C9B224
:102DF000009600F0B3FF0AE05188E0B20A0AC9B2B7
:102E000000F0A4FF03E09178E0B200F0A5FF0020FD
:102E100002B070BD80B544F2AC70C0F6000000F0A6
:102E2000D5F940F6A43044F65F0144F61F02C2F221
:102E30000000C0F60001C0F60002402300F004FDCF
:102E400000F0AAF940F20800C2F2000000F090F988
:102E5000BDE8804000F010BDF0B581B040F298446C
:102E6000C2F2000420464FF4C661FDF796F940F225
:102E7000E037C2F200073846B721FDF78EF900208F
:102E800000EB4002B9184B78002500BF03FA05F6A5
:102E900036066FF0070658BF6FF01F0666550135FE
:102EA000082DF3D1BA5C002302FA03F636066FF060
:102EB000070604EB030503F1010358BF6FF01F067B
:102EC000082B2E72F0D18978002200BF01FA02F39C
:102ED0001B066FF0070304EB020602F1010258BF64
:102EE0006FF01F03082A3374F0D101303D2804F13C
:102EF0001804C5D1012001B0BDE8F040FFF728BE9D
:102F000092B0FEF78BFB06AC20462C21FDF745F96D
:102F10001F2006904FF48030022607904FF4007176
:102F2000CDE90E604FF000500025089110210122DC
:102F3000109020460595CDE90355CDE901550C913A
:102F40000B92CDE909510D95FEF78AFE08B100BF3D
:102F5000FEE70F20CDE9010601A80621CDE90355C2
:102F60000595FEF76FFD00B1FEE7FFF773FE4FF426
:102F7000E130FFF7AFFEFFF7F5FDFFF76DFF44F619
:102F80006808C0F60008404601F064FB41F21804EE
:102F9000C4F20204206840F001002060206800F0C4
:102FA000010006900698206940F0004020616068AA
:102FB00040F400006060606800F40000069006982D
:102FC000FFF728FF4EF20010CEF200004FF4002170
:102FD000016000270397CDE901770A97CDE90877CB
:102FE000CDE90677E069012540F00400E061E06981
:102FF00000F0040011901198E06940F01000E061C9
:10300000E06900F0100011901198206840F4007001
:103010002060206806AC00F4007011901198032025
:10302000CDE907074FF0904021460695FEF714FAC8
:1030300040F60006C02006A9C4F60006A1C130462D
:103040002146FEF709FA40F6C82442F20040C2F2D7
:103050000004C4F20100C4E900074FF460202062BC
:103060002046C4E90277277465612776FDF7E4FD01
:103070000520039001A92046CDE90175FDF750FD1B
:103080002046FDF7E7FC304640210022FEF7ACFA6F
:10309000304680210122FEF7A7FA3220FEF7C8F958
:1030A000404601F0D7FA9FED1E8B9FED1F9B0FF25C
:1030B000800822A607E000BF2046FDF7B5FF4FF4C9
:1030C000FA70FEF7B5F92046FDF718FF1420FEF759
:1030D000AFF920460A21FDF75DFE0028ECD120461D
:1030E000FDF7A6FD0746FDF744F953EC182BFDF755
:1030F0005FF853EC192BFDF7CDF8FDF75AF90546AB
:103100004046394600F02CFE2846FDF73FF90246BE
:1031100030460B4600F024FECEE700BF00BF00BFE4
:103120006666666666660A400000000000FEAF4004
:10313000616463203D2025750D0A000061645F75A0
:10314000733D25660D0A000080B500F00FF845F6C6
:103150000041C4F20001002207208A730A7008723D
:103160000120887200204A7280BD00007047000074
:1031700090F9001040F2180301F07F02C2F2000340
:10318000406803EB820202F59E73002948BF02F5F6
:103190008E7318607047000040F2180CC2F2000CE9
:1031A0009CF85E2140F6D433C2F2000380F8202060
:1031B00019461B68002BFBD1086000210160501CE0
:1031C0008CF85E01704700007047000040F2180163
:1031D000C2F200018861002081F85E0170470000A2
:1031E00040F6DC30C2F2000001210170704700009F
:1031F00045F61041C4F2000143B211F8022C00F070
:103200007F00002B01F8020C09D490B1487A00F03D
:103210009F004872487A40F0800048720DE040B14B
:10322000487900F0CF004871487940F0400048717B
:1032300003E0087800F0FB000870002001F8022C81
:10324000704700000020704745F60E42C4F20002AD
:1032500092F800C010F07F0313700ED040B2072325
:10326000B0F1FF3FC8BF0B23D05C4FF00403C8BFD1
:103270000523D84000F0010000E000200870002085
:1032800082F800C070470000027812F07F0341D03E
:10329000072B84BF4FF0FF307047B0B545F60E44A2
:1032A000C4F2000494F800C0237051B2428840F286
:1032B000602E0029C2F2000E3FD403EB8301407858
:1032C0000EEB810181F8CA000138B0FA80F04009A4
:1032D00001238001A1F8C82081F8CC30A072E07AE7
:1032E0000723C0076FF06F0008BF6FF07F00E07228
:1032F000082A98BF0822501EC108072938BFC308F2
:10330000013300BF402A48D93728FBD901230020C8
:10331000237347E040F26021C2F200014022002006
:103320000123A1F8C82081F8CA0081F8CC300A85B1
:1033300081F82A0081F82C30704703EB8301407834
:103340000EEB810101250A8581F82A0081F82C50B5
:1033500014F8041C05FA03F3194304F8041C202193
:10336000012808BF6021A171E079072380074FF091
:10337000480058BF4020E071082A98BF0822501E1C
:10338000C108072938BFC308013300BF402A07D945
:103390003728FBD90123002003E0D800237301E084
:1033A000D8002372DEF804100844CEF80400002090
:1033B00084F800C0B0BD000045F61041C4F2000121
:1033C00043B211F8022C00F07F00002B01F8020C30
:1033D00005D450B1487A40F0200048720FE020B187
:1033E000487940F01000487109E040F6D030C2F250
:1033F000000007230370087840F060000870002088
:1034000001F8022C7047000021B9002A1CBF4FF0C0
:10341000FF30704710B500F07F0440F2602304EBEA
:103420008400C2F2000303EB800090F8CC30DBB1E3
:1034300045F60E4EC4F2000E9EF800C000238EF832
:103440000040C0E93412C0F8D83084B101201EF821
:10345000051CA04008430EF8050C9EF80B0000F078
:10346000FE008EF80B0016E06FF0010010BD40F674
:10347000D031C2F200010878062818BF012801D116
:10348000052007E038B99EF8020040F040008EF8B1
:1034900002000320087000208EF800C010BD00005C
:1034A00021B9002A1CBF4FF0FF30704770B500F003
:1034B0007F0040F2602500EB8003C2F2000505EBBF
:1034C000830393F82C501DB345F61046C4F2000652
:1034D00016F802CC06F8020C7479E4071BD103F14C
:1034E00028040025C3E90C129D63C8B1002A4CD002
:1034F000248894423DD2002C47D006F110020139B5
:1035000011F8013F013C250402F82030F8D13CE0DD
:103510006FF0010070BD6FF0020006F802CC70BDC4
:1035200040F6D03EC2F2000E9EF80030032B32D09F
:10353000012B36D05BBB72B3402333702488944296
:1035400006D340F6DC33C2F200031B78002B4FD0C9
:103550004CB106F11002013911F8013F013C25047C
:1035600002F82030F8D10220307001208EF80000DF
:103570000DE0130409D006F11003013911F8015FC1
:10358000013A140403F82050F8D101207071002092
:1035900006F802CC70BD4820307004208EF8000080
:1035A000F5E7BAB12488944205D340F6DC33C2F281
:1035B00000031B7853B354B106F11002013900BF68
:1035C00011F8013F013C250402F82030F8D1022017
:1035D0003070DCE740F6DC31C2F2000100200870F8
:1035E0000A21317006218EF8001006F802CC70BD59
:1035F000130409D006F11003013911F8014F013A03
:10360000150403F82040F8D10A20ADE7130409D0CF
:1036100006F11003013911F8015F013A140403F8AF
:103620002050F8D10A203070B1E70000F0B581B029
:103630000168406840F21805C2F20005C5E90010B3
:10364000EA8848B2B2F5807F01D9002836D505F165
:103650001C040021C5E902422A61297542B10028F3
:1036600006D40020214601B0BDE8F040FFF7CCBEF3
:1036700000F014F910B32E69EF88A968BE423A46EB
:1036800038BF32468807EA6008D0B2F5807F84BF31
:1036900001B0F0BD2046FCF767FDAC60B00605D177
:1036A000BE4203D201202875FFF79AFDD5E9021228
:1036B000802001B0BDE8F040FFF7F2BE802001B0ED
:1036C000BDE8F040FFF778BE802815D140F2180C15
:1036D000C2F2000CDCE902024318521ACCE90232B1
:1036E00016D19CF81400B8B10023802000210022DC
:1036F0008CF81430FFF7D4BE40F2180300F07F02BC
:10370000C2F2000303EB8202D2F81C2192B11047EF
:1037100080201946FFF7C4BEBCF8060050B19CF9E2
:103720000000B0F1FF3FC8BF704700200021002219
:10373000FFF76ABE7047000058B140F2180300F06E
:103740007F02C2F2000303EB8202D2F83C210AB3EB
:103750001047002908BF704740F2180CC2F2000C55
:10376000DCE902205318421ACCE9023213D180B5A9
:103770000CF11C00CCF8080000F090F80028BDE81F
:1037800080404FF0800008BFFFF716BE00210022E6
:10379000FFF786BE704700201946FFF735BE0000D0
:1037A000B0B582B00020002500F068F840F21800A3
:1037B000C2F20000A0F85C518020C0F2400001ACD1
:1037C00001902046FFF760FD20468DF80450FFF77A
:1037D0005BFD40F6D430C2F20000046801E000BF97
:1037E000246834B12269002AFAD0012000219047D0
:1037F000F6E702B0B0BD000010B540F6D430C2F21A
:103800000000046801E000BF2468002C08BF10BD60
:103810002269002AF8D0062000219047F4E7000032
:1038200010B540F6D430C2F20000046801E000BFD9
:103830002468002C08BF10BD2269002AF8D005209A
:1038400000219047F4E7000080B542F6955CC0F691
:10385000000C4FF0000EC0E901CE00F1140CC0E9DD
:1038600003EE8CE80E0080BD40F64030C2F200004E
:103870000021017070470000FFF766BC014628B9BF
:1038800045F60040C4F200000022027040F26022BF
:10389000C2F2000200201170704700002DE9F04FC5
:1038A00083B040F21804C2F20004207800F06001F6
:1038B000402927D020293AD0002940F02B8200F05F
:1038C0000300022800F0AC80012800F0C38000282B
:1038D00040F0208260780025092800F21C82B4F8AC
:1038E0000290DFE810F0D100D4011802D4011802D0
:1038F0000A00EF00180206010A015FFA89F0FFF7DB
:10390000BDFFC4E140F6C830C2F20000006898B3C1
:1039100061784279914241D1A188052900F0BB80AC
:10392000042940F0F78181688089A160B0E100F04E
:10393000030001284FD002286AD140F6D437C2F2E2
:10394000000704F1080504F1100602E00121002936
:1039500060D03F68002F5BD0BB68002BF6D097F893
:10396000201062798A42F1D1204629463246984792
:1039700000210029EDD14DE040F6CC30C2F200002C
:10398000006858B161788279914207D1A1880729EE
:1039900040F0C08101688088A16079E140F6D430B0
:1039A000C2F200000768002F00F0B48104F108059E
:1039B00004F1100604E000BF3F68002F00F0AA8168
:1039C000FB68002BF8D0204629463246984700284D
:1039D000F2D101259FE140F6D437C2F2000704F18D
:1039E000080504F1100601E0012199B13F687FB19B
:1039F0007B68002BF8D097F8201022799142F3D100
:103A0000204629463246984700210029EED101E0A0
:103A10004FF0FF300025B0F1FF3FC8BF01257AE12C
:103A200094F85D01002800F075816178A088032971
:103A300035D001293FD0002940F06C81C0B20DF192
:103A40000B01FFF701FC9DF80B00A1680870A0684E
:103A500000211DE094F85D01002800F05B81627890
:103A600000250B2A00F257816188A088DFE812F058
:103A70000C005301530153015301530188005301BA
:103A800053015301A200A800A06800210170A068A2
:103A900041700220FCE00169808AA160F8E0618841
:103AA000B1FA81F24FEA521511B9C0B2FFF784FCA6
:103AB000002020612FE16188002900F0EC800025C2
:103AC000256128E14FEA192003285FFA89F108BF30
:103AD000EE2900F0E5800F2840F0EC8040F2502005
:103AE000C2F200000068002800F01581D0E9000152
:103AF0005CE004F25D10A0605FE0A7693878002800
:103B000000F0C080FF2500265FFA89FB0DF1020856
:103B10004FF0FF0A07E097F803A03878395C0744B4
:103B2000002900F09580787805280BD00428F2D081
:103B30000228F2D17D79A5EB0B00B0FA80F04009A4
:103B40000643EAE7E8B2584508BFBAF1000F03D0D0
:103B5000B878FFF777FBE0E7B878F9788DF80200DE
:103B6000B8886FF3DF20ADF8040001F003008DF892
:103B700003004046FFF788FBB0FA80F04609CCE727
:103B8000090A212900F0B780222940F0C480C1B27F
:103B900040F6D430C2F200000068002800F0BA807D
:103BA00090F820208A42F7D1D0E90601A060216177
:103BB0000125B0E0A0680021017001252561AAE07F
:103BC000A7693A78AAB35FFA80FA5FFA81F9FF260B
:103BD0000DF106084FF0FF0B13E0B878F9788DF877
:103BE0000600B8886FF3DF20ADF8080001F003008D
:103BF0008DF807004046FFF747FB3878395C0744EB
:103C0000B9B1787805280CD00428F6D1BE7897F899
:103C100003B086EA0A008BEA0901084308BF3D4663
:103C2000EBE75645E9D1CB45D7D0B878FFF70AFB8B
:103C3000E3E740F6D430C2F20000066800E03668E0
:103C40002EB33269002AFAD0082029469047F6E7B9
:103C5000F00717D040F6D430C2F20000056801200A
:103C600084F85D9184F85C012DB9FFF7ADFA0EE0A0
:103C70002D68002DF9D02A69002AF9D007200021EB
:103C80009047F5E7002084F85D9184F85C010020FE
:103C9000206101253FE0C0B2FFF7AAFA01253AE012
:103CA00040F6C830C2F200000068A0B30168007995
:103CB000A160EDE74FEA5922022A2CD809F47E428E
:103CC000B2F5806F27D0A2691378002B1D4618BF6C
:103CD000012520D0002707E0D618D35C3246002B00
:103CE0001D4618BF012516D05678B042F4D18F4238
:103CF00016D00137F0E7C1B240F6D430C2F200006E
:103D0000006838B190F820208A42F9D14069A0605B
:103D10000920BDE7002505F0010003B0BDE8F08FE4
:103D2000E907F8D00228A26002D150882061F2E7AA
:103D300010782061EFE7000040F6A030C2F20000EA
:103D400000787047002070470020704740F6A03090
:103D5000C2F2000002707047704700007047000018
:103D60000FB4054B10B503A9044A029800F0DAF825
:103D700010BC5DF814FB0000752D00080000002049
:103D800002E008C8121F08C1002AFAD17047704724
:103D9000002001E001C1121F002AFBD17047000082
:103DA0002DE9FF5F82B00021DDE90430020DDDF86E
:103DB00040B0034318D044F61050A2F2FF32424301
:103DC0001514119801281FD0A5EB0B00401C5FEAC9
:103DD000000A4FF000064E4FDFF83891B0465046CB
:103DE00015D5CAF1000413E0119801244AA3012853
:103DF00001D16FEA0B010298119AC0E90031C0E9C4
:103E0000024206B0BDE8F09FCBF10000DFE70446B8
:103E10000021404A491842EB0450CDE9001012E05D
:103E2000E00707D032463B4640464946FCF7C0F91A
:103E30008046894632463B4610461946FCF7B8F99B
:103E400006460F466410002CEAD1DDE90401DDE9E5
:103E50000023BAF1000F06DAFCF7AAF942464B46F6
:103E6000FCF7A6F905E0FCF715FA42464B46FCF7CD
:103E700011FA04460E460022284BFCF751FC03D8E9
:103E80004FF0FF30014607E00022254B2046314627
:103E9000FCF786FBFCF72BFC102409E0002C0ADB66
:103EA0000A220023FCF7B7FA039B30321A55641E2E
:103EB00050EA0102F2D1641C039AC4F111031444C4
:103EC000119A012A03D0012208430DD10AE00843C8
:103ED00004D000204FF0110B119072E7A3EB0B05FB
:103EE0006D1E0DE05B4504DD4FF0000205F101059C
:103EF00004E003DA4FF00002A5F10105002AECD03E
:103F000002981199C0E90231C0E9004579E7000043
:103F1000000014400000F03F300000000000F043BB
:103F20000000E03F2DE9FF4F95B09B4689460646CD
:103F300000250FE2252877D100242746F84A0121E1
:103F4000059400E0044316F8013F203B01FA03F01A
:103F50001042F7D130782A2811D06FF02F03307833
:103F6000A0F13002092A16D8059A44F0020402EBA7
:103F7000820203EB42021044761C0590EFE759F8E9
:103F8000042B0592002A03DA504244F400540590B1
:103F900044F00204761C30782E2816D116F8010F52
:103FA00044F004042A280DD06FF02F023078A0F1DD
:103FB0003003092B09D807EB870302EB4303C7182B
:103FC000761CF3E759F8047B761C30786C280FD008
:103FD00006DC4C2817D068280DD06A2814D104E0DC
:103FE000742810D07A280FD10DE044F400140AE0B0
:103FF00044F4801401E044F440147278824202D107
:1040000004F58014761C761C307866280BD013DCFF
:10401000582877D009DC002875D04528F6D04628E6
:10402000F4D047281AD19DE118E0632835D06428E0
:1040300079D0652812D195E1702873D008DC672803
:10404000F1D069286FD06E280DD06F2806D1B5E069
:1040500073282CD0752875D0782874D05A461799B3
:1040600090476D1C75E1C4F30250022809D0032863
:104070000DD0D9F8001004280DD00D6009F1040905
:1040800067E1D9F80010EA17C1E90052F6E7D9F85C
:1040900000100D80F2E70D70F0E719F8041B8DF8A1
:1040A000001000208DF80100EA46012003E059F8D5
:1040B00004AB4FF0FF3061074FF0000102D40DE078
:1040C00008F101018846B9420FDA8045F8DB1AF899
:1040D00008100029F4D108E008F101018846814266
:1040E000FADB1AF808100029F6D105985B46A0EB18
:1040F000080721463846179A00F094FA284400EB46
:10410000080507E04DE029E10DE01AF8010B5A46D9
:1041100017999047B8F10108F7D25B462146384617
:10412000179A13E142E00A220092C4F302524FF0C0
:10413000000A022A08D059F804CB032A4FEAEC718E
:104140000AD00DE029E02AE009F1070121F0070279
:10415000F2E802C1914609E00FFA8CFC4FEAEC71DB
:10416000042A03D14FFA8CFC4FEAEC71002907DADC
:104170000A460021DCF1000C61EB02012D2202E075
:10418000220504D52B228DF80420012203E0E2074A
:1041900001D02022F7E7904659E00A2102E01022E0
:1041A0000DE010214FF0000A00910BE010224FF0BB
:1041B000000A44F004040827009203E008224FF0AC
:1041C000000A0092C4F30252022A05D059F804CB27
:1041D0000021032A08D009E009F1070121F00702B4
:1041E000F2E802C1914605E01FFA8CFC042A01D1D5
:1041F0000CF0FF0C4FF00008220728D5702806D0DD
:10420000009B83F0100353EA0A0305D00EE040221E
:104210008DF80420012208E05CEA010206D0302279
:104220008DF804208DF8050002229046009B83F053
:10423000080353EA0A030AD15CEA010201D16207CA
:1042400005D530228DF804204FF001087F1E582834
:1042500004D034A003900EA802900DE036A0F9E738
:1042600053466046009AFCF7D6F884460398825C71
:104270000298401E029002705CEA0100F0D10298A0
:1042800006A9081A00F1200A600702D524F4803438
:1042900000E00127574502DDA7EB0A0000E00020FF
:1042A00000EB0A01009005984144401A0590E00394
:1042B00006D45B462146179A059800F0B3F90544E9
:1042C000002706E001A85A46C05D179990476D1C6B
:1042D0007F1C4745F6DBE0030CD55B462146179A69
:1042E000059800F09FF9054404E030205A461799DC
:1042F00090476D1C0099481E00900029F5DC08E0ED
:10430000029802995A460078491C029117999047E1
:104310006D1CBAF10001AAF1010AF1DC65E10000AF
:10432000092801003031323334353637383961628B
:10433000636465660000000030313233343536374F
:1043400038394142434445460000000000F058F926
:104350000544761C307800287FF4ECAD19B028466F
:10436000BDE8F08F620700D4062709F1070222F0AA
:10437000070CFCE80223E14603F000485FEA080C62
:1043800002D00FF2702C0DE05FEA045C02D50FF250
:10439000682C07E05FEAC47C02D00FF2602C01E0D9
:1043A000AFF2700C4FF0FF3823F00043CDF850C04F
:1043B00065280CD006DC452809D046281DD04728A2
:1043C0003DD13DE0662818D067287ED138E0002135
:1043D000112F01DB112000E0781CCDE9000106A9B6
:1043E0000EA8FFF7DDFCDDE90F010E9A0391002115
:1043F000009207F1010A04914DE04FF00040009750
:10440000CDE9011006A90EA8FFF7CAFCDDE90F02ED
:1044100003920E9B11990022DDF80CA000930492E8
:1044200011B9791C00EB010AB7EB0A0004D4C0F102
:10443000FF3007F1010A0490AAEB0700019044E065
:10444000012F00DA01270021112F01DD112000E0EA
:104450003846CDE9000106A90EA8FFF7A1FCDDE969
:104460000F010E9A0391002104910092BA46210790
:104470000CD40399514500DA8A46BAF1010F05DDE3
:10448000009AAAF10101515C302908D0B84202DA41
:1044900010F1040F06DA0121CDE9011015E0AAF1AF
:1044A0000101E9E7002805DC049901440491AAEB25
:1044B000000102E0411C514500DD8A460499401A82
:1044C000401C01904FF000400290200704D4019856
:1044D000504501DBCDF8048000208DF84F00029894
:1044E0000DF14F07B0F1004F25D02B200E90029810
:1044F0004FF0020800280CDA404202902D200E9066
:1045000007E00A210298FBF770FF3031029007F8AC
:10451000011DB8F10001A8F10108F2DC02980028A1
:10452000EFD1791E0E980870307800F0200040F02E
:10453000450007F8020D12A8C01B00F107081498E7
:10454000007800B1012000EB0A01019801EBE07155
:1045500005984144401A401E0590E00306D45B468E
:104560002146179A059800F05DF8054414980078E4
:1045700018B15A46179990476D1CE00324D55B4645
:104580002146179A059800F04DF805441CE0049860
:10459000002807DBDDE90301884203DD0098405C69
:1045A000179901E0179930205A469047049805F171
:1045B0000105401C04900198401E019004D12E205A
:1045C0005A46179990476D1CBAF10001AAF1010AE9
:1045D000DDDC05E017F8010B5A46179990476D1C72
:1045E000B8F10001A8F10108F4DC5B462146179AF6
:1045F0000598ABE62D0000002B0000002000000015
:104600002DE9F041044600251E461746880404D4CF
:1046100005E039462020B0476D1C641EF9D52846B8
:10462000BDE8F0812DE9F041044600251E46904684
:10463000C80301D5302700E02027880404D505E011
:1046400041463846B0476D1C641EF9D52846BDE882
:10465000F081000010B5044601E0FEF78BFB14F872
:10466000010B04490028F8D1BDE810400A20FEF7EC
:1046700081BB0000000000201051FF1F1451FF1FDC
:104680001851FF1F4851FF1F4C51FF1F0056FF1FBD
:104690000456FF1F0052FF1F0452FF1F4051FF1F0F
:1046A0004451FF1F0852FF1F2051FF1F2451FF1FBD
:1046B0002851FF1F2C51FF1F3051FF1F3451FF1F86
:1046C000082202400C2202402022024028220240FE
:1046D000242202401C2202402C22024010220240CE
:1046E0001422024018220240FF0FFF0FFF000000BB
:1046F0000F001F00FF07FF1FFF07FF073F003F00DE
:104700003F000000FFFFFFFFFFFFFFFFFF0FFF0F56
:1047100002030405060708090A0B0C0D0E0F101101
:1047200012131415161718191A1B1C1D1E1F2021F1
:1047300022232425262728292A2B2C2D2E2F3031E1
:1047400032333435363738393A3B3C3D3E3F3F3FD4
:10475000010202030405060708090A0B0C0D0E0FDF
:10476000101112131415161718191A1B1C1D1E1FD1
:10477000202122232425262728292A2B2C2D2E2FC1
:10478000303132333435363738393A3B3C3D3E3FB1
:104790003F3F01020000000000000000010203048E
:1047A00006070809000000000102030412010002CC
:1047B00000000040B736FFFF0200010203010902BA
:1047C0002200010100803209040000010300010001
:1047D0000921110100012240000705810308000A98
:1047E000040309040803570053004B00200348004A
:1047F0004900440020004100490020004B004500D2
:10480000590042004F0041005200440012033200A0
:104810003000320036003000340032003200000533
:10482000010906A101050719E029E7150025017511
:104830000195088102950175088103050819012970
:10484000059505750191029501750391039506750E
:1048500008150026FF000507190029648100C0091A
:104860002111010001224000696E69745F73756354
:10487000636573730D000000A0480008000000206D
:1048800080010000E2070008C04800088001002005
:10489000600E0000903D00080000000000000000D5
:1048A0006145127A008146693800080102FF08015B
:1048B0006E0000000000000000000000000000008A
:0400000508000131BD
:00000001FF
