:020000040800F2
:10000000F00F002045010008A52200089D220008ED
:10001000A12200084505000839280008000000005A
:10002000000000000000000000000000AD220008F9
:100030005505000800000000A9220008B1220008B0
:100040005F0100085F0100085F0100085F01000810
:100050005F0100085F0100085F0100085F01000800
:100060005F0100085F0100085F0100085F010008F0
:10007000490500085F0100085F0100085F010008F2
:100080005F0100085F0100085F01000835280008D3
:100090005F01000800000000000000005F01000890
:1000A0005F0100085F0100085F0100085F010008B0
:1000B0005F0100085F0100085F0100085F010008A0
:1000C0005F0100085F0100085F0100085F01000890
:1000D0005F0100085F0100085F0100085F01000880
:1000E0005F0100085F010008000000005F010008D8
:1000F0005F0100085F0100085F0100085F01000860
:100100005F0100085F0100085F0100085F0100084F
:100110005F0100085F010008D52200085F010008A8
:100120005F0100085F0100085F0100085F0100082F
:10013000DFF80CD000F06EF800480047692C00088A
:10014000F00F00200648804706480047FEE7FEE71C
:10015000FEE7FEE7FEE7FEE7FEE7FEE7FEE7FEE777
:10016000B52200083101000840EA01039B0703D0D3
:1001700009E008C9121F08C0042AFAD203E011F8E6
:10018000013B00F8013B521EF9D27047D2B201E0A8
:1001900000F8012B491EFBD270470022F6E710B58C
:1001A00013460A4604461946FFF7F0FF204610BDE5
:1001B0002DE9F05F0546002092469B46884606469C
:1001C000814640241BE0284641464746224600F02F
:1001D00048F853465A46C01A914110D31146184662
:1001E000224600F02FF82D1A67EB01084F462246F1
:1001F0000120002100F026F817EB00094E41201ED7
:10020000A4F10104DFDC484631462A464346BDE8F6
:10021000F09F00001CB50948009009480190054670
:10022000009C06E0E06840F0010394E8070098476E
:100230001034AC42F6D3FFF77FFF000028420008DD
:1002400048420008202A04DB203A00FA02F100208C
:1002500070479140C2F1200320FA03F31943904004
:100260007047202A04DB203A21FA02F0002170476F
:1002700021FA02F3D040C2F120029140084319460E
:10028000704730B58C1810F8012B12F00F0301D114
:1002900010F8013B120906D110F8012B03E010F809
:1002A000015B01F8015B5B1EF9D101E001F8013B44
:1002B000521EFBD1A142E6D3002030BDB0B50446AA
:1002C00000688168C90701D10020B0BD816821F0B4
:1002D0000101816000F09CFF054600BF2068806836
:1002E000C007F1D000F094FF401B0328F6D3E06A6A
:1002F00040F01000E062206B40F00100206301201C
:10030000B0BD00000146406AC26A12F0500F03D02F
:10031000406A026B084610470168C26A42F40072E4
:10032000C262896801F46021B1F5602F01D1017CBE
:1003300009B100F0FFB9C16A21F48071C162C16ADC
:10034000C90448BF00F0F6B9C16A41F00101C162B9
:1003500000F0F0B9406AC16A41F04001C162016B2E
:1003600041F00401016300F0E9B90000406A00F0C7
:10037000E3B900002DE9F0439DB00DF12C0942F2E4
:10038000140848464821C4F20208FFF706FF01ACF2
:1003900020462821FFF701FF40F22310C4F26750E6
:1003A00048F80C0C48F6AB10CCF6EF5048F80C0CA3
:1003B00042F63B20C0F6190048F8080C46F67F606C
:1003C000C4F65D4048F8080C44F25100C5F67F5071
:1003D000C8F8780242F2637044F22806C4F2CE6094
:1003E0000027C0F60006C8F8780208E049F8275050
:1003F0009A4218BF00F0BAFF0137122F0DD056F8FD
:1004000027006FF0020100BF0568EB432A0C9BB286
:100410009342EBD00131F7D3EAE7DDE90B0100228B
:100420006FF31F3061F31B409DF83410C0F6FF726C
:10043000CDE90101DDE90E0102F1805200F00F006B
:1004400061F314401099039011986FF3DF2102EAD1
:10045000004008440490DDE912011A9A6FF3DF208E
:1004600061F31A400590DDE914011B9B00F03F0089
:1004700061F3154006901698189900F03F00079018
:10048000BDF85C006FF31F3340EA0140BDF8641013
:10049000089041EA024009901C9844F2700544F229
:1004A000980760F31B430020C0F60005C0F6000764
:1004B0000A9302E001300A280FD055F820100E6888
:1004C00057F8203054F820201E40B242F2D00E6877
:1004D00026EA03031A430A60ECE7D8F8EC01002689
:1004E00040F00100C8F8EC0100BF00BF00BF00BF32
:1004F00000BF00BF00BF00BF00BF00BFD8F8EC01C5
:1005000020F00100C8F8EC0155F82600006857F803
:10051000261054F826200840824218BF00F026FF1B
:1005200001360A2EF0D1D8F8000040F08040C8F81B
:100530000000D8F8000040F00040C8F800001DB0EE
:10054000BDE8F083FEE7000040F60830C2F200008C
:1005500000F0AABB7047000070B582B004460020CE
:10056000019094F82800012801D1022552E00120D1
:1005700084F828002046FFF7A1FE0546002846D152
:10058000E06A41F2021188430230E06240F2040066
:10059000C2F200000668022000F0EAFEB6FBF0F0AE
:1005A000400000BF0190019810B101980138F9E7AF
:1005B00020688168C90722D1816841F00801816003
:1005C00000F026FE064600BF20688168090705D5B1
:1005D00000F01EFE801B0A28F6D910E0816841F069
:1005E0000401816000F014FE064600BF20688068A8
:1005F000400712D500F00CFE801B0B28F6D3012516
:1006000010206FF01201E26A11400843E0620020FE
:1006100084F82800284602B070BD01206FF0030165
:10062000F1E70000B0B581B00022009290F82820D8
:10063000012A01D1022179E04A680123062A02EB4E
:10064000820C80F8283005D8026802F1340E6FF071
:1006500004020AE003680C2A87BF03F12C0E6FF036
:10066000400203F1300E6FF022026244DEF800C057
:100670001F230C6893402CEA030304FA02F21A4386
:10068000CEF80020D1F800E002680EEB4E041023F3
:10069000BEF1090F88BF1E3C88BF0C2352F803C06F
:1006A00007258968A5402CEA0505A1402943D150BA
:1006B0002EF001014FF0000C10294FF0000133D152
:1006C000016842F20042C4F20102914205D0C16ABF
:1006D00041F02001C162012126E09268120222D479
:1006E0008A68BEF1100F42F400028A601BD140F20A
:1006F0000401C2F2000109684DF68362C4F21B32A4
:10070000A1FB0212910C01EB8101490000910099BB
:1007100049B100BF009901390091009900294FF0BB
:100720000001F7D100E0002180F828C0084601B0A0
:10073000B0BD000070470000704700007047000027
:10074000002804BF0120704770B50446C06A30B964
:100750000020206384F82800204600F09DF82068DF
:100760008168C90702D1002001211AE0816821F0C7
:100770000101816000F04CFD054600BF20688068E3
:10078000C007F0D000F044FD401B0328F6D3E06A18
:10079000002140F01000E062206B40F00100206377
:1007A0000120E36AE26A39B313F0100124D141F267
:1007B000021122EA01010231E162236A94E8660033
:1007C0002B4342F48075012E08BF2A46B6F5807F80
:1007D00008BF2A4694F818E0257CBEF1010F43EAD1
:1007E000450C16D16DB1E36A43F02003E362236B3D
:1007F00043F0010323630CE042F01000E0620120AB
:1008000070BDE3694EF60005CFF6FF7505EB433387
:100810001A434B6841F2FF65CFF6FF452B401A4360
:100820004A608A684FF2FD73CFF6E1731A4042EADC
:100830000C02012E8A6005D0B6F5807F02D0BEF191
:10084000010F26D162690023CFF6F07303EB025249
:10085000CB6A23F470031A43CA6289684FF6FE62BA
:10086000CFF63F721140614507D100212163E16A53
:10087000012262F30101E16270BDE06A40F0100004
:1008800020F00200E062206B40F0010020630120B4
:1008900070BD0022DCE7000070B586B0002641F292
:1008A00014010596CDE90366CDE90166C4F20201A3
:1008B0004A68044642F001024A604A6802F00102B6
:1008C0000092009A0A6842F001020A600A6802F087
:1008D00001020092009A0A6A42F004020A62096A5E
:1008E00001F0040000900098072001900320CDE95A
:1008F000020601A94FF0904000F0BCFB40F2002539
:100900000820C2F20005C4F202004FF48072C5E96B
:10091000000605F1100080214FF480634FF4405C25
:1009200080E84C102846C5E9026100F075F92846B8
:1009300000F0F6FA2846002100F02AF965626C62A0
:1009400006B070BDF0B581B015460446006842F6A9
:100950000002C4F2010290420E4605D042F200416C
:10096000C4F20101884209D142F20441C4F20101FA
:10097000096811F4702F01D001279DE094F8281028
:10098000012901D1022797E00121002784F82810CE
:1009900000978268D20734D1816841F001018160FB
:1009A0006FF01001016040F20400C2F20000006824
:1009B0004DF68361C4F21B31A0FB0101880C00EBF2
:1009C000800080000090009810B100980138F9E78D
:1009D00000F01EFC074600BF20688068C00725D1D4
:1009E00000F016FCC01B0328F6D3E06A002140F09B
:1009F0001000E062206B012740F00100206384F8C2
:100A00002810B9B142F204402168E26AC4F2010040
:100A100040F201339A4300F57F7302F580729942E8
:100A2000E2620BD0E06A20F480100EE00027012182
:100A30000029E7D1002084F828003DE0006810F488
:100A4000702FEFD0E06A40F48010E062E26A00208C
:100A5000D2044FF0000244BF226B22F00402226352
:100A600084F82800606A40F20532C0F6000240F2C5
:100A70006D3340F2553C00F1280EC0F60003C0F67D
:100A8000000C8EE80C106FF002020A608A682B4698
:100A900042F480728A604C31324600F089FA206854
:100AA000816801F460228168B2F5602F14BF41F4BF
:100AB000801141F4A0018160384601B0F0BD000012
:100AC000B0B5044690F82800012804BF0220B0BD4C
:100AD0000121206884F828108268D20702D1002002
:100AE00001BB31E0816821F00101816000F090FBE1
:100AF000054600BF20688068C00710D000F088FB62
:100B0000401B0328F6D3E06A002140F01000E062A9
:100B1000206B40F001002063012019B914E000208F
:100B2000012189B12168606A8A6822F480728A6032
:100B300000F00EF8E16A41F2011341F040029943DE
:100B4000002808BF4A1CE262002184F82810B0BDCA
:100B5000014690F82100022813D10868D1E90FC39B
:100B6000026822F00E020260026822F001020260B6
:100B7000012000FA03F2CCF8042081F821000020C3
:100B800002E0042088630120002281F820207047C1
:100B900041F21802C4F202020068A2F541639842D1
:100BA0004FF6F833CBF6FD730AD218444CF6CD431A
:100BB00000F58060CCF6CC43A0FB0303180909E0E4
:100BC00018444CF6CD43CCF6CC43A0FB03030720DE
:100BD00000EB131080B581B0136840F2080C43F0AD
:100BE000010313601268C4F2010C02F001020092CA
:100BF000009A20F00302182352F80CE003EAC00028
:100C00007F2383402EEA030301FA00F0184342F8E1
:100C10000C0001B080BD000000284FF0010141D060
:100C2000F0B540F204430268C4F202034FF6F83410
:100C300003F1040ECBF6FD74D2F800C0724538BF44
:100C400004F580644CF6CD451444CCF6CC45A4FBA9
:100C500005452CF0010440F2000C6FF00307C4F2CC
:100C6000020C07EA950514604FF000040CF580664D
:100C700001FA05F1146054609460D4603CBF002612
:100C8000C4F20206C0E90F65724538BF0CF10403D7
:100C900019600021C0E90A44C0E90C44846304845B
:100CA000BDE8F0400846704710B5D0E90FE3D0F832
:100CB00000C0DEF80020DCF80010DA4054072DD523
:100CC00011F004042AD0DCF80010890605D4DCF801
:100CD000001021F00401CCF800100422C4F202023A
:100CE00002F17C018C454CD940F20841C4F202016A
:100CF0008C4500F0A98040F21C41C4F202018C45F1
:100D000000F0A68040F23041C4F202018C4540F070
:100D1000A3804FF48061C2F80014EAE0940745D53F
:100D200011F0020442D0DCF80010890608D4DCF887
:100D3000001021F00A01CCF80010012180F82110E8
:100D40000422C4F2020202F17C018C4549D940F22E
:100D50000841C4F202018C4500F0AB8040F21C4116
:100D6000C4F202018C4500F0A88040F23041C4F288
:100D700002018C4540F0A5804FF40071C2F80014C8
:100D8000C6E04321C4F202018C453EDD6B21C4F272
:100D900002018C454BDC4421C4F202018C4500F079
:100DA0009B805821C4F202018C4560E0120740F19B
:100DB000B58011F0080108BF10BDDCF8001021F06B
:100DC0000E01CCF80010012101FA03F2CEF8042044
:100DD0008163016B4FF480720029028440F08B80A4
:100DE0009CE04321C4F202018C4543DD6B21C4F237
:100DF00002018C4550DC4421C4F202018C457DD0B7
:100E00005821C4F202018C456EE00821C4F20201AF
:100E10008C4564D01C21C4F202018C4567D030217E
:100E2000C4F202018C4522D14FF4806160E06C2154
:100E3000C4F202018C4554D08021C4F202018C45D9
:100E400015D14FF0806153E00421C2F8001450E046
:100E50004021C2F800144CE002F588634FF4802171
:100E60009C4508BF4FF48041C2F8001441E04FF4A4
:100E700080213DE00821C4F202018C4541D01C21B3
:100E8000C4F202018C4541D03021C4F202018C45EC
:100E90002AD14FF400713AE06C21C4F202018C4572
:100EA00031D08021C4F202018C451DD14FF0007178
:100EB0002DE00221C2F800142AE02021C2F800141B
:100EC00026E002F588634FF400319C4508BF4FF4DB
:100ED0000051C2F800141BE04FF4804108E00421E7
:100EE00006E04FF4800103E04FF400310FE04021B1
:100EF0001160C16A91B1BDE8104008474FF400513C
:100F000005E0022103E04FF4001100E02021116010
:100F1000816A0022002980F82020ECD110BD000059
:100F2000002804BF012070472DE9F04140F2000C79
:100F3000C4F2020C01684FF6F8320CF58163CBF66F
:100F4000FD72994238BF02F580624CF6CD430A44E7
:100F5000CCF6CC43A2FB03236FF003050CF58064B1
:100F600005EA9303D0E9012ED0F80C803CBF0024A1
:100F7000C4F20204C0E90F430B6843F6F075AB43BB
:100F80001A43D0E9045442EA0E0242EA0802D0E9C8
:100F900006672A43224332433A430A6000214FF452
:100FA000807281630284BDE8F0410846704700000A
:100FB00090F820C0BCF1010F04BF02207047F0B5CB
:100FC00090F821C04FF0010EBCF1010F80F820E035
:100FD00023D14FF0020C80F821C04FF0000CC0F874
:100FE00038C0D0E900C4C56AC66BDCF80070102CAC
:100FF00027F00107CCF80070006C0EFA00F070606A
:101000000846CCF8043004BF10460A46CCF8080065
:10101000CCF80C2035B10E200BE0002180F8201018
:101020000220F0BDDCF8000020F00400CCF8000045
:101030000A20DCF800100843CCF80000DCF80000BF
:1010400040F00100CCF800000020F0BDB0B504462F
:1010500000F0DEF8054640F21000C2F20000007811
:10106000611C18BF044400BF00F0D2F8401BA0422E
:10107000FAD3B0BD2DE9F04F82B00E68002E00F01B
:10108000BD8041F2000400F138428705C4F6000437
:10109000072340F2004C47EA9222A04208BF0423F3
:1010A000C4F2010C042A38BF134600224FF0010B92
:1010B00000270025009309E00E68013536FA05F394
:1010C00007F1040702F1020200F098800BFA05F81C
:1010D00016EA080EF0D04C6844F01004122C12D11D
:1010E0006FF0030303EA5504044407F01C060F23C2
:1010F000D4F8209003FA06FA0B6929EA0A09B340EA
:1011000043EA0903236203680324D1F8049094405E
:101110006FEA040AA34309F0030494402343B9F19E
:10112000120F036013D80BFA09F313F0061F0ED049
:101130008368CC6803EA0A039440234383604368CE
:10114000C9F3001423EA0803AC4023434360C36897
:101150008C6803EA0A03944023435FEAC904C3602E
:10116000AAD541F21804C4F2020423684FF61449C8
:1011700043F0010323602368CFF6FF7903F00103F6
:101180000193019B25F00303634453F8098007F0A2
:101190000C060F24B44028EA0408009C04FA06F662
:1011A00046EA080443F80940DCF800804C6848EA45
:1011B0000E06E30358BF28EA0E06CCF80060DCF800
:1011C0000480A30348EA0E0658BF28EA0E06CCF8AE
:1011D0000460DCF80880E30248EA0E0658BF28EAFB
:1011E0000E06CCF80860DCF80C30A40243EA0E06C8
:1011F00058BF23EA0E06CCF80C605DE702B0BDE8EC
:10120000F08F00001823002A08BF2823C150704720
:1012100040F6E430C2F200000068704740F210006F
:1012200040F6E431C2F20000C2F2000100780A6820
:10123000104408607047000080B5042000F086F874
:10124000072000F005F800F02BF8002080BD00001A
:10125000B0B540F21002C2F2000240F2040112786E
:10126000C2F200014FF47A730968B3FBF2F204464C
:10127000B1FBF2F1084600F01BFE072C4FF0010510
:101280000CD858B94FF0FF3021460022002500F05D
:1012900031F840F21400C2F2000004602846B0BDEC
:1012A00082B041F21800C4F20200016841F001016D
:1012B0000160016801F0010101910199416841F06B
:1012C00080514160406800F080500090009802B06A
:1012D00070470000002848BF704700F01F0101223E
:1012E00002FA01F14EF200124009CEF2000242F879
:1012F0002010704710B54EF60C5CCEF2000CDCF8F6
:101300000030C3F3022E8EF00704032C28BF032401
:10131000BEF104034FF0FF3E0EFA04F438BF002381
:10132000A14399400EFA03F39A43114300F160423E
:1013300000F00F03490102F56442043B63440028B6
:1013400048BF03F10C02117010BD00004EF60C51A5
:10135000CEF200010A684FF6FF031A4060F30A223A
:1013600042F0806040F0FD700860704701F066FA5E
:1013700080B5411E1F294FF0000000F21D81DFE8FB
:1013800011F020004A001B011B011B011B011B0166
:101390001B011B011B011B011B011B011B011B016D
:1013A0006D001B011B011B011B011B011B011B010C
:1013B0001B011B011B011B011B011B011B011B014D
:1013C0009F0041F20400C4F20200C16940F20232FF
:1013D0000A40B2F5817F04BF4FF4004080BD01F4A4
:1013E0004071B1F5407F0ED0B1F5007F40F0A5808F
:1013F000026A920744BF49F6404080BDB1F5407F84
:101400001CBF002080BD50F8040C4FF22441800323
:1014100001EAE07080BD41F20400C4F202000068FD
:101420004CF20002C1F2000200EA0201B1F5404FA5
:101430004FF0000080F28380002900F09780B1F522
:10144000804F00F09780B1F5004F40F0B58000F07C
:10145000A7FA4AF6AB21CAF6AA21FCE041F2040041
:10146000C4F20200416AB1F1FF3F76DD50F8041C7E
:10147000C90162D502684FF4400101EAD21102F4B9
:101480007013194444F2C003890CC0F6000342F4FF
:101490000032595C02F44032B2F5403F40F08D809A
:1014A000026844F20013C2F34042C0F600039A5CA3
:1014B00041F20023C0F27A035943B1FBF2F181E01B
:1014C00041F20400C4F20200426B02F00F0108294D
:1014D00018BF12F0080230D1082903D150F8041CBB
:1014E000890359D450F8041CC9015CBF002080BD99
:1014F00002684FF4400101EAD21102F4701319445A
:1015000044F2C003890CC0F6000342F40032595C77
:1015100002F44032B2F5403F43D1026844F2001376
:10152000C2F34042C0F600039A5C41F20023C0F2CD
:101530007A035943B1FBF2F138E0002080BD1DD0A1
:1015400044F20003C1F2000399421BD0914218BF3C
:1015500080BD00F025FA000980BD406A46F60041D2
:101560008006C0F2DC2101EAE07080BD00F018FACC
:10157000400880BD00F014FA800880BD00F010FA29
:10158000C00880BD00F00CFA4AF6AB21CAF6AA21C9
:10159000A0FB0101C80880BD41F20020C0F27A0022
:1015A00080BD41F20022C0F27A025143406B00F04C
:1015B0000F000130B1FBF0F080BD41F20022C0F21B
:1015C0007A02514300680022C8F2C0020240B2F120
:1015D000FF3F4FF0000009DDB2F5000F14DAC2B191
:1015E000B2F5800F04BF084680BDE5E7B2F1004FB9
:1015F00018D00023C8F240039A421AD012F1FF4FCC
:1016000004BF880880BDD7E720D0B2F5400F07D0CF
:10161000D2E748004AF6AB21CAF6AA21A0FB010195
:10162000480880BD45F25650C5F25550A1FB001048
:1016300080BD44F625124800C2F29242A0FB02028D
:10164000C2EB410002EB5000800880BD48004CF620
:10165000CD41CCF6CC41A0FB0101880880BD000043
:101660002DE9F04182B00446007841F22006C0071F
:10167000C4F2020650D056F8040C5FEAC0080BD43E
:1016800056F8040C40F0805046F8040C56F8040C50
:1016900000F080500190019847F20007C4F2000763
:1016A0003868C00512D4386840F480703860FFF79D
:1016B000AFFD05463868C00508D4FFF7A9FD401BFB
:1016C0006428F7D9032002B0BDE8F081306810F437
:1016D000407012D0616801F4407188420DD03068CA
:1016E000316820F4407241F4803131603168C007C4
:1016F00021F480313160326047D13068616820F474
:1017000040700843B8F1000F306005D456F8040C5F
:1017100020F0805046F8040C206881070DD4C106E3
:1017200018D4800605D5B069216920F00F00084360
:10173000B061002002B0BDE8F08156F81C1C43F6F1
:10174000FF72CEF6FF72A3681140194346F81C1CC5
:10175000C106E6D5E168B268B1F1004F05D142F0AB
:101760000041B1608006DED4E3E722F00042B260BF
:1017700056F81C2C4FF6FF73C7F63F731A401143FF
:1017800046F81C1C8006CED4D3E7FFF741FD054682
:1017900041F2883730688007AFD4FFF739FD401B2E
:1017A000B8424FF00300F5D9C4E70000002804BF99
:1017B000012070472DE9F04381B042F20008C4F2E5
:1017C00002080446D8F800000D4600F00F008842D9
:1017D0000CD2D8F8000020F00F002843C8F8000011
:1017E000D8F8000000F00F00A8427DD1206841F237
:1017F00004098107C4F2020917D5410705D5D9F8B4
:10180000001041F4E061C9F80010010705D5D9F8CE
:10181000001041F46051C9F80010D9F80010A26816
:1018200021F0F0011143C9F80010C00753D1D8F8D6
:10183000000000F00F00A8420CD9D8F8000020F0FA
:101840000F002843C8F80000D8F8000000F00F008F
:10185000A84249D12068410707D5D9F80010E268AD
:1018600021F4E0611143C9F80010000708D5D9F848
:101870000000216920F4605040EAC100C9F800006E
:10188000D9F8001001F00C00082841F20020C0F245
:101890007A0055D14FF4400202EAD11201F47013DC
:1018A0001A4444F20213920CC0F6000341F40031D2
:1018B0009A5C01F44031B1F5403F40D1D9F80010B5
:1018C00044F24213C1F34041C0F60003595C504357
:1018D000B0FBF1F034E06068022809D0012829D17A
:1018E00059F8041C890307D4012001B0BDE8F08336
:1018F00059F8041CC901F7D5D9F8001021F00301EB
:101900000843C9F80000FFF783FC064641F2883718
:10191000D9F80000616800F00C00B0EB810F3FF4D3
:1019200086AFFFF775FC801BB842F1D9032001B0E8
:10193000BDE8F08359F8041C8907D5D5DCE750438E
:10194000D9F8001044F24412C1F30311C0F60002AA
:10195000515C40F2040220FA01F140F21400C2F29C
:1019600000000068C2F200021160FFF771FC002065
:1019700001B0BDE8F083000040F2040041F2040130
:10198000C2F20000C4F202010068096844F2541275
:10199000C1F30221C0F60002515CC840704700004C
:1019A00040F2040041F20401C2F20000C4F202015C
:1019B0000068096844F25412C1F3C221C0F6000263
:1019C000515CC84070470000002804BF01207047E8
:1019D0002DE9F04182B00446007841F20006C007CC
:1019E000C4F202066CD0706800F00C00042809D123
:1019F0003068800364D56068002861D1012002B09E
:101A0000BDE8F081706800F00C00082803D1706810
:101A1000C003EDD470686068B0F5803F1DD13068B8
:101A200020F480303060306820F480203060FFF790
:101A3000EFFB05463068800309D5FFF7E9FB401B43
:101A400064284FF00300F5D902B0BDE8F081B06B17
:101A5000A16820F440700843B06365682DB1B5F506
:101A6000A02F0AD0B5F5803F0BD0306820F480302D
:101A70003060306820F4802006E0306840F4802038
:101A80003060306840F480303060FFF7C1FB002DDB
:101A9000054612D03068800312D4FFF7B9FB401B13
:101AA00064284FF00300F5D9CEE700BFFFF7B0FB85
:101AB000401B64284FF00300C6D830688003F5D47B
:101AC0002078800713D5706810F00C0F08D070686C
:101AD00000F00C00082836D17068C00333D4706859
:101AE0003068800703D56069012840F0D6802078EF
:101AF000C00616D42078000770D5E169706A002905
:101B000048D040F001007062FFF782FB054600BF3D
:101B1000706A80074FD4FFF77BFB401B0228F7D980
:101B200034E0A169B06A11B340F01000B062FFF771
:101B30006FFB0546B06A8006DCD4FFF769FB401BEB
:101B40000228F7D922E061693068002900F0C980D5
:101B500040F001003060FFF75BFB0546306880070E
:101B6000C5D4FFF755FB401B0228F7D90EE020F043
:101B70001000B062FFF74CFB054600BFB06A80065C
:101B8000B8D5FFF745FB401B0228F7D9032002B068
:101B9000BDE8F08120F001007062FFF739FB0546D7
:101BA000706A80071AD5FFF733FB401B02284FF0FD
:101BB0000300F5D948E740F20400C2F200000068D3
:101BC00044F6D351C1F26201A0FB0101480A019021
:101BD00000BF0198411E00280191F9D120784007EB
:101BE00019D4256A9DB1706800F00C00082858D1FE
:101BF000012D52D07068616A00F480328A424CD163
:101C00000021C6F23C01A26A0840904245D1002062
:101C100002B0BDE8F081F0695FEAC00808D4F0695D
:101C200040F08050F061F06900F080500090009822
:101C300047F20007C4F200073868C00511D43868BD
:101C400040F480703860FFF7E3FA05463868C00555
:101C500007D4FFF7DDFA401B64284FF00300F5D9E5
:101C6000F2E6E068012855D1306A20F001003062C8
:101C7000306A20F004003062FFF7CAFA054641F2EC
:101C8000883700BF306A80073ED5FFF7C1FA401B96
:101C9000B8424FF00300F5D9D6E6012002B0BDE806
:101CA000F081306820F080703060FFF7B1FA022DCB
:101CB00005460BD1306880016AD5FFF7A9FA401BB1
:101CC00002284FF00300F5D9BEE600BF306880015E
:101CD0009DD5FFF79DFA401B02284FF00300F5D970
:101CE000B2E620F001003060FFF792FA054600BF2F
:101CF000306880077FF5FBAEFFF78AFA401B0228A9
:101D00004FF00300F4D99FE6306A216920F01800F3
:101D100008433062E5681DB1052D09D0012D0BD0B7
:101D2000306A20F001003062306A20F0040006E0E2
:101D3000306A40F004003062306A40F001003062E6
:101D4000FFF766FA002D054641F2883714D000BF30
:101D5000306A800713D4FFF75BFA401BB8424FF09C
:101D60000300F5D970E600BFFFF752FA401BB842F6
:101D70004FF003003FF668AE306A8007F4D4B8F144
:101D8000000F3FF52EAFF06920F08050F06128E79A
:101D900070684FF6FF71C9F6C071D4E90923084095
:101DA000104318437060306840F080703060FFF777
:101DB0002FFA0446306880013FF529AFFFF728FA73
:101DC000001B02284FF00300F4D93DE6002804BFB1
:101DD000012070472DE9F04F81B004464068B0F50E
:101DE000827F1CBF0020E06194F8550028B90020D4
:101DF00084F85400204600F059F8022084F8550079
:101E00002068E2680168B2F5E06F21F040010160EE
:101E10004FF0000142F400634FF0000C98BF012125
:101E2000B3F5706F18BFC4F828C04FEA013ED4E97B
:101E30000131D4E904C503F4827902F4006201F4AB
:101E400004484A440CF0020CD4E90667424405F009
:101E5000010A624406F40071236A524407F0380B09
:101E6000A56A114403F08003594405F4005719434F
:101E7000394301600421626A01EA164102F400421A
:101E800041EA0E0111444160B5F5005F04BFA18D28
:101E90000161C16921F40061C16100200121A065D7
:101EA00084F8551001B0BDE8F08F000070470000C5
:101EB000411E0020B0EB116F1CBF012070474EF295
:101EC0001002CEF2000251604EF62351CEF2000114
:101ED000E0230B700721906011607047704700008D
:101EE00070470000002804BF0120704710B5044669
:101EF00090F83D0028B9002084F83C00204600F00E
:101F00000DF8022084F83D002068211D00F0E8F95A
:101F1000012084F83D00002010BD00007047000043
:101F20000068C16841F00101C160816801F00701EA
:101F3000062903D0016841F00101016000207047CB
:101F40007047000010B5044600680169890744BF66
:101F5000C1685FEA81713FD420680169490744BFC5
:101F6000C1685FEA417143D420680169090744BF31
:101F7000C1685FEA017148D420680169C90644BF9D
:101F8000C1685FEAC1614CD420680169C9071CBF00
:101F9000C1685FEAC17151D120680169090644BF77
:101FA000C1685FEA016150D420680169490644BFF5
:101FB000C1685FEA41614FD421680869800646BF65
:101FC000C8685FEA806010BD6FF0200220460A6199
:101FD000BDE81040FFF784BF6FF0020101610121ED
:101FE0002177806980073ED02046FFF7A9FF40E0B7
:101FF0006FF00401016102212177806910F4407FB4
:102000003AD02046FFF79CFF3CE06FF008010161E9
:1020100004212177C069800737D02046FFF790FF61
:1020200039E06FF01001016108212177C06910F4D7
:10203000407F33D02046FFF783FF35E06FF001018A
:102040000161204600F038F8A6E76FF080010161D9
:102050002046FFF743FFA7E76FF0400101612046EC
:1020600000F034F8A8E7204600F022F8204600F0FF
:1020700021F8002020776FE7204600F019F820466D
:1020800000F018F8002020776EE7204600F010F8E6
:10209000204600F00FF8002020776DE7204600F082
:1020A00007F8204600F006F8002020776CE70000D3
:1020B0007047000070470000006841F20001C4F260
:1020C0000001884218BF704700F0A2B970470000B5
:1020D000002804BF0120704710B5044690F8450061
:1020E00028B9002084F84400204600F035F8242068
:1020F00084F845002068C16821F40051C160204681
:1021000000F08EF994F82000400610D52068616A2E
:102110004269B1F5805F22F4805242EA01024261D5
:1021200005D14169A26A21F4C0411143416120688F
:10213000016921F490410161416921F02A01416165
:10214000C16841F40051C16000202021A06484F8DE
:10215000451084F8461010BD704700002DE9F0438B
:1021600081B0044690F8450020281AD10D46002978
:102170004FF0010000F08F801746002A00F08B809E
:10218000A0689846B0F5805F07D1E80705D02069C0
:1021900018B9012001B0BDE8F08394F8440001288B
:1021A00003D1022001B0BDE8F083012084F844008F
:1021B0000020A064212084F84500FFF729F8278635
:1021C0006786A1688146B1F5805F01D1206910B1B1
:1021D0002E46002500E00026608E60B308F101075E
:1021E0000AE000BF96B116F8010B21684860608EC6
:1021F00001386086608EF0B1206800680006F1D476
:10220000BFB1B8F1000F0ED120E000BF35F8020BCE
:1022100021686FF35F2048600026E8E7016809063F
:10222000E0D4002FFAD0FEF7F3FFA0EB0900404501
:102230000CD82068F2E720680068400624D4B8F182
:10224000000F03D018F1010510D016E02068C16816
:1022500021F4D071C160416921F001014161202068
:1022600084F8450084F84600032011E0206800BF90
:102270000168490608D4002DFAD0FEF7C9FFA0EB8B
:1022800009004045F2D9E1E7202084F8450000200C
:10229000002184F8441001B0BDE8F083FEE700009F
:1022A000FEE7000070470000704700007047000024
:1022B000FEF7B4BF80B5FEF75DF84EF68850CEF25B
:1022C0000000016841F4700101604FF0006140F8C6
:1022D000801C80BD40F24420C2F20000FFF732BEF5
:1022E00010B540F6FF3E0368C4F2000E43F2004C06
:1022F0007045C4F2010C0FDCB0F1804F1AD040F2EF
:102300000042C4F20002904214D040F60002C4F22F
:10231000000290420ED011E040F60042C4F20002EA
:10232000904207D0604505D042F60042C4F2010257
:10233000904203D14A6823F07003134341F6FF72C1
:10234000C4F2000290420DDC704520DCB0F1804FF9
:1023500042D040F20042C4F2000290423CD040F62B
:10236000000222E044F6FF32C4F20102904221DC76
:1023700042F20002C4F2000290422DD042F6004226
:10238000C4F20102904227D0604525D028E040F6F3
:102390000042C4F2000290421ED041F60002C4F294
:1023A0000002904218D041F60042C4F2000290426E
:1023B00012D015E044F60042C4F2010290420BD064
:1023C00045F20042C4F20102904205D045F20002FB
:1023D000C4F20102904203D1CA6823F4407313434C
:1023E00023F080024B69D1F800E08C681A43604505
:1023F0000260C462C0F828E005D042F60042C4F290
:102400000102904201D1096901630121416110BDBE
:1024100040F29020C2F20000016801310160704773
:1024200070B50446006804F108030ECB0569194332
:1024300025F440552A430261626941F20C6311435D
:10244000C2684FF69C769A431143C1604169A26904
:1024500021F44071114341614169E26921F4006155
:102460001143416143F60001C0F6FF76B2F5006FFB
:10247000C4F2010104D1884207D0FFF77DFA06E0DB
:10248000884223D0FFF778FA22E0FFF789FA6268E2
:10249000192148435100B0FBF1F048F21F51C5F239
:1024A000EB11A0FB01235A0906F1805302FB030044
:1024B000322303EBC000A0FB01014FF4F87000EAE7
:1024C000111000EB0210C1F342111CE0FFF768FA93
:1024D0006268192148439100B0FBF1F048F21F51A6
:1024E000C5F2EB11A0FB01235A0902FB06003223BF
:1024F00003EB0010A0FB0101F02000EA511000EBFB
:102500000210C1F3431108442168886070BD0000C7
:102510002DE9F04F83B045F60E48C4F2000818F8D4
:102520000A5C18F8084C18F8090C40F2A026019033
:1025300098F80000C2F200060290680719D53046EC
:102540004FF4C071FDF729FE4020706001F028F8BB
:1025500018F80D0C40F6DC3140F0010008F80D0CC5
:10256000012008F8040C0020C2F2000108F8050C54
:102570000870A80748BF01F03FF8E80718BF01F04E
:102580004FF818F8040C00EA04095FEAC97038D063
:10259000002188F8001098F80200420724D4C106F0
:1025A00008D5802188F8021040F6DC31C2F2000123
:1025B00000220A70317821B1317808F80E1C002110
:1025C000317040F6DC31C2F200010A78062A16D8D2
:1025D000DFE812F0D80019011500F000070007002D
:1025E0001401002008700AE098F8020000F0FB00D7
:1025F00088F8020040F6DC30C2F20000017009F0F9
:10260000FE09B9F1000F5FD04FF0010B012411E07A
:10261000DCF8381044F08000C0B200F055FF40F202
:10262000A02629EA0A09C2F20006B9F1000F04F156
:10263000010449D0E0B20BFA00FA1AEA090FF4D00B
:1026400088F8004098F80710490705D598F8071052
:1026500001F0FB0188F8071000EB800106EB810C0C
:10266000634653F8302F1E4656F8045F33F8081CB3
:1026700003F108078D4209D902EB010E3A68C3F84D
:1026800000E00A443A606B1A08E000BF02EB050E56
:102690003A68C3F800E02A4400233A60002B336014
:1026A000B6D08B4238BF194659B1DCF8303008F14A
:1026B0001202013B13F8017F01390E0402F8207069
:1026C000F8D188F807B0AAE718F8050C019910EAC4
:1026D000010A51D04FF0010908F1120701260EE05E
:1026E00018F8052C22EA0B0208F8052C00F024FF4C
:1026F0002AEA0B0ABAF1000F06F101063CD0F0B24B
:1027000009FA00FB1BEA0A0FF4D088F8006098F879
:102710000B10C907ECD040F2A022B8F80E3000EB45
:102720008001C2F2000202EB810E0EF1D00C53B117
:10273000DCF800101A46013917F82040013A150458
:1027400001F8014FF8D1DCF800100EF1C80519446A
:10275000CCF80010DEE935212D881944D41AAB429B
:10276000CEE93541BCD39A42BAD098F80B0000F0BC
:10277000FE0088F80B00BBE7029888F8000003B061
:10278000BDE8F08FC0073FF43AAF98F8030008287F
:102790007FF435AF06F11F00082100BF98F8122022
:1027A00001390B0400F8012FF8D106F1200000F0E8
:1027B0003DFE24E7C0073FF422AF98F8030050B174
:1027C000D6F8D0100246013998F81230013A1704B1
:1027D00001F8013FF8D106F1D0030ECBB6F8C8706E
:1027E0000144C6F8D01019188742C6F8D8101CD872
:1027F00091421AD0402088F8020000E78020002192
:1028000000F062FEFBE6D6E90D01328D904203D95D
:102810001144B163801A02E00844B0630020B16B38
:102820007063802000F050FEE9E6002000F084FE96
:10283000E5E60000FFF76CBEFEE700004EF60C5028
:10284000BFF34F8FCEF200000168042201F4E06173
:10285000C0F2FA5211430160BFF34F8F00BFFDE792
:1028600010B586B000200590CDE90300CDE9010048
:1028700041F23400C4F20200016840F2004441F029
:10288000080101600068C4F6000400F00800009030
:1028900000984FF4804001900120029003200490A2
:1028A00001A92046FEF7E6FB20464FF480410022B6
:1028B000FEF7A8FC06B010BD024640F20040C4F688
:1028C00000004FF48041FEF79DBC0000B0B586B01B
:1028D000002541F214000595CDE90355CDE90155D8
:1028E000C4F20200016A41F008010162016A01F0CC
:1028F000080100910099816841F4804181608168FC
:1029000001F4804100910099016841F001010160EA
:10291000006800F0010000900098FFF7A1FF4FF45D
:1029200000400190022002900320CDE9040040F213
:102930000040C4F6000001A9FEF79CFB40F60834F5
:102940001C20C2F20004C4F20200102180224FF4C5
:10295000005384E823002046C4E90325C4E9055553
:10296000E361FEF7DDFA40F6503043F60001C2F2B3
:102970000000C4F200014FF482724FF4E06380E87B
:10298000260000F11401C46460624FF4007C05620B
:102990004FF0180EC0E9033581E82050FFF716FA12
:1029A00020460821FEF7F4F80C2001210022FEF752
:1029B000A1FC0C20FEF78EFC06B0B0BD10B582B0B5
:1029C00041F21C00C4F20200016840F2442441F0CC
:1029D0001001016000684DF6836100F01000019065
:1029E000019840F20400C2F200000068C4F21B31FA
:1029F000A0FB010141F20000C2F20004C4F2000099
:102A00004FF0FF3202EB914140F2E732002384E8BD
:102A10000D002046E160C4E90533FFF763FA362074
:102A200003210022FEF766FC3620FEF753FC204609
:102A300002B0BDE81040FFF773BA0000F0B587B0F0
:102A4000002641F218010696CDE90466CDE902663A
:102A5000C4F202010A68044642F480420A600A682D
:102A6000022702F480420192019ACA6902AD42F043
:102A70000402CA61C96901F00400019001984FF491
:102A800000700290012004900320CDE905074FF06B
:102A9000904029460397FEF7EDFA4FF480600290CC
:102AA0004FF0904029460697FEF7E4FA40F2B41042
:102AB00043F60001C2F20000C4F20101082280E8DE
:102AC0005200C0E90366C0E90526C0E90766FFF7C2
:102AD000FFFA00B1FEE707B0F0BD000080B582B09C
:102AE000019040F2B410C2F2000001A901224FF49B
:102AF0007A73FFF733FB019802B080BD70B582B0E6
:102B00001646024640780D46411E0A294FF0FF3016
:102B100032D89488DFE801F0060D123030303030C2
:102B20001A242B005188E0B20A0AC9B201F00CF84D
:102B300007E09178E0B200F0FFFF02E0E0B201F0C0
:102B400001F8296808700120306014E051882B6872
:102B500036780A0AE0B2C9B2009600F0FFFF0AE038
:102B60005188E0B20A0AC9B200F0F0FF03E09178A0
:102B7000E0B200F0F1FF002002B070BD80B544F279
:102B80005C10C0F6000000F021FA40F6B03044F2CC
:102B90000F2144F2CF12C2F20000C0F60001C0F6CD
:102BA0000002402300F050FD00F0F6F940F208006A
:102BB000C2F2000000F0DCF9BDE8804000F05CBD2E
:102BC000F0B581B040F2D844C2F2000420464FF480
:102BD000C661FDF7E2FA40F22047C2F2000738462C
:102BE000B721FDF7DAFA002000EB4002B9184B7864
:102BF000002500BF03FA05F636066FF0070658BF3A
:102C00006FF01F0666550135082DF3D1BA5C00231D
:102C100002FA03F636066FF0070604EB030503F12C
:102C2000010358BF6FF01F06082B2E72F0D1897870
:102C3000002200BF01FA02F31B066FF0070304EB4A
:102C4000020602F1010258BF6FF01F03082A337415
:102C5000F0D101303D2804F11804C5D1012001B0A4
:102C6000BDE8F040FFF728BE92B0FEF7E5FA06ACEB
:102C700020462C21FDF791FA1F2006904FF480305A
:102C8000022607904FF40071CDE90E604FF000501E
:102C90000025089110210122109020460595CDE9CC
:102CA0000355CDE901550C910B92CDE909510D95D4
:102CB000FEF78AFE08B100BFFEE70F20CDE901064E
:102CC00001A80621CDE903550595FEF76FFD00B17A
:102CD000FEE740F60008C4F60008FFF76FFE4FF469
:102CE000E130FFF7ABFEFFF7F1FDFFF769FF44F2BC
:102CF0001820C0F6000001F085F941F21806C4F270
:102D00000206306840F001003060306800F00100D9
:102D100006900698306940F000403061706840F4D9
:102D200000007060706800F4000006900698FFF7DD
:102D300025FF4EF20010CEF200004FF4002101609A
:102D4000F06906AD40F00400F061F069002400F085
:102D5000040006900698F0694FF0010940F0100059
:102D6000F061F069294600F01000069006984FF4D3
:102D70007070069040460A94CDE90844CDF81C9046
:102D8000FEF778F94FF480774FF090402946CDE96F
:102D900006790894FEF76EF9072006904FF0030AB3
:102DA0004FF090402946CDE907A4FEF763F903945C
:102DB000CDE901440A94CDE90844CDE906443068E0
:102DC00040F4007030603068022600F4007011900A
:102DD00011984FF44040089006A80696FEF740FC74
:102DE00040F2801042F20041C2F20000C4F2010140
:102DF000C0E900144FF46021C0E902470474C0F830
:102E000014A00476C0E90741FDF79AFC08B100BFA1
:102E1000FEE740F28015CDE901490420C2F2000529
:102E200001AC039028462146FDF7FCFB28462146CD
:102E3000CDE90196FDF7F6FB28462146CDE9016A6A
:102E4000FDF7F0FB44F21820C0F6000001F0DAF8BC
:102E50002846FDF781FB00B1FEE74FF090404FF4AC
:102E600080710122FEF7CEF940464FF470710122C5
:102E7000FEF7C8F94046402100220026FEF7C2F9BD
:102E800006960698632805DC069801300690069899
:102E90006428F9DB40F2882440F28015C2F2000475
:102EA000C2F200050FF250080FF26C090FF2780A17
:102EB00021A700BF2846214603222660A680FDF7F1
:102EC00041FD0146404600F04BFE0A20FEF7BEF8E9
:102ED0002188484600F044FE6188504600F040FEDC
:102EE000A188384600F03CFE2846FDF7E9FD4FF486
:102EF0007A70FEF7ABF8DDE748414C5F4144435F31
:102F000053746172745F444D4120726574203D209A
:102F100025640D0A000000004368616E6E656C3127
:102F20003A2025750D0A00004368616E6E656C32AB
:102F30003A2025750D0A00004368616E6E656C339A
:102F40003A2025750D0A000080B500F00FF845F60F
:102F50000041C4F20001002207208A730A7008723F
:102F60000120887200204A7280BD00007047000076
:102F700090F9001040F2180301F07F02C2F2000342
:102F8000406803EB820202F59E73002948BF02F5F8
:102F90008E7318607047000040F2180CC2F2000CEB
:102FA0009CF85E2140F6E033C2F2000380F8202056
:102FB00019461B68002BFBD1086000210160501CE2
:102FC0008CF85E01704700007047000040F2180165
:102FD000C2F200018861002081F85E0170470000A4
:102FE00040F6E830C2F20000012101707047000095
:102FF00045F61041C4F2000143B211F8022C00F072
:103000007F00002B01F8020C09D490B1487A00F03F
:103010009F004872487A40F0800048720DE040B14D
:10302000487900F0CF004871487940F0400048717D
:1030300003E0087800F0FB000870002001F8022C83
:10304000704700000020704745F60E42C4F20002AF
:1030500092F800C010F07F0313700ED040B2072327
:10306000B0F1FF3FC8BF0B23D05C4FF00403C8BFD3
:103070000523D84000F0010000E000200870002087
:1030800082F800C070470000027812F07F0341D040
:10309000072B84BF4FF0FF307047B0B545F60E44A4
:1030A000C4F2000494F800C0237051B2428840F288
:1030B000A02E0029C2F2000E3FD403EB830140781A
:1030C0000EEB810181F8CA000138B0FA80F04009A6
:1030D00001238001A1F8C82081F8CC30A072E07AE9
:1030E0000723C0076FF06F0008BF6FF07F00E0722A
:1030F000082A98BF0822501EC108072938BFC308F4
:10310000013300BF402A48D93728FBD901230020CA
:10311000237347E040F2A021C2F2000140220020C8
:103120000123A1F8C82081F8CA0081F8CC300A85B3
:1031300081F82A0081F82C30704703EB8301407836
:103140000EEB810101250A8581F82A0081F82C50B7
:1031500014F8041C05FA03F3194304F8041C202195
:10316000012808BF6021A171E079072380074FF093
:10317000480058BF4020E071082A98BF0822501E1E
:10318000C108072938BFC308013300BF402A07D947
:103190003728FBD90123002003E0D800237301E086
:1031A000D8002372DEF804100844CEF80400002092
:1031B00084F800C0B0BD000045F61041C4F2000123
:1031C00043B211F8022C00F07F00002B01F8020C32
:1031D00005D450B1487A40F0200048720FE020B189
:1031E000487940F01000487109E040F6DC30C2F246
:1031F000000007230370087840F06000087000208A
:1032000001F8022C7047000021B9002A1CBF4FF0C2
:10321000FF30704710B500F07F0440F2A02304EBAC
:103220008400C2F2000303EB800090F8CC30DBB1E5
:1032300045F60E4EC4F2000E9EF800C000238EF834
:103240000040C0E93412C0F8D83084B101201EF823
:10325000051CA04008430EF8050C9EF80B0000F07A
:10326000FE008EF80B0016E06FF0010010BD40F676
:10327000DC31C2F200010878062818BF012801D10C
:10328000052007E038B99EF8020040F040008EF8B3
:1032900002000320087000208EF800C010BD00005E
:1032A00021B9002A1CBF4FF0FF30704770B500F005
:1032B0007F0040F2A02500EB8003C2F2000505EB81
:1032C000830393F82C501DB345F61046C4F2000654
:1032D00016F802CC06F8020C7479E4071BD103F14E
:1032E00028040025C3E90C129D63C8B1002A4CD004
:1032F000248894423DD2002C47D006F110020139B7
:1033000011F8013F013C250402F82030F8D13CE0DF
:103310006FF0010070BD6FF0020006F802CC70BDC6
:1033200040F6DC3EC2F2000E9EF80030032B32D095
:10333000012B36D05BBB72B3402333702488944298
:1033400006D340F6E833C2F200031B78002B4FD0BF
:103350004CB106F11002013911F8013F013C25047E
:1033600002F82030F8D10220307001208EF80000E1
:103370000DE0130409D006F11003013911F8015FC3
:10338000013A140403F82050F8D101207071002094
:1033900006F802CC70BD4820307004208EF8000082
:1033A000F5E7BAB12488944205D340F6E833C2F277
:1033B00000031B7853B354B106F11002013900BF6A
:1033C00011F8013F013C250402F82030F8D1022019
:1033D0003070DCE740F6E831C2F2000100200870EE
:1033E0000A21317006218EF8001006F802CC70BD5B
:1033F000130409D006F11003013911F8014F013A05
:10340000150403F82040F8D10A20ADE7130409D0D1
:1034100006F11003013911F8015F013A140403F8B1
:103420002050F8D10A203070B1E70000F0B581B02B
:103430000168406840F21805C2F20005C5E90010B5
:10344000EA8848B2B2F5807F01D9002836D505F167
:103450001C040021C5E902422A61297542B10028F5
:1034600006D40020214601B0BDE8F040FFF7CCBEF5
:1034700000F014F910B32E69EF88A968BE423A46ED
:1034800038BF32468807EA6008D0B2F5807F84BF33
:1034900001B0F0BD2046FCF767FEAC60B00605D178
:1034A000BE4203D201202875FFF79AFDD5E902122A
:1034B000802001B0BDE8F040FFF7F2BE802001B0EF
:1034C000BDE8F040FFF778BE802815D140F2180C17
:1034D000C2F2000CDCE902024318521ACCE90232B3
:1034E00016D19CF81400B8B10023802000210022DE
:1034F0008CF81430FFF7D4BE40F2180300F07F02BE
:10350000C2F2000303EB8202D2F81C2192B11047F1
:1035100080201946FFF7C4BEBCF8060050B19CF9E4
:103520000000B0F1FF3FC8BF70470020002100221B
:10353000FFF76ABE7047000058B140F2180300F070
:103540007F02C2F2000303EB8202D2F83C210AB3ED
:103550001047002908BF704740F2180CC2F2000C57
:10356000DCE902205318421ACCE9023213D180B5AB
:103570000CF11C00CCF8080000F090F80028BDE821
:1035800080404FF0800008BFFFF716BE00210022E8
:10359000FFF786BE704700201946FFF735BE0000D2
:1035A000B0B582B00020002500F068F840F21800A5
:1035B000C2F20000A0F85C518020C0F2400001ACD3
:1035C00001902046FFF760FD20468DF80450FFF77C
:1035D0005BFD40F6E030C2F20000046801E000BF8D
:1035E000246834B12269002AFAD0012000219047D2
:1035F000F6E702B0B0BD000010B540F6E030C2F210
:103600000000046801E000BF2468002C08BF10BD62
:103610002269002AF8D0062000219047F4E7000034
:1036200010B540F6E030C2F20000046801E000BFCF
:103630002468002C08BF10BD2269002AF8D005209C
:1036400000219047F4E7000080B542F6FD2CC0F65B
:10365000000C4FF0000EC0E901CE00F1140CC0E9DF
:1036600003EE8CE80E0080BD40F64C30C2F2000044
:103670000021017070470000FFF766BC014628B9C1
:1036800045F60040C4F200000022027040F2A02281
:10369000C2F2000200201170704700002DE9F04FC7
:1036A00083B040F21804C2F20004207800F06001F8
:1036B000402927D020293AD0002940F02B8200F061
:1036C0000300022800F0AC80012800F0C38000282D
:1036D00040F0208260780025092800F21C82B4F8AE
:1036E0000290DFE810F0D100D4011802D4011802D2
:1036F0000A00EF00180206010A015FFA89F0FFF7DD
:10370000BDFFC4E140F6D430C2F20000006898B3B7
:1037100061784279914241D1A188052900F0BB80AE
:10372000042940F0F78181688089A160B0E100F050
:10373000030001284FD002286AD140F6E037C2F2D8
:10374000000704F1080504F1100602E00121002938
:1037500060D03F68002F5BD0BB68002BF6D097F895
:10376000201062798A42F1D1204629463246984794
:1037700000210029EDD14DE040F6D830C2F2000022
:10378000006858B161788279914207D1A1880729F0
:1037900040F0C08101688088A16079E140F6E030A6
:1037A000C2F200000768002F00F0B48104F10805A0
:1037B00004F1100604E000BF3F68002F00F0AA816A
:1037C000FB68002BF8D0204629463246984700284F
:1037D000F2D101259FE140F6E037C2F2000704F183
:1037E000080504F1100601E0012199B13F687FB19D
:1037F0007B68002BF8D097F8201022799142F3D102
:10380000204629463246984700210029EED101E0A2
:103810004FF0FF300025B0F1FF3FC8BF01257AE12E
:1038200094F85D01002800F075816178A088032973
:1038300035D001293FD0002940F06C81C0B20DF194
:103840000B01FFF701FC9DF80B00A1680870A06850
:1038500000211DE094F85D01002800F05B81627892
:1038600000250B2A00F257816188A088DFE812F05A
:103870000C005301530153015301530188005301BC
:1038800053015301A200A800A06800210170A068A4
:1038900041700220FCE00169808AA160F8E0618843
:1038A000B1FA81F24FEA521511B9C0B2FFF784FCA8
:1038B000002020612FE16188002900F0EC800025C4
:1038C000256128E14FEA192003285FFA89F108BF32
:1038D000EE2900F0E5800F2840F0EC8040F28420D3
:1038E000C2F200000068002800F01581D0E9000154
:1038F0005CE004F25D10A0605FE0A7693878002802
:1039000000F0C080FF2500265FFA89FB0DF1020858
:103910004FF0FF0A07E097F803A03878395C0744B6
:10392000002900F09580787805280BD00428F2D083
:103930000228F2D17D79A5EB0B00B0FA80F04009A6
:103940000643EAE7E8B2584508BFBAF1000F03D0D2
:10395000B878FFF777FBE0E7B878F9788DF80200E0
:10396000B8886FF3DF20ADF8040001F003008DF894
:1039700003004046FFF788FBB0FA80F04609CCE729
:10398000090A212900F0B780222940F0C480C1B281
:1039900040F6E030C2F200000068002800F0BA8073
:1039A00090F820208A42F7D1D0E90601A060216179
:1039B0000125B0E0A0680021017001252561AAE081
:1039C000A7693A78AAB35FFA80FA5FFA81F9FF260D
:1039D0000DF106084FF0FF0B13E0B878F9788DF879
:1039E0000600B8886FF3DF20ADF8080001F003008F
:1039F0008DF807004046FFF747FB3878395C0744ED
:103A0000B9B1787805280CD00428F6D1BE7897F89B
:103A100003B086EA0A008BEA0901084308BF3D4665
:103A2000EBE75645E9D1CB45D7D0B878FFF70AFB8D
:103A3000E3E740F6E030C2F20000066800E03668D6
:103A40002EB33269002AFAD0082029469047F6E7BB
:103A5000F00717D040F6E030C2F200000568012000
:103A600084F85D9184F85C012DB9FFF7ADFA0EE0A2
:103A70002D68002DF9D02A69002AF9D007200021ED
:103A80009047F5E7002084F85D9184F85C01002000
:103A9000206101253FE0C0B2FFF7AAFA01253AE014
:103AA00040F6D430C2F200000068A0B3016800798B
:103AB000A160EDE74FEA5922022A2CD809F47E4290
:103AC000B2F5806F27D0A2691378002B1D4618BF6E
:103AD000012520D0002707E0D618D35C3246002B02
:103AE0001D4618BF012516D05678B042F4D18F423A
:103AF00016D00137F0E7C1B240F6E030C2F2000064
:103B0000006838B190F820208A42F9D14069A0605D
:103B10000920BDE7002505F0010003B0BDE8F08FE6
:103B2000E907F8D00228A26002D150882061F2E7AC
:103B300010782061EFE7000040F6AC30C2F20000E0
:103B400000787047002070470020704740F6AC3086
:103B5000C2F200000270704770470000704700001A
:103B60000FB4054B10B503A9044A029800F018F8E9
:103B700010BC5DF814FB0000DD2A000800000020E6
:103B800002E008C8121F08C1002AFAD17047704726
:103B9000002001E001C1121F002AFBD17047000084
:103BA0002DE9FF4F8DB00F460546002606E025287B
:103BB0000BD0DDE90F1290476D1C761C2878002889
:103BC000F5D111B03046BDE8F08F0024A246A146E1
:103BD0000122EC4900E0044315F8013F203B02FAC2
:103BE00003F00842F7D128782A2810D06FF02F026E
:103BF0002878A0F13001092914D80AEB8A0102EBD8
:103C0000410144F0020400EB010A6D1CF0E701CF12
:103C10005FEA000A03D544F40054CAF1000A44F0F4
:103C200002046D1C28782E2817D115F8010F44F0D6
:103C300004042A280ED06FF02F022878A0F130015A
:103C400009290AD809EB890102EB410100EB0109BE
:103C50006D1CF2E757F8049B6D1C28786C280FD078
:103C600006DC4C2817D068280DD06A2814D104E04F
:103C7000742810D07A280FD10DE044F400140AE023
:103C800044F4801401E044F440146978814202D184
:103C900004F580146D1C6D1C2A786E2A1FD00CDC74
:103CA000632A31D004DC002A8BD0582A11D1A3E03A
:103CB000642A68D0692A0CD165E0732A2ED004DC0E
:103CC0006F2A73D0702A04D19BE0752A6FD0782AAE
:103CD0006ED01046DDE90F129047761C50E1C4F318
:103CE0000250022806D0032809D0042801CF09D0A9
:103CF000066045E101CFF117C0E9006140E101CF65
:103D000006803DE106703BE117F8040B8DF80000DA
:103D100000208DF80100EB46012003E057F804BBBA
:103D20004FF0FF3061074FF0000102D40DE008F1C1
:103D30000101884649450FDA8045F8DB1BF8081079
:103D40000029F4D108E008F1010188468142FADB3C
:103D50001BF808100029F6D1DDE90F23AAEB0800B3
:103D60008146214600F036F9304400EB080604E0B5
:103D7000DDE90F121BF8010B9047B8F10108F7D2EB
:103D800021464846F7E00A21C4F302534FF0000BE6
:103D90000891022B04D001CFC117032B09D00AE0F0
:103DA000FF1D27F00707F7E8020108E032E01FE0F7
:103DB00020E000B2C117042B01D140B2C117031E8D
:103DC00071F1000307DA4FF0000CD0EB0C006CEB44
:103DD00001012D2302E0230504D52B238DF8243087
:103DE000012303E0E30701D02023F7E7984658E0DA
:103DF0000A2110E010210EE010204FF0000B089077
:103E00000CE010214FF0000B44F004044FF00809BF
:103E1000089103E008214FF0000B0891C4F302530E
:103E2000022B04D001CF0021032B06D006E0FF1D9A
:103E300027F00707F7E8020103E080B2042B00D166
:103E4000C0B24FF0000823072BD5702A07D0DDF849
:103E500020C08CF0100C5CEA0B0C05D00EE0402367
:103E60008DF82430012308E050EA010306D0302306
:103E70008DF824308DF8252002239846DDF820C0E7
:103E80008CF0080C5CEA0B0C0BD150EA010301D159
:103E9000630706D530238DF824304FF00108A9F1CF
:103EA0000109582A04D038A20B9208AA0A920BE002
:103EB0003AA2F9E75B46089AFCF77AF90B9B9B5C00
:103EC0000A9A521E0A92137050EA0102F2D10A981D
:103ED000ADEB000000F1200B600702D524F4803424
:103EE00001E04FF00109D94502DDA9EB0B0000E02C
:103EF000002000EB0B0141440890AAEB010AE0030B
:103F000006D4DDE90F232146504600F063F806444D
:103F10004FF0000908E009A911F80900DDE90F12C6
:103F2000904709F10109761CC145F4DBE0030CD58B
:103F3000DDE90F232146504600F04CF8064404E02A
:103F4000DDE90F1230209047761C0899481E089032
:103F50000029F5DC08E00A980A990078491C0A91C2
:103F6000DDE90F129047761CBBF10001ABF1010BAC
:103F7000F1DC21465046DDE90F2300F019F8064434
:103F80006D1C1BE6092801003031323334353637D9
:103F90003839616263646566000000003031323395
:103FA0003435363738394142434445460000000035
:103FB0002DE9F041044600251E461746880404D426
:103FC00005E039462020B0476D1C641EF9D528460F
:103FD000BDE8F0812DE9F041044600251E469046DB
:103FE000C80301D5302700E02027880404D505E068
:103FF00041463846B0476D1C641EF9D52846BDE8D9
:10400000F081000010B5044601E0FEF767FD14F8EA
:10401000010B04490028F8D1BDE810400A20FEF742
:104020005DBD0000000000201051FF1F1451FF1F54
:104030001851FF1F4851FF1F4C51FF1F0056FF1F13
:104040000456FF1F0052FF1F0452FF1F4051FF1F65
:104050004451FF1F0852FF1F2051FF1F2451FF1F13
:104060002851FF1F2C51FF1F3051FF1F3451FF1FDC
:10407000082202400C220240202202402822024054
:10408000242202401C2202402C2202401022024024
:104090001422024018220240FF0FFF0FFF00000011
:1040A0000F001F00FF07FF1FFF07FF073F003F0034
:1040B0003F000000FFFFFFFFFFFFFFFFFF0FFF0FAD
:1040C00002030405060708090A0B0C0D0E0F101158
:1040D00012131415161718191A1B1C1D1E1F202148
:1040E00022232425262728292A2B2C2D2E2F303138
:1040F00032333435363738393A3B3C3D3E3F3F3F2B
:10410000010202030405060708090A0B0C0D0E0F35
:10411000101112131415161718191A1B1C1D1E1F27
:10412000202122232425262728292A2B2C2D2E2F17
:10413000303132333435363738393A3B3C3D3E3F07
:104140003F3F0102000000000000000001020304E4
:104150000607080900000000010203041201000222
:1041600000000040B736FFFF020001020301090210
:104170002200010100803209040000010300010057
:104180000921110100012240000705810308000AEE
:10419000040309040803570053004B0020034800A0
:1041A0004900440020004100490020004B00450028
:1041B000590042004F0041005200440012033200F7
:1041C000300032003600300034003200320000058A
:1041D000010906A101050719E029E7150025017568
:1041E00001950881029501750881030508190129C7
:1041F0000595057501910295017503910395067565
:1042000008150026FF000507190029648100C00970
:104210002111010001224000696E69745F737563AA
:10422000636573730D000000604200080000002009
:104230008001000082020008804200088001002006
:10424000700E0000903B000800000000000000001D
:10425000000000000000000000000000000000005E
:104260006145127A008146693600080102FF0801A3
:104270006E000000000000000000000000000000D0
:0400000508000131BD
:00000001FF
