:020000040800F2
:100000004013002045010008C50E0008BD0E000881
:10001000C10E0008F9040008991200080000000051
:10002000000000000000000000000000F10E0008C9
:10003000FD04000800000000C70E0008F30E0008D1
:100040005F0100085F0100085F0100085F01000810
:100050005F0100085F0100085F0100085F01000800
:100060005F0100085F0100085F0100085F010008F0
:100070005F0100085F0100085F0100085F010008E0
:100080005F0100085F0100085F010008911200088D
:100090005F01000800000000000000005F01000890
:1000A0005F0100085F0100085F0100085F010008B0
:1000B0005F0100085F0100085F0100085F010008A0
:1000C0005F0100085F0100085F0100085F01000890
:1000D0005F0100085F0100085F0100085F01000880
:1000E0005F0100085F010008000000005F010008D8
:1000F0005F0100085F0100085F0100085F01000860
:100100005F0100085F0100085F0100085F0100084F
:100110005F0100085F0100085F0100085F0100083F
:100120005F0100085F0100085F0100085F0100082F
:10013000DFF80CD000F03CF80048004761150008DB
:10014000401300200648804706480047FEE7FEE7C8
:10015000FEE7FEE7FEE7FEE7FEE7FEE7FEE7FEE777
:10016000FD0E00083101000840EA01039B0703D09F
:1001700009E008C9121F08C0042AFAD203E011F8E6
:10018000013B00F8013B521EF9D27047D2B201E0A8
:1001900000F8012B491EFBD270470022F6E710B58C
:1001A00013460A4604461946FFF7F0FF204610BDE5
:1001B000064C074D06E0E06840F0010394E80700B4
:1001C00098471034AC42F6D3FFF7B6FF202700085B
:1001D0004027000830B58C1810F8012B12F00F03DF
:1001E00001D110F8013B120906D110F8012B03E0F0
:1001F00010F8015B01F8015B5B1EF9D101E001F829
:10020000013B521EFBD1A142E6D3002030BD00BF0E
:10021000FEE710B500F02AFA10BD000070B5C2B0BC
:100220004822734930A8FFF79FFF48211EA8FFF717
:10023000B4FF28226E49483114A8FFF795FF282201
:100240006B4970310AA8FFF78FFF28216846FFF736
:10025000A4FF002400260025664867498860674897
:1002600088606748C8606748C86067486749086031
:1002700067486149C1F88C0200BF16E0032600BF41
:1002800030A850F824000568E84380B2B0EB154F61
:1002900003D11EA840F8245002E0701E061EEFD1C4
:1002A00000BF0EB9FFF7B5FF641C122CE6D31E98F1
:1002B000C0F30B001F99C1F30B0140EA014000900D
:1002C0002098C0B20190219800F00F00229901F00F
:1002D0001F0140EA014002902398C0F30A002499CC
:1002E000C1F30C0140EA014003902598C0F30A00D5
:1002F0002699C1F30A0140EA01400490279800F0D2
:100300003F00289901F03F0140EA014005902998FB
:1003100000F03F000690DDE92A0161F31F400790DD
:10032000DDE92C0161F31F4008902E98C0F30B000B
:100330002F99C1F30B0140EA0140099000241BE012
:1003400014A850F8240005685DF824100AA850F895
:100350002400284081420ED014A850F824000068E0
:100360000AA951F8241088435DF82410084314A901
:1003700051F824100860641C0A2CE1D323488C38FF
:10038000006840F001001C49C1F8000200BF00BF36
:1003900000BF00BF00BF00BF00BF00BF00BF00BF65
:1003A0001548D0F8000220F001001349C1F80002FE
:1003B00000240EE014A850F8240005685DF824100D
:1003C0000AA850F824002840814201D0FFF721FFFD
:1003D000641C0A2CEED30848406940F0804006496E
:1003E00048610846406940F00040486142B070BD35
:1003F000C82500082301674500200240AB89EFCDE6
:100400003B2A19087F6E5D4C51407F5D8C22024073
:100410006327CE4600B591B02C2106A8FFF7BDFE9C
:10042000142101A8FFF7B9FE1F2006904FF4803079
:1004300007904FF44070089010200C9001200B9012
:100440000020099010200A9000200D9002200E90AC
:10045000C1030F914FF44021109106A800F054FA07
:1004600008B1FFF7D4FE0F20019002200290002077
:10047000039004900590042101A800F00DF908B143
:10048000FFF7C5FE11B000BD08B500BF194880696F
:1004900040F00100174988610846806900F00100BA
:1004A000009000BF00BF0846806A40F000408862AC
:1004B00000BF0846C06940F40000C8610846C06932
:1004C00000F40000009000BF00BF01F003F813200B
:1004D00000280DDB00BF00BF00F01F02012191408A
:1004E0004209920002F1E022C2F8001100BF00BFF1
:1004F00000BF08BD0010024000BFFEE770470000CB
:10050000014800687047000014000020034800689C
:100510000349097808440149086070471400002025
:100520001C00002010B5042000F08CF8072000F01B
:1005300005F800F029F8002010BD000070B5044651
:100540000E4800784FF47A71B1FBF0F00C4909685D
:10055000B1FBF0F5284600F097FC08B1012070BD12
:10056000082C07D200222146501E00F02DF8054825
:10057000046001E00120F2E70020F0E71C00002009
:10058000000000201800002008B500BF0D48806959
:1005900040F001000B4988610846806900F00100C5
:1005A000009000BF00BF00BF0846C06940F0805007
:1005B000C8610846C06900F08050009000BF00BFCD
:1005C00008BD0000001002402DE9F05F80460D4696
:1005D0001646002700F062FE074639462A46334693
:1005E00001F00700C0F1070ABAF1030F02D94FF07A
:1005F000030A01E0C0F1070AD14600F1030ABAF18B
:10060000070F02D24FF0000A01E0A0F1040AD4461D
:100610004FF0010A0AFA09FAAAF1010A0AEA020AE3
:100620000AFA0CFA4FF0010B0BFA0CFBABF1010BC1
:100630000BEA030B4AEA0B042146404600F036FE63
:10064000BDE8F09F00BF00F00702064B19684FF6A7
:10065000FF031940044B0B4343EA0221014B19608D
:1006600000BF70470CED00E00000FA0500BFBFF3CB
:100670004F8F0748006800F4E06006490843001DFA
:1006800003490860BFF34F8F00BF00BF00BFFDE705
:100690000CED00E00000FA0570B504460D460CB9FB
:1006A000012070BD5A48006800F00F00A8420ED229
:1006B0005748006820F00F00284355490860084655
:1006C000006800F00F00A84201D00120E9E720787F
:1006D00000F0020002281DD1207800F00400042858
:1006E00005D14C48406840F4E0604A4948602078B1
:1006F00000F00800082805D14648406840F46050E2
:10070000444948604348406820F0F000A16808432D
:1007100040494860207800F0010078B36068012803
:1007200006D13C480068C0F3404090B90120B8E7CA
:100730006068022806D13748006800F0807040B930
:100740000120AEE733480068C0F3400008B901203B
:10075000A7E73048406820F00300616808432D494E
:100760004860FFF7CDFE064609E0FFF7C9FE801B93
:1007700041F28831884202D9032092E707E02548F8
:10078000406800F00C006168B0EB810FEDD12048AB
:10079000006800F00F00A8420ED91D48006820F044
:1007A0000F0028431A4908600846006800F00F004F
:1007B000A84201D0012074E7207800F0040004284A
:1007C00007D11448406820F4E060E168084311490B
:1007D0004860207800F00800082808D10D484068DB
:1007E00020F46050216940EAC1000A49486000F0E5
:1007F00019F808494968C1F30311074A515CC84018
:100800000649086006480068FFF798FE002048E7A0
:100810000020024000100240B02500080000002027
:10082000180000202DE9F04192B0402222A102A838
:10083000FFF79AFC30A000680190002400250026F4
:100840000027A0462D48446804F00C0060B304283B
:1008500002D0082827D102E0DFF8A48027E004F4C2
:10086000701004F0C04140EAD11002A901EB9040A1
:10087000077804F44030B0F5803F04D004F44030F1
:10088000B0F5403F0AD11D484068C0F3404001A97F
:100890000D5C1B487843B0FBF5F602E0194807FBF6
:1008A00000F6B04603E000BFDFF8588000BF00BF8D
:1008B000404612B0BDE8F0810203040506070809AE
:1008C0000A0B0C0D0E0F1011121314151617181910
:1008D0001A1B1C1D1E1F2021222324252627282900
:1008E0002A2B2C2D2E2F30313233343536373839F0
:1008F0003A3B3C3D3E3F3F3F0102000000100240BA
:1009000000366E0100127A00F8B504460CB90120D9
:10091000F8BD207800F00100002878D0F648406843
:1009200000F00C00042813D0F348406800F00C00DD
:10093000082818D1F048406800F48030B0F5803FB6
:1009400006D0ED48406800F48030B0F5403F0AD151
:10095000E9480068C0F340400028DED06068002805
:1009600055D10120D4E76068B0F5803F25D100BFA4
:10097000E148006820F48030DF49086008460068DC
:1009800020F48020086000BFFFF7BAFD054606E0AE
:10099000FFF7B6FD401B642801D90320B8E7D6480D
:1009A0000068C0F340400028F2D1D348806B20F4A7
:1009B0004070A1680843D049886300BF6068B0F503
:1009C000803F06D1CC48006840F48030CA490860B6
:1009D00029E0606858B9C848006820F48030C649EA
:1009E00008600846006820F4802008601BE060680A
:1009F000B0F5A02F0CD1C048006840F48020BE495B
:100A000008600846006840F4803008600BE030E081
:100A1000B948006820F48030B7490860084600688B
:100A200020F48020086000BF606888B1FFF768FD8F
:100A3000054606E0FFF764FD401B642801D903204A
:100A400066E7AD480068C0F340400028F2D010E0EF
:100A5000FFF756FD054606E0FFF752FD401B6428F0
:100A600001D9032054E7A4480068C0F3404000289F
:100A7000F2D1207800F00200022854D19E4840684C
:100A800000F00C0098B19C48406800F00C00082869
:100A900017D19948406800F48030B0F5803F10D0FD
:100AA0009548406800F48030B0F5403F09D0924846
:100AB0000068C0F3400078B36069012833D001209A
:100AC00026E76069B8B18C48006840F001008A49A7
:100AD0000860FFF715FD054606E0FFF711FD401B16
:100AE000022801D9032013E783480068C0F34000BF
:100AF0000028F2D017E08048006820F001007E490D
:100B00000860FFF7FDFC054607E0FFF7F9FC401B16
:100B1000022802D90320FBE605E077480068C0F30D
:100B200040000028F1D1207800F01000102830D1CA
:100B3000A069B8B17048806A40F010006E498862C0
:100B4000FFF7DEFC054606E0FFF7DAFC401B022853
:100B500001D90320DCE66848806AC0F34010002811
:100B6000F2D016E06448806A20F010006249886282
:100B7000FFF7C6FC054606E0FFF7C2FC401B022853
:100B800001D90320C4E65C48806AC0F34010002805
:100B9000F2D1207800F00800082833D1E069D0B104
:100BA0005548406A40F0010053494862FFF7A8FCED
:100BB000054606E0FFF7A4FC401B022801D90320EC
:100BC000A6E64D48406AC0F340000028F2D001205C
:100BD00000F07AF916E04848406A20F001004649E2
:100BE0004862FFF78DFC054606E0FFF789FC401BD5
:100BF000022801D903208BE63F48406AC0F3400039
:100C00000028F2D1207800F00400042878D10027D1
:100C10003948C06900F0805070B900BF3648C069DB
:100C200040F080503449C8610846C06900F08050E7
:100C3000009000BF00BF01273048006800F48070BA
:100C4000B0B92E48006840F480702C490860FFF766
:100C500057FC054606E0FFF753FC401B642801D90A
:100C6000032055E62548006800F480700028F2D083
:100C7000E068012827D100BF1F48006A20F001006A
:100C80001D4908620846006A20F00400086200BF9F
:100C9000FFF736FC054608E0FFF732FC401B41F247
:100CA0008831884201D9032032E61348006AC0F334
:100CB00040000028F0D11048006A20F01800216997
:100CC00008430D49086200BFE068012806D10A48C0
:100CD000006A40F00100084908622CE0E06880B931
:100CE0000548006A20F00100034908620846006ACE
:100CF00020F0040008621EE0001002400070004076
:100D00004CE0E06805280BD15C48006A40F0040024
:100D10005A4908620846006A40F0010008620AE089
:100D20005648006A20F00100544908620846006AEB
:100D300020F00400086200BFE06898B1FFF7E0FB14
:100D4000054608E0FFF7DCFB401B41F28831884292
:100D500001D90320DCE54948006AC0F340000028BF
:100D6000F0D012E0FFF7CCFB054608E0FFF7C8FB28
:100D7000401B41F28831884201D90320C8E53F4831
:100D8000006AC0F340000028F0D1012F05D13B4894
:100D9000C06920F080503949C86100BF206A90B313
:100DA0003648406800F00C00082853D0206A02281A
:100DB00038D13248006820F0807030490860FFF771
:100DC0009FFB054606E0FFF79BFB401B022801D96D
:100DD00003209DE529480068C0F340600028F2D157
:100DE000D4E90901084325494968254A11400843C7
:100DF000224948600846006840F080700860FFF7AC
:100E00007FFB054607E037E0FFF77AFB401B02282F
:100E100001D903207CE519480068C0F34060002830
:100E2000F2D029E01548006820F08070134908606E
:100E3000FFF766FB054606E0FFF762FB401B022852
:100E400001D9032064E50D480068C0F34060002824
:100E5000F2D111E0206A012800D159E5074846681F
:100E600006F48031606A814204D106483040A16AAC
:100E7000884201D001204BE5002049E500100240E6
:100E8000FFFFC09F00003C6070B504462546681E09
:100E9000B0F1807F01D301200FE0681E4FF0E02108
:100EA000486107214FF0FF3000F000FA00204FF0BA
:100EB000E021886107200861002070BD00BFFEE7C7
:100EC00000BFFEE77047704708B508490968C908C0
:100ED0004FF47A72B1FBF2F14143009100BF00BFC1
:100EE00000994A1E00920029F9D108BD0000002097
:100EF000704710B5FFF70AFB10BD000010B5FFF7F3
:100F00008DF90648006840F47000044908604FF00D
:100F1000006002498039086010BD000088ED00E0E3
:100F20002DE9F047D74890F80080801C0578401ED6
:100F3000077800F01FFB824608F00400D0B14FF4A0
:100F4000C071D148FFF729F94020CF49486000F02F
:100F5000D1FFCC48C01E007840F00100C949C91E2D
:100F600008700120C749891D08700020491E0870BB
:100F7000C649087008F0020008B100F0DFFF08F071
:100F8000010008B100F0E0FFBE48801D0078054078
:100F900005F0010030B1002000F018FB00F0AAF9C4
:100FA00025F001050124E1E00120A04028400028AF
:100FB0007ED0204600F00AFBB2481130007800F0E5
:100FC000040038B1AF481130007820F00400AD497A
:100FD0001131087004EB8401AB48283000EB81002C
:100FE00004EB8402C168A848283030F8220081420E
:100FF0003FD904EB8401A448283000EB810004EBC6
:1010000084028168A048283030F82200014404EBB3
:1010100084029D48283000EB8200816004EB84014B
:101020009948283000EB810004EB8402016996485E
:10103000283030F82200014404EB84029248283022
:1010400000EB8200016104EB84018F48283000EB43
:10105000810004EB8402C1688B48283030F82200FC
:10106000091A04EB84028848283000EB8200C16032
:1010700035E004EB84018448283000EB810004EB68
:10108000840281688048283000EB8200C0680144F7
:1010900004EB84027C48283000EB8200816004EB82
:1010A00084017948283000EB810004EB840200E0E1
:1010B0005AE001697448283000EB8200C06801449E
:1010C00004EB84027048283000EB820001610021AB
:1010D00004EB84026C48283000EB8200C16004EB12
:1010E00084016948283000EB8100C06858B904EBDE
:1010F0008403654A283202EB830244F080001169C0
:1011000000F070FE2DE004EB84015F48283000EB16
:10111000810004EB8402C1685B48283030F822006B
:10112000814207D204EB84015748283000EB81004C
:10113000C06805E004EB84015348283030F82100F2
:101140001FFA80F904EB84024F48283000EB82003C
:101150004A468168204600F03FFA01204949113192
:1011600008700120A0408543601CC4B2002D7FF4AC
:101170001BAF4448401D0078074001247AE001205D
:10118000A0403840002873D0204600F01FFA3D48A8
:101190001530007800F00100002866D0394818307A
:1011A000068804EB84023848C83000EB82003246DF
:1011B0008168204600F0F6F904EB84013248C8301B
:1011C00000EB81008068811904EB84022E48C8304E
:1011D00000EB8200816004EB84012B48C83000EBF7
:1011E00081000069811904EB84022748C83000EBB4
:1011F0008200016104EB84012348C83000EB8100C8
:10120000C068811B04EB84021F48C83000EB8200D9
:10121000C16004EB84011C48C83030F82100B042A2
:1012200007DC04EB84011848C83000EB8100C0687B
:1012300098B91448401D00780121A1408843114904
:10124000491D087004EB84020F48C83000EB82008F
:101250000169204600F00CFE07E00A4815300078CE
:1012600020F001000749153108700120A040874394
:10127000601CC4B2002F82D1504600F0A7F9BDE82F
:10128000F0870000045C0040C00100203000002016
:1012900010B5FFF745FE10BD00BFFEE7024800682D
:1012A000C0F30220704700000CED00E010B50028EC
:1012B00004DB4A07130E054A135406E04A07140ECE
:1012C000034A00F00F031B1FD45410BD00E400E0DC
:1012D00018ED00E002E008C8121F08C1002AFAD188
:1012E00070477047002001E001C1121F002AFBD1A6
:1012F0007047000070B55048057805F0040048B10B
:101300004D48007820F004004B49087000204B49FC
:10131000087070BD05F0100028B1802046490870A3
:1013200000204649087046480078002807DD4448F8
:1013300000784149103908700020414908703F4841
:101340000078072875D2DFE800F00418743A6F704F
:101350006A0005F0010078B13748401C0478082C79
:1013600000D0D6E7082236492031002000F01AF9D3
:101370003348203000F0C2FC5BE03148406B30491C
:10138000098D88420DD92E48806B2D49098D014465
:101390002B488163406B2A49098D411A28484163D3
:1013A00007E02748816B406B014425488163002199
:1013B00041632348816B802000F014FD39E005F083
:1013C000010038B31C48401C04781D482246D0F860
:1013D000D010002000F0E6F81948D0F8D00001192C
:1013E0001748C0F8D010D0F8D80001191448C0F838
:1013F000D810B0F8C800A04206DC1148D0F8D810C8
:10140000D0F8D400814206D10D48D0F8D810002081
:1014100000F02EFD02E040200749087009E000219D
:10142000802000F0DFFC04E000BF002003490870CA
:1014300000BF00BF00BF6CE7105C00403000002020
:10144000C0010020F8B504460D461646277960789D
:101450000C2839D2DFE800F03806111A383838384D
:1014600038222C336088020AA178384601F093F8BC
:10147000296808700120306029E0A178384601F021
:1014800081F8296808700120306020E0384601F0BA
:101490007FF8296808700120306018E030780090EB
:1014A0006088020AA17838462B6801F07EF80EE0C9
:1014B0006088020AA178384601F070F807E0A17848
:1014C000384601F071F802E04FF0FF30F8BD00BF80
:1014D0000020FBE710B5094800F038F94023084A1E
:1014E0000849094800F09CFD044600F0B9F8074897
:1014F00000F09EF800F0A8FD10BD00006026000876
:10150000D5260008152700089401002008000020B7
:101510001CB50BA103C9CDE9000108226946812051
:1015200000F016FB0446002C00DA1CBD0120064921
:10153000087000BF044800780128FBD000BFF4E722
:10154000000004000000000004000020034890F8A0
:101550005D0108B1012070470020FCE73400002045
:10156000FEF7E0FFFEF756FFFEF78EFF01E0FFF704
:10157000CFFFFCE701480078704700000E5C004098
:1015800010B50346012006E0C200934201D80A804C
:1015900010BD441CE0B20828F6DD002008800120C0
:1015A000F6E7000070B503460C461046064E06EB03
:1015B000830538B104E02E7804F8016B461EB0B202
:1015C0000028F8D170BD0000205C0040014908707F
:1015D000704700000E5C004070B503460C46104694
:1015E000064E06EB830538B104E014F8016B2E704B
:1015F000461EB0B20028F8D170BD0000205C00404B
:1016000010B500F013F80020FFF7E0FF00200649B6
:10161000087007200449083108700120891C0870EF
:101620000020491E087010BD005C0040704700009B
:10163000017801F0800139B1017801F07F03074999
:10164000426841F8232007E0017801F07F03034955
:101650002031426841F823207047000050010020EB
:1016600010B50C4991F85E1180F820100A4B014624
:101670001A4600E012681468002CFBD111600C605F
:1016800000BF044991F85E11491C024A82F85E11BC
:1016900010BD000034000020200000202DE9F041A2
:1016A00006460F460748046807E02546286918B132
:1016B000394630462A6990472468002CF5D1BDE8A8
:1016C000F0810000200000202DE9F04105460F4682
:1016D0009046287800F00300012815D119480468C5
:1016E0000FE02646706858B196F8200029798842A4
:1016F00006D142463946284673689847BDE8F081CE
:101700002468002CEDD119E0287800F003000228AD
:1017100014D10C4804680FE02646B06858B196F81A
:101720002000A988B0EB112F05D142463946284642
:10173000B3689847E2E72468002CEDD14FF0FF3002
:10174000DCE70000200000207047000003498861AA
:101750000021024A82F85E11704700003400002028
:101760000020014908707047310000200120014924
:10177000087070473100002070B5044624F08005E1
:10178000FFF7F8FE06462846FFF720FF04F080002A
:10179000A8B935B91748007820F004001549087039
:1017A00022E014480930007820F060001149093126
:1017B00008700846007840F08000087014E035B9E1
:1017C0000C48007820F004000A4908700CE0094831
:1017D000401D007820F030000649491D0870084679
:1017E000007840F0400008703046FFF7EFFE002020
:1017F00070BD0000105C00400146002070470000F2
:101800002DE9F04105460C4625F08006FFF7B2FEB3
:1018100007463046FFF7DAFE05F0800048B916B9F2
:10182000002020700FE00B480078C0F340102070BB
:1018300009E016B90020207005E00648001F007876
:10184000C0F3001020703846FFF7C0FE0020BDE84E
:10185000F0810000195C00402DE9F84304460020A7
:1018600000908046207820F0800500270026BDB932
:1018700040206349A1F8C8000021614880F8CA10DF
:10188000012180F8CC1040205D49088500215C488A
:1018900080F82A10012180F82C100020BDE8F88380
:1018A000072D04DD00BF00BF4FF0FF30F6E7FFF764
:1018B00061FE81462846FFF789FE207800F080000F
:1018C000002849D1618805EB85024D48C83020F8D1
:1018D0002210617805EB850200EB82008170012106
:1018E00005EB85024648C83000EB8200017107F025
:1018F000020000B1802607F0080010B146F0300663
:1019000004E007F0040008B146F0200660780128E2
:1019100001D146F040063B490E70481C007800F0AB
:10192000010018B19020491C087003E0802035495F
:10193000491C087060886946FFF722FE1FFA80F88C
:101940003049891C81F800802D484068BDF800109E
:1019500008442B4948604EE0618805EB8502284821
:10196000283020F82210617805EB850200EB820018
:101970008170012105EB85022148283000EB8200AF
:10198000017120480E380078A94008431D490E39DE
:10199000087007F0010008B146F0800607F00C005F
:1019A00008B146F010066078012801D146F04006E3
:1019B00046F020061349091F0E70481C007800F0FD
:1019C000020018B14820491C087003E040200D496E
:1019D000C91E087060886946FFF7D2FD1FFA80F8BB
:1019E0000849891E81F8008005484068BDF800104C
:1019F0000844034948604846FFF7E8FD00204DE7EA
:101A0000C0010020185C004070B5044624F0800539
:101A1000FFF7B0FD06462846FFF7D8FD04F080002A
:101A200098B94DB90720154908701548007840F05D
:101A30006000134908701BE011480930007840F03D
:101A400020000F490931087012E04DB907200B49F9
:101A500008700B48007840F060000949087007E002
:101A60000748401D007840F010000549491D0870E6
:101A70003046FFF7ABFD002070BD000030000020B5
:101A8000105C00402DE9F04107460D46164627F050
:101A9000800425B91EB14FF0FF30BDE8F08104EBA2
:101AA0008401284800EB8100007910B96FF0010033
:101AB000F3E7FFF75FFD80462046FFF787FD04EB65
:101AC0008401204800EB8100856004EB84011D48FF
:101AD00000EB8100C660002104EB8402194800EB92
:101AE00082000161BCB91848007820B101280CD0EF
:101AF00006280FD10AE01548007840F0400013494D
:101B0000087003201049087004E000BF05200E494A
:101B1000087000BF10E00D48C01F00780121A140EF
:101B200008430A49C91F087008480930007820F0A6
:101B300001000649093108704046FFF747FD0020C3
:101B4000ABE700008802002030000020105C00405D
:101B50002DE9F04107460E46144627F0800526B9C8
:101B60001CB14FF0FF30BDE8F08105EB85015F4807
:101B700000EB8100007910B96FF00100F3E7FFF787
:101B8000F9FC80462846FFF721FD5948007800F00F
:101B9000010028B14046FFF719FD6FF00200E2E7AF
:101BA00005EB8501514800EB8100866005EB85015E
:101BB0004E4800EB8100C460002105EB85024B48D4
:101BC00000EB82000161002D70D14A48007820B1FD
:101BD000012834D0032867D15EE03CB9482044494D
:101BE000491F087004204349087027E040204049FD
:101BF000491F087005EB85013C4830F82100A042E0
:101C00000CD33D48007848B9A2B231462846FFF7C8
:101C1000E3FC0A203649491F08700CE005EB8501FA
:101C2000324830F8212031462846FFF7D5FC022003
:101C30002F49491F087001202E49087034E04CB923
:101C4000FFF78EFD0A202A49491F087006202949FE
:101C5000087020E005EB8501244830F82100A042FF
:101C60000CD32548007848B9A2B231462846FFF780
:101C7000B3FC0A201E49491F08700CE005EB8501E2
:101C80001A4830F8212031462846FFF7A5FC0220EB
:101C90001749491F087007E048201549491F087077
:101CA00004201449087000BF1AE0FFE7ACB105EB4F
:101CB00085010E4830F82100A04209D205EB8501CC
:101CC0000A4830F8212031462846FFF785FC04E019
:101CD000A2B231462846FFF77FFC01200449087074
:101CE0004046FFF773FC00203DE70000E8010020BC
:101CF000155C0040300000203100002070B5054622
:101D0000374C2868206068686060E088B0F5807FA4
:101D100009DD207800F0800028B900BF00BF8020D6
:101D2000FFF772FE70BD2E481C302D498860E08898
:101D3000C860E088086100200875E08850B120780C
:101D400000F0800030B9E288084681680020FFF783
:101D500099FEE7E7224A1032A2F10801204600F07E
:101D60002BFA18B98020FFF74FFEDBE71C4800690B
:101D7000E188884202D21A48006900E0E0881849E8
:101D8000C8600846007A00F0030088B10846C068C1
:101D9000B0F5807F02D900BF00BFC3E71048C2681A
:101DA00081681C30FEF7E0F90D481C300C49886052
:101DB000E0880B490969884209D90948007C00F08C
:101DC0003F0020B9012006490875FFF7CFFC044801
:101DD000C26881688020FFF7BBFE00BFA2E7000059
:101DE0003400002070B504460D46802C2DD11E4EC7
:101DF000304680682844314688600846C068401BE9
:101E0000C8600846C06830B10846C2688168802052
:101E1000FFF79EFE18E01448007D012808D100203D
:101E200011490875002211468020FFF791FE0BE052
:101E3000F08848B1307800F08000802804D100227A
:101E400011461046FFF71EFE0DE004F07F01074823
:101E500050F8210038B104F07F01044850F82120E7
:101E600029462046904770BD3400002050010020D4
:101E700070B504460D4644BB1C4E2DB330468068F9
:101E80002844314688600846C068401BC860084640
:101E9000C06898B901F11C008860A0F10C020831FB
:101EA000304600F089F918B98020FFF7ADFD70BD0C
:101EB000002211468020FFF74BFE05E00B48C26868
:101EC00081680020FFF7DEFD0DE004F07F01084887
:101ED00050F8210038B104F07F01054850F8212066
:101EE00029462046904700BFE1E70000340000206B
:101EF0007001002008B5002000F0C4F800200E4951
:101F000081F85C0181F85D014020ADF802000020FD
:101F10008DF8010080208DF800006846FFF79CFCDA
:101F200000208DF800006846FFF796FC0021012094
:101F3000FFF7B4FB08BD00003400002010B50021FD
:101F40000620FFF7ABFB10BD10B500210520FFF701
:101F5000A5FB10BD2DE9F04105460C4613460021B6
:101F6000002600228C460027290AEEB2032911D14F
:101F7000EE2E0FD12748006810B90020BDE8F0818F
:101F800024480068006820602248006800791860D2
:101F90000120F3E70F290ED11F48006808B900207F
:101FA000ECE71D480068006820601B480068406836
:101FB00018600120E2E7042902D0052900D001D9E8
:101FC0000020DBE7154882694FF0000C0AE05078EA
:101FD000884205D1B44501D1012706E00CF1010C7E
:101FE0001078024410780028F1D100BF77B1226048
:101FF000022901D0072906D1907892F8038040EA9F
:102000000820186004E01078186001E000BF00BFED
:102010003846B3E7240000202C00002034000020C4
:1020200010B5054C446000248460C46004614161C3
:102030008261C36110BD0000451400080022014BFD
:102040001A7070470400002010B5FFF7D9FA10BDD0
:10205000704738B50446A0788DF80000A088C0F31A
:102060000A00ADF80200E07800F003008DF80100EE
:102070009DF80000FFF7C0FB08B9012038BD002023
:10208000FCE70000014611B90020034A1070034824
:102090000170002070470000005C0040C00100207B
:1020A0002DE9F04705460E46174884694FF0FF08B2
:1020B000FF274FF0000921E06078022804D00428AF
:1020C00008D0052816D108E06779AF4201D14FF05A
:1020D000010910E094F803800DE0AF4201D1B04552
:1020E00003D02046FFF7B5FF05E0204600F00EF8CC
:1020F000814600E000BF00BF20780444207800281B
:10210000DAD14846BDE8F0873400002038B50446EF
:10211000A0788DF80000A088C0F30A00ADF8020096
:10212000E07800F003008DF801006846FFF794FBAB
:1021300008B9012038BD0020FCE700002DE9F05F60
:1021400005460E461B4884694FF0000A4FF0FF0811
:10215000C1464FF0000B22E06078042802D0052829
:1021600019D109E094F8038094F80290A94502D1AE
:10217000B04500D1A2460FE0A9450BD12746B04596
:1021800004D03846FFF765FF834603E03846FFF783
:10219000BDFF834600E000BF00BF207804442078E4
:1021A0000028D9D151460820FFF778FA5846BDE8F3
:1021B000F09F00003400002070B504460D4616461E
:1021C000207800F0600020B1202811D040282DD1C7
:1021D0001DE032462946204600F02DF8002806DA98
:1021E00000BF00BF2046FFF733FF002070BD1FE097
:1021F000324629462046FFF767FA002806DA00BF74
:1022000000BF2046FFF724FF0020EFE710E0324632
:102210002946204600F052F9002806DA00BF00BF28
:102220002046FFF715FF0020E0E701E00020DDE792
:1022300000BF0120DAE72DE9F04104460D461646BD
:102240000027207800F0030020B101280BD00228DD
:102250001BD111E032462946204600F01DF808B98E
:102260004FF0FF3714E032462946204600F0BEF812
:1022700008B94FF0FF370BE032462946204600F000
:102280006DF808B94FF0FF3702E04FF0FF3700BF9D
:1022900000BF3846BDE8F0812DE9F04107460E4603
:1022A00015467C884FF0010878780C284BD2DFE87F
:1022B00000F0060E4A0F4A151B22252A4647002029
:1022C0003168087031684870022028603EE000BF25
:1022D000012C00D000BF0020286037E0E0B2FFF7FB
:1022E000D1FE0020286031E02A4631462046FFF723
:1022F00031FE80462AE04FF0000827E015483060A4
:102300000120286022E0E4B220460021FFF7C8FE49
:1023100030B9114981F85D41002081F85C010BE082
:102320000D4981F85D41012081F85C010021072001
:10233000FFF7B4F9FFF708FA0020286006E000BFB5
:102340004FF0000802E04FF0000800BF00BF404619
:10235000BDE8F08191010020340000202DE9F84310
:1023600004460E46154627794FF00108FFF7EEF8B0
:1023700010B90020BDE8F883607830B1012812D090
:1023800003281DD00C282BD127E069463846FFF7DB
:1023900037FA9DF8000031680870002031684870F5
:1023A000022028601FE0608828B900BF00BF3846BF
:1023B000FFF7E2F917E04FF000080020286012E074
:1023C000608828B900BF00BF3846FFF71DFB01E059
:1023D0004FF000080020286005E04FF0000802E000
:1023E0004FF0000800BF00BF4046C3E72DE9F047AB
:1023F00004460D4616466088070A94F804804FF09C
:102400000109FFF7A3F810B90020BDE8F087607854
:102410000C284BD2DFE800F006394A3A4A4A0E4A05
:102420004A4A3D4300202968087029684870022004
:1024300030603EE0212F11D11F4801680BE00A46B1
:1024400092F82000404505D150692860092030608D
:102450000120DAE709680029F1D113E0222F11D118
:10246000154801680BE00A4692F82000404505D166
:1024700090692860D06930600120C6E709680029AA
:10248000F1D100BF4FF0000913E000BF4FF0000989
:102490000FE00020296808700120306009E0A17871
:1024A0002079FFF74BFE0020306002E04FF000097A
:1024B00000BF00BF4846A8E7200000202DE9F041FA
:1024C00004460D4616462C48006828B360782A4911
:1024D0000968497988423AD1A088042802D00528A1
:1024E00015D10AE024480068806828602248006806
:1024F000808930600020BDE8F0811F4800680069D5
:1025000028601D480068808A30600020F3E700BF23
:1025100000BF4FF0FF30EEE718480068B8B16078B0
:10252000164909688979884211D1A088072809D1FC
:102530001248006800682860104800688088306091
:102540000020D8E700BF00BF4FF0FF30D3E70C48B2
:1025500007680DE0B846D8F80C0040B1324629466D
:102560002046D8F80C30984708B90020C3E73F68E8
:10257000002FEFD1781EBEE72400002028000020A5
:10258000200000200246014800787047100000201B
:10259000014600207047034600207047014B1A7027
:1025A0007047000010000020704710B5029C10BD5D
:1025B00000000000000000000102030406070809F3
:1025C00000000000010203041051FF1F1451FF1FFF
:1025D0001851FF1F4851FF1F4C51FF1F0056FF1F8E
:1025E0000456FF1F0052FF1F0452FF1F4051FF1FE0
:1025F0004451FF1F0852FF1F2051FF1F2451FF1F8E
:102600002851FF1F2C51FF1F3051FF1F3451FF1F56
:10261000082202400C2202402022024028220240CE
:10262000242202401C2202402C220240102202409E
:102630001422024018220240FF0FFF0FFF0000008B
:102640000F001F00FF07FF1FFF07FF073F003F00AE
:102650003F000000FFFFFFFFFFFFFFFFFF0FFF0F27
:102660001201000200000040B736FFFF0200010225
:102670000301090222000101008032090400000167
:10268000030001000921110100012240000705811A
:102690000308000A040309040A0350005500590006
:1026A00041001C0350005500590041002000480023
:1026B000490044002000440045004D004F0016032F
:1026C000320030003200320031003200330034007A
:1026D000350036000005010906A101050719E029AA
:1026E000E71500250175019508810295017508819E
:1026F00003050819012905950575019102950175D4
:1027000003910395067508150026FF0005071900BB
:1027100029648100C009211101000122400000004C
:10272000402700080000002094010000D4010008A8
:102730005427000894010020AC110000E4120008A6
:102740006400127A4281953D200008420802FF0190
:04275000017A00000A
:0400000508000131BD
:00000001FF
